{
  "address": "0xC55698C5F8845848796c48bC15221101dB8482C6",
  "abi": [
    {
      "inputs": [],
      "stateMutability": "nonpayable",
      "type": "constructor"
    },
    {
      "inputs": [],
      "name": "AlreadyInitialized",
      "type": "error"
    },
    {
      "inputs": [],
      "name": "InvalidEarlyWithdrawalTax",
      "type": "error"
    },
    {
      "inputs": [],
      "name": "InvalidSnapshotWindowMinLength",
      "type": "error"
    },
    {
      "inputs": [],
      "name": "InvalidTokenState",
      "type": "error"
    },
    {
      "inputs": [],
      "name": "MsgSenderIsNotTheDeployer",
      "type": "error"
    },
    {
      "inputs": [],
      "name": "MsgSenderIsNotTheOwner",
      "type": "error"
    },
    {
      "inputs": [],
      "name": "MsgSenderIsNotTheTokenAuction",
      "type": "error"
    },
    {
      "inputs": [],
      "name": "MsgSenderIsNotTheTokenDistributor",
      "type": "error"
    },
    {
      "inputs": [],
      "name": "MsgSenderIsNotTheTokenOwner",
      "type": "error"
    },
    {
      "inputs": [],
      "name": "NoTokenRewardsForWithdrawn",
      "type": "error"
    },
    {
      "inputs": [],
      "name": "OwnerIsTheZeroAddress",
      "type": "error"
    },
    {
      "inputs": [],
      "name": "PaymentTokenIsTheZeroAddress",
      "type": "error"
    },
    {
      "inputs": [],
      "name": "TokenAuctionIsTheZeroAddress",
      "type": "error"
    },
    {
      "inputs": [],
      "name": "TokenDistributorIsTheZeroAddress",
      "type": "error"
    },
    {
      "inputs": [],
      "name": "TokenRewardsWithdrawalIsLocked",
      "type": "error"
    },
    {
      "anonymous": false,
      "inputs": [
        {
          "indexed": true,
          "internalType": "address",
          "name": "owner",
          "type": "address"
        },
        {
          "indexed": true,
          "internalType": "address",
          "name": "approved",
          "type": "address"
        },
        {
          "indexed": true,
          "internalType": "uint256",
          "name": "tokenId",
          "type": "uint256"
        }
      ],
      "name": "Approval",
      "type": "event"
    },
    {
      "anonymous": false,
      "inputs": [
        {
          "indexed": true,
          "internalType": "address",
          "name": "owner",
          "type": "address"
        },
        {
          "indexed": true,
          "internalType": "address",
          "name": "operator",
          "type": "address"
        },
        {
          "indexed": false,
          "internalType": "bool",
          "name": "approved",
          "type": "bool"
        }
      ],
      "name": "ApprovalForAll",
      "type": "event"
    },
    {
      "anonymous": false,
      "inputs": [
        {
          "indexed": false,
          "internalType": "address",
          "name": "paymentToken",
          "type": "address"
        },
        {
          "indexed": false,
          "internalType": "address",
          "name": "tokenAuction",
          "type": "address"
        },
        {
          "indexed": false,
          "internalType": "address",
          "name": "tokenDistributor",
          "type": "address"
        },
        {
          "indexed": false,
          "internalType": "uint256",
          "name": "snapshotBaseTimestamp",
          "type": "uint256"
        },
        {
          "indexed": false,
          "internalType": "uint256",
          "name": "snapshotWindowMinLength",
          "type": "uint256"
        },
        {
          "indexed": false,
          "internalType": "uint256",
          "name": "earlyWithdrawalTax",
          "type": "uint256"
        },
        {
          "indexed": false,
          "internalType": "string",
          "name": "tokenBaseURI",
          "type": "string"
        }
      ],
      "name": "Initialized",
      "type": "event"
    },
    {
      "anonymous": false,
      "inputs": [
        {
          "indexed": false,
          "internalType": "address",
          "name": "owner",
          "type": "address"
        }
      ],
      "name": "OwnerUpdated",
      "type": "event"
    },
    {
      "anonymous": false,
      "inputs": [
        {
          "indexed": false,
          "internalType": "string",
          "name": "tokenBaseURI",
          "type": "string"
        }
      ],
      "name": "TokenBaseURIUpdated",
      "type": "event"
    },
    {
      "anonymous": false,
      "inputs": [
        {
          "indexed": false,
          "internalType": "uint256",
          "name": "tokenId",
          "type": "uint256"
        },
        {
          "indexed": false,
          "internalType": "uint256",
          "name": "withdrawal",
          "type": "uint256"
        }
      ],
      "name": "TokenBurned",
      "type": "event"
    },
    {
      "anonymous": false,
      "inputs": [
        {
          "indexed": false,
          "internalType": "uint256",
          "name": "tokenId",
          "type": "uint256"
        },
        {
          "indexed": false,
          "internalType": "uint256",
          "name": "deposit",
          "type": "uint256"
        },
        {
          "indexed": false,
          "internalType": "uint256",
          "name": "weight",
          "type": "uint256"
        }
      ],
      "name": "TokenMarkedAsBurned",
      "type": "event"
    },
    {
      "anonymous": false,
      "inputs": [
        {
          "indexed": false,
          "internalType": "uint256",
          "name": "tokenId",
          "type": "uint256"
        },
        {
          "indexed": false,
          "internalType": "uint256",
          "name": "snapshotId",
          "type": "uint256"
        },
        {
          "indexed": false,
          "internalType": "uint256",
          "name": "deposit",
          "type": "uint256"
        },
        {
          "indexed": false,
          "internalType": "uint256",
          "name": "rewards",
          "type": "uint256"
        },
        {
          "indexed": false,
          "internalType": "uint256",
          "name": "weight",
          "type": "uint256"
        },
        {
          "indexed": false,
          "internalType": "uint256",
          "name": "unlockWithdrawalAt",
          "type": "uint256"
        }
      ],
      "name": "TokenMinted",
      "type": "event"
    },
    {
      "anonymous": false,
      "inputs": [
        {
          "indexed": false,
          "internalType": "uint256",
          "name": "tokenId",
          "type": "uint256"
        },
        {
          "indexed": false,
          "internalType": "uint256",
          "name": "snapshotId",
          "type": "uint256"
        },
        {
          "indexed": false,
          "internalType": "uint256",
          "name": "deposit",
          "type": "uint256"
        },
        {
          "indexed": false,
          "internalType": "uint256",
          "name": "weight",
          "type": "uint256"
        },
        {
          "indexed": false,
          "internalType": "uint256",
          "name": "unlockWithdrawalAt",
          "type": "uint256"
        }
      ],
      "name": "TokenResurrected",
      "type": "event"
    },
    {
      "anonymous": false,
      "inputs": [
        {
          "indexed": false,
          "internalType": "uint256",
          "name": "tokenId",
          "type": "uint256"
        },
        {
          "indexed": false,
          "internalType": "uint256",
          "name": "rewards",
          "type": "uint256"
        }
      ],
      "name": "TokenRewardsWithdrawn",
      "type": "event"
    },
    {
      "anonymous": false,
      "inputs": [
        {
          "indexed": true,
          "internalType": "address",
          "name": "from",
          "type": "address"
        },
        {
          "indexed": true,
          "internalType": "address",
          "name": "to",
          "type": "address"
        },
        {
          "indexed": true,
          "internalType": "uint256",
          "name": "tokenId",
          "type": "uint256"
        }
      ],
      "name": "Transfer",
      "type": "event"
    },
    {
      "inputs": [
        {
          "internalType": "address",
          "name": "to",
          "type": "address"
        },
        {
          "internalType": "uint256",
          "name": "tokenId",
          "type": "uint256"
        }
      ],
      "name": "approve",
      "outputs": [],
      "stateMutability": "nonpayable",
      "type": "function"
    },
    {
      "inputs": [
        {
          "internalType": "address",
          "name": "owner",
          "type": "address"
        }
      ],
      "name": "balanceOf",
      "outputs": [
        {
          "internalType": "uint256",
          "name": "",
          "type": "uint256"
        }
      ],
      "stateMutability": "view",
      "type": "function"
    },
    {
      "inputs": [
        {
          "internalType": "uint256",
          "name": "tokenId",
          "type": "uint256"
        }
      ],
      "name": "burnToken",
      "outputs": [],
      "stateMutability": "nonpayable",
      "type": "function"
    },
    {
      "inputs": [
        {
          "internalType": "uint256",
          "name": "timestamp",
          "type": "uint256"
        }
      ],
      "name": "computeSnapshotId",
      "outputs": [
        {
          "internalType": "uint256",
          "name": "",
          "type": "uint256"
        }
      ],
      "stateMutability": "view",
      "type": "function"
    },
    {
      "inputs": [
        {
          "internalType": "uint256",
          "name": "amount",
          "type": "uint256"
        }
      ],
      "name": "depositRewards",
      "outputs": [],
      "stateMutability": "nonpayable",
      "type": "function"
    },
    {
      "inputs": [
        {
          "internalType": "uint256",
          "name": "tokenId",
          "type": "uint256"
        }
      ],
      "name": "getApproved",
      "outputs": [
        {
          "internalType": "address",
          "name": "",
          "type": "address"
        }
      ],
      "stateMutability": "view",
      "type": "function"
    },
    {
      "inputs": [],
      "name": "getOwner",
      "outputs": [
        {
          "internalType": "address",
          "name": "",
          "type": "address"
        }
      ],
      "stateMutability": "view",
      "type": "function"
    },
    {
      "inputs": [
        {
          "internalType": "uint256",
          "name": "tokenId",
          "type": "uint256"
        }
      ],
      "name": "getRequiredTokenResurrectionDeposit",
      "outputs": [
        {
          "internalType": "uint256",
          "name": "result",
          "type": "uint256"
        }
      ],
      "stateMutability": "view",
      "type": "function"
    },
    {
      "inputs": [
        {
          "internalType": "uint256",
          "name": "snapshotId",
          "type": "uint256"
        }
      ],
      "name": "getSnapshot",
      "outputs": [
        {
          "components": [
            {
              "internalType": "uint256",
              "name": "index",
              "type": "uint256"
            },
            {
              "internalType": "uint256",
              "name": "weights",
              "type": "uint256"
            },
            {
              "internalType": "uint256",
              "name": "rewards",
              "type": "uint256"
            }
          ],
          "internalType": "struct MetaheroLoyaltyToken.Snapshot",
          "name": "",
          "type": "tuple"
        }
      ],
      "stateMutability": "view",
      "type": "function"
    },
    {
      "inputs": [],
      "name": "getSummary",
      "outputs": [
        {
          "internalType": "uint256",
          "name": "totalDeposits",
          "type": "uint256"
        },
        {
          "internalType": "uint256",
          "name": "totalRewards",
          "type": "uint256"
        },
        {
          "internalType": "uint256",
          "name": "earlyWithdrawalTax",
          "type": "uint256"
        }
      ],
      "stateMutability": "view",
      "type": "function"
    },
    {
      "inputs": [
        {
          "internalType": "uint256",
          "name": "tokenId",
          "type": "uint256"
        }
      ],
      "name": "getTokenSummary",
      "outputs": [
        {
          "internalType": "address",
          "name": "owner",
          "type": "address"
        },
        {
          "internalType": "uint256",
          "name": "deposit",
          "type": "uint256"
        },
        {
          "internalType": "uint256",
          "name": "rewards",
          "type": "uint256"
        },
        {
          "internalType": "uint256",
          "name": "unlockWithdrawalAt",
          "type": "uint256"
        }
      ],
      "stateMutability": "view",
      "type": "function"
    },
    {
      "inputs": [
        {
          "internalType": "address",
          "name": "paymentToken",
          "type": "address"
        },
        {
          "internalType": "address",
          "name": "tokenAuction",
          "type": "address"
        },
        {
          "internalType": "address",
          "name": "tokenDistributor",
          "type": "address"
        },
        {
          "internalType": "uint256",
          "name": "snapshotWindowMinLength",
          "type": "uint256"
        },
        {
          "internalType": "uint256",
          "name": "earlyWithdrawalTax",
          "type": "uint256"
        },
        {
          "internalType": "string",
          "name": "tokenBaseURI",
          "type": "string"
        }
      ],
      "name": "initialize",
      "outputs": [],
      "stateMutability": "nonpayable",
      "type": "function"
    },
    {
      "inputs": [],
      "name": "initialized",
      "outputs": [
        {
          "internalType": "bool",
          "name": "",
          "type": "bool"
        }
      ],
      "stateMutability": "view",
      "type": "function"
    },
    {
      "inputs": [
        {
          "internalType": "address",
          "name": "owner",
          "type": "address"
        },
        {
          "internalType": "address",
          "name": "operator",
          "type": "address"
        }
      ],
      "name": "isApprovedForAll",
      "outputs": [
        {
          "internalType": "bool",
          "name": "",
          "type": "bool"
        }
      ],
      "stateMutability": "view",
      "type": "function"
    },
    {
      "inputs": [
        {
          "internalType": "uint256",
          "name": "tokenId",
          "type": "uint256"
        },
        {
          "internalType": "uint256",
          "name": "deposit",
          "type": "uint256"
        },
        {
          "internalType": "uint256",
          "name": "weight",
          "type": "uint256"
        }
      ],
      "name": "markTokenAsBurned",
      "outputs": [],
      "stateMutability": "nonpayable",
      "type": "function"
    },
    {
      "inputs": [
        {
          "internalType": "address",
          "name": "owner",
          "type": "address"
        },
        {
          "internalType": "uint256",
          "name": "deposit",
          "type": "uint256"
        },
        {
          "internalType": "uint256",
          "name": "rewards",
          "type": "uint256"
        },
        {
          "internalType": "uint256",
          "name": "weight",
          "type": "uint256"
        },
        {
          "internalType": "uint256",
          "name": "unlockWithdrawalAt",
          "type": "uint256"
        }
      ],
      "name": "mintToken",
      "outputs": [
        {
          "internalType": "uint256",
          "name": "tokenId",
          "type": "uint256"
        }
      ],
      "stateMutability": "nonpayable",
      "type": "function"
    },
    {
      "inputs": [],
      "name": "name",
      "outputs": [
        {
          "internalType": "string",
          "name": "",
          "type": "string"
        }
      ],
      "stateMutability": "view",
      "type": "function"
    },
    {
      "inputs": [
        {
          "internalType": "uint256",
          "name": "tokenId",
          "type": "uint256"
        }
      ],
      "name": "ownerOf",
      "outputs": [
        {
          "internalType": "address",
          "name": "",
          "type": "address"
        }
      ],
      "stateMutability": "view",
      "type": "function"
    },
    {
      "inputs": [
        {
          "internalType": "address",
          "name": "owner",
          "type": "address"
        },
        {
          "internalType": "uint256",
          "name": "tokenId",
          "type": "uint256"
        },
        {
          "internalType": "uint256",
          "name": "unlockWithdrawalAt",
          "type": "uint256"
        }
      ],
      "name": "resurrectToken",
      "outputs": [],
      "stateMutability": "nonpayable",
      "type": "function"
    },
    {
      "inputs": [
        {
          "internalType": "address",
          "name": "from",
          "type": "address"
        },
        {
          "internalType": "address",
          "name": "to",
          "type": "address"
        },
        {
          "internalType": "uint256",
          "name": "tokenId",
          "type": "uint256"
        }
      ],
      "name": "safeTransferFrom",
      "outputs": [],
      "stateMutability": "nonpayable",
      "type": "function"
    },
    {
      "inputs": [
        {
          "internalType": "address",
          "name": "from",
          "type": "address"
        },
        {
          "internalType": "address",
          "name": "to",
          "type": "address"
        },
        {
          "internalType": "uint256",
          "name": "tokenId",
          "type": "uint256"
        },
        {
          "internalType": "bytes",
          "name": "_data",
          "type": "bytes"
        }
      ],
      "name": "safeTransferFrom",
      "outputs": [],
      "stateMutability": "nonpayable",
      "type": "function"
    },
    {
      "inputs": [
        {
          "internalType": "address",
          "name": "operator",
          "type": "address"
        },
        {
          "internalType": "bool",
          "name": "approved",
          "type": "bool"
        }
      ],
      "name": "setApprovalForAll",
      "outputs": [],
      "stateMutability": "nonpayable",
      "type": "function"
    },
    {
      "inputs": [
        {
          "internalType": "address",
          "name": "owner",
          "type": "address"
        }
      ],
      "name": "setOwner",
      "outputs": [],
      "stateMutability": "nonpayable",
      "type": "function"
    },
    {
      "inputs": [
        {
          "internalType": "string",
          "name": "tokenBaseURI",
          "type": "string"
        }
      ],
      "name": "setTokenBaseURI",
      "outputs": [],
      "stateMutability": "nonpayable",
      "type": "function"
    },
    {
      "inputs": [
        {
          "internalType": "bytes4",
          "name": "interfaceId",
          "type": "bytes4"
        }
      ],
      "name": "supportsInterface",
      "outputs": [
        {
          "internalType": "bool",
          "name": "",
          "type": "bool"
        }
      ],
      "stateMutability": "view",
      "type": "function"
    },
    {
      "inputs": [],
      "name": "symbol",
      "outputs": [
        {
          "internalType": "string",
          "name": "",
          "type": "string"
        }
      ],
      "stateMutability": "view",
      "type": "function"
    },
    {
      "inputs": [
        {
          "internalType": "uint256",
          "name": "index",
          "type": "uint256"
        }
      ],
      "name": "tokenByIndex",
      "outputs": [
        {
          "internalType": "uint256",
          "name": "",
          "type": "uint256"
        }
      ],
      "stateMutability": "view",
      "type": "function"
    },
    {
      "inputs": [
        {
          "internalType": "address",
          "name": "owner",
          "type": "address"
        },
        {
          "internalType": "uint256",
          "name": "index",
          "type": "uint256"
        }
      ],
      "name": "tokenOfOwnerByIndex",
      "outputs": [
        {
          "internalType": "uint256",
          "name": "",
          "type": "uint256"
        }
      ],
      "stateMutability": "view",
      "type": "function"
    },
    {
      "inputs": [
        {
          "internalType": "uint256",
          "name": "tokenId",
          "type": "uint256"
        }
      ],
      "name": "tokenURI",
      "outputs": [
        {
          "internalType": "string",
          "name": "result",
          "type": "string"
        }
      ],
      "stateMutability": "view",
      "type": "function"
    },
    {
      "inputs": [],
      "name": "totalSupply",
      "outputs": [
        {
          "internalType": "uint256",
          "name": "",
          "type": "uint256"
        }
      ],
      "stateMutability": "view",
      "type": "function"
    },
    {
      "inputs": [
        {
          "internalType": "address",
          "name": "from",
          "type": "address"
        },
        {
          "internalType": "address",
          "name": "to",
          "type": "address"
        },
        {
          "internalType": "uint256",
          "name": "tokenId",
          "type": "uint256"
        }
      ],
      "name": "transferFrom",
      "outputs": [],
      "stateMutability": "nonpayable",
      "type": "function"
    },
    {
      "inputs": [
        {
          "internalType": "uint256",
          "name": "tokenId",
          "type": "uint256"
        }
      ],
      "name": "withdrawTokenRewards",
      "outputs": [],
      "stateMutability": "nonpayable",
      "type": "function"
    }
  ],
  "transactionHash": "0x9b97d1420a13ea47d28a7aa94ac99bc5ba1ac2b5e6cc6f9d728137530720385d",
  "args": [],
  "numDeployments": 1,
  "solcInputHash": "2d532362db83d3ab9bf117d21ceb4b27",
  "bytecode": "0x60806040523480156200001157600080fd5b50604080518082018252601081526f4d6574616865726f204c6f79616c747960801b60208083019182528351808501909452600a8452694c4f59414c2d4845524f60b01b9084015260008054336001600160a01b0319918216811790925560018054909116909117905581519192916200008e91600291620000ad565b508051620000a4906003906020840190620000ad565b50505062000190565b828054620000bb9062000153565b90600052602060002090601f016020900481019282620000df57600085556200012a565b82601f10620000fa57805160ff19168380011785556200012a565b828001600101855582156200012a579182015b828111156200012a5782518255916020019190600101906200010d565b50620001389291506200013c565b5090565b5b808211156200013857600081556001016200013d565b600181811c908216806200016857607f821691505b602082108114156200018a57634e487b7160e01b600052602260045260246000fd5b50919050565b612cc280620001a06000396000f3fe608060405234801561001057600080fd5b50600436106101b05760003560e01c80637d061c50116100ef578063b88d4fde11610092578063b88d4fde146103c6578063bcafaf1f146103d9578063bee36c1414610416578063c7fc0acf14610429578063c87b56dd1461043c578063e985e9c51461044f578063e9ac932c14610462578063f68c3afe1461047557600080fd5b80637d061c501461033b5780638923e2f71461034e578063893d20e8146103615780638bdf67f2146103725780638ef79e911461038557806395d89b4114610398578063a22cb465146103a0578063a44280b1146103b357600080fd5b80632f745c59116101575780632f745c59146102715780634051ddac1461028457806342842e0e146102a75780634f6ccce7146102ba5780636352211e146102cd57806370a08231146102e057806376f10ad0146102f35780637b47ec1a1461032857600080fd5b806301ffc9a7146101b557806306fdde03146101dd578063081812fc146101f2578063095ea7b31461021257806313af403514610227578063158ef93e1461023a57806318160ddd1461024c57806323b872dd1461025e575b600080fd5b6101c86101c3366004612472565b610488565b60405190151581526020015b60405180910390f35b6101e56104b3565b6040516101d491906124ee565b610205610200366004612501565b610545565b6040516101d4919061251a565b610225610220366004612545565b6105d2565b005b61022561023536600461256f565b6106e3565b6001546001600160a01b0316156101c8565b600a545b6040519081526020016101d4565b61022561026c36600461258a565b61078b565b61025061027f366004612545565b6107bc565b61028c610852565b604080519384526020840192909252908201526060016101d4565b6102256102b536600461258a565b610878565b6102506102c8366004612501565b610893565b6102056102db366004612501565b610926565b6102506102ee36600461256f565b61099d565b610306610301366004612501565b610a24565b60408051825181526020808401519082015291810151908201526060016101d4565b610225610336366004612501565b610a81565b6102506103493660046125c6565b610c89565b61022561035c366004612501565b610d9b565b6000546001600160a01b0316610205565b610225610380366004612501565b610f78565b610225610393366004612651565b61101c565b6101e5611091565b6102256103ae3660046126a1565b6110a0565b6102256103c13660046126d8565b6110af565b6102256103d436600461271a565b611174565b6103ec6103e7366004612501565b6111ac565b604080516001600160a01b03909516855260208501939093529183015260608201526080016101d4565b610250610424366004612501565b611299565b6102256104373660046127f6565b61133f565b6101e561044a366004612501565b611501565b6101c861045d36600461287f565b61155e565b6102256104703660046128b2565b61158c565b610250610483366004612501565b6116b0565b60006001600160e01b0319821663780e9d6360e01b14806104ad57506104ad826116bb565b92915050565b6060600280546104c2906128e5565b80601f01602080910402602001604051908101604052809291908181526020018280546104ee906128e5565b801561053b5780601f106105105761010080835404028352916020019161053b565b820191906000526020600020905b81548152906001019060200180831161051e57829003601f168201915b5050505050905090565b60006105508261170b565b6105b65760405162461bcd60e51b815260206004820152602c60248201527f4552433732313a20617070726f76656420717565727920666f72206e6f6e657860448201526b34b9ba32b73a103a37b5b2b760a11b60648201526084015b60405180910390fd5b506000908152600660205260409020546001600160a01b031690565b60006105dd82610926565b9050806001600160a01b0316836001600160a01b0316141561064b5760405162461bcd60e51b815260206004820152602160248201527f4552433732313a20617070726f76616c20746f2063757272656e74206f776e656044820152603960f91b60648201526084016105ad565b336001600160a01b03821614806106675750610667813361155e565b6106d45760405162461bcd60e51b815260206004820152603860248201527f4552433732313a20617070726f76652063616c6c6572206973206e6f74206f776044820152771b995c881b9bdc88185c1c1c9bdd995908199bdc88185b1b60421b60648201526084016105ad565b6106de8383611728565b505050565b6000546001600160a01b0316331461070e576040516317f6584d60e31b815260040160405180910390fd5b6001600160a01b03811661073557604051630465f79960e41b815260040160405180910390fd5b600080546001600160a01b0319166001600160a01b0383161790556040517f4ffd725fc4a22075e9ec71c59edf9c38cdeb588a91b24fc5b61388c5be41282b9061078090839061251a565b60405180910390a150565b6107953382611796565b6107b15760405162461bcd60e51b81526004016105ad9061291a565b6106de838383611860565b60006107c78361099d565b82106108295760405162461bcd60e51b815260206004820152602b60248201527f455243373231456e756d657261626c653a206f776e657220696e646578206f7560448201526a74206f6620626f756e647360a81b60648201526084016105ad565b506001600160a01b03919091166000908152600860209081526040808320938352929052205490565b6000806000806108606119f5565b60145460125460115490979290910195509350915050565b6106de83838360405180602001604052806000815250611174565b600061089e600a5490565b82106109015760405162461bcd60e51b815260206004820152602c60248201527f455243373231456e756d657261626c653a20676c6f62616c20696e646578206f60448201526b7574206f6620626f756e647360a01b60648201526084016105ad565b600a82815481106109145761091461296b565b90600052602060002001549050919050565b6000818152600460205260408120546001600160a01b0316806104ad5760405162461bcd60e51b815260206004820152602960248201527f4552433732313a206f776e657220717565727920666f72206e6f6e657869737460448201526832b73a103a37b5b2b760b91b60648201526084016105ad565b60006001600160a01b038216610a085760405162461bcd60e51b815260206004820152602a60248201527f4552433732313a2062616c616e636520717565727920666f7220746865207a65604482015269726f206164647265737360b01b60648201526084016105ad565b506001600160a01b031660009081526005602052604090205490565b610a4860405180606001604052806000815260200160008152602001600081525090565b50600090815260196020908152604091829020825160608101845281548152600182015492810192909252600201549181019190915290565b6000818152601a60205260409020805433919060019060ff166002811115610aab57610aab612981565b14610ac9576040516301205d2d60e61b815260040160405180910390fd5b610ad283610926565b6001600160a01b0316826001600160a01b031614610b035760405163560e9c3b60e11b815260040160405180910390fd5b60004282600501541115610b3857620186a08260020154601154620186a0030281610b3057610b30612997565b049050610b74565b6000610b4342611a84565b90506000610b5a8285600101548660040154611aaf565b600385015460028601546015805484900390550101925050505b6002820154601280549190910390556003820154601480549190910390558015610c2057600c5460405163a9059cbb60e01b81526001600160a01b038581166004830152602482018490529091169063a9059cbb90604401602060405180830381600087803b158015610be657600080fd5b505af1158015610bfa573d6000803e3d6000fd5b505050506040513d601f19601f82011682018060405250810190610c1e91906129ad565b505b815460ff19166002178255600060018301819055600383018190556005830155610c4984611b64565b60408051858152602081018390527f43ce8febc9822756d8f34b35cd628db23dc57fe810cb077080d7c740fcc6988f91015b60405180910390a150505050565b600e546000906001600160a01b03163314610cb757604051633d292e0760e01b815260040160405180910390fd5b6000610cc242611a84565b601680546001908101918290556000828152601a60205260409020805460ff19168217815590810183905560028101899055600381018890556004810187905560058101869055601280548a01905560148054890190556013805488019055909350909150610d318884611bf9565b610d3a82611d26565b6040805184815260208101849052908101889052606081018790526080810186905260a081018590527f39fd73773ee3776ffab3969da1eabd17f1e4929626dbfe70e209cfd912dfcab09060c00160405180910390a1505095945050505050565b6000818152601a60205260409020805433919060019060ff166002811115610dc557610dc5612981565b14610de3576040516301205d2d60e61b815260040160405180910390fd5b610dec83610926565b6001600160a01b0316826001600160a01b031614610e1d5760405163560e9c3b60e11b815260040160405180910390fd5b4281600501541115610e425760405163f4c5943f60e01b815260040160405180910390fd5b6000610e4d42611a84565b90506000610e648284600101548560040154611aaf565b6003840154909150810180610e8c5760405163243949fd60e21b815260040160405180910390fd5b601580548390039055600384018054601480549190910390556001850184905560009055600c5460405163a9059cbb60e01b81526001600160a01b038781166004830152602482018490529091169063a9059cbb90604401602060405180830381600087803b158015610efe57600080fd5b505af1158015610f12573d6000803e3d6000fd5b505050506040513d601f19601f82011682018060405250810190610f3691906129ad565b5060408051878152602081018390527f2eafc6295b5eafd9166fdb22a62a89a9ba08906f8eea8860e532af301316752e910160405180910390a1505050505050565b336000610f8442611a84565b600c546040516323b872dd60e01b81526001600160a01b038581166004830152306024830152604482018790529293509116906323b872dd90606401602060405180830381600087803b158015610fda57600080fd5b505af1158015610fee573d6000803e3d6000fd5b505050506040513d601f19601f8201168201806040525081019061101291906129ad565b506106de81611d26565b6000546001600160a01b03163314611047576040516317f6584d60e31b815260040160405180910390fd5b611053601783836123c0565b507f71b6d434aa2b38b7cc5e238537ecdeca836d64d830f885db24bf04c9754a4ac382826040516110859291906129f3565b60405180910390a15050565b6060600380546104c2906128e5565b6110ab338383611e6f565b5050565b600d546001600160a01b031633146110da5760405163313e4ee560e21b815260040160405180910390fd5b6000838152601a6020526040812090815460ff1660028111156110ff576110ff612981565b1461111d576040516301205d2d60e61b815260040160405180910390fd5b805460ff19166002908117825581018390556004810182905560408051858152602081018590529081018390527fe906206b868a7e7cd5a6af07917d51f0558459b104bb2cfe71ba151ad8c2f2f690606001610c7b565b61117e3383611796565b61119a5760405162461bcd60e51b81526004016105ad9061291a565b6111a684848484611f3a565b50505050565b6000818152601a6020526040808220815160c08101909252805483928392839283929190829060ff1660028111156111e6576111e6612981565b60028111156111f7576111f7612981565b8152600182810154602083015260028301546040830152600383015460608301526004830154608083015260059092015460a0909101529091508151600281111561124457611244612981565b141561129157600061125542611a84565b905061126087610926565b955081604001519450600061127e8284602001518560800151611aaf565b606084015160a085015191019550935050505b509193509193565b6000818152601a6020526040808220815160c08101909252805483929190829060ff1660028111156112cd576112cd612981565b60028111156112de576112de612981565b8152600182015460208201526002808301546040830152600383015460608301526004830154608083015260059092015460a0909101529091508151600281111561132b5761132b612981565b141561133957806040015191505b50919050565b6001546001600160a01b03166113675760405162dc149f60e41b815260040160405180910390fd5b6001546001600160a01b031633146113925760405163bc40aee160e01b815260040160405180910390fd5b600180546001600160a01b03191690556001600160a01b0387166113c95760405163b352a63160e01b815260040160405180910390fd5b6001600160a01b0386166113f05760405163080ee5a960e01b815260040160405180910390fd5b6001600160a01b03851661141757604051632a97c96b60e01b815260040160405180910390fd5b836114355760405163b41cc6cf60e01b815260040160405180910390fd5b6161a883111561145857604051632a6bf02760e01b815260040160405180910390fd5b600c80546001600160a01b03808a166001600160a01b031992831617909255600d8054898416908316179055600e80549288169290911691909117905542600f819055601085905560118490556114b1601784846123c0565b507fe079781bc8e27a59da9daedb729fd7ba577942fa0fc65794ad2bdc466d9166d388888884898989896040516114ef989796959493929190612a07565b60405180910390a15050505050505050565b606061150c8261170b565b80156115265750600060178054611522906128e5565b9050115b1561155957601761153683611f6d565b604051602001611547929190612a77565b60405160208183030381529060405290505b919050565b6001600160a01b03918216600090815260076020908152604080832093909416825291909152205460ff1690565b600d546001600160a01b031633146115b75760405163313e4ee560e21b815260040160405180910390fd5b60006115c242611a84565b6000848152601a602052604090209091506002815460ff1660028111156115eb576115eb612981565b14611609576040516301205d2d60e61b815260040160405180910390fd5b805460ff191660019081178255810182905560058101839055600281015460128054909101905560048101546013805490910190556116488585611bf9565b61165182611d26565b600281015460048201546040805187815260208101869052908101929092526060820152608081018490527f60a5b8a4269b6586680312bd389c5664a7dbbf32cf6a772eac2a4d01ce4e34d19060a00160405180910390a15050505050565b60006104ad82611a84565b60006001600160e01b031982166380ac58cd60e01b14806116ec57506001600160e01b03198216635b5e139f60e01b145b806104ad57506301ffc9a760e01b6001600160e01b03198316146104ad565b6000908152600460205260409020546001600160a01b0316151590565b600081815260066020526040902080546001600160a01b0319166001600160a01b038416908117909155819061175d82610926565b6001600160a01b03167f8c5be1e5ebec7d5bd14f71427d1e84f3dd0314c0f7b2291e5b200ac8c7c3b92560405160405180910390a45050565b60006117a18261170b565b6118025760405162461bcd60e51b815260206004820152602c60248201527f4552433732313a206f70657261746f7220717565727920666f72206e6f6e657860448201526b34b9ba32b73a103a37b5b2b760a11b60648201526084016105ad565b600061180d83610926565b9050806001600160a01b0316846001600160a01b031614806118345750611834818561155e565b806118585750836001600160a01b031661184d84610545565b6001600160a01b0316145b949350505050565b826001600160a01b031661187382610926565b6001600160a01b0316146118d75760405162461bcd60e51b815260206004820152602560248201527f4552433732313a207472616e736665722066726f6d20696e636f72726563742060448201526437bbb732b960d91b60648201526084016105ad565b6001600160a01b0382166119395760405162461bcd60e51b8152602060048201526024808201527f4552433732313a207472616e7366657220746f20746865207a65726f206164646044820152637265737360e01b60648201526084016105ad565b61194483838361206b565b61194f600082611728565b6001600160a01b0383166000908152600560205260408120805460019290611978908490612b48565b90915550506001600160a01b03821660009081526005602052604081208054600192906119a6908490612b5f565b909155505060008181526004602052604080822080546001600160a01b0319166001600160a01b038681169182179092559151849391871691600080516020612c9683398151915291a4505050565b600c546040516370a0823160e01b81526000916001600160a01b0316906370a0823190611a2690309060040161251a565b60206040518083038186803b158015611a3e57600080fd5b505afa158015611a52573d6000803e3d6000fd5b505050506040513d601f19601f82011682018060405250810190611a769190612b77565b601254601454910303919050565b6000600f54821061155957601054600f54830381611aa457611aa4612997565b046001019050919050565b6018546000908015611b5c5760001981015b600060188281548110611ad657611ad661296b565b9060005260206000200154905086811015611b455785811015611af95750611b5a565b600081815260196020908152604091829020825160608101845281548152600182015492810183905260029091015492810183905291870281611b3e57611b3e612997565b0485019450505b81611b505750611b5a565b5060001901611ac1565b505b509392505050565b6000611b6f82610926565b9050611b7d8160008461206b565b611b88600083611728565b6001600160a01b0381166000908152600560205260408120805460019290611bb1908490612b48565b909155505060008281526004602052604080822080546001600160a01b0319169055518391906001600160a01b03841690600080516020612c96833981519152908390a45050565b6001600160a01b038216611c4f5760405162461bcd60e51b815260206004820181905260248201527f4552433732313a206d696e7420746f20746865207a65726f206164647265737360448201526064016105ad565b611c588161170b565b15611ca55760405162461bcd60e51b815260206004820152601c60248201527f4552433732313a20746f6b656e20616c7265616479206d696e7465640000000060448201526064016105ad565b611cb16000838361206b565b6001600160a01b0382166000908152600560205260408120805460019290611cda908490612b5f565b909155505060008181526004602052604080822080546001600160a01b0319166001600160a01b0386169081179091559051839290600080516020612c96833981519152908290a45050565b601354611d305750565b600080611d3b6119f5565b90506015548114611d53576015805490829055810391505b5080611d5d575050565b60185480611db95750600082815260196020526040812060135460018083019190915560029091019290925560188054928301815590527fb13d2d76d1f4b7be834882e410b3e3a8afaf69f83600ae24db354391d2378d2e0155565b6000600182039050600060188281548110611dd657611dd661296b565b9060005260206000200154905084811415611e0f5760008181526019602052604090206013546001820155600201805485019055611e68565b6000858152601960205260408120601354600180830191909155600282018790558481019091556018805491820181559091527fb13d2d76d1f4b7be834882e410b3e3a8afaf69f83600ae24db354391d2378d2e018590555b5050505050565b816001600160a01b0316836001600160a01b03161415611ecd5760405162461bcd60e51b815260206004820152601960248201527822a9219b99189d1030b8383937bb32903a379031b0b63632b960391b60448201526064016105ad565b6001600160a01b03838116600081815260076020908152604080832094871680845294825291829020805460ff191686151590811790915591519182527f17307eab39ab6107e8899845ad3d59bd9653f200f220920489ca2b5937696c31910160405180910390a3505050565b611f45848484611860565b611f5184848484612123565b6111a65760405162461bcd60e51b81526004016105ad90612b90565b606081611f915750506040805180820190915260018152600360fc1b602082015290565b8160005b8115611fbb5780611fa581612be2565b9150611fb49050600a83612bfd565b9150611f95565b60008167ffffffffffffffff811115611fd657611fd6612704565b6040519080825280601f01601f191660200182016040528015612000576020820181803683370190505b5090505b841561185857612015600183612b48565b9150612022600a86612c11565b61202d906030612b5f565b60f81b8183815181106120425761204261296b565b60200101906001600160f81b031916908160001a905350612064600a86612bfd565b9450612004565b6001600160a01b0383166120c6576120c181600a80546000838152600b60205260408120829055600182018355919091527fc65a7bb8d6351c1cf70c95a316cc6a92839c986682d98bc35f958f4883f9d2a80155565b6120e9565b816001600160a01b0316836001600160a01b0316146120e9576120e98382612230565b6001600160a01b038216612100576106de816122cd565b826001600160a01b0316826001600160a01b0316146106de576106de828261237c565b60006001600160a01b0384163b1561222557604051630a85bd0160e11b81526001600160a01b0385169063150b7a0290612167903390899088908890600401612c25565b602060405180830381600087803b15801561218157600080fd5b505af19250505080156121b1575060408051601f3d908101601f191682019092526121ae91810190612c62565b60015b61220b573d8080156121df576040519150601f19603f3d011682016040523d82523d6000602084013e6121e4565b606091505b5080516122035760405162461bcd60e51b81526004016105ad90612b90565b805181602001fd5b6001600160e01b031916630a85bd0160e11b149050611858565b506001949350505050565b6000600161223d8461099d565b6122479190612b48565b60008381526009602052604090205490915080821461229a576001600160a01b03841660009081526008602090815260408083208584528252808320548484528184208190558352600990915290208190555b5060009182526009602090815260408084208490556001600160a01b039094168352600881528383209183525290812055565b600a546000906122df90600190612b48565b6000838152600b6020526040812054600a80549394509092849081106123075761230761296b565b9060005260206000200154905080600a83815481106123285761232861296b565b6000918252602080832090910192909255828152600b9091526040808220849055858252812055600a80548061236057612360612c7f565b6001900381819060005260206000200160009055905550505050565b60006123878361099d565b6001600160a01b039093166000908152600860209081526040808320868452825280832085905593825260099052919091209190915550565b8280546123cc906128e5565b90600052602060002090601f0160209004810192826123ee5760008555612434565b82601f106124075782800160ff19823516178555612434565b82800160010185558215612434579182015b82811115612434578235825591602001919060010190612419565b50612440929150612444565b5090565b5b808211156124405760008155600101612445565b6001600160e01b03198116811461246f57600080fd5b50565b60006020828403121561248457600080fd5b813561248f81612459565b9392505050565b60005b838110156124b1578181015183820152602001612499565b838111156111a65750506000910152565b600081518084526124da816020860160208601612496565b601f01601f19169290920160200192915050565b60208152600061248f60208301846124c2565b60006020828403121561251357600080fd5b5035919050565b6001600160a01b0391909116815260200190565b80356001600160a01b038116811461155957600080fd5b6000806040838503121561255857600080fd5b6125618361252e565b946020939093013593505050565b60006020828403121561258157600080fd5b61248f8261252e565b60008060006060848603121561259f57600080fd5b6125a88461252e565b92506125b66020850161252e565b9150604084013590509250925092565b600080600080600060a086880312156125de57600080fd5b6125e78661252e565b97602087013597506040870135966060810135965060800135945092505050565b60008083601f84011261261a57600080fd5b50813567ffffffffffffffff81111561263257600080fd5b60208301915083602082850101111561264a57600080fd5b9250929050565b6000806020838503121561266457600080fd5b823567ffffffffffffffff81111561267b57600080fd5b61268785828601612608565b90969095509350505050565b801515811461246f57600080fd5b600080604083850312156126b457600080fd5b6126bd8361252e565b915060208301356126cd81612693565b809150509250929050565b6000806000606084860312156126ed57600080fd5b505081359360208301359350604090920135919050565b634e487b7160e01b600052604160045260246000fd5b6000806000806080858703121561273057600080fd5b6127398561252e565b93506127476020860161252e565b925060408501359150606085013567ffffffffffffffff8082111561276b57600080fd5b818701915087601f83011261277f57600080fd5b81358181111561279157612791612704565b604051601f8201601f19908116603f011681019083821181831017156127b9576127b9612704565b816040528281528a60208487010111156127d257600080fd5b82602086016020830137600060208483010152809550505050505092959194509250565b600080600080600080600060c0888a03121561281157600080fd5b61281a8861252e565b96506128286020890161252e565b95506128366040890161252e565b9450606088013593506080880135925060a088013567ffffffffffffffff81111561286057600080fd5b61286c8a828b01612608565b989b979a50959850939692959293505050565b6000806040838503121561289257600080fd5b61289b8361252e565b91506128a96020840161252e565b90509250929050565b6000806000606084860312156128c757600080fd5b6128d08461252e565b95602085013595506040909401359392505050565b600181811c908216806128f957607f821691505b6020821081141561133957634e487b7160e01b600052602260045260246000fd5b60208082526031908201527f4552433732313a207472616e736665722063616c6c6572206973206e6f74206f6040820152701ddb995c881b9bdc88185c1c1c9bdd9959607a1b606082015260800190565b634e487b7160e01b600052603260045260246000fd5b634e487b7160e01b600052602160045260246000fd5b634e487b7160e01b600052601260045260246000fd5b6000602082840312156129bf57600080fd5b815161248f81612693565b81835281816020850137506000828201602090810191909152601f909101601f19169091010190565b6020815260006118586020830184866129ca565b600060018060a01b03808b168352808a1660208401528089166040840152508660608301528560808301528460a083015260e060c0830152612a4d60e0830184866129ca565b9a9950505050505050505050565b60008151612a6d818560208601612496565b9290920192915050565b600080845481600182811c915080831680612a9357607f831692505b6020808410821415612ab357634e487b7160e01b86526022600452602486fd5b818015612ac75760018114612ad857612b05565b60ff19861689528489019650612b05565b60008b81526020902060005b86811015612afd5781548b820152908501908301612ae4565b505084890196505b505050505050612b29612b188286612a5b565b64173539b7b760d91b815260050190565b95945050505050565b634e487b7160e01b600052601160045260246000fd5b600082821015612b5a57612b5a612b32565b500390565b60008219821115612b7257612b72612b32565b500190565b600060208284031215612b8957600080fd5b5051919050565b60208082526032908201527f4552433732313a207472616e7366657220746f206e6f6e20455243373231526560408201527131b2b4bb32b91034b6b83632b6b2b73a32b960711b606082015260800190565b6000600019821415612bf657612bf6612b32565b5060010190565b600082612c0c57612c0c612997565b500490565b600082612c2057612c20612997565b500690565b6001600160a01b0385811682528416602082015260408101839052608060608201819052600090612c58908301846124c2565b9695505050505050565b600060208284031215612c7457600080fd5b815161248f81612459565b634e487b7160e01b600052603160045260246000fdfeddf252ad1be2c89b69c2b068fc378daa952ba7f163c4a11628f55a4df523b3efa164736f6c6343000809000a",
  "devdoc": {
    "author": "Stanisaw Gogowski <stan@metahero.io>",
    "kind": "dev",
    "methods": {
      "approve(address,uint256)": {
        "details": "See {IERC721-approve}."
      },
      "balanceOf(address)": {
        "details": "See {IERC721-balanceOf}."
      },
      "getApproved(uint256)": {
        "details": "See {IERC721-getApproved}."
      },
      "isApprovedForAll(address,address)": {
        "details": "See {IERC721-isApprovedForAll}."
      },
      "name()": {
        "details": "See {IERC721Metadata-name}."
      },
      "ownerOf(uint256)": {
        "details": "See {IERC721-ownerOf}."
      },
      "safeTransferFrom(address,address,uint256)": {
        "details": "See {IERC721-safeTransferFrom}."
      },
      "safeTransferFrom(address,address,uint256,bytes)": {
        "details": "See {IERC721-safeTransferFrom}."
      },
      "setApprovalForAll(address,bool)": {
        "details": "See {IERC721-setApprovalForAll}."
      },
      "supportsInterface(bytes4)": {
        "details": "See {IERC165-supportsInterface}."
      },
      "symbol()": {
        "details": "See {IERC721Metadata-symbol}."
      },
      "tokenByIndex(uint256)": {
        "details": "See {IERC721Enumerable-tokenByIndex}."
      },
      "tokenOfOwnerByIndex(address,uint256)": {
        "details": "See {IERC721Enumerable-tokenOfOwnerByIndex}."
      },
      "tokenURI(uint256)": {
        "details": "See {IERC721Metadata-tokenURI}."
      },
      "totalSupply()": {
        "details": "See {IERC721Enumerable-totalSupply}."
      },
      "transferFrom(address,address,uint256)": {
        "details": "See {IERC721-transferFrom}."
      }
    },
    "title": "Metahero Loyalty Token",
    "version": 1
  },
  "userdoc": {
    "kind": "user",
    "methods": {},
    "version": 1
  },
  "storageLayout": {
    "storage": [
      {
        "astId": 3,
        "contract": "src/MetaheroLoyaltyToken.sol:MetaheroLoyaltyToken",
        "label": "_owner",
        "offset": 0,
        "slot": "0",
        "type": "t_address"
      },
      {
        "astId": 73,
        "contract": "src/MetaheroLoyaltyToken.sol:MetaheroLoyaltyToken",
        "label": "_deployer",
        "offset": 0,
        "slot": "1",
        "type": "t_address"
      },
      {
        "astId": 1011,
        "contract": "src/MetaheroLoyaltyToken.sol:MetaheroLoyaltyToken",
        "label": "_name",
        "offset": 0,
        "slot": "2",
        "type": "t_string_storage"
      },
      {
        "astId": 1013,
        "contract": "src/MetaheroLoyaltyToken.sol:MetaheroLoyaltyToken",
        "label": "_symbol",
        "offset": 0,
        "slot": "3",
        "type": "t_string_storage"
      },
      {
        "astId": 1017,
        "contract": "src/MetaheroLoyaltyToken.sol:MetaheroLoyaltyToken",
        "label": "_owners",
        "offset": 0,
        "slot": "4",
        "type": "t_mapping(t_uint256,t_address)"
      },
      {
        "astId": 1021,
        "contract": "src/MetaheroLoyaltyToken.sol:MetaheroLoyaltyToken",
        "label": "_balances",
        "offset": 0,
        "slot": "5",
        "type": "t_mapping(t_address,t_uint256)"
      },
      {
        "astId": 1025,
        "contract": "src/MetaheroLoyaltyToken.sol:MetaheroLoyaltyToken",
        "label": "_tokenApprovals",
        "offset": 0,
        "slot": "6",
        "type": "t_mapping(t_uint256,t_address)"
      },
      {
        "astId": 1031,
        "contract": "src/MetaheroLoyaltyToken.sol:MetaheroLoyaltyToken",
        "label": "_operatorApprovals",
        "offset": 0,
        "slot": "7",
        "type": "t_mapping(t_address,t_mapping(t_address,t_bool))"
      },
      {
        "astId": 2000,
        "contract": "src/MetaheroLoyaltyToken.sol:MetaheroLoyaltyToken",
        "label": "_ownedTokens",
        "offset": 0,
        "slot": "8",
        "type": "t_mapping(t_address,t_mapping(t_uint256,t_uint256))"
      },
      {
        "astId": 2004,
        "contract": "src/MetaheroLoyaltyToken.sol:MetaheroLoyaltyToken",
        "label": "_ownedTokensIndex",
        "offset": 0,
        "slot": "9",
        "type": "t_mapping(t_uint256,t_uint256)"
      },
      {
        "astId": 2007,
        "contract": "src/MetaheroLoyaltyToken.sol:MetaheroLoyaltyToken",
        "label": "_allTokens",
        "offset": 0,
        "slot": "10",
        "type": "t_array(t_uint256)dyn_storage"
      },
      {
        "astId": 2011,
        "contract": "src/MetaheroLoyaltyToken.sol:MetaheroLoyaltyToken",
        "label": "_allTokensIndex",
        "offset": 0,
        "slot": "11",
        "type": "t_mapping(t_uint256,t_uint256)"
      },
      {
        "astId": 3080,
        "contract": "src/MetaheroLoyaltyToken.sol:MetaheroLoyaltyToken",
        "label": "_paymentToken",
        "offset": 0,
        "slot": "12",
        "type": "t_contract(IERC20)887"
      },
      {
        "astId": 3082,
        "contract": "src/MetaheroLoyaltyToken.sol:MetaheroLoyaltyToken",
        "label": "_tokenAuction",
        "offset": 0,
        "slot": "13",
        "type": "t_address"
      },
      {
        "astId": 3084,
        "contract": "src/MetaheroLoyaltyToken.sol:MetaheroLoyaltyToken",
        "label": "_tokenDistributor",
        "offset": 0,
        "slot": "14",
        "type": "t_address"
      },
      {
        "astId": 3086,
        "contract": "src/MetaheroLoyaltyToken.sol:MetaheroLoyaltyToken",
        "label": "_snapshotBaseTimestamp",
        "offset": 0,
        "slot": "15",
        "type": "t_uint256"
      },
      {
        "astId": 3088,
        "contract": "src/MetaheroLoyaltyToken.sol:MetaheroLoyaltyToken",
        "label": "_snapshotWindowMinLength",
        "offset": 0,
        "slot": "16",
        "type": "t_uint256"
      },
      {
        "astId": 3090,
        "contract": "src/MetaheroLoyaltyToken.sol:MetaheroLoyaltyToken",
        "label": "_earlyWithdrawalTax",
        "offset": 0,
        "slot": "17",
        "type": "t_uint256"
      },
      {
        "astId": 3092,
        "contract": "src/MetaheroLoyaltyToken.sol:MetaheroLoyaltyToken",
        "label": "_totalTokensDeposits",
        "offset": 0,
        "slot": "18",
        "type": "t_uint256"
      },
      {
        "astId": 3094,
        "contract": "src/MetaheroLoyaltyToken.sol:MetaheroLoyaltyToken",
        "label": "_totalTokensWeights",
        "offset": 0,
        "slot": "19",
        "type": "t_uint256"
      },
      {
        "astId": 3096,
        "contract": "src/MetaheroLoyaltyToken.sol:MetaheroLoyaltyToken",
        "label": "_totalTokensRewards",
        "offset": 0,
        "slot": "20",
        "type": "t_uint256"
      },
      {
        "astId": 3098,
        "contract": "src/MetaheroLoyaltyToken.sol:MetaheroLoyaltyToken",
        "label": "_totalSnapshotsRewards",
        "offset": 0,
        "slot": "21",
        "type": "t_uint256"
      },
      {
        "astId": 3100,
        "contract": "src/MetaheroLoyaltyToken.sol:MetaheroLoyaltyToken",
        "label": "_tokenIdCounter",
        "offset": 0,
        "slot": "22",
        "type": "t_uint256"
      },
      {
        "astId": 3102,
        "contract": "src/MetaheroLoyaltyToken.sol:MetaheroLoyaltyToken",
        "label": "_tokenBaseURI",
        "offset": 0,
        "slot": "23",
        "type": "t_string_storage"
      },
      {
        "astId": 3105,
        "contract": "src/MetaheroLoyaltyToken.sol:MetaheroLoyaltyToken",
        "label": "_snapshotIds",
        "offset": 0,
        "slot": "24",
        "type": "t_array(t_uint256)dyn_storage"
      },
      {
        "astId": 3110,
        "contract": "src/MetaheroLoyaltyToken.sol:MetaheroLoyaltyToken",
        "label": "_snapshots",
        "offset": 0,
        "slot": "25",
        "type": "t_mapping(t_uint256,t_struct(Snapshot)3074_storage)"
      },
      {
        "astId": 3115,
        "contract": "src/MetaheroLoyaltyToken.sol:MetaheroLoyaltyToken",
        "label": "_tokenDetails",
        "offset": 0,
        "slot": "26",
        "type": "t_mapping(t_uint256,t_struct(TokenDetails)3067_storage)"
      }
    ],
    "types": {
      "t_address": {
        "encoding": "inplace",
        "label": "address",
        "numberOfBytes": "20"
      },
      "t_array(t_uint256)dyn_storage": {
        "base": "t_uint256",
        "encoding": "dynamic_array",
        "label": "uint256[]",
        "numberOfBytes": "32"
      },
      "t_bool": {
        "encoding": "inplace",
        "label": "bool",
        "numberOfBytes": "1"
      },
      "t_contract(IERC20)887": {
        "encoding": "inplace",
        "label": "contract IERC20",
        "numberOfBytes": "20"
      },
      "t_enum(TokenStates)3053": {
        "encoding": "inplace",
        "label": "enum MetaheroLoyaltyToken.TokenStates",
        "numberOfBytes": "1"
      },
      "t_mapping(t_address,t_bool)": {
        "encoding": "mapping",
        "key": "t_address",
        "label": "mapping(address => bool)",
        "numberOfBytes": "32",
        "value": "t_bool"
      },
      "t_mapping(t_address,t_mapping(t_address,t_bool))": {
        "encoding": "mapping",
        "key": "t_address",
        "label": "mapping(address => mapping(address => bool))",
        "numberOfBytes": "32",
        "value": "t_mapping(t_address,t_bool)"
      },
      "t_mapping(t_address,t_mapping(t_uint256,t_uint256))": {
        "encoding": "mapping",
        "key": "t_address",
        "label": "mapping(address => mapping(uint256 => uint256))",
        "numberOfBytes": "32",
        "value": "t_mapping(t_uint256,t_uint256)"
      },
      "t_mapping(t_address,t_uint256)": {
        "encoding": "mapping",
        "key": "t_address",
        "label": "mapping(address => uint256)",
        "numberOfBytes": "32",
        "value": "t_uint256"
      },
      "t_mapping(t_uint256,t_address)": {
        "encoding": "mapping",
        "key": "t_uint256",
        "label": "mapping(uint256 => address)",
        "numberOfBytes": "32",
        "value": "t_address"
      },
      "t_mapping(t_uint256,t_struct(Snapshot)3074_storage)": {
        "encoding": "mapping",
        "key": "t_uint256",
        "label": "mapping(uint256 => struct MetaheroLoyaltyToken.Snapshot)",
        "numberOfBytes": "32",
        "value": "t_struct(Snapshot)3074_storage"
      },
      "t_mapping(t_uint256,t_struct(TokenDetails)3067_storage)": {
        "encoding": "mapping",
        "key": "t_uint256",
        "label": "mapping(uint256 => struct MetaheroLoyaltyToken.TokenDetails)",
        "numberOfBytes": "32",
        "value": "t_struct(TokenDetails)3067_storage"
      },
      "t_mapping(t_uint256,t_uint256)": {
        "encoding": "mapping",
        "key": "t_uint256",
        "label": "mapping(uint256 => uint256)",
        "numberOfBytes": "32",
        "value": "t_uint256"
      },
      "t_string_storage": {
        "encoding": "bytes",
        "label": "string",
        "numberOfBytes": "32"
      },
      "t_struct(Snapshot)3074_storage": {
        "encoding": "inplace",
        "label": "struct MetaheroLoyaltyToken.Snapshot",
        "members": [
          {
            "astId": 3069,
            "contract": "src/MetaheroLoyaltyToken.sol:MetaheroLoyaltyToken",
            "label": "index",
            "offset": 0,
            "slot": "0",
            "type": "t_uint256"
          },
          {
            "astId": 3071,
            "contract": "src/MetaheroLoyaltyToken.sol:MetaheroLoyaltyToken",
            "label": "weights",
            "offset": 0,
            "slot": "1",
            "type": "t_uint256"
          },
          {
            "astId": 3073,
            "contract": "src/MetaheroLoyaltyToken.sol:MetaheroLoyaltyToken",
            "label": "rewards",
            "offset": 0,
            "slot": "2",
            "type": "t_uint256"
          }
        ],
        "numberOfBytes": "96"
      },
      "t_struct(TokenDetails)3067_storage": {
        "encoding": "inplace",
        "label": "struct MetaheroLoyaltyToken.TokenDetails",
        "members": [
          {
            "astId": 3056,
            "contract": "src/MetaheroLoyaltyToken.sol:MetaheroLoyaltyToken",
            "label": "state",
            "offset": 0,
            "slot": "0",
            "type": "t_enum(TokenStates)3053"
          },
          {
            "astId": 3058,
            "contract": "src/MetaheroLoyaltyToken.sol:MetaheroLoyaltyToken",
            "label": "snapshotId",
            "offset": 0,
            "slot": "1",
            "type": "t_uint256"
          },
          {
            "astId": 3060,
            "contract": "src/MetaheroLoyaltyToken.sol:MetaheroLoyaltyToken",
            "label": "deposit",
            "offset": 0,
            "slot": "2",
            "type": "t_uint256"
          },
          {
            "astId": 3062,
            "contract": "src/MetaheroLoyaltyToken.sol:MetaheroLoyaltyToken",
            "label": "rewards",
            "offset": 0,
            "slot": "3",
            "type": "t_uint256"
          },
          {
            "astId": 3064,
            "contract": "src/MetaheroLoyaltyToken.sol:MetaheroLoyaltyToken",
            "label": "weight",
            "offset": 0,
            "slot": "4",
            "type": "t_uint256"
          },
          {
            "astId": 3066,
            "contract": "src/MetaheroLoyaltyToken.sol:MetaheroLoyaltyToken",
            "label": "unlockWithdrawalAt",
            "offset": 0,
            "slot": "5",
            "type": "t_uint256"
          }
        ],
        "numberOfBytes": "192"
      },
      "t_uint256": {
        "encoding": "inplace",
        "label": "uint256",
        "numberOfBytes": "32"
      }
    }
  }
}