{
  "address": "0x45Da7E96d4b0C26E053358658A54fd61d7c9A0c2",
  "abi": [
    {
      "inputs": [],
      "stateMutability": "nonpayable",
      "type": "constructor"
    },
    {
      "inputs": [],
      "name": "AlreadyInitialized",
      "type": "error"
    },
    {
      "inputs": [],
      "name": "InvalidEarlyWithdrawalTax",
      "type": "error"
    },
    {
      "inputs": [],
      "name": "InvalidSnapshotWindowMinLength",
      "type": "error"
    },
    {
      "inputs": [],
      "name": "MsgSenderIsNotTheDeployer",
      "type": "error"
    },
    {
      "inputs": [],
      "name": "MsgSenderIsNotTheOwner",
      "type": "error"
    },
    {
      "inputs": [],
      "name": "MsgSenderIsNotTheTokenDistributor",
      "type": "error"
    },
    {
      "inputs": [],
      "name": "MsgSenderIsNotTheTokenOwner",
      "type": "error"
    },
    {
      "inputs": [],
      "name": "NoTokenRewardsToWithdraw",
      "type": "error"
    },
    {
      "inputs": [],
      "name": "OwnerIsTheZeroAddress",
      "type": "error"
    },
    {
      "inputs": [],
      "name": "PaymentTokenIsTheZeroAddress",
      "type": "error"
    },
    {
      "inputs": [],
      "name": "TokenDistributorIsTheZeroAddress",
      "type": "error"
    },
    {
      "inputs": [],
      "name": "TokenDoesntExist",
      "type": "error"
    },
    {
      "inputs": [],
      "name": "TokenRewardsWithdrawalIsLocked",
      "type": "error"
    },
    {
      "anonymous": false,
      "inputs": [
        {
          "indexed": true,
          "internalType": "address",
          "name": "owner",
          "type": "address"
        },
        {
          "indexed": true,
          "internalType": "address",
          "name": "approved",
          "type": "address"
        },
        {
          "indexed": true,
          "internalType": "uint256",
          "name": "tokenId",
          "type": "uint256"
        }
      ],
      "name": "Approval",
      "type": "event"
    },
    {
      "anonymous": false,
      "inputs": [
        {
          "indexed": true,
          "internalType": "address",
          "name": "owner",
          "type": "address"
        },
        {
          "indexed": true,
          "internalType": "address",
          "name": "operator",
          "type": "address"
        },
        {
          "indexed": false,
          "internalType": "bool",
          "name": "approved",
          "type": "bool"
        }
      ],
      "name": "ApprovalForAll",
      "type": "event"
    },
    {
      "anonymous": false,
      "inputs": [
        {
          "indexed": false,
          "internalType": "address",
          "name": "paymentToken",
          "type": "address"
        },
        {
          "indexed": false,
          "internalType": "address",
          "name": "tokenDistributor",
          "type": "address"
        },
        {
          "indexed": false,
          "internalType": "uint256",
          "name": "snapshotBaseTimestamp",
          "type": "uint256"
        },
        {
          "indexed": false,
          "internalType": "uint256",
          "name": "snapshotWindowMinLength",
          "type": "uint256"
        },
        {
          "indexed": false,
          "internalType": "uint256",
          "name": "earlyWithdrawalTax",
          "type": "uint256"
        },
        {
          "indexed": false,
          "internalType": "string",
          "name": "tokenBaseURI",
          "type": "string"
        }
      ],
      "name": "Initialized",
      "type": "event"
    },
    {
      "anonymous": false,
      "inputs": [
        {
          "indexed": false,
          "internalType": "address",
          "name": "owner",
          "type": "address"
        }
      ],
      "name": "OwnerUpdated",
      "type": "event"
    },
    {
      "anonymous": false,
      "inputs": [
        {
          "indexed": false,
          "internalType": "string",
          "name": "tokenBaseURI",
          "type": "string"
        }
      ],
      "name": "TokenBaseURIUpdated",
      "type": "event"
    },
    {
      "anonymous": false,
      "inputs": [
        {
          "indexed": false,
          "internalType": "uint256",
          "name": "tokenId",
          "type": "uint256"
        },
        {
          "indexed": false,
          "internalType": "uint256",
          "name": "withdrawal",
          "type": "uint256"
        }
      ],
      "name": "TokenBurned",
      "type": "event"
    },
    {
      "anonymous": false,
      "inputs": [
        {
          "indexed": false,
          "internalType": "address",
          "name": "owner",
          "type": "address"
        },
        {
          "indexed": false,
          "internalType": "uint256",
          "name": "tokenId",
          "type": "uint256"
        },
        {
          "indexed": false,
          "internalType": "uint256",
          "name": "snapshotId",
          "type": "uint256"
        },
        {
          "indexed": false,
          "internalType": "uint256",
          "name": "deposit",
          "type": "uint256"
        },
        {
          "indexed": false,
          "internalType": "uint256",
          "name": "rewards",
          "type": "uint256"
        },
        {
          "indexed": false,
          "internalType": "uint256",
          "name": "weight",
          "type": "uint256"
        },
        {
          "indexed": false,
          "internalType": "uint256",
          "name": "unlockWithdrawalAt",
          "type": "uint256"
        }
      ],
      "name": "TokenMinted",
      "type": "event"
    },
    {
      "anonymous": false,
      "inputs": [
        {
          "indexed": false,
          "internalType": "uint256",
          "name": "tokenId",
          "type": "uint256"
        },
        {
          "indexed": false,
          "internalType": "uint256",
          "name": "rewards",
          "type": "uint256"
        }
      ],
      "name": "TokenRewardsWithdrawn",
      "type": "event"
    },
    {
      "anonymous": false,
      "inputs": [
        {
          "indexed": true,
          "internalType": "address",
          "name": "from",
          "type": "address"
        },
        {
          "indexed": true,
          "internalType": "address",
          "name": "to",
          "type": "address"
        },
        {
          "indexed": true,
          "internalType": "uint256",
          "name": "tokenId",
          "type": "uint256"
        }
      ],
      "name": "Transfer",
      "type": "event"
    },
    {
      "inputs": [
        {
          "internalType": "address",
          "name": "to",
          "type": "address"
        },
        {
          "internalType": "uint256",
          "name": "tokenId",
          "type": "uint256"
        }
      ],
      "name": "approve",
      "outputs": [],
      "stateMutability": "nonpayable",
      "type": "function"
    },
    {
      "inputs": [
        {
          "internalType": "address",
          "name": "owner",
          "type": "address"
        }
      ],
      "name": "balanceOf",
      "outputs": [
        {
          "internalType": "uint256",
          "name": "",
          "type": "uint256"
        }
      ],
      "stateMutability": "view",
      "type": "function"
    },
    {
      "inputs": [
        {
          "internalType": "uint256",
          "name": "tokenId",
          "type": "uint256"
        }
      ],
      "name": "burnToken",
      "outputs": [],
      "stateMutability": "nonpayable",
      "type": "function"
    },
    {
      "inputs": [
        {
          "internalType": "uint256",
          "name": "timestamp",
          "type": "uint256"
        }
      ],
      "name": "computeSnapshotId",
      "outputs": [
        {
          "internalType": "uint256",
          "name": "",
          "type": "uint256"
        }
      ],
      "stateMutability": "view",
      "type": "function"
    },
    {
      "inputs": [
        {
          "internalType": "uint256",
          "name": "amount",
          "type": "uint256"
        }
      ],
      "name": "depositRewards",
      "outputs": [],
      "stateMutability": "nonpayable",
      "type": "function"
    },
    {
      "inputs": [
        {
          "internalType": "uint256",
          "name": "tokenId",
          "type": "uint256"
        }
      ],
      "name": "getApproved",
      "outputs": [
        {
          "internalType": "address",
          "name": "",
          "type": "address"
        }
      ],
      "stateMutability": "view",
      "type": "function"
    },
    {
      "inputs": [],
      "name": "getOwner",
      "outputs": [
        {
          "internalType": "address",
          "name": "",
          "type": "address"
        }
      ],
      "stateMutability": "view",
      "type": "function"
    },
    {
      "inputs": [
        {
          "internalType": "uint256",
          "name": "snapshotId",
          "type": "uint256"
        }
      ],
      "name": "getSnapshot",
      "outputs": [
        {
          "components": [
            {
              "internalType": "uint256",
              "name": "index",
              "type": "uint256"
            },
            {
              "internalType": "uint256",
              "name": "weights",
              "type": "uint256"
            },
            {
              "internalType": "uint256",
              "name": "rewards",
              "type": "uint256"
            }
          ],
          "internalType": "struct MetaheroLoyaltyToken.Snapshot",
          "name": "",
          "type": "tuple"
        }
      ],
      "stateMutability": "view",
      "type": "function"
    },
    {
      "inputs": [],
      "name": "getSummary",
      "outputs": [
        {
          "internalType": "uint256",
          "name": "totalDeposits",
          "type": "uint256"
        },
        {
          "internalType": "uint256",
          "name": "totalTokensRewards",
          "type": "uint256"
        },
        {
          "internalType": "uint256",
          "name": "totalSnapshotsRewards",
          "type": "uint256"
        },
        {
          "internalType": "uint256",
          "name": "totalTokens",
          "type": "uint256"
        },
        {
          "internalType": "uint256",
          "name": "earlyWithdrawalTax",
          "type": "uint256"
        }
      ],
      "stateMutability": "view",
      "type": "function"
    },
    {
      "inputs": [
        {
          "internalType": "uint256[]",
          "name": "tokenIds",
          "type": "uint256[]"
        }
      ],
      "name": "getTokenSummaries",
      "outputs": [
        {
          "components": [
            {
              "internalType": "address",
              "name": "owner",
              "type": "address"
            },
            {
              "internalType": "uint256",
              "name": "deposit",
              "type": "uint256"
            },
            {
              "internalType": "uint256",
              "name": "depositPower",
              "type": "uint256"
            },
            {
              "internalType": "uint256",
              "name": "rewards",
              "type": "uint256"
            },
            {
              "internalType": "uint256",
              "name": "snapshotRewards",
              "type": "uint256"
            },
            {
              "internalType": "uint256",
              "name": "unlockWithdrawalAt",
              "type": "uint256"
            }
          ],
          "internalType": "struct MetaheroLoyaltyToken.TokenSummary[]",
          "name": "result",
          "type": "tuple[]"
        }
      ],
      "stateMutability": "view",
      "type": "function"
    },
    {
      "inputs": [
        {
          "internalType": "uint256",
          "name": "tokenId",
          "type": "uint256"
        }
      ],
      "name": "getTokenSummary",
      "outputs": [
        {
          "components": [
            {
              "internalType": "address",
              "name": "owner",
              "type": "address"
            },
            {
              "internalType": "uint256",
              "name": "deposit",
              "type": "uint256"
            },
            {
              "internalType": "uint256",
              "name": "depositPower",
              "type": "uint256"
            },
            {
              "internalType": "uint256",
              "name": "rewards",
              "type": "uint256"
            },
            {
              "internalType": "uint256",
              "name": "snapshotRewards",
              "type": "uint256"
            },
            {
              "internalType": "uint256",
              "name": "unlockWithdrawalAt",
              "type": "uint256"
            }
          ],
          "internalType": "struct MetaheroLoyaltyToken.TokenSummary",
          "name": "",
          "type": "tuple"
        }
      ],
      "stateMutability": "view",
      "type": "function"
    },
    {
      "inputs": [
        {
          "internalType": "address",
          "name": "paymentToken",
          "type": "address"
        },
        {
          "internalType": "address",
          "name": "tokenDistributor",
          "type": "address"
        },
        {
          "internalType": "uint256",
          "name": "snapshotWindowMinLength",
          "type": "uint256"
        },
        {
          "internalType": "uint256",
          "name": "earlyWithdrawalTax",
          "type": "uint256"
        },
        {
          "internalType": "string",
          "name": "tokenBaseURI",
          "type": "string"
        }
      ],
      "name": "initialize",
      "outputs": [],
      "stateMutability": "nonpayable",
      "type": "function"
    },
    {
      "inputs": [],
      "name": "initialized",
      "outputs": [
        {
          "internalType": "bool",
          "name": "",
          "type": "bool"
        }
      ],
      "stateMutability": "view",
      "type": "function"
    },
    {
      "inputs": [
        {
          "internalType": "address",
          "name": "owner",
          "type": "address"
        },
        {
          "internalType": "address",
          "name": "operator",
          "type": "address"
        }
      ],
      "name": "isApprovedForAll",
      "outputs": [
        {
          "internalType": "bool",
          "name": "",
          "type": "bool"
        }
      ],
      "stateMutability": "view",
      "type": "function"
    },
    {
      "inputs": [
        {
          "internalType": "address",
          "name": "owner",
          "type": "address"
        },
        {
          "internalType": "uint256",
          "name": "deposit",
          "type": "uint256"
        },
        {
          "internalType": "uint256",
          "name": "rewards",
          "type": "uint256"
        },
        {
          "internalType": "uint256",
          "name": "weight",
          "type": "uint256"
        },
        {
          "internalType": "uint256",
          "name": "unlockWithdrawalAt",
          "type": "uint256"
        }
      ],
      "name": "mintToken",
      "outputs": [
        {
          "internalType": "uint256",
          "name": "tokenId",
          "type": "uint256"
        }
      ],
      "stateMutability": "nonpayable",
      "type": "function"
    },
    {
      "inputs": [],
      "name": "name",
      "outputs": [
        {
          "internalType": "string",
          "name": "",
          "type": "string"
        }
      ],
      "stateMutability": "view",
      "type": "function"
    },
    {
      "inputs": [
        {
          "internalType": "uint256",
          "name": "tokenId",
          "type": "uint256"
        }
      ],
      "name": "ownerOf",
      "outputs": [
        {
          "internalType": "address",
          "name": "",
          "type": "address"
        }
      ],
      "stateMutability": "view",
      "type": "function"
    },
    {
      "inputs": [
        {
          "internalType": "address",
          "name": "from",
          "type": "address"
        },
        {
          "internalType": "address",
          "name": "to",
          "type": "address"
        },
        {
          "internalType": "uint256",
          "name": "tokenId",
          "type": "uint256"
        }
      ],
      "name": "safeTransferFrom",
      "outputs": [],
      "stateMutability": "nonpayable",
      "type": "function"
    },
    {
      "inputs": [
        {
          "internalType": "address",
          "name": "from",
          "type": "address"
        },
        {
          "internalType": "address",
          "name": "to",
          "type": "address"
        },
        {
          "internalType": "uint256",
          "name": "tokenId",
          "type": "uint256"
        },
        {
          "internalType": "bytes",
          "name": "_data",
          "type": "bytes"
        }
      ],
      "name": "safeTransferFrom",
      "outputs": [],
      "stateMutability": "nonpayable",
      "type": "function"
    },
    {
      "inputs": [
        {
          "internalType": "address",
          "name": "operator",
          "type": "address"
        },
        {
          "internalType": "bool",
          "name": "approved",
          "type": "bool"
        }
      ],
      "name": "setApprovalForAll",
      "outputs": [],
      "stateMutability": "nonpayable",
      "type": "function"
    },
    {
      "inputs": [
        {
          "internalType": "address",
          "name": "owner",
          "type": "address"
        }
      ],
      "name": "setOwner",
      "outputs": [],
      "stateMutability": "nonpayable",
      "type": "function"
    },
    {
      "inputs": [
        {
          "internalType": "string",
          "name": "tokenBaseURI",
          "type": "string"
        }
      ],
      "name": "setTokenBaseURI",
      "outputs": [],
      "stateMutability": "nonpayable",
      "type": "function"
    },
    {
      "inputs": [
        {
          "internalType": "bytes4",
          "name": "interfaceId",
          "type": "bytes4"
        }
      ],
      "name": "supportsInterface",
      "outputs": [
        {
          "internalType": "bool",
          "name": "",
          "type": "bool"
        }
      ],
      "stateMutability": "view",
      "type": "function"
    },
    {
      "inputs": [],
      "name": "symbol",
      "outputs": [
        {
          "internalType": "string",
          "name": "",
          "type": "string"
        }
      ],
      "stateMutability": "view",
      "type": "function"
    },
    {
      "inputs": [
        {
          "internalType": "uint256",
          "name": "index",
          "type": "uint256"
        }
      ],
      "name": "tokenByIndex",
      "outputs": [
        {
          "internalType": "uint256",
          "name": "",
          "type": "uint256"
        }
      ],
      "stateMutability": "view",
      "type": "function"
    },
    {
      "inputs": [
        {
          "internalType": "address",
          "name": "owner",
          "type": "address"
        },
        {
          "internalType": "uint256",
          "name": "index",
          "type": "uint256"
        }
      ],
      "name": "tokenOfOwnerByIndex",
      "outputs": [
        {
          "internalType": "uint256",
          "name": "",
          "type": "uint256"
        }
      ],
      "stateMutability": "view",
      "type": "function"
    },
    {
      "inputs": [
        {
          "internalType": "uint256",
          "name": "tokenId",
          "type": "uint256"
        }
      ],
      "name": "tokenURI",
      "outputs": [
        {
          "internalType": "string",
          "name": "result",
          "type": "string"
        }
      ],
      "stateMutability": "view",
      "type": "function"
    },
    {
      "inputs": [],
      "name": "totalSupply",
      "outputs": [
        {
          "internalType": "uint256",
          "name": "",
          "type": "uint256"
        }
      ],
      "stateMutability": "view",
      "type": "function"
    },
    {
      "inputs": [
        {
          "internalType": "address",
          "name": "from",
          "type": "address"
        },
        {
          "internalType": "address",
          "name": "to",
          "type": "address"
        },
        {
          "internalType": "uint256",
          "name": "tokenId",
          "type": "uint256"
        }
      ],
      "name": "transferFrom",
      "outputs": [],
      "stateMutability": "nonpayable",
      "type": "function"
    },
    {
      "inputs": [
        {
          "internalType": "uint256",
          "name": "tokenId",
          "type": "uint256"
        }
      ],
      "name": "withdrawTokenRewards",
      "outputs": [],
      "stateMutability": "nonpayable",
      "type": "function"
    }
  ],
  "transactionHash": "0xb3d4607d2b1c378003ae5c0dd565f90f08bfcec146dbf90d5a3ad6ad11752ab6",
  "args": [],
  "numDeployments": 1,
  "solcInputHash": "76b9ec7f9156825b406ad1010c7d5e52",
  "bytecode": "0x60806040523480156200001157600080fd5b50604080518082018252601081526f4d6574616865726f204c6f79616c747960801b60208083019182528351808501909452600a8452694c4f59414c2d4845524f60b01b9084015260008054336001600160a01b0319918216811790925560018054909116909117905581519192916200008e91600291620000ad565b508051620000a4906003906020840190620000ad565b50505062000190565b828054620000bb9062000153565b90600052602060002090601f016020900481019282620000df57600085556200012a565b82601f10620000fa57805160ff19168380011785556200012a565b828001600101855582156200012a579182015b828111156200012a5782518255916020019190600101906200010d565b50620001389291506200013c565b5090565b5b808211156200013857600081556001016200013d565b600181811c908216806200016857607f821691505b602082108114156200018a57634e487b7160e01b600052602260045260246000fd5b50919050565b612b9b80620001a06000396000f3fe608060405234801561001057600080fd5b506004361061019a5760003560e01c80637b47ec1a116100e457806390ffad601161009257806390ffad60146103a257806395d89b41146103c2578063a22cb465146103ca578063b88d4fde146103dd578063bcafaf1f146103f0578063c87b56dd14610410578063e985e9c514610423578063f68c3afe1461043657600080fd5b80637b47ec1a1461031f5780637d061c50146103325780638923e2f714610345578063893d20e8146103585780638bdf67f2146103695780638e737af21461037c5780638ef79e911461038f57600080fd5b806323b872dd1161014c57806323b872dd146102485780632f745c591461025b5780634051ddac1461026e57806342842e0e1461029e5780634f6ccce7146102b15780636352211e146102c457806370a08231146102d757806376f10ad0146102ea57600080fd5b806301ffc9a71461019f57806306fdde03146101c7578063081812fc146101dc578063095ea7b3146101fc57806313af403514610211578063158ef93e1461022457806318160ddd14610236575b600080fd5b6101b26101ad366004612289565b610449565b60405190151581526020015b60405180910390f35b6101cf610474565b6040516101be9190612305565b6101ef6101ea366004612318565b610506565b6040516101be9190612331565b61020f61020a36600461235c565b610593565b005b61020f61021f366004612386565b6106a4565b6001546001600160a01b0316156101b2565b600a545b6040519081526020016101be565b61020f6102563660046123a1565b61074c565b61023a61026936600461235c565b61077d565b610276610813565b604080519586526020860194909452928401919091526060830152608082015260a0016101be565b61020f6102ac3660046123a1565b610840565b61023a6102bf366004612318565b61085b565b6101ef6102d2366004612318565b6108ee565b61023a6102e5366004612386565b610965565b6102fd6102f8366004612318565b6109ec565b60408051825181526020808401519082015291810151908201526060016101be565b61020f61032d366004612318565b610a49565b61023a6103403660046123dd565b610c89565b61020f610353366004612318565b610da7565b6000546001600160a01b03166101ef565b61020f610377366004612318565b610f6b565b61020f61038a366004612467565b611012565b61020f61039d3660046124de565b61119d565b6103b56103b0366004612565565b611212565b6040516101be919061264a565b6101cf6112c4565b61020f6103d83660046126a6565b6112d3565b61020f6103eb3660046126dd565b6112de565b6104036103fe366004612318565b611316565b6040516101be919061279c565b6101cf61041e366004612318565b611327565b6101b26104313660046127aa565b611384565b61023a610444366004612318565b6113b2565b60006001600160e01b0319821663780e9d6360e01b148061046e575061046e826113bd565b92915050565b606060028054610483906127dd565b80601f01602080910402602001604051908101604052809291908181526020018280546104af906127dd565b80156104fc5780601f106104d1576101008083540402835291602001916104fc565b820191906000526020600020905b8154815290600101906020018083116104df57829003601f168201915b5050505050905090565b60006105118261140d565b6105775760405162461bcd60e51b815260206004820152602c60248201527f4552433732313a20617070726f76656420717565727920666f72206e6f6e657860448201526b34b9ba32b73a103a37b5b2b760a11b60648201526084015b60405180910390fd5b506000908152600660205260409020546001600160a01b031690565b600061059e826108ee565b9050806001600160a01b0316836001600160a01b0316141561060c5760405162461bcd60e51b815260206004820152602160248201527f4552433732313a20617070726f76616c20746f2063757272656e74206f776e656044820152603960f91b606482015260840161056e565b336001600160a01b038216148061062857506106288133611384565b6106955760405162461bcd60e51b815260206004820152603860248201527f4552433732313a20617070726f76652063616c6c6572206973206e6f74206f776044820152771b995c881b9bdc88185c1c1c9bdd995908199bdc88185b1b60421b606482015260840161056e565b61069f838361142a565b505050565b6000546001600160a01b031633146106cf576040516317f6584d60e31b815260040160405180910390fd5b6001600160a01b0381166106f657604051630465f79960e41b815260040160405180910390fd5b600080546001600160a01b0319166001600160a01b0383161790556040517f4ffd725fc4a22075e9ec71c59edf9c38cdeb588a91b24fc5b61388c5be41282b90610741908390612331565b60405180910390a150565b6107563382611498565b6107725760405162461bcd60e51b815260040161056e90612812565b61069f838383611562565b600061078883610965565b82106107ea5760405162461bcd60e51b815260206004820152602b60248201527f455243373231456e756d657261626c653a206f776e657220696e646578206f7560448201526a74206f6620626f756e647360a81b606482015260840161056e565b506001600160a01b03919091166000908152600860209081526040808320938352929052205490565b60008060008060006011546013546108296116f7565b601554601054945094509450945094509091929394565b61069f838383604051806020016040528060008152506112de565b6000610866600a5490565b82106108c95760405162461bcd60e51b815260206004820152602c60248201527f455243373231456e756d657261626c653a20676c6f62616c20696e646578206f60448201526b7574206f6620626f756e647360a01b606482015260840161056e565b600a82815481106108dc576108dc612863565b90600052602060002001549050919050565b6000818152600460205260408120546001600160a01b03168061046e5760405162461bcd60e51b815260206004820152602960248201527f4552433732313a206f776e657220717565727920666f72206e6f6e657869737460448201526832b73a103a37b5b2b760b91b606482015260840161056e565b60006001600160a01b0382166109d05760405162461bcd60e51b815260206004820152602a60248201527f4552433732313a2062616c616e636520717565727920666f7220746865207a65604482015269726f206164647265737360b01b606482015260840161056e565b506001600160a01b031660009081526005602052604090205490565b610a1060405180606001604052806000815260200160008152602001600081525090565b50600090815260196020908152604091829020825160608101845281548152600182015492810192909252600201549181019190915290565b6000818152601a6020908152604091829020825160a081018452815481526001820154928101929092526002810154928201929092526003820154606082015260049091015460808201819052339190610ab657604051631d6fa32560e31b815260040160405180910390fd5b610abf836108ee565b6001600160a01b0316826001600160a01b031614610af05760405163560e9c3b60e11b815260040160405180910390fd5b60004282608001511115610b2557620186a08260200151601054620186a0030281610b1d57610b1d612879565b049050610b61565b6000610b3042611786565b90506000610b4782856000015186606001516117b1565b604085015160208601516014805484900390550101925050505b602082015160118054919091039055604082015160138054919091039055601580546000190190558015610c1757600c5460405163a9059cbb60e01b81526001600160a01b038581166004830152602482018490529091169063a9059cbb90604401602060405180830381600087803b158015610bdd57600080fd5b505af1158015610bf1573d6000803e3d6000fd5b505050506040513d601f19601f82011682018060405250810190610c15919061288f565b505b6000848152601a6020526040812081815560018101829055600281018290556003810182905560040155610c4a84611866565b60408051858152602081018390527f43ce8febc9822756d8f34b35cd628db23dc57fe810cb077080d7c740fcc6988f910160405180910390a150505050565b600d546000906001600160a01b03163314610cb757604051633d292e0760e01b815260040160405180910390fd5b6000610cc242611786565b601680546001908101918290556000828152601a602052604090208381558082018a9055600281018990556003810188905560048101879055601180548b019055601380548a019055601280548901905560158054909201909155909350909150610d2d88846118fb565b610d3682611a28565b604080516001600160a01b038a16815260208101859052908101839052606081018890526080810187905260a0810186905260c081018590527fd7c5caf3dd1defd263715f9ef14ad0b5e0c4697225d08ad94961473e6a44ab079060e00160405180910390a1505095945050505050565b6000818152601a602052604090206004810154339190610dda57604051631d6fa32560e31b815260040160405180910390fd5b610de3836108ee565b6001600160a01b0316826001600160a01b031614610e145760405163560e9c3b60e11b815260040160405180910390fd5b4281600401541115610e395760405163f4c5943f60e01b815260040160405180910390fd5b6000610e4442611786565b90506000610e5b82846000015485600301546117b1565b6002840154909150810180610e83576040516362be543d60e11b815260040160405180910390fd5b6014805483900390556002840180546013805491909103905583855560009055600c5460405163a9059cbb60e01b81526001600160a01b038781166004830152602482018490529091169063a9059cbb90604401602060405180830381600087803b158015610ef157600080fd5b505af1158015610f05573d6000803e3d6000fd5b505050506040513d601f19601f82011682018060405250810190610f29919061288f565b5060408051878152602081018390527f2eafc6295b5eafd9166fdb22a62a89a9ba08906f8eea8860e532af301316752e910160405180910390a1505050505050565b600033600c546040516323b872dd60e01b81526001600160a01b038084166004830152306024830152604482018690529293509116906323b872dd90606401602060405180830381600087803b158015610fc457600080fd5b505af1158015610fd8573d6000803e3d6000fd5b505050506040513d601f19601f82011682018060405250810190610ffc919061288f565b5061100e61100942611786565b611a28565b5050565b6001546001600160a01b031661103a5760405162dc149f60e41b815260040160405180910390fd5b6001546001600160a01b031633146110655760405163bc40aee160e01b815260040160405180910390fd5b600180546001600160a01b03191690556001600160a01b03861661109c5760405163b352a63160e01b815260040160405180910390fd5b6001600160a01b0385166110c357604051632a97c96b60e01b815260040160405180910390fd5b836110e15760405163b41cc6cf60e01b815260040160405180910390fd5b6161a883111561110457604051632a6bf02760e01b815260040160405180910390fd5b600c80546001600160a01b038089166001600160a01b031992831617909255600d80549288169290911691909117905542600e819055600f859055601084905561115060178484612198565b507fba26dcf2ca6582b4b27800cc4808276aec237d1e74d081007d9a96df6c4196a58787838888888860405161118c97969594939291906128d5565b60405180910390a150505050505050565b6000546001600160a01b031633146111c8576040516317f6584d60e31b815260040160405180910390fd5b6111d460178383612198565b507f71b6d434aa2b38b7cc5e238537ecdeca836d64d830f885db24bf04c9754a4ac38282604051611206929190612920565b60405180910390a15050565b8051606090806001600160401b0381111561122f5761122f61251f565b60405190808252806020026020018201604052801561126857816020015b61125561221c565b81526020019060019003908161124d5790505b50915060005b818110156112bd5761129884828151811061128b5761128b612863565b6020026020010151611b71565b8382815181106112aa576112aa612863565b602090810291909101015260010161126e565b5050919050565b606060038054610483906127dd565b61100e338383611c48565b6112e83383611498565b6113045760405162461bcd60e51b815260040161056e90612812565b61131084848484611d13565b50505050565b61131e61221c565b61046e82611b71565b60606113328261140d565b801561134c5750600060178054611348906127dd565b9050115b1561137f57601761135c83611d46565b60405160200161136d929190612950565b60405160208183030381529060405290505b919050565b6001600160a01b03918216600090815260076020908152604080832093909416825291909152205460ff1690565b600061046e82611786565b60006001600160e01b031982166380ac58cd60e01b14806113ee57506001600160e01b03198216635b5e139f60e01b145b8061046e57506301ffc9a760e01b6001600160e01b031983161461046e565b6000908152600460205260409020546001600160a01b0316151590565b600081815260066020526040902080546001600160a01b0319166001600160a01b038416908117909155819061145f826108ee565b6001600160a01b03167f8c5be1e5ebec7d5bd14f71427d1e84f3dd0314c0f7b2291e5b200ac8c7c3b92560405160405180910390a45050565b60006114a38261140d565b6115045760405162461bcd60e51b815260206004820152602c60248201527f4552433732313a206f70657261746f7220717565727920666f72206e6f6e657860448201526b34b9ba32b73a103a37b5b2b760a11b606482015260840161056e565b600061150f836108ee565b9050806001600160a01b0316846001600160a01b0316148061153657506115368185611384565b8061155a5750836001600160a01b031661154f84610506565b6001600160a01b0316145b949350505050565b826001600160a01b0316611575826108ee565b6001600160a01b0316146115d95760405162461bcd60e51b815260206004820152602560248201527f4552433732313a207472616e736665722066726f6d20696e636f72726563742060448201526437bbb732b960d91b606482015260840161056e565b6001600160a01b03821661163b5760405162461bcd60e51b8152602060048201526024808201527f4552433732313a207472616e7366657220746f20746865207a65726f206164646044820152637265737360e01b606482015260840161056e565b611646838383611e43565b61165160008261142a565b6001600160a01b038316600090815260056020526040812080546001929061167a908490612a21565b90915550506001600160a01b03821660009081526005602052604081208054600192906116a8908490612a38565b909155505060008181526004602052604080822080546001600160a01b0319166001600160a01b038681169182179092559151849391871691600080516020612b6f83398151915291a4505050565b600c546040516370a0823160e01b81526000916001600160a01b0316906370a0823190611728903090600401612331565b60206040518083038186803b15801561174057600080fd5b505afa158015611754573d6000803e3d6000fd5b505050506040513d601f19601f820116820180604052508101906117789190612a50565b601154601354910303919050565b6000600e54821061137f57600f54600e548303816117a6576117a6612879565b046001019050919050565b601854600090801561185e5760001981015b6000601882815481106117d8576117d8612863565b906000526020600020015490508681101561184757858110156117fb575061185c565b60008181526019602090815260409182902082516060810184528154815260018201549281018390526002909101549281018390529187028161184057611840612879565b0485019450505b81611852575061185c565b50600019016117c3565b505b509392505050565b6000611871826108ee565b905061187f81600084611e43565b61188a60008361142a565b6001600160a01b03811660009081526005602052604081208054600192906118b3908490612a21565b909155505060008281526004602052604080822080546001600160a01b0319169055518391906001600160a01b03841690600080516020612b6f833981519152908390a45050565b6001600160a01b0382166119515760405162461bcd60e51b815260206004820181905260248201527f4552433732313a206d696e7420746f20746865207a65726f2061646472657373604482015260640161056e565b61195a8161140d565b156119a75760405162461bcd60e51b815260206004820152601c60248201527f4552433732313a20746f6b656e20616c7265616479206d696e74656400000000604482015260640161056e565b6119b360008383611e43565b6001600160a01b03821660009081526005602052604081208054600192906119dc908490612a38565b909155505060008181526004602052604080822080546001600160a01b0319166001600160a01b0386169081179091559051839290600080516020612b6f833981519152908290a45050565b601254611a325750565b600080611a3d6116f7565b90506014548114611a55576014805490829055810391505b5080611a5f575050565b60185480611abb5750600082815260196020526040812060125460018083019190915560029091019290925560188054928301815590527fb13d2d76d1f4b7be834882e410b3e3a8afaf69f83600ae24db354391d2378d2e0155565b6000600182039050600060188281548110611ad857611ad8612863565b9060005260206000200154905084811415611b115760008181526019602052604090206012546001820155600201805485019055611b6a565b6000858152601960205260408120601254600180830191909155600282018790558481019091556018805491820181559091527fb13d2d76d1f4b7be834882e410b3e3a8afaf69f83600ae24db354391d2378d2e018590555b5050505050565b611b7961221c565b6000828152601a6020908152604091829020825160a0810184528154815260018201549281018390526002820154938101939093526003810154606084015260040154608083015215611c42576000611bd142611786565b9050611bdc846108ee565b6001600160a01b03168352602080830180519185019190915251606083015181611c0857611c08612879565b04604080850191909152820151606080850191909152825190830151611c2f9183916117b1565b60808085019190915282015160a0840152505b50919050565b816001600160a01b0316836001600160a01b03161415611ca65760405162461bcd60e51b815260206004820152601960248201527822a9219b99189d1030b8383937bb32903a379031b0b63632b960391b604482015260640161056e565b6001600160a01b03838116600081815260076020908152604080832094871680845294825291829020805460ff191686151590811790915591519182527f17307eab39ab6107e8899845ad3d59bd9653f200f220920489ca2b5937696c31910160405180910390a3505050565b611d1e848484611562565b611d2a84848484611efb565b6113105760405162461bcd60e51b815260040161056e90612a69565b606081611d6a5750506040805180820190915260018152600360fc1b602082015290565b8160005b8115611d945780611d7e81612abb565b9150611d8d9050600a83612ad6565b9150611d6e565b6000816001600160401b03811115611dae57611dae61251f565b6040519080825280601f01601f191660200182016040528015611dd8576020820181803683370190505b5090505b841561155a57611ded600183612a21565b9150611dfa600a86612aea565b611e05906030612a38565b60f81b818381518110611e1a57611e1a612863565b60200101906001600160f81b031916908160001a905350611e3c600a86612ad6565b9450611ddc565b6001600160a01b038316611e9e57611e9981600a80546000838152600b60205260408120829055600182018355919091527fc65a7bb8d6351c1cf70c95a316cc6a92839c986682d98bc35f958f4883f9d2a80155565b611ec1565b816001600160a01b0316836001600160a01b031614611ec157611ec18382612008565b6001600160a01b038216611ed85761069f816120a5565b826001600160a01b0316826001600160a01b03161461069f5761069f8282612154565b60006001600160a01b0384163b15611ffd57604051630a85bd0160e11b81526001600160a01b0385169063150b7a0290611f3f903390899088908890600401612afe565b602060405180830381600087803b158015611f5957600080fd5b505af1925050508015611f89575060408051601f3d908101601f19168201909252611f8691810190612b3b565b60015b611fe3573d808015611fb7576040519150601f19603f3d011682016040523d82523d6000602084013e611fbc565b606091505b508051611fdb5760405162461bcd60e51b815260040161056e90612a69565b805181602001fd5b6001600160e01b031916630a85bd0160e11b14905061155a565b506001949350505050565b6000600161201584610965565b61201f9190612a21565b600083815260096020526040902054909150808214612072576001600160a01b03841660009081526008602090815260408083208584528252808320548484528184208190558352600990915290208190555b5060009182526009602090815260408084208490556001600160a01b039094168352600881528383209183525290812055565b600a546000906120b790600190612a21565b6000838152600b6020526040812054600a80549394509092849081106120df576120df612863565b9060005260206000200154905080600a838154811061210057612100612863565b6000918252602080832090910192909255828152600b9091526040808220849055858252812055600a80548061213857612138612b58565b6001900381819060005260206000200160009055905550505050565b600061215f83610965565b6001600160a01b039093166000908152600860209081526040808320868452825280832085905593825260099052919091209190915550565b8280546121a4906127dd565b90600052602060002090601f0160209004810192826121c6576000855561220c565b82601f106121df5782800160ff1982351617855561220c565b8280016001018555821561220c579182015b8281111561220c5782358255916020019190600101906121f1565b5061221892915061225b565b5090565b6040518060c0016040528060006001600160a01b0316815260200160008152602001600081526020016000815260200160008152602001600081525090565b5b80821115612218576000815560010161225c565b6001600160e01b03198116811461228657600080fd5b50565b60006020828403121561229b57600080fd5b81356122a681612270565b9392505050565b60005b838110156122c85781810151838201526020016122b0565b838111156113105750506000910152565b600081518084526122f18160208601602086016122ad565b601f01601f19169290920160200192915050565b6020815260006122a660208301846122d9565b60006020828403121561232a57600080fd5b5035919050565b6001600160a01b0391909116815260200190565b80356001600160a01b038116811461137f57600080fd5b6000806040838503121561236f57600080fd5b61237883612345565b946020939093013593505050565b60006020828403121561239857600080fd5b6122a682612345565b6000806000606084860312156123b657600080fd5b6123bf84612345565b92506123cd60208501612345565b9150604084013590509250925092565b600080600080600060a086880312156123f557600080fd5b6123fe86612345565b97602087013597506040870135966060810135965060800135945092505050565b60008083601f84011261243157600080fd5b5081356001600160401b0381111561244857600080fd5b60208301915083602082850101111561246057600080fd5b9250929050565b60008060008060008060a0878903121561248057600080fd5b61248987612345565b955061249760208801612345565b9450604087013593506060870135925060808701356001600160401b038111156124c057600080fd5b6124cc89828a0161241f565b979a9699509497509295939492505050565b600080602083850312156124f157600080fd5b82356001600160401b0381111561250757600080fd5b6125138582860161241f565b90969095509350505050565b634e487b7160e01b600052604160045260246000fd5b604051601f8201601f191681016001600160401b038111828210171561255d5761255d61251f565b604052919050565b6000602080838503121561257857600080fd5b82356001600160401b038082111561258f57600080fd5b818501915085601f8301126125a357600080fd5b8135818111156125b5576125b561251f565b8060051b91506125c6848301612535565b81815291830184019184810190888411156125e057600080fd5b938501935b838510156125fe578435825293850193908501906125e5565b98975050505050505050565b80516001600160a01b031682526020808201519083015260408082015190830152606080820151908301526080808201519083015260a090810151910152565b6020808252825182820181905260009190848201906040850190845b8181101561268c5761267983855161260a565b9284019260c09290920191600101612666565b50909695505050505050565b801515811461228657600080fd5b600080604083850312156126b957600080fd5b6126c283612345565b915060208301356126d281612698565b809150509250929050565b600080600080608085870312156126f357600080fd5b6126fc85612345565b9350602061270b818701612345565b93506040860135925060608601356001600160401b038082111561272e57600080fd5b818801915088601f83011261274257600080fd5b8135818111156127545761275461251f565b612766601f8201601f19168501612535565b9150808252898482850101111561277c57600080fd5b808484018584013760008482840101525080935050505092959194509250565b60c0810161046e828461260a565b600080604083850312156127bd57600080fd5b6127c683612345565b91506127d460208401612345565b90509250929050565b600181811c908216806127f157607f821691505b60208210811415611c4257634e487b7160e01b600052602260045260246000fd5b60208082526031908201527f4552433732313a207472616e736665722063616c6c6572206973206e6f74206f6040820152701ddb995c881b9bdc88185c1c1c9bdd9959607a1b606082015260800190565b634e487b7160e01b600052603260045260246000fd5b634e487b7160e01b600052601260045260246000fd5b6000602082840312156128a157600080fd5b81516122a681612698565b81835281816020850137506000828201602090810191909152601f909101601f19169091010190565b600060018060a01b03808a16835280891660208401525086604083015285606083015284608083015260c060a083015261291360c0830184866128ac565b9998505050505050505050565b60208152600061155a6020830184866128ac565b600081516129468185602086016122ad565b9290920192915050565b600080845481600182811c91508083168061296c57607f831692505b602080841082141561298c57634e487b7160e01b86526022600452602486fd5b8180156129a057600181146129b1576129de565b60ff198616895284890196506129de565b60008b81526020902060005b868110156129d65781548b8201529085019083016129bd565b505084890196505b505050505050612a026129f18286612934565b64173539b7b760d91b815260050190565b95945050505050565b634e487b7160e01b600052601160045260246000fd5b600082821015612a3357612a33612a0b565b500390565b60008219821115612a4b57612a4b612a0b565b500190565b600060208284031215612a6257600080fd5b5051919050565b60208082526032908201527f4552433732313a207472616e7366657220746f206e6f6e20455243373231526560408201527131b2b4bb32b91034b6b83632b6b2b73a32b960711b606082015260800190565b6000600019821415612acf57612acf612a0b565b5060010190565b600082612ae557612ae5612879565b500490565b600082612af957612af9612879565b500690565b6001600160a01b0385811682528416602082015260408101839052608060608201819052600090612b31908301846122d9565b9695505050505050565b600060208284031215612b4d57600080fd5b81516122a681612270565b634e487b7160e01b600052603160045260246000fdfeddf252ad1be2c89b69c2b068fc378daa952ba7f163c4a11628f55a4df523b3efa164736f6c6343000809000a",
  "devdoc": {
    "author": "Stanisaw Gogowski <stan@metahero.io>",
    "kind": "dev",
    "methods": {
      "approve(address,uint256)": {
        "details": "See {IERC721-approve}."
      },
      "balanceOf(address)": {
        "details": "See {IERC721-balanceOf}."
      },
      "getApproved(uint256)": {
        "details": "See {IERC721-getApproved}."
      },
      "isApprovedForAll(address,address)": {
        "details": "See {IERC721-isApprovedForAll}."
      },
      "name()": {
        "details": "See {IERC721Metadata-name}."
      },
      "ownerOf(uint256)": {
        "details": "See {IERC721-ownerOf}."
      },
      "safeTransferFrom(address,address,uint256)": {
        "details": "See {IERC721-safeTransferFrom}."
      },
      "safeTransferFrom(address,address,uint256,bytes)": {
        "details": "See {IERC721-safeTransferFrom}."
      },
      "setApprovalForAll(address,bool)": {
        "details": "See {IERC721-setApprovalForAll}."
      },
      "supportsInterface(bytes4)": {
        "details": "See {IERC165-supportsInterface}."
      },
      "symbol()": {
        "details": "See {IERC721Metadata-symbol}."
      },
      "tokenByIndex(uint256)": {
        "details": "See {IERC721Enumerable-tokenByIndex}."
      },
      "tokenOfOwnerByIndex(address,uint256)": {
        "details": "See {IERC721Enumerable-tokenOfOwnerByIndex}."
      },
      "tokenURI(uint256)": {
        "details": "See {IERC721Metadata-tokenURI}."
      },
      "totalSupply()": {
        "details": "See {IERC721Enumerable-totalSupply}."
      },
      "transferFrom(address,address,uint256)": {
        "details": "See {IERC721-transferFrom}."
      }
    },
    "title": "Metahero Loyalty Token",
    "version": 1
  },
  "userdoc": {
    "kind": "user",
    "methods": {},
    "version": 1
  },
  "storageLayout": {
    "storage": [
      {
        "astId": 3,
        "contract": "src/MetaheroLoyaltyToken.sol:MetaheroLoyaltyToken",
        "label": "_owner",
        "offset": 0,
        "slot": "0",
        "type": "t_address"
      },
      {
        "astId": 73,
        "contract": "src/MetaheroLoyaltyToken.sol:MetaheroLoyaltyToken",
        "label": "_deployer",
        "offset": 0,
        "slot": "1",
        "type": "t_address"
      },
      {
        "astId": 919,
        "contract": "src/MetaheroLoyaltyToken.sol:MetaheroLoyaltyToken",
        "label": "_name",
        "offset": 0,
        "slot": "2",
        "type": "t_string_storage"
      },
      {
        "astId": 921,
        "contract": "src/MetaheroLoyaltyToken.sol:MetaheroLoyaltyToken",
        "label": "_symbol",
        "offset": 0,
        "slot": "3",
        "type": "t_string_storage"
      },
      {
        "astId": 925,
        "contract": "src/MetaheroLoyaltyToken.sol:MetaheroLoyaltyToken",
        "label": "_owners",
        "offset": 0,
        "slot": "4",
        "type": "t_mapping(t_uint256,t_address)"
      },
      {
        "astId": 929,
        "contract": "src/MetaheroLoyaltyToken.sol:MetaheroLoyaltyToken",
        "label": "_balances",
        "offset": 0,
        "slot": "5",
        "type": "t_mapping(t_address,t_uint256)"
      },
      {
        "astId": 933,
        "contract": "src/MetaheroLoyaltyToken.sol:MetaheroLoyaltyToken",
        "label": "_tokenApprovals",
        "offset": 0,
        "slot": "6",
        "type": "t_mapping(t_uint256,t_address)"
      },
      {
        "astId": 939,
        "contract": "src/MetaheroLoyaltyToken.sol:MetaheroLoyaltyToken",
        "label": "_operatorApprovals",
        "offset": 0,
        "slot": "7",
        "type": "t_mapping(t_address,t_mapping(t_address,t_bool))"
      },
      {
        "astId": 1908,
        "contract": "src/MetaheroLoyaltyToken.sol:MetaheroLoyaltyToken",
        "label": "_ownedTokens",
        "offset": 0,
        "slot": "8",
        "type": "t_mapping(t_address,t_mapping(t_uint256,t_uint256))"
      },
      {
        "astId": 1912,
        "contract": "src/MetaheroLoyaltyToken.sol:MetaheroLoyaltyToken",
        "label": "_ownedTokensIndex",
        "offset": 0,
        "slot": "9",
        "type": "t_mapping(t_uint256,t_uint256)"
      },
      {
        "astId": 1915,
        "contract": "src/MetaheroLoyaltyToken.sol:MetaheroLoyaltyToken",
        "label": "_allTokens",
        "offset": 0,
        "slot": "10",
        "type": "t_array(t_uint256)dyn_storage"
      },
      {
        "astId": 1919,
        "contract": "src/MetaheroLoyaltyToken.sol:MetaheroLoyaltyToken",
        "label": "_allTokensIndex",
        "offset": 0,
        "slot": "11",
        "type": "t_mapping(t_uint256,t_uint256)"
      },
      {
        "astId": 2994,
        "contract": "src/MetaheroLoyaltyToken.sol:MetaheroLoyaltyToken",
        "label": "_paymentToken",
        "offset": 0,
        "slot": "12",
        "type": "t_contract(IERC20)795"
      },
      {
        "astId": 2996,
        "contract": "src/MetaheroLoyaltyToken.sol:MetaheroLoyaltyToken",
        "label": "_tokenDistributor",
        "offset": 0,
        "slot": "13",
        "type": "t_address"
      },
      {
        "astId": 2998,
        "contract": "src/MetaheroLoyaltyToken.sol:MetaheroLoyaltyToken",
        "label": "_snapshotBaseTimestamp",
        "offset": 0,
        "slot": "14",
        "type": "t_uint256"
      },
      {
        "astId": 3000,
        "contract": "src/MetaheroLoyaltyToken.sol:MetaheroLoyaltyToken",
        "label": "_snapshotWindowMinLength",
        "offset": 0,
        "slot": "15",
        "type": "t_uint256"
      },
      {
        "astId": 3002,
        "contract": "src/MetaheroLoyaltyToken.sol:MetaheroLoyaltyToken",
        "label": "_earlyWithdrawalTax",
        "offset": 0,
        "slot": "16",
        "type": "t_uint256"
      },
      {
        "astId": 3004,
        "contract": "src/MetaheroLoyaltyToken.sol:MetaheroLoyaltyToken",
        "label": "_totalTokensDeposits",
        "offset": 0,
        "slot": "17",
        "type": "t_uint256"
      },
      {
        "astId": 3006,
        "contract": "src/MetaheroLoyaltyToken.sol:MetaheroLoyaltyToken",
        "label": "_totalTokensWeights",
        "offset": 0,
        "slot": "18",
        "type": "t_uint256"
      },
      {
        "astId": 3008,
        "contract": "src/MetaheroLoyaltyToken.sol:MetaheroLoyaltyToken",
        "label": "_totalTokensRewards",
        "offset": 0,
        "slot": "19",
        "type": "t_uint256"
      },
      {
        "astId": 3010,
        "contract": "src/MetaheroLoyaltyToken.sol:MetaheroLoyaltyToken",
        "label": "_totalSnapshotsRewards",
        "offset": 0,
        "slot": "20",
        "type": "t_uint256"
      },
      {
        "astId": 3012,
        "contract": "src/MetaheroLoyaltyToken.sol:MetaheroLoyaltyToken",
        "label": "_totalTokens",
        "offset": 0,
        "slot": "21",
        "type": "t_uint256"
      },
      {
        "astId": 3014,
        "contract": "src/MetaheroLoyaltyToken.sol:MetaheroLoyaltyToken",
        "label": "_tokenIdCounter",
        "offset": 0,
        "slot": "22",
        "type": "t_uint256"
      },
      {
        "astId": 3016,
        "contract": "src/MetaheroLoyaltyToken.sol:MetaheroLoyaltyToken",
        "label": "_tokenBaseURI",
        "offset": 0,
        "slot": "23",
        "type": "t_string_storage"
      },
      {
        "astId": 3019,
        "contract": "src/MetaheroLoyaltyToken.sol:MetaheroLoyaltyToken",
        "label": "_snapshotIds",
        "offset": 0,
        "slot": "24",
        "type": "t_array(t_uint256)dyn_storage"
      },
      {
        "astId": 3024,
        "contract": "src/MetaheroLoyaltyToken.sol:MetaheroLoyaltyToken",
        "label": "_snapshots",
        "offset": 0,
        "slot": "25",
        "type": "t_mapping(t_uint256,t_struct(Snapshot)2988_storage)"
      },
      {
        "astId": 3029,
        "contract": "src/MetaheroLoyaltyToken.sol:MetaheroLoyaltyToken",
        "label": "_tokenDetails",
        "offset": 0,
        "slot": "26",
        "type": "t_mapping(t_uint256,t_struct(TokenDetails)2968_storage)"
      }
    ],
    "types": {
      "t_address": {
        "encoding": "inplace",
        "label": "address",
        "numberOfBytes": "20"
      },
      "t_array(t_uint256)dyn_storage": {
        "base": "t_uint256",
        "encoding": "dynamic_array",
        "label": "uint256[]",
        "numberOfBytes": "32"
      },
      "t_bool": {
        "encoding": "inplace",
        "label": "bool",
        "numberOfBytes": "1"
      },
      "t_contract(IERC20)795": {
        "encoding": "inplace",
        "label": "contract IERC20",
        "numberOfBytes": "20"
      },
      "t_mapping(t_address,t_bool)": {
        "encoding": "mapping",
        "key": "t_address",
        "label": "mapping(address => bool)",
        "numberOfBytes": "32",
        "value": "t_bool"
      },
      "t_mapping(t_address,t_mapping(t_address,t_bool))": {
        "encoding": "mapping",
        "key": "t_address",
        "label": "mapping(address => mapping(address => bool))",
        "numberOfBytes": "32",
        "value": "t_mapping(t_address,t_bool)"
      },
      "t_mapping(t_address,t_mapping(t_uint256,t_uint256))": {
        "encoding": "mapping",
        "key": "t_address",
        "label": "mapping(address => mapping(uint256 => uint256))",
        "numberOfBytes": "32",
        "value": "t_mapping(t_uint256,t_uint256)"
      },
      "t_mapping(t_address,t_uint256)": {
        "encoding": "mapping",
        "key": "t_address",
        "label": "mapping(address => uint256)",
        "numberOfBytes": "32",
        "value": "t_uint256"
      },
      "t_mapping(t_uint256,t_address)": {
        "encoding": "mapping",
        "key": "t_uint256",
        "label": "mapping(uint256 => address)",
        "numberOfBytes": "32",
        "value": "t_address"
      },
      "t_mapping(t_uint256,t_struct(Snapshot)2988_storage)": {
        "encoding": "mapping",
        "key": "t_uint256",
        "label": "mapping(uint256 => struct MetaheroLoyaltyToken.Snapshot)",
        "numberOfBytes": "32",
        "value": "t_struct(Snapshot)2988_storage"
      },
      "t_mapping(t_uint256,t_struct(TokenDetails)2968_storage)": {
        "encoding": "mapping",
        "key": "t_uint256",
        "label": "mapping(uint256 => struct MetaheroLoyaltyToken.TokenDetails)",
        "numberOfBytes": "32",
        "value": "t_struct(TokenDetails)2968_storage"
      },
      "t_mapping(t_uint256,t_uint256)": {
        "encoding": "mapping",
        "key": "t_uint256",
        "label": "mapping(uint256 => uint256)",
        "numberOfBytes": "32",
        "value": "t_uint256"
      },
      "t_string_storage": {
        "encoding": "bytes",
        "label": "string",
        "numberOfBytes": "32"
      },
      "t_struct(Snapshot)2988_storage": {
        "encoding": "inplace",
        "label": "struct MetaheroLoyaltyToken.Snapshot",
        "members": [
          {
            "astId": 2983,
            "contract": "src/MetaheroLoyaltyToken.sol:MetaheroLoyaltyToken",
            "label": "index",
            "offset": 0,
            "slot": "0",
            "type": "t_uint256"
          },
          {
            "astId": 2985,
            "contract": "src/MetaheroLoyaltyToken.sol:MetaheroLoyaltyToken",
            "label": "weights",
            "offset": 0,
            "slot": "1",
            "type": "t_uint256"
          },
          {
            "astId": 2987,
            "contract": "src/MetaheroLoyaltyToken.sol:MetaheroLoyaltyToken",
            "label": "rewards",
            "offset": 0,
            "slot": "2",
            "type": "t_uint256"
          }
        ],
        "numberOfBytes": "96"
      },
      "t_struct(TokenDetails)2968_storage": {
        "encoding": "inplace",
        "label": "struct MetaheroLoyaltyToken.TokenDetails",
        "members": [
          {
            "astId": 2959,
            "contract": "src/MetaheroLoyaltyToken.sol:MetaheroLoyaltyToken",
            "label": "snapshotId",
            "offset": 0,
            "slot": "0",
            "type": "t_uint256"
          },
          {
            "astId": 2961,
            "contract": "src/MetaheroLoyaltyToken.sol:MetaheroLoyaltyToken",
            "label": "deposit",
            "offset": 0,
            "slot": "1",
            "type": "t_uint256"
          },
          {
            "astId": 2963,
            "contract": "src/MetaheroLoyaltyToken.sol:MetaheroLoyaltyToken",
            "label": "rewards",
            "offset": 0,
            "slot": "2",
            "type": "t_uint256"
          },
          {
            "astId": 2965,
            "contract": "src/MetaheroLoyaltyToken.sol:MetaheroLoyaltyToken",
            "label": "weight",
            "offset": 0,
            "slot": "3",
            "type": "t_uint256"
          },
          {
            "astId": 2967,
            "contract": "src/MetaheroLoyaltyToken.sol:MetaheroLoyaltyToken",
            "label": "unlockWithdrawalAt",
            "offset": 0,
            "slot": "4",
            "type": "t_uint256"
          }
        ],
        "numberOfBytes": "160"
      },
      "t_uint256": {
        "encoding": "inplace",
        "label": "uint256",
        "numberOfBytes": "32"
      }
    }
  }
}