{
  "address": "0x9DEF07b8aa8181b0C8a3e5E17DA8F5E689e5bCf8",
  "abi": [
    {
      "inputs": [],
      "stateMutability": "nonpayable",
      "type": "constructor"
    },
    {
      "inputs": [],
      "name": "AlreadyInitialized",
      "type": "error"
    },
    {
      "inputs": [],
      "name": "DistributionIsFinished",
      "type": "error"
    },
    {
      "inputs": [],
      "name": "DistributionIsNotReady",
      "type": "error"
    },
    {
      "inputs": [],
      "name": "InvalidDeposit",
      "type": "error"
    },
    {
      "inputs": [],
      "name": "InvalidDepositPower",
      "type": "error"
    },
    {
      "inputs": [],
      "name": "InvalidInvitationId",
      "type": "error"
    },
    {
      "inputs": [],
      "name": "InvalidInvitationProof",
      "type": "error"
    },
    {
      "inputs": [],
      "name": "InvalidMaxDeposit",
      "type": "error"
    },
    {
      "inputs": [],
      "name": "InvalidMaxRewardsAPY",
      "type": "error"
    },
    {
      "inputs": [],
      "name": "InvalidMaxWithdrawalLockTime",
      "type": "error"
    },
    {
      "inputs": [],
      "name": "InvalidMinDeposit",
      "type": "error"
    },
    {
      "inputs": [],
      "name": "InvalidMinWithdrawalLockTime",
      "type": "error"
    },
    {
      "inputs": [],
      "name": "InvalidWithdrawalLockTime",
      "type": "error"
    },
    {
      "inputs": [],
      "name": "InvitationAlreadyExists",
      "type": "error"
    },
    {
      "inputs": [],
      "name": "InvitationAlreadyUsed",
      "type": "error"
    },
    {
      "inputs": [],
      "name": "InvitationDoesntExist",
      "type": "error"
    },
    {
      "inputs": [],
      "name": "LoyaltyTokenIsTheZeroAddress",
      "type": "error"
    },
    {
      "inputs": [],
      "name": "MsgSenderIsNotTheDeployer",
      "type": "error"
    },
    {
      "inputs": [],
      "name": "MsgSenderIsNotTheOwner",
      "type": "error"
    },
    {
      "inputs": [],
      "name": "NoRewardsToRelease",
      "type": "error"
    },
    {
      "inputs": [],
      "name": "OwnerIsTheZeroAddress",
      "type": "error"
    },
    {
      "inputs": [],
      "name": "PaymentTokenIsTheZeroAddress",
      "type": "error"
    },
    {
      "anonymous": false,
      "inputs": [
        {
          "indexed": false,
          "internalType": "enum MetaheroLoyaltyTokenDistributor.DistributionStates",
          "name": "distributionState",
          "type": "uint8"
        }
      ],
      "name": "DistributionStateUpdated",
      "type": "event"
    },
    {
      "anonymous": false,
      "inputs": [
        {
          "indexed": false,
          "internalType": "address",
          "name": "loyaltyToken",
          "type": "address"
        },
        {
          "indexed": false,
          "internalType": "address",
          "name": "paymentToken",
          "type": "address"
        }
      ],
      "name": "Initialized",
      "type": "event"
    },
    {
      "anonymous": false,
      "inputs": [
        {
          "indexed": false,
          "internalType": "uint256",
          "name": "invitationId",
          "type": "uint256"
        },
        {
          "indexed": false,
          "internalType": "bytes32",
          "name": "treeRoot",
          "type": "bytes32"
        },
        {
          "indexed": false,
          "internalType": "uint256",
          "name": "depositPower",
          "type": "uint256"
        },
        {
          "indexed": false,
          "internalType": "uint256",
          "name": "minDeposit",
          "type": "uint256"
        },
        {
          "indexed": false,
          "internalType": "uint256",
          "name": "maxDeposit",
          "type": "uint256"
        },
        {
          "indexed": false,
          "internalType": "uint256",
          "name": "minRewardsAPY",
          "type": "uint256"
        },
        {
          "indexed": false,
          "internalType": "uint256",
          "name": "maxRewardsAPY",
          "type": "uint256"
        },
        {
          "indexed": false,
          "internalType": "uint256",
          "name": "minWithdrawalLockTime",
          "type": "uint256"
        },
        {
          "indexed": false,
          "internalType": "uint256",
          "name": "maxWithdrawalLockTime",
          "type": "uint256"
        }
      ],
      "name": "InvitationAdded",
      "type": "event"
    },
    {
      "anonymous": false,
      "inputs": [
        {
          "indexed": false,
          "internalType": "uint256",
          "name": "invitationId",
          "type": "uint256"
        }
      ],
      "name": "InvitationRemoved",
      "type": "event"
    },
    {
      "anonymous": false,
      "inputs": [
        {
          "indexed": false,
          "internalType": "uint256",
          "name": "invitationId",
          "type": "uint256"
        },
        {
          "indexed": false,
          "internalType": "uint256",
          "name": "tokenId",
          "type": "uint256"
        },
        {
          "indexed": false,
          "internalType": "address",
          "name": "owner",
          "type": "address"
        }
      ],
      "name": "InvitationUsed",
      "type": "event"
    },
    {
      "anonymous": false,
      "inputs": [
        {
          "indexed": false,
          "internalType": "address",
          "name": "owner",
          "type": "address"
        }
      ],
      "name": "OwnerUpdated",
      "type": "event"
    },
    {
      "anonymous": false,
      "inputs": [
        {
          "indexed": false,
          "internalType": "uint256",
          "name": "rewards",
          "type": "uint256"
        }
      ],
      "name": "RewardsReleased",
      "type": "event"
    },
    {
      "inputs": [
        {
          "internalType": "uint256",
          "name": "invitationId",
          "type": "uint256"
        },
        {
          "internalType": "bytes32",
          "name": "treeRoot",
          "type": "bytes32"
        },
        {
          "internalType": "uint256",
          "name": "depositPower",
          "type": "uint256"
        },
        {
          "internalType": "uint256",
          "name": "minDeposit",
          "type": "uint256"
        },
        {
          "internalType": "uint256",
          "name": "maxDeposit",
          "type": "uint256"
        },
        {
          "internalType": "uint256",
          "name": "minRewardsAPY",
          "type": "uint256"
        },
        {
          "internalType": "uint256",
          "name": "maxRewardsAPY",
          "type": "uint256"
        },
        {
          "internalType": "uint256",
          "name": "minWithdrawalLockTime",
          "type": "uint256"
        },
        {
          "internalType": "uint256",
          "name": "maxWithdrawalLockTime",
          "type": "uint256"
        }
      ],
      "name": "addInvitation",
      "outputs": [],
      "stateMutability": "nonpayable",
      "type": "function"
    },
    {
      "inputs": [],
      "name": "getDistributionState",
      "outputs": [
        {
          "internalType": "enum MetaheroLoyaltyTokenDistributor.DistributionStates",
          "name": "",
          "type": "uint8"
        }
      ],
      "stateMutability": "view",
      "type": "function"
    },
    {
      "inputs": [
        {
          "internalType": "uint256",
          "name": "invitationId",
          "type": "uint256"
        }
      ],
      "name": "getInvitation",
      "outputs": [
        {
          "components": [
            {
              "internalType": "enum MetaheroLoyaltyTokenDistributor.InvitationStates",
              "name": "state",
              "type": "uint8"
            },
            {
              "internalType": "bytes32",
              "name": "treeRoot",
              "type": "bytes32"
            },
            {
              "internalType": "uint256",
              "name": "depositPower",
              "type": "uint256"
            },
            {
              "internalType": "uint256",
              "name": "minDeposit",
              "type": "uint256"
            },
            {
              "internalType": "uint256",
              "name": "maxDeposit",
              "type": "uint256"
            },
            {
              "internalType": "uint256",
              "name": "minRewardsAPY",
              "type": "uint256"
            },
            {
              "internalType": "uint256",
              "name": "maxRewardsAPY",
              "type": "uint256"
            },
            {
              "internalType": "uint256",
              "name": "minWithdrawalLockTime",
              "type": "uint256"
            },
            {
              "internalType": "uint256",
              "name": "maxWithdrawalLockTime",
              "type": "uint256"
            }
          ],
          "internalType": "struct MetaheroLoyaltyTokenDistributor.Invitation",
          "name": "",
          "type": "tuple"
        }
      ],
      "stateMutability": "view",
      "type": "function"
    },
    {
      "inputs": [
        {
          "internalType": "uint256[]",
          "name": "invitationIds",
          "type": "uint256[]"
        }
      ],
      "name": "getInvitations",
      "outputs": [
        {
          "components": [
            {
              "internalType": "enum MetaheroLoyaltyTokenDistributor.InvitationStates",
              "name": "state",
              "type": "uint8"
            },
            {
              "internalType": "bytes32",
              "name": "treeRoot",
              "type": "bytes32"
            },
            {
              "internalType": "uint256",
              "name": "depositPower",
              "type": "uint256"
            },
            {
              "internalType": "uint256",
              "name": "minDeposit",
              "type": "uint256"
            },
            {
              "internalType": "uint256",
              "name": "maxDeposit",
              "type": "uint256"
            },
            {
              "internalType": "uint256",
              "name": "minRewardsAPY",
              "type": "uint256"
            },
            {
              "internalType": "uint256",
              "name": "maxRewardsAPY",
              "type": "uint256"
            },
            {
              "internalType": "uint256",
              "name": "minWithdrawalLockTime",
              "type": "uint256"
            },
            {
              "internalType": "uint256",
              "name": "maxWithdrawalLockTime",
              "type": "uint256"
            }
          ],
          "internalType": "struct MetaheroLoyaltyTokenDistributor.Invitation[]",
          "name": "result",
          "type": "tuple[]"
        }
      ],
      "stateMutability": "view",
      "type": "function"
    },
    {
      "inputs": [],
      "name": "getOwner",
      "outputs": [
        {
          "internalType": "address",
          "name": "",
          "type": "address"
        }
      ],
      "stateMutability": "view",
      "type": "function"
    },
    {
      "inputs": [
        {
          "internalType": "address",
          "name": "loyaltyToken",
          "type": "address"
        },
        {
          "internalType": "address",
          "name": "paymentToken",
          "type": "address"
        }
      ],
      "name": "initialize",
      "outputs": [],
      "stateMutability": "nonpayable",
      "type": "function"
    },
    {
      "inputs": [],
      "name": "initialized",
      "outputs": [
        {
          "internalType": "bool",
          "name": "",
          "type": "bool"
        }
      ],
      "stateMutability": "view",
      "type": "function"
    },
    {
      "inputs": [
        {
          "internalType": "uint256",
          "name": "invitationId",
          "type": "uint256"
        },
        {
          "internalType": "address",
          "name": "account",
          "type": "address"
        }
      ],
      "name": "isInvitationInUse",
      "outputs": [
        {
          "internalType": "bool",
          "name": "",
          "type": "bool"
        }
      ],
      "stateMutability": "view",
      "type": "function"
    },
    {
      "inputs": [],
      "name": "releaseRewards",
      "outputs": [],
      "stateMutability": "nonpayable",
      "type": "function"
    },
    {
      "inputs": [
        {
          "internalType": "uint256",
          "name": "invitationId",
          "type": "uint256"
        }
      ],
      "name": "removeInvitation",
      "outputs": [],
      "stateMutability": "nonpayable",
      "type": "function"
    },
    {
      "inputs": [
        {
          "internalType": "enum MetaheroLoyaltyTokenDistributor.DistributionStates",
          "name": "distributionState",
          "type": "uint8"
        }
      ],
      "name": "setDistributionState",
      "outputs": [],
      "stateMutability": "nonpayable",
      "type": "function"
    },
    {
      "inputs": [
        {
          "internalType": "address",
          "name": "owner",
          "type": "address"
        }
      ],
      "name": "setOwner",
      "outputs": [],
      "stateMutability": "nonpayable",
      "type": "function"
    },
    {
      "inputs": [
        {
          "internalType": "uint256",
          "name": "invitationId",
          "type": "uint256"
        },
        {
          "internalType": "uint256",
          "name": "deposit",
          "type": "uint256"
        },
        {
          "internalType": "uint256",
          "name": "withdrawalLockTime",
          "type": "uint256"
        },
        {
          "internalType": "bytes32[]",
          "name": "proof",
          "type": "bytes32[]"
        }
      ],
      "name": "useInvitation",
      "outputs": [],
      "stateMutability": "nonpayable",
      "type": "function"
    }
  ],
  "transactionHash": "0xfe15643e02124d141b0207a86bd37211d65f3d1e0f99861a5d885e79079818e7",
  "args": [],
  "numDeployments": 1,
  "solcInputHash": "76b9ec7f9156825b406ad1010c7d5e52",
  "bytecode": "0x608060405234801561001057600080fd5b5060008054336001600160a01b0319918216811783556001805490921617905561165790819061004090396000f3fe608060405234801561001057600080fd5b50600436106100bf5760003560e01c8063893d20e81161007c578063893d20e81461015557806394cf47db1461016e578063a3998d271461018e578063bd3aedf6146101c7578063d0fab3ca146101da578063dc8d3ce6146101e2578063ee56977e146101f557600080fd5b806313af4035146100c4578063158ef93e146100d9578063485cc955146100fc5780634c692da21461010f5780636aaaf683146101225780637af6372d14610135575b600080fd5b6100d76100d2366004611222565b61020f565b005b6001546001600160a01b0316155b60405190151581526020015b60405180910390f35b6100d761010a366004611244565b6102b7565b6100d761011d366004611277565b6103d7565b6100d76101303660046112ae565b61049a565b610148610143366004611389565b610a4a565b6040516100f3919061143e565b6000546001600160a01b03166040516100f3919061144d565b61018161017c366004611461565b610af0565b6040516100f391906114d6565b6100e761019c366004611525565b60009182526005602090815260408084206001600160a01b0393909316845291905290205460ff1690565b6100d76101d5366004611389565b610c39565b6100d7610d01565b6100d76101f0366004611548565b610e86565b600154600160a01b900460ff166040516100f391906115a7565b6000546001600160a01b0316331461023a576040516317f6584d60e31b815260040160405180910390fd5b6001600160a01b03811661026157604051630465f79960e41b815260040160405180910390fd5b600080546001600160a01b0319166001600160a01b0383161790556040517f4ffd725fc4a22075e9ec71c59edf9c38cdeb588a91b24fc5b61388c5be41282b906102ac90839061144d565b60405180910390a150565b6001546001600160a01b03166102df5760405162dc149f60e41b815260040160405180910390fd5b6001546001600160a01b0316331461030a5760405163bc40aee160e01b815260040160405180910390fd5b600180546001600160a01b03191690556001600160a01b038216610341576040516303a5f09160e21b815260040160405180910390fd5b6001600160a01b0381166103685760405163b352a63160e01b815260040160405180910390fd5b600280546001600160a01b038481166001600160a01b03199283168117909355600380549185169190921681179091556040805192835260208301919091527f3cd5ec01b1ae7cfec6ca1863e2cd6aa25d6d1702825803ff2b7cc95010fffdc291015b60405180910390a15050565b6000546001600160a01b03163314610402576040516317f6584d60e31b815260040160405180910390fd5b6002600154600160a01b900460ff166002811115610422576104226113a2565b1415610441576040516308055fab60e41b815260040160405180910390fd5b6001805482919060ff60a01b1916600160a01b836002811115610466576104666113a2565b02179055507fe2791f2499e50d1e63a795c1467ba14d227402fbef3f6c6b7ceaf7f51707273e816040516102ac91906115a7565b6000600154600160a01b900460ff1660028111156104ba576104ba6113a2565b146104d857604051637bbe0d0760e11b815260040160405180910390fd5b836104f657604051635b26ac7160e01b815260040160405180910390fd5b600084815260046020526040808220815161012081019092528054829060ff166002811115610527576105276113a2565b6002811115610538576105386113a2565b81526001828101546020830152600283015460408301526003830154606083015260048301546080830152600583015460a0830152600683015460c0830152600783015460e083015260089092015461010090910152909150815160028111156105a4576105a46113a2565b146105c25760405163379e7dc760e11b815260040160405180910390fd5b80606001518410806105d75750806080015184115b156105f557604051635972996f60e11b815260040160405180910390fd5b8060e0015183108061060b575080610100015183115b15610629576040516314dcf90960e31b815260040160405180910390fd5b600033905061068582602001518260405160200161065f919060609190911b6bffffffffffffffffffffffff1916815260140190565b604051602081830303815290604052805190602001208561112c9092919063ffffffff16565b6106a25760405163f235cee760e01b815260040160405180910390fd5b60008681526005602090815260408083206001600160a01b038516845290915290205460ff16156106e657604051633450cb4760e21b815260040160405180910390fd5b6000806000808560e00151881415610703575060a0850151610751565b85610100015188141561071b575060c0850151610751565b8560e00151866101000151038660e0015189038760a001518860c00151030281610747576107476115ba565b048660a001510190505b6003546040516370a0823160e01b81526502de41353000838c028b020495506000916001600160a01b0316906370a082319061079190309060040161144d565b60206040518083038186803b1580156107a957600080fd5b505afa1580156107bd573d6000803e3d6000fd5b505050506040513d601f19601f820116820180604052508101906107e191906115d0565b9050808511156107f757600094508660e0015198505b5050505060408381015160025491516307d061c560e41b81526001600160a01b038581166004830152602482018a905260448201859052918902606482018190524289016084830181905290939092600092911690637d061c509060a401602060405180830381600087803b15801561086f57600080fd5b505af1158015610883573d6000803e3d6000fd5b505050506040513d601f19601f820116820180604052508101906108a791906115d0565b60008b81526005602090815260408083206001600160a01b038a81168086529190935292819020805460ff1916600117905560035460025491516323b872dd60e01b815260048101949094529082166024840152604483018d905292935091909116906323b872dd90606401602060405180830381600087803b15801561092d57600080fd5b505af1158015610941573d6000803e3d6000fd5b505050506040513d601f19601f8201168201806040525081019061096591906115e9565b5083156109f65760035460025460405163a9059cbb60e01b81526001600160a01b0391821660048201526024810187905291169063a9059cbb90604401602060405180830381600087803b1580156109bc57600080fd5b505af11580156109d0573d6000803e3d6000fd5b505050506040513d601f19601f820116820180604052508101906109f491906115e9565b505b604080518b8152602081018390526001600160a01b0387168183015290517f044d9a399180dfab56d89d29e91d76e8d865db6cbdce21ce4c9e6d141ae8d36f9181900360600190a150505050505050505050565b610a526111b6565b60008281526004602052604090819020815161012081019092528054829060ff166002811115610a8457610a846113a2565b6002811115610a9557610a956113a2565b815260018201546020820152600282015460408201526003820154606082015260048201546080820152600582015460a0820152600682015460c0820152600782015460e08201526008909101546101009091015292915050565b6060818067ffffffffffffffff811115610b0c57610b0c611298565b604051908082528060200260200182016040528015610b4557816020015b610b326111b6565b815260200190600190039081610b2a5790505b50915060005b81811015610c305760046000868684818110610b6957610b6961160b565b602090810292909201358352508101919091526040908101600020815161012081019092528054829060ff166002811115610ba657610ba66113a2565b6002811115610bb757610bb76113a2565b815260200160018201548152602001600282015481526020016003820154815260200160048201548152602001600582015481526020016006820154815260200160078201548152602001600882015481525050838281518110610c1d57610c1d61160b565b6020908102919091010152600101610b4b565b50505b92915050565b6000546001600160a01b03163314610c64576040516317f6584d60e31b815260040160405180910390fd5b80610c8257604051635b26ac7160e01b815260040160405180910390fd5b60008181526004602052604090206001815460ff166002811115610ca857610ca86113a2565b14610cc65760405163379e7dc760e11b815260040160405180910390fd5b805460ff191660021781556040518281527ff64a5aa1a64c46c60a68b78cdc9a7c70398c06a42c1b379f8a7fec6e00fe6301906020016103cb565b6000546001600160a01b03163314610d2c576040516317f6584d60e31b815260040160405180910390fd5b6003546040516370a0823160e01b81526000916001600160a01b0316906370a0823190610d5d90309060040161144d565b60206040518083038186803b158015610d7557600080fd5b505afa158015610d89573d6000803e3d6000fd5b505050506040513d601f19601f82011682018060405250810190610dad91906115d0565b905080610dcd5760405163049d2cfb60e31b815260040160405180910390fd5b60035460005460405163a9059cbb60e01b81526001600160a01b0391821660048201526024810184905291169063a9059cbb90604401602060405180830381600087803b158015610e1d57600080fd5b505af1158015610e31573d6000803e3d6000fd5b505050506040513d601f19601f82011682018060405250810190610e5591906115e9565b506040518181527f85de091be18b1506795711e7cfa4b799aa13315833d24c8f92af184dad042098906020016102ac565b6000546001600160a01b03163314610eb1576040516317f6584d60e31b815260040160405180910390fd5b6002600154600160a01b900460ff166002811115610ed157610ed16113a2565b1415610ef0576040516308055fab60e41b815260040160405180910390fd5b88610f0e57604051635b26ac7160e01b815260040160405180910390fd5b60008981526004602052604081205460ff166002811115610f3157610f316113a2565b14610f4f57604051631f11ecf560e31b815260040160405180910390fd5b861580610f5c5750606487115b15610f7a57604051630da0c90560e11b815260040160405180910390fd5b85610f9857604051634f4940eb60e11b815260040160405180910390fd5b85851015610fb95760405163f112120b60e01b815260040160405180910390fd5b83611002578215610fdd5760405163eeea87cb60e01b815260040160405180910390fd5b818114610ffd57604051635d9dcc3960e11b815260040160405180910390fd5b611062565b838310156110235760405163eeea87cb60e01b815260040160405180910390fd5b816110415760405163523b70bf60e01b815260040160405180910390fd5b8181101561106257604051635d9dcc3960e11b815260040160405180910390fd5b600089815260046020818152604092839020805460ff19166001908117825581018c9055600281018b9055600381018a9055918201889055600582018790556006820186905560078201859055600890910183905581518b81529081018a9052908101889052606081018790526080810186905260a0810185905260c0810184905260e0810183905261010081018290527f17eab8e5d873f1bb8ded565d67e26a2965dc1eecd4f2eb7c49bf44f1e4d33ba8906101200160405180910390a1505050505050505050565b6000826111398584611142565b14949350505050565b600081815b84518110156111ae5760008582815181106111645761116461160b565b6020026020010151905080831161118a576000838152602082905260409020925061119b565b600081815260208490526040902092505b50806111a681611621565b915050611147565b509392505050565b604080516101208101909152806000815260200160008019168152602001600081526020016000815260200160008152602001600081526020016000815260200160008152602001600081525090565b80356001600160a01b038116811461121d57600080fd5b919050565b60006020828403121561123457600080fd5b61123d82611206565b9392505050565b6000806040838503121561125757600080fd5b61126083611206565b915061126e60208401611206565b90509250929050565b60006020828403121561128957600080fd5b81356003811061123d57600080fd5b634e487b7160e01b600052604160045260246000fd5b600080600080608085870312156112c457600080fd5b84359350602080860135935060408601359250606086013567ffffffffffffffff808211156112f257600080fd5b818801915088601f83011261130657600080fd5b81358181111561131857611318611298565b8060051b604051601f19603f8301168101818110858211171561133d5761133d611298565b60405291825284820192508381018501918b83111561135b57600080fd5b938501935b8285101561137957843584529385019392850192611360565b989b979a50959850505050505050565b60006020828403121561139b57600080fd5b5035919050565b634e487b7160e01b600052602160045260246000fd5b600381106113d657634e487b7160e01b600052602160045260246000fd5b50565b80516113e4816113b8565b808352506020810151602083015260408101516040830152606081015160608301526080810151608083015260a081015160a083015260c081015160c083015260e081015160e08301526101008082015181840152505050565b6101208101610c3382846113d9565b6001600160a01b0391909116815260200190565b6000806020838503121561147457600080fd5b823567ffffffffffffffff8082111561148c57600080fd5b818501915085601f8301126114a057600080fd5b8135818111156114af57600080fd5b8660208260051b85010111156114c457600080fd5b60209290920196919550909350505050565b6020808252825182820181905260009190848201906040850190845b81811015611519576115058385516113d9565b9284019261012092909201916001016114f2565b50909695505050505050565b6000806040838503121561153857600080fd5b8235915061126e60208401611206565b60008060008060008060008060006101208a8c03121561156757600080fd5b505087359960208901359950604089013598606081013598506080810135975060a0810135965060c0810135955060e08101359450610100013592509050565b602081016115b4836113b8565b91905290565b634e487b7160e01b600052601260045260246000fd5b6000602082840312156115e257600080fd5b5051919050565b6000602082840312156115fb57600080fd5b8151801515811461123d57600080fd5b634e487b7160e01b600052603260045260246000fd5b600060001982141561164357634e487b7160e01b600052601160045260246000fd5b506001019056fea164736f6c6343000809000a",
  "devdoc": {
    "author": "Stanisaw Gogowski <stan@metahero.io>",
    "kind": "dev",
    "methods": {},
    "title": "Metahero Loyalty Token (distributor)",
    "version": 1
  },
  "userdoc": {
    "kind": "user",
    "methods": {},
    "version": 1
  },
  "storageLayout": {
    "storage": [
      {
        "astId": 3,
        "contract": "src/MetaheroLoyaltyTokenDistributor.sol:MetaheroLoyaltyTokenDistributor",
        "label": "_owner",
        "offset": 0,
        "slot": "0",
        "type": "t_address"
      },
      {
        "astId": 73,
        "contract": "src/MetaheroLoyaltyTokenDistributor.sol:MetaheroLoyaltyTokenDistributor",
        "label": "_deployer",
        "offset": 0,
        "slot": "1",
        "type": "t_address"
      },
      {
        "astId": 4192,
        "contract": "src/MetaheroLoyaltyTokenDistributor.sol:MetaheroLoyaltyTokenDistributor",
        "label": "_distributionState",
        "offset": 20,
        "slot": "1",
        "type": "t_enum(DistributionStates)4162"
      },
      {
        "astId": 4195,
        "contract": "src/MetaheroLoyaltyTokenDistributor.sol:MetaheroLoyaltyTokenDistributor",
        "label": "_loyaltyToken",
        "offset": 0,
        "slot": "2",
        "type": "t_contract(MetaheroLoyaltyToken)4138"
      },
      {
        "astId": 4198,
        "contract": "src/MetaheroLoyaltyTokenDistributor.sol:MetaheroLoyaltyTokenDistributor",
        "label": "_paymentToken",
        "offset": 0,
        "slot": "3",
        "type": "t_contract(IERC20)795"
      },
      {
        "astId": 4203,
        "contract": "src/MetaheroLoyaltyTokenDistributor.sol:MetaheroLoyaltyTokenDistributor",
        "label": "_invitations",
        "offset": 0,
        "slot": "4",
        "type": "t_mapping(t_uint256,t_struct(Invitation)4186_storage)"
      },
      {
        "astId": 4209,
        "contract": "src/MetaheroLoyaltyTokenDistributor.sol:MetaheroLoyaltyTokenDistributor",
        "label": "_usedInvitation",
        "offset": 0,
        "slot": "5",
        "type": "t_mapping(t_uint256,t_mapping(t_address,t_bool))"
      }
    ],
    "types": {
      "t_address": {
        "encoding": "inplace",
        "label": "address",
        "numberOfBytes": "20"
      },
      "t_bool": {
        "encoding": "inplace",
        "label": "bool",
        "numberOfBytes": "1"
      },
      "t_bytes32": {
        "encoding": "inplace",
        "label": "bytes32",
        "numberOfBytes": "32"
      },
      "t_contract(IERC20)795": {
        "encoding": "inplace",
        "label": "contract IERC20",
        "numberOfBytes": "20"
      },
      "t_contract(MetaheroLoyaltyToken)4138": {
        "encoding": "inplace",
        "label": "contract MetaheroLoyaltyToken",
        "numberOfBytes": "20"
      },
      "t_enum(DistributionStates)4162": {
        "encoding": "inplace",
        "label": "enum MetaheroLoyaltyTokenDistributor.DistributionStates",
        "numberOfBytes": "1"
      },
      "t_enum(InvitationStates)4166": {
        "encoding": "inplace",
        "label": "enum MetaheroLoyaltyTokenDistributor.InvitationStates",
        "numberOfBytes": "1"
      },
      "t_mapping(t_address,t_bool)": {
        "encoding": "mapping",
        "key": "t_address",
        "label": "mapping(address => bool)",
        "numberOfBytes": "32",
        "value": "t_bool"
      },
      "t_mapping(t_uint256,t_mapping(t_address,t_bool))": {
        "encoding": "mapping",
        "key": "t_uint256",
        "label": "mapping(uint256 => mapping(address => bool))",
        "numberOfBytes": "32",
        "value": "t_mapping(t_address,t_bool)"
      },
      "t_mapping(t_uint256,t_struct(Invitation)4186_storage)": {
        "encoding": "mapping",
        "key": "t_uint256",
        "label": "mapping(uint256 => struct MetaheroLoyaltyTokenDistributor.Invitation)",
        "numberOfBytes": "32",
        "value": "t_struct(Invitation)4186_storage"
      },
      "t_struct(Invitation)4186_storage": {
        "encoding": "inplace",
        "label": "struct MetaheroLoyaltyTokenDistributor.Invitation",
        "members": [
          {
            "astId": 4169,
            "contract": "src/MetaheroLoyaltyTokenDistributor.sol:MetaheroLoyaltyTokenDistributor",
            "label": "state",
            "offset": 0,
            "slot": "0",
            "type": "t_enum(InvitationStates)4166"
          },
          {
            "astId": 4171,
            "contract": "src/MetaheroLoyaltyTokenDistributor.sol:MetaheroLoyaltyTokenDistributor",
            "label": "treeRoot",
            "offset": 0,
            "slot": "1",
            "type": "t_bytes32"
          },
          {
            "astId": 4173,
            "contract": "src/MetaheroLoyaltyTokenDistributor.sol:MetaheroLoyaltyTokenDistributor",
            "label": "depositPower",
            "offset": 0,
            "slot": "2",
            "type": "t_uint256"
          },
          {
            "astId": 4175,
            "contract": "src/MetaheroLoyaltyTokenDistributor.sol:MetaheroLoyaltyTokenDistributor",
            "label": "minDeposit",
            "offset": 0,
            "slot": "3",
            "type": "t_uint256"
          },
          {
            "astId": 4177,
            "contract": "src/MetaheroLoyaltyTokenDistributor.sol:MetaheroLoyaltyTokenDistributor",
            "label": "maxDeposit",
            "offset": 0,
            "slot": "4",
            "type": "t_uint256"
          },
          {
            "astId": 4179,
            "contract": "src/MetaheroLoyaltyTokenDistributor.sol:MetaheroLoyaltyTokenDistributor",
            "label": "minRewardsAPY",
            "offset": 0,
            "slot": "5",
            "type": "t_uint256"
          },
          {
            "astId": 4181,
            "contract": "src/MetaheroLoyaltyTokenDistributor.sol:MetaheroLoyaltyTokenDistributor",
            "label": "maxRewardsAPY",
            "offset": 0,
            "slot": "6",
            "type": "t_uint256"
          },
          {
            "astId": 4183,
            "contract": "src/MetaheroLoyaltyTokenDistributor.sol:MetaheroLoyaltyTokenDistributor",
            "label": "minWithdrawalLockTime",
            "offset": 0,
            "slot": "7",
            "type": "t_uint256"
          },
          {
            "astId": 4185,
            "contract": "src/MetaheroLoyaltyTokenDistributor.sol:MetaheroLoyaltyTokenDistributor",
            "label": "maxWithdrawalLockTime",
            "offset": 0,
            "slot": "8",
            "type": "t_uint256"
          }
        ],
        "numberOfBytes": "288"
      },
      "t_uint256": {
        "encoding": "inplace",
        "label": "uint256",
        "numberOfBytes": "32"
      }
    }
  }
}