{
  "address": "0x8369Feb2198D01a2ed5d78E89ca7507983028B42",
  "abi": [
    {
      "inputs": [],
      "stateMutability": "nonpayable",
      "type": "constructor"
    },
    {
      "anonymous": false,
      "inputs": [
        {
          "indexed": false,
          "internalType": "address",
          "name": "token",
          "type": "address"
        },
        {
          "indexed": false,
          "internalType": "address",
          "name": "operator",
          "type": "address"
        },
        {
          "indexed": false,
          "internalType": "uint256",
          "name": "minVotingPeriod",
          "type": "uint256"
        },
        {
          "indexed": false,
          "internalType": "uint256",
          "name": "snapshotWindow",
          "type": "uint256"
        },
        {
          "indexed": false,
          "internalType": "uint256",
          "name": "snapshotBaseTimestamp",
          "type": "uint256"
        }
      ],
      "name": "Initialized",
      "type": "event"
    },
    {
      "anonymous": false,
      "inputs": [
        {
          "indexed": false,
          "internalType": "uint256",
          "name": "proposalId",
          "type": "uint256"
        },
        {
          "indexed": false,
          "internalType": "uint256",
          "name": "snapshotId",
          "type": "uint256"
        },
        {
          "indexed": false,
          "internalType": "bytes",
          "name": "callData",
          "type": "bytes"
        },
        {
          "indexed": false,
          "internalType": "uint256",
          "name": "startsAt",
          "type": "uint256"
        },
        {
          "indexed": false,
          "internalType": "uint256",
          "name": "endsAt",
          "type": "uint256"
        },
        {
          "indexed": false,
          "internalType": "uint256",
          "name": "votesMinPercentage",
          "type": "uint256"
        },
        {
          "indexed": false,
          "internalType": "uint256",
          "name": "votesMinWeight",
          "type": "uint256"
        }
      ],
      "name": "ProposalCreated",
      "type": "event"
    },
    {
      "anonymous": false,
      "inputs": [
        {
          "indexed": false,
          "internalType": "uint256",
          "name": "proposalId",
          "type": "uint256"
        },
        {
          "indexed": false,
          "internalType": "uint256",
          "name": "votesYesWeight",
          "type": "uint256"
        },
        {
          "indexed": false,
          "internalType": "uint256",
          "name": "votesNoWeight",
          "type": "uint256"
        }
      ],
      "name": "ProposalProcessed",
      "type": "event"
    },
    {
      "anonymous": false,
      "inputs": [
        {
          "indexed": false,
          "internalType": "uint256",
          "name": "proposalId",
          "type": "uint256"
        },
        {
          "indexed": false,
          "internalType": "address",
          "name": "member",
          "type": "address"
        },
        {
          "indexed": false,
          "internalType": "uint8",
          "name": "vote",
          "type": "uint8"
        }
      ],
      "name": "VoteSubmitted",
      "type": "event"
    },
    {
      "inputs": [
        {
          "internalType": "bytes",
          "name": "callData",
          "type": "bytes"
        },
        {
          "internalType": "uint256",
          "name": "startsIn",
          "type": "uint256"
        },
        {
          "internalType": "uint256",
          "name": "endsIn",
          "type": "uint256"
        },
        {
          "internalType": "uint256",
          "name": "votesMinPercentage",
          "type": "uint256"
        }
      ],
      "name": "createProposal",
      "outputs": [],
      "stateMutability": "nonpayable",
      "type": "function"
    },
    {
      "inputs": [
        {
          "internalType": "address",
          "name": "account",
          "type": "address"
        },
        {
          "internalType": "bool",
          "name": "excludeSenderFromFee",
          "type": "bool"
        },
        {
          "internalType": "bool",
          "name": "excludeRecipientFromFee",
          "type": "bool"
        }
      ],
      "name": "excludeTokenAccount",
      "outputs": [],
      "stateMutability": "nonpayable",
      "type": "function"
    },
    {
      "inputs": [
        {
          "internalType": "address",
          "name": "member",
          "type": "address"
        }
      ],
      "name": "getCurrentMemberWeight",
      "outputs": [
        {
          "internalType": "uint256",
          "name": "",
          "type": "uint256"
        }
      ],
      "stateMutability": "view",
      "type": "function"
    },
    {
      "inputs": [],
      "name": "getCurrentSnapshotId",
      "outputs": [
        {
          "internalType": "uint256",
          "name": "",
          "type": "uint256"
        }
      ],
      "stateMutability": "view",
      "type": "function"
    },
    {
      "inputs": [],
      "name": "getCurrentTotalWeight",
      "outputs": [
        {
          "internalType": "uint256",
          "name": "",
          "type": "uint256"
        }
      ],
      "stateMutability": "view",
      "type": "function"
    },
    {
      "inputs": [
        {
          "internalType": "address",
          "name": "member",
          "type": "address"
        },
        {
          "internalType": "uint256",
          "name": "proposalId",
          "type": "uint256"
        }
      ],
      "name": "getMemberProposalVote",
      "outputs": [
        {
          "internalType": "uint8",
          "name": "",
          "type": "uint8"
        }
      ],
      "stateMutability": "view",
      "type": "function"
    },
    {
      "inputs": [
        {
          "internalType": "address",
          "name": "member",
          "type": "address"
        },
        {
          "internalType": "uint256",
          "name": "snapshotId",
          "type": "uint256"
        }
      ],
      "name": "getMemberWeightOnSnapshot",
      "outputs": [
        {
          "internalType": "uint256",
          "name": "",
          "type": "uint256"
        }
      ],
      "stateMutability": "view",
      "type": "function"
    },
    {
      "inputs": [
        {
          "internalType": "uint256",
          "name": "proposalId",
          "type": "uint256"
        }
      ],
      "name": "getProposal",
      "outputs": [
        {
          "internalType": "uint256",
          "name": "snapshotId",
          "type": "uint256"
        },
        {
          "internalType": "bytes",
          "name": "callData",
          "type": "bytes"
        },
        {
          "internalType": "uint256",
          "name": "startsAt",
          "type": "uint256"
        },
        {
          "internalType": "uint256",
          "name": "endsAt",
          "type": "uint256"
        },
        {
          "internalType": "bool",
          "name": "processed",
          "type": "bool"
        },
        {
          "internalType": "uint256",
          "name": "votesMinPercentage",
          "type": "uint256"
        },
        {
          "internalType": "uint256",
          "name": "votesMinWeight",
          "type": "uint256"
        },
        {
          "internalType": "uint256",
          "name": "votesYesWeight",
          "type": "uint256"
        },
        {
          "internalType": "uint256",
          "name": "votesNoWeight",
          "type": "uint256"
        },
        {
          "internalType": "uint256",
          "name": "votesCount",
          "type": "uint256"
        }
      ],
      "stateMutability": "view",
      "type": "function"
    },
    {
      "inputs": [
        {
          "internalType": "uint256",
          "name": "timestamp",
          "type": "uint256"
        }
      ],
      "name": "getSnapshotIdAt",
      "outputs": [
        {
          "internalType": "uint256",
          "name": "",
          "type": "uint256"
        }
      ],
      "stateMutability": "view",
      "type": "function"
    },
    {
      "inputs": [
        {
          "internalType": "uint256",
          "name": "snapshotId",
          "type": "uint256"
        }
      ],
      "name": "getTotalWeightOnSnapshot",
      "outputs": [
        {
          "internalType": "uint256",
          "name": "",
          "type": "uint256"
        }
      ],
      "stateMutability": "view",
      "type": "function"
    },
    {
      "inputs": [
        {
          "internalType": "address",
          "name": "token_",
          "type": "address"
        },
        {
          "internalType": "address",
          "name": "operator_",
          "type": "address"
        },
        {
          "internalType": "uint256",
          "name": "minVotingPeriod",
          "type": "uint256"
        },
        {
          "internalType": "uint256",
          "name": "snapshotWindow",
          "type": "uint256"
        }
      ],
      "name": "initialize",
      "outputs": [],
      "stateMutability": "nonpayable",
      "type": "function"
    },
    {
      "inputs": [],
      "name": "initialized",
      "outputs": [
        {
          "internalType": "bool",
          "name": "",
          "type": "bool"
        }
      ],
      "stateMutability": "view",
      "type": "function"
    },
    {
      "inputs": [],
      "name": "operator",
      "outputs": [
        {
          "internalType": "address",
          "name": "",
          "type": "address"
        }
      ],
      "stateMutability": "view",
      "type": "function"
    },
    {
      "inputs": [
        {
          "internalType": "uint256",
          "name": "proposalId",
          "type": "uint256"
        }
      ],
      "name": "processProposal",
      "outputs": [],
      "stateMutability": "nonpayable",
      "type": "function"
    },
    {
      "inputs": [],
      "name": "removeTokenLPFees",
      "outputs": [],
      "stateMutability": "nonpayable",
      "type": "function"
    },
    {
      "inputs": [],
      "name": "settings",
      "outputs": [
        {
          "internalType": "uint256",
          "name": "minVotingPeriod",
          "type": "uint256"
        },
        {
          "internalType": "uint256",
          "name": "snapshotWindow",
          "type": "uint256"
        }
      ],
      "stateMutability": "view",
      "type": "function"
    },
    {
      "inputs": [
        {
          "internalType": "uint256",
          "name": "proposalId",
          "type": "uint256"
        },
        {
          "internalType": "uint8",
          "name": "vote",
          "type": "uint8"
        }
      ],
      "name": "submitVote",
      "outputs": [],
      "stateMutability": "nonpayable",
      "type": "function"
    },
    {
      "inputs": [
        {
          "internalType": "address",
          "name": "member",
          "type": "address"
        },
        {
          "internalType": "uint256",
          "name": "memberWeight",
          "type": "uint256"
        },
        {
          "internalType": "uint256",
          "name": "totalWeight",
          "type": "uint256"
        }
      ],
      "name": "syncMember",
      "outputs": [],
      "stateMutability": "nonpayable",
      "type": "function"
    },
    {
      "inputs": [
        {
          "internalType": "address",
          "name": "memberA",
          "type": "address"
        },
        {
          "internalType": "uint256",
          "name": "memberAWeight",
          "type": "uint256"
        },
        {
          "internalType": "address",
          "name": "memberB",
          "type": "address"
        },
        {
          "internalType": "uint256",
          "name": "memberBWeight",
          "type": "uint256"
        },
        {
          "internalType": "uint256",
          "name": "totalWeight",
          "type": "uint256"
        }
      ],
      "name": "syncMembers",
      "outputs": [],
      "stateMutability": "nonpayable",
      "type": "function"
    },
    {
      "inputs": [],
      "name": "token",
      "outputs": [
        {
          "internalType": "contract MetaheroToken",
          "name": "",
          "type": "address"
        }
      ],
      "stateMutability": "view",
      "type": "function"
    }
  ],
  "transactionHash": "0xddd57d874692c82cf79f873b4e30bee9e9080daff247dc394e5c016ebb525842",
  "args": [],
  "solcInputHash": "f523b8291c5e3438d86a094c72662bfd",
  "bytecode": "0x608060405234801561001057600080fd5b50336000806101000a81548173ffffffffffffffffffffffffffffffffffffffff021916908373ffffffffffffffffffffffffffffffffffffffff160217905550613b13806100606000396000f3fe608060405234801561001057600080fd5b506004361061012c5760003560e01c80638fea394f116100ad578063d6df5f3f11610071578063d6df5f3f1461034c578063e06174e414610368578063e63bc62d14610387578063eb990c59146103a3578063fc0c546a146103bf5761012c565b80638fea394f1461027b57806399653fbe146102ab5780639bf719cc146102c7578063a333ce58146102f7578063c7f758a8146103135761012c565b80635439ad86116100f45780635439ad86146101c3578063570ca735146101e15780636b7c4fba146101ff578063715885d81461022f578063832a10701461024b5761012c565b8063044a0ca8146101315780630b947b8d146101615780630dc25ea11461016b578063158ef93e146101895780631ecba154146101a7575b600080fd5b61014b600480360381019061014691906128a7565b6103dd565b6040516101589190613928565b60405180910390f35b610169610448565b005b6101736106e3565b604051610180919061375b565b60405180910390f35b6101916106fb565b60405161019e91906133ce565b60405180910390f35b6101c160048036038101906101bc91906129a9565b610751565b005b6101cb610a3a565b6040516101d8919061375b565b60405180910390f35b6101e9610a4a565b6040516101f69190613329565b60405180910390f35b61021960048036038101906102149190612a8c565b610a70565b604051610226919061375b565b60405180910390f35b6102496004803603810190610244919061295a565b610a82565b005b610265600480360381019061026091906127a3565b610b3a565b604051610272919061375b565b60405180910390f35b61029560048036038101906102909190612a8c565b610b55565b6040516102a2919061375b565b60405180910390f35b6102c560048036038101906102c09190612b67565b610b67565b005b6102e160048036038101906102dc91906128a7565b61101f565b6040516102ee919061375b565b60405180910390f35b610311600480360381019061030c9190612858565b611033565b005b61032d60048036038101906103289190612a8c565b611159565b6040516103439a999897969594939291906137ad565b60405180910390f35b610366600480360381019061036191906128e3565b611315565b005b6103706113da565b60405161037e929190613850565b60405180910390f35b6103a1600480360381019061039c9190612a8c565b6113ec565b005b6103bd60048036038101906103b891906127f5565b611778565b005b6103c7611b8b565b6040516103d491906133e9565b60405180910390f35b600060056000838152602001908152602001600020600a0160008473ffffffffffffffffffffffffffffffffffffffff1673ffffffffffffffffffffffffffffffffffffffff16815260200190815260200160002060009054906101000a900460ff16905092915050565b600160009054906101000a900473ffffffffffffffffffffffffffffffffffffffff1673ffffffffffffffffffffffffffffffffffffffff163373ffffffffffffffffffffffffffffffffffffffff16146104d8576040517f08c379a00000000000000000000000000000000000000000000000000000000081526004016104cf90613444565b60405180910390fd5b6104e0612569565b6104e8612569565b6104f0612569565b600260009054906101000a900473ffffffffffffffffffffffffffffffffffffffff1673ffffffffffffffffffffffffffffffffffffffff1663e06174e46040518163ffffffff1660e01b815260040160e06040518083038186803b15801561055857600080fd5b505afa15801561056c573d6000803e3d6000fd5b505050506040513d601f19601f820116820180604052508101906105909190612a29565b50925092509250600082600001511415806105b057506000826020015114155b6105ef576040517f08c379a00000000000000000000000000000000000000000000000000000000081526004016105e690613524565b60405180910390fd5b600260009054906101000a900473ffffffffffffffffffffffffffffffffffffffff1673ffffffffffffffffffffffffffffffffffffffff1663341c5631604051806040016040528061065386600001518860000151611bb190919063ffffffff16565b815260200161067386602001518860200151611bb190919063ffffffff16565b8152506040518060400160405280600081526020016000815250846040518463ffffffff1660e01b81526004016106ac93929190613724565b600060405180830381600087803b1580156106c657600080fd5b505af11580156106da573d6000803e3d6000fd5b50505050505050565b60006106f66106f142611c06565b611c60565b905090565b60008073ffffffffffffffffffffffffffffffffffffffff1660008054906101000a900473ffffffffffffffffffffffffffffffffffffffff1673ffffffffffffffffffffffffffffffffffffffff1614905090565b600160009054906101000a900473ffffffffffffffffffffffffffffffffffffffff1673ffffffffffffffffffffffffffffffffffffffff163373ffffffffffffffffffffffffffffffffffffffff16146107e1576040517f08c379a00000000000000000000000000000000000000000000000000000000081526004016107d890613444565b60405180910390fd5b828211610823576040517f08c379a000000000000000000000000000000000000000000000000000000000815260040161081a906134c4565b60405180910390fd5b60036000015461083c8484611d9590919063ffffffff16565b101561087d576040517f08c379a0000000000000000000000000000000000000000000000000000000008152600401610874906136e4565b60405180910390fd5b6009600081548092919060010191905055506000600954905060006108a142611c06565b905060006108b84287611bb190919063ffffffff16565b905060006108cf4287611bb190919063ffffffff16565b9050600080861461093c57604b86111561091e576040517f08c379a000000000000000000000000000000000000000000000000000000000815260040161091590613464565b60405180910390fd5b6109398661092b86611c60565b611de590919063ffffffff16565b90505b836005600087815260200190815260200160002060000181905550898960056000888152602001908152602001600020600101919061097c929190612583565b508260056000878152602001908152602001600020600201819055508160056000878152602001908152602001600020600301819055508560056000878152602001908152602001600020600501819055508060056000878152602001908152602001600020600601819055507f59afb3c1ebefcfdba6f5c42d4b4d39c54e042f3a845a583a0117adde2e305a8c85858c8c87878c88604051610a26989796959493929190613879565b60405180910390a150505050505050505050565b6000610a4542611c06565b905090565b600160009054906101000a900473ffffffffffffffffffffffffffffffffffffffff1681565b6000610a7b82611c06565b9050919050565b600260009054906101000a900473ffffffffffffffffffffffffffffffffffffffff1673ffffffffffffffffffffffffffffffffffffffff163373ffffffffffffffffffffffffffffffffffffffff1614610b12576040517f08c379a0000000000000000000000000000000000000000000000000000000008152600401610b0990613684565b60405180910390fd5b6000610b1d42611c06565b9050610b2a848483611e2c565b610b3482826120f9565b50505050565b6000610b4e82610b4942611c06565b61221a565b9050919050565b6000610b6082611c60565b9050919050565b610b6f612603565b600560008481526020019081526020016000206040518061014001604052908160008201548152602001600182018054600181600116156101000203166002900480601f016020809104026020016040519081016040528092919081815260200182805460018160011615610100020316600290048015610c315780601f10610c0657610100808354040283529160200191610c31565b820191906000526020600020905b815481529060010190602001808311610c1457829003601f168201915b5050505050815260200160028201548152602001600382015481526020016004820160009054906101000a900460ff16151515158152602001600582015481526020016006820154815260200160078201548152602001600882015481526020016009820154815250509050600081600001511415610ce5576040517f08c379a0000000000000000000000000000000000000000000000000000000008152600401610cdc90613664565b60405180910390fd5b4281604001511115610d2c576040517f08c379a0000000000000000000000000000000000000000000000000000000008152600401610d2390613624565b60405180910390fd5b42816060015111610d72576040517f08c379a0000000000000000000000000000000000000000000000000000000008152600401610d69906136c4565b60405180910390fd5b60018260ff161480610d87575060028260ff16145b610dc6576040517f08c379a0000000000000000000000000000000000000000000000000000000008152600401610dbd90613544565b60405180910390fd5b600060056000858152602001908152602001600020600a0160003373ffffffffffffffffffffffffffffffffffffffff1673ffffffffffffffffffffffffffffffffffffffff16815260200190815260200160002060009054906101000a900460ff1660ff1614610e6c576040517f08c379a0000000000000000000000000000000000000000000000000000000008152600401610e63906135a4565b60405180910390fd5b6000610e7c33836000015161221a565b90506000811415610ec2576040517f08c379a0000000000000000000000000000000000000000000000000000000008152600401610eb990613424565b60405180910390fd5b60018360ff161415610f0057610ee5818360e00151611bb190919063ffffffff16565b60056000868152602001908152602001600020600701819055505b60028360ff161415610f3f57610f2481836101000151611bb190919063ffffffff16565b60056000868152602001908152602001600020600801819055505b610f586001836101200151611bb190919063ffffffff16565b60056000868152602001908152602001600020600901819055508260056000868152602001908152602001600020600a0160003373ffffffffffffffffffffffffffffffffffffffff1673ffffffffffffffffffffffffffffffffffffffff16815260200190815260200160002060006101000a81548160ff021916908360ff1602179055507f4dad34f5c0bfc89aa43660836c7a6aa46a7a6a5d437c6b9db430ac5d82c69b0784338560405161101193929190613776565b60405180910390a150505050565b600061102b838361221a565b905092915050565b600160009054906101000a900473ffffffffffffffffffffffffffffffffffffffff1673ffffffffffffffffffffffffffffffffffffffff163373ffffffffffffffffffffffffffffffffffffffff16146110c3576040517f08c379a00000000000000000000000000000000000000000000000000000000081526004016110ba90613444565b60405180910390fd5b600260009054906101000a900473ffffffffffffffffffffffffffffffffffffffff1673ffffffffffffffffffffffffffffffffffffffff16632197fb258484846040518463ffffffff1660e01b815260040161112293929190613397565b600060405180830381600087803b15801561113c57600080fd5b505af1158015611150573d6000803e3d6000fd5b50505050505050565b60006060600080600080600080600080600560008c8152602001908152602001600020600001549950600560008c81526020019081526020016000206001018054600181600116156101000203166002900480601f01602080910402602001604051908101604052809291908181526020018280546001816001161561010002031660029004801561122c5780601f106112015761010080835404028352916020019161122c565b820191906000526020600020905b81548152906001019060200180831161120f57829003601f168201915b50505050509850600560008c8152602001908152602001600020600201549750600560008c8152602001908152602001600020600301549650600560008c815260200190815260200160002060040160009054906101000a900460ff169550600560008c8152602001908152602001600020600501549450600560008c8152602001908152602001600020600601549350600560008c8152602001908152602001600020600701549250600560008c8152602001908152602001600020600801549150600560008c81526020019081526020016000206009015490509193959799509193959799565b600260009054906101000a900473ffffffffffffffffffffffffffffffffffffffff1673ffffffffffffffffffffffffffffffffffffffff163373ffffffffffffffffffffffffffffffffffffffff16146113a5576040517f08c379a000000000000000000000000000000000000000000000000000000000815260040161139c90613684565b60405180910390fd5b60006113b042611c06565b90506113bd868683611e2c565b6113c8848483611e2c565b6113d282826120f9565b505050505050565b60038060000154908060010154905082565b6113f4612603565b600560008381526020019081526020016000206040518061014001604052908160008201548152602001600182018054600181600116156101000203166002900480601f0160208091040260200160405190810160405280929190818152602001828054600181600116156101000203166002900480156114b65780601f1061148b576101008083540402835291602001916114b6565b820191906000526020600020905b81548152906001019060200180831161149957829003601f168201915b5050505050815260200160028201548152602001600382015481526020016004820160009054906101000a900460ff1615151515815260200160058201548152602001600682015481526020016007820154815260200160088201548152602001600982015481525050905060008160000151141561156a576040517f08c379a000000000000000000000000000000000000000000000000000000000815260040161156190613644565b60405180910390fd5b42816060015111156115b1576040517f08c379a00000000000000000000000000000000000000000000000000000000081526004016115a890613504565b60405180910390fd5b8060800151156115f6576040517f08c379a00000000000000000000000000000000000000000000000000000000081526004016115ed90613404565b60405180910390fd5b600081602001515111801561161357508061010001518160e00151115b801561162757508060c001518160e0015110155b15611701576000600260009054906101000a900473ffffffffffffffffffffffffffffffffffffffff1673ffffffffffffffffffffffffffffffffffffffff1682602001516040516116799190613312565b6000604051808303816000865af19150503d80600081146116b6576040519150601f19603f3d011682016040523d82523d6000602084013e6116bb565b606091505b50509050806116ff576040517f08c379a00000000000000000000000000000000000000000000000000000000081526004016116f6906136a4565b60405180910390fd5b505b60016005600084815260200190815260200160002060040160006101000a81548160ff0219169083151502179055507fc16153d6180aeea6251b59a9e049605326a0a56d69691eb4da19535e6faef04e828260e0015183610100015160405161176c939291906138f1565b60405180910390a15050565b600073ffffffffffffffffffffffffffffffffffffffff1660008054906101000a900473ffffffffffffffffffffffffffffffffffffffff1673ffffffffffffffffffffffffffffffffffffffff161415611808576040517f08c379a00000000000000000000000000000000000000000000000000000000081526004016117ff90613604565b60405180910390fd5b60008054906101000a900473ffffffffffffffffffffffffffffffffffffffff1673ffffffffffffffffffffffffffffffffffffffff163373ffffffffffffffffffffffffffffffffffffffff1614611896576040517f08c379a000000000000000000000000000000000000000000000000000000000815260040161188d906135e4565b60405180910390fd5b60008060006101000a81548173ffffffffffffffffffffffffffffffffffffffff021916908373ffffffffffffffffffffffffffffffffffffffff160217905550600073ffffffffffffffffffffffffffffffffffffffff168473ffffffffffffffffffffffffffffffffffffffff161415611947576040517f08c379a000000000000000000000000000000000000000000000000000000000815260040161193e906135c4565b60405180910390fd5b600082141561198b576040517f08c379a000000000000000000000000000000000000000000000000000000000815260040161198290613564565b60405180910390fd5b60008114156119cf576040517f08c379a00000000000000000000000000000000000000000000000000000000081526004016119c6906134e4565b60405180910390fd5b83600260006101000a81548173ffffffffffffffffffffffffffffffffffffffff021916908373ffffffffffffffffffffffffffffffffffffffff160217905550600073ffffffffffffffffffffffffffffffffffffffff168373ffffffffffffffffffffffffffffffffffffffff161415611ae857600260009054906101000a900473ffffffffffffffffffffffffffffffffffffffff1673ffffffffffffffffffffffffffffffffffffffff16638da5cb5b6040518163ffffffff1660e01b815260040160206040518083038186803b158015611aad57600080fd5b505afa158015611ac1573d6000803e3d6000fd5b505050506040513d601f19601f82011682018060405250810190611ae591906127cc565b92505b82600160006101000a81548173ffffffffffffffffffffffffffffffffffffffff021916908373ffffffffffffffffffffffffffffffffffffffff160217905550816003600001819055508060036001018190555042600a819055507f4a9c62e9f5b1bd7dfbc4dbff9e13a7178fe7a004d15c4e66c942416714f28edb84848484600a54604051611b7d959493929190613344565b60405180910390a150505050565b600260009054906101000a900473ffffffffffffffffffffffffffffffffffffffff1681565b600080828401905083811015611bfc576040517f08c379a0000000000000000000000000000000000000000000000000000000008152600401611bf3906134a4565b60405180910390fd5b8091505092915050565b600081600a541015611c5657611c516001611c43600360010154611c35600a5487611d9590919063ffffffff16565b6124a390919063ffffffff16565b611bb190919063ffffffff16565b611c59565b60005b9050919050565b600080600760010180549050905060008114611ce3576000600190505b818111611cdd57600081830390508460076001018281548110611c9c57fe5b906000526020600020015411611ccf5760076000018181548110611cbc57fe5b9060005260206000200154935050611cdd565b508080600101915050611c7d565b50611d8f565b6000600260009054906101000a900473ffffffffffffffffffffffffffffffffffffffff1673ffffffffffffffffffffffffffffffffffffffff1663b16a867c6040518163ffffffff1660e01b815260040160806040518083038186803b158015611d4d57600080fd5b505afa158015611d61573d6000803e3d6000fd5b505050506040513d601f19601f82011682018060405250810190611d859190612b04565b5050915050809250505b50919050565b600082821115611dda576040517f08c379a0000000000000000000000000000000000000000000000000000000008152600401611dd190613584565b60405180910390fd5b818303905092915050565b6000808314158015611df8575060008214155b15611e2657611e236064611e1584866124fa90919063ffffffff16565b6124a390919063ffffffff16565b90505b92915050565b6000600660008573ffffffffffffffffffffffffffffffffffffffff1673ffffffffffffffffffffffffffffffffffffffff1681526020019081526020016000206001018054905090506000811415611f5657600660008573ffffffffffffffffffffffffffffffffffffffff1673ffffffffffffffffffffffffffffffffffffffff168152602001908152602001600020600001839080600181540180825580915050600190039060005260206000200160009091909190915055600660008573ffffffffffffffffffffffffffffffffffffffff1673ffffffffffffffffffffffffffffffffffffffff1681526020019081526020016000206001018290806001815401808255809150506001900390600052602060002001600090919091909150556120f3565b600060018203905082600660008773ffffffffffffffffffffffffffffffffffffffff1673ffffffffffffffffffffffffffffffffffffffff1681526020019081526020016000206001018281548110611fac57fe5b9060005260206000200154141561201e5783600660008773ffffffffffffffffffffffffffffffffffffffff1673ffffffffffffffffffffffffffffffffffffffff168152602001908152602001600020600001828154811061200b57fe5b90600052602060002001819055506120f1565b600660008673ffffffffffffffffffffffffffffffffffffffff1673ffffffffffffffffffffffffffffffffffffffff168152602001908152602001600020600001849080600181540180825580915050600190039060005260206000200160009091909190915055600660008673ffffffffffffffffffffffffffffffffffffffff1673ffffffffffffffffffffffffffffffffffffffff1681526020019081526020016000206001018390806001815401808255809150506001900390600052602060002001600090919091909150555b505b50505050565b60006007600101805490509050600081141561216c5760076000018390806001815401808255809150506001900390600052602060002001600090919091909150556007600101829080600181540180825580915050600190039060005260206000200160009091909190915055612215565b6000600182039050826007600101828154811061218557fe5b906000526020600020015414156121ba5783600760000182815481106121a757fe5b9060005260206000200181905550612213565b600760000184908060018154018082558091505060019003906000526020600020016000909190919091505560076001018390806001815401808255809150506001900390600052602060002001600090919091909150555b505b505050565b6000612224612658565b600660008573ffffffffffffffffffffffffffffffffffffffff1673ffffffffffffffffffffffffffffffffffffffff168152602001908152602001600020604051806040016040529081600082018054806020026020016040519081016040528092919081815260200182805480156122bd57602002820191906000526020600020905b8154815260200190600101908083116122a9575b505050505081526020016001820180548060200260200160405190810160405280929190818152602001828054801561231557602002820191906000526020600020905b815481526020019060010190808311612301575b505050505081525050905060008160200151519050600081146123d9576000600190505b8181116123d35760008183039050858460200151828151811061235857fe5b6020026020010151116123c557600660008873ffffffffffffffffffffffffffffffffffffffff1673ffffffffffffffffffffffffffffffffffffffff16815260200190815260200160002060000181815481106123b257fe5b90600052602060002001549450506123d3565b508080600101915050612339565b5061249b565b600080600260009054906101000a900473ffffffffffffffffffffffffffffffffffffffff1673ffffffffffffffffffffffffffffffffffffffff16632d380315886040518263ffffffff1660e01b81526004016124379190613329565b60606040518083038186803b15801561244f57600080fd5b505afa158015612463573d6000803e3d6000fd5b505050506040513d601f19601f820116820180604052508101906124879190612ab5565b925092505060008114612498578194505b50505b505092915050565b6000808214156124e8576040517f08c379a00000000000000000000000000000000000000000000000000000000081526004016124df90613484565b60405180910390fd5b8183816124f157fe5b04905092915050565b600080831415801561250d575060008214155b156125635781830290508183828161252157fe5b0414612562576040517f08c379a000000000000000000000000000000000000000000000000000000000815260040161255990613704565b60405180910390fd5b5b92915050565b604051806040016040528060008152602001600081525090565b828054600181600116156101000203166002900490600052602060002090601f016020900481019282601f106125c457803560ff19168380011785556125f2565b828001600101855582156125f2579182015b828111156125f15782358255916020019190600101906125d6565b5b5090506125ff9190612672565b5090565b6040518061014001604052806000815260200160608152602001600081526020016000815260200160001515815260200160008152602001600081526020016000815260200160008152602001600081525090565b604051806040016040528060608152602001606081525090565b5b8082111561268b576000816000905550600101612673565b5090565b60008135905061269e81613aaa565b92915050565b6000815190506126b381613aaa565b92915050565b6000813590506126c881613ac1565b92915050565b60008083601f8401126126e057600080fd5b8235905067ffffffffffffffff8111156126f957600080fd5b60208301915083600182028301111561271157600080fd5b9250929050565b60006040828403121561272a57600080fd5b6127346040613943565b9050600061274484828501612779565b600083015250602061275884828501612779565b60208301525092915050565b60008135905061277381613ad8565b92915050565b60008151905061278881613ad8565b92915050565b60008135905061279d81613aef565b92915050565b6000602082840312156127b557600080fd5b60006127c38482850161268f565b91505092915050565b6000602082840312156127de57600080fd5b60006127ec848285016126a4565b91505092915050565b6000806000806080858703121561280b57600080fd5b60006128198782880161268f565b945050602061282a8782880161268f565b935050604061283b87828801612764565b925050606061284c87828801612764565b91505092959194509250565b60008060006060848603121561286d57600080fd5b600061287b8682870161268f565b935050602061288c868287016126b9565b925050604061289d868287016126b9565b9150509250925092565b600080604083850312156128ba57600080fd5b60006128c88582860161268f565b92505060206128d985828601612764565b9150509250929050565b600080600080600060a086880312156128fb57600080fd5b60006129098882890161268f565b955050602061291a88828901612764565b945050604061292b8882890161268f565b935050606061293c88828901612764565b925050608061294d88828901612764565b9150509295509295909350565b60008060006060848603121561296f57600080fd5b600061297d8682870161268f565b935050602061298e86828701612764565b925050604061299f86828701612764565b9150509250925092565b6000806000806000608086880312156129c157600080fd5b600086013567ffffffffffffffff8111156129db57600080fd5b6129e7888289016126ce565b955095505060206129fa88828901612764565b9350506040612a0b88828901612764565b9250506060612a1c88828901612764565b9150509295509295909350565b60008060008060e08587031215612a3f57600080fd5b6000612a4d87828801612718565b9450506040612a5e87828801612718565b9350506080612a6f87828801612718565b92505060c0612a8087828801612779565b91505092959194509250565b600060208284031215612a9e57600080fd5b6000612aac84828501612764565b91505092915050565b600080600060608486031215612aca57600080fd5b6000612ad886828701612779565b9350506020612ae986828701612779565b9250506040612afa86828701612779565b9150509250925092565b60008060008060808587031215612b1a57600080fd5b6000612b2887828801612779565b9450506020612b3987828801612779565b9350506040612b4a87828801612779565b9250506060612b5b87828801612779565b91505092959194509250565b60008060408385031215612b7a57600080fd5b6000612b8885828601612764565b9250506020612b998582860161278e565b9150509250929050565b612bac816139fd565b82525050565b612bbb816139a8565b82525050565b612bca816139ba565b82525050565b6000612bdc838561397b565b9350612be9838584613a57565b612bf283613a99565b840190509392505050565b6000612c0882613970565b612c12818561397b565b9350612c22818560208601613a66565b612c2b81613a99565b840191505092915050565b6000612c4182613970565b612c4b818561398c565b9350612c5b818560208601613a66565b80840191505092915050565b612c7081613a0f565b82525050565b6000612c83600e83613997565b91507f4d6574616865726f44414f2331320000000000000000000000000000000000006000830152602082019050919050565b6000612cc3600e83613997565b91507f4d6574616865726f44414f2331390000000000000000000000000000000000006000830152602082019050919050565b6000612d03600d83613997565b91507f4d6574616865726f44414f2331000000000000000000000000000000000000006000830152602082019050919050565b6000612d43600d83613997565b91507f4d6574616865726f44414f2339000000000000000000000000000000000000006000830152602082019050919050565b6000612d83600d83613997565b91507f536166654d6174684c69622334000000000000000000000000000000000000006000830152602082019050919050565b6000612dc3600d83613997565b91507f536166654d6174684c69622331000000000000000000000000000000000000006000830152602082019050919050565b6000612e03600d83613997565b91507f4d6574616865726f44414f2337000000000000000000000000000000000000006000830152602082019050919050565b6000612e43600d83613997565b91507f4d6574616865726f44414f2335000000000000000000000000000000000000006000830152602082019050919050565b6000612e83600e83613997565b91507f4d6574616865726f44414f2331310000000000000000000000000000000000006000830152602082019050919050565b6000612ec3600d83613997565b91507f4d6574616865726f44414f2336000000000000000000000000000000000000006000830152602082019050919050565b6000612f03600e83613997565b91507f4d6574616865726f44414f2331370000000000000000000000000000000000006000830152602082019050919050565b6000612f43600d83613997565b91507f4d6574616865726f44414f2334000000000000000000000000000000000000006000830152602082019050919050565b6000612f83600d83613997565b91507f536166654d6174684c69622332000000000000000000000000000000000000006000830152602082019050919050565b6000612fc3600e83613997565b91507f4d6574616865726f44414f2331380000000000000000000000000000000000006000830152602082019050919050565b6000613003600d83613997565b91507f4d6574616865726f44414f2333000000000000000000000000000000000000006000830152602082019050919050565b6000613043600f83613997565b91507f496e697469616c697a61626c65233200000000000000000000000000000000006000830152602082019050919050565b6000613083600f83613997565b91507f496e697469616c697a61626c65233100000000000000000000000000000000006000830152602082019050919050565b60006130c3600e83613997565b91507f4d6574616865726f44414f2331350000000000000000000000000000000000006000830152602082019050919050565b6000613103600e83613997565b91507f4d6574616865726f44414f2331300000000000000000000000000000000000006000830152602082019050919050565b6000613143600e83613997565b91507f4d6574616865726f44414f2331340000000000000000000000000000000000006000830152602082019050919050565b6000613183600d83613997565b91507f4d6574616865726f44414f2332000000000000000000000000000000000000006000830152602082019050919050565b60006131c3600e83613997565b91507f4d6574616865726f44414f2331330000000000000000000000000000000000006000830152602082019050919050565b6000613203600e83613997565b91507f4d6574616865726f44414f2331360000000000000000000000000000000000006000830152602082019050919050565b6000613243600d83613997565b91507f4d6574616865726f44414f2338000000000000000000000000000000000000006000830152602082019050919050565b6000613283600d83613997565b91507f536166654d6174684c69622333000000000000000000000000000000000000006000830152602082019050919050565b6040820160008201516132cc60008501826132e5565b5060208201516132df60208501826132e5565b50505050565b6132ee816139e6565b82525050565b6132fd816139e6565b82525050565b61330c816139f0565b82525050565b600061331e8284612c36565b915081905092915050565b600060208201905061333e6000830184612bb2565b92915050565b600060a0820190506133596000830188612bb2565b6133666020830187612bb2565b61337360408301866132f4565b61338060608301856132f4565b61338d60808301846132f4565b9695505050505050565b60006060820190506133ac6000830186612bb2565b6133b96020830185612bc1565b6133c66040830184612bc1565b949350505050565b60006020820190506133e36000830184612bc1565b92915050565b60006020820190506133fe6000830184612c67565b92915050565b6000602082019050818103600083015261341d81612c76565b9050919050565b6000602082019050818103600083015261343d81612cb6565b9050919050565b6000602082019050818103600083015261345d81612cf6565b9050919050565b6000602082019050818103600083015261347d81612d36565b9050919050565b6000602082019050818103600083015261349d81612d76565b9050919050565b600060208201905081810360008301526134bd81612db6565b9050919050565b600060208201905081810360008301526134dd81612df6565b9050919050565b600060208201905081810360008301526134fd81612e36565b9050919050565b6000602082019050818103600083015261351d81612e76565b9050919050565b6000602082019050818103600083015261353d81612eb6565b9050919050565b6000602082019050818103600083015261355d81612ef6565b9050919050565b6000602082019050818103600083015261357d81612f36565b9050919050565b6000602082019050818103600083015261359d81612f76565b9050919050565b600060208201905081810360008301526135bd81612fb6565b9050919050565b600060208201905081810360008301526135dd81612ff6565b9050919050565b600060208201905081810360008301526135fd81613036565b9050919050565b6000602082019050818103600083015261361d81613076565b9050919050565b6000602082019050818103600083015261363d816130b6565b9050919050565b6000602082019050818103600083015261365d816130f6565b9050919050565b6000602082019050818103600083015261367d81613136565b9050919050565b6000602082019050818103600083015261369d81613176565b9050919050565b600060208201905081810360008301526136bd816131b6565b9050919050565b600060208201905081810360008301526136dd816131f6565b9050919050565b600060208201905081810360008301526136fd81613236565b9050919050565b6000602082019050818103600083015261371d81613276565b9050919050565b600060c08201905061373960008301866132b6565b61374660408301856132b6565b61375360808301846132b6565b949350505050565b600060208201905061377060008301846132f4565b92915050565b600060608201905061378b60008301866132f4565b6137986020830185612ba3565b6137a56040830184613303565b949350505050565b6000610140820190506137c3600083018d6132f4565b81810360208301526137d5818c612bfd565b90506137e4604083018b6132f4565b6137f1606083018a6132f4565b6137fe6080830189612bc1565b61380b60a08301886132f4565b61381860c08301876132f4565b61382560e08301866132f4565b6138336101008301856132f4565b6138416101208301846132f4565b9b9a5050505050505050505050565b600060408201905061386560008301856132f4565b61387260208301846132f4565b9392505050565b600060e08201905061388e600083018b6132f4565b61389b602083018a6132f4565b81810360408301526138ae81888a612bd0565b90506138bd60608301876132f4565b6138ca60808301866132f4565b6138d760a08301856132f4565b6138e460c08301846132f4565b9998505050505050505050565b600060608201905061390660008301866132f4565b61391360208301856132f4565b61392060408301846132f4565b949350505050565b600060208201905061393d6000830184613303565b92915050565b6000604051905081810181811067ffffffffffffffff8211171561396657600080fd5b8060405250919050565b600081519050919050565b600082825260208201905092915050565b600081905092915050565b600082825260208201905092915050565b60006139b3826139c6565b9050919050565b60008115159050919050565b600073ffffffffffffffffffffffffffffffffffffffff82169050919050565b6000819050919050565b600060ff82169050919050565b6000613a0882613a33565b9050919050565b6000613a1a82613a21565b9050919050565b6000613a2c826139c6565b9050919050565b6000613a3e82613a45565b9050919050565b6000613a50826139c6565b9050919050565b82818337600083830152505050565b60005b83811015613a84578082015181840152602081019050613a69565b83811115613a93576000848401525b50505050565b6000601f19601f8301169050919050565b613ab3816139a8565b8114613abe57600080fd5b50565b613aca816139ba565b8114613ad557600080fd5b50565b613ae1816139e6565b8114613aec57600080fd5b50565b613af8816139f0565b8114613b0357600080fd5b5056fea164736f6c634300060c000a",
  "devdoc": {
    "author": "Stanisaw Gogowski <stan@metahero.io>",
    "events": {
      "Initialized(address,address,uint256,uint256,uint256)": {
        "details": "Emitted the contract is initialized",
        "params": {
          "minVotingPeriod": "min voting period",
          "operator": "operator address",
          "snapshotBaseTimestamp": "snapshot base timestamp",
          "snapshotWindow": "snapshot window",
          "token": "token address"
        }
      },
      "ProposalCreated(uint256,uint256,bytes,uint256,uint256,uint256,uint256)": {
        "details": "Emitted the proposal is created",
        "params": {
          "callData": "token call data",
          "endsAt": "ends at",
          "proposalId": "proposal id",
          "snapshotId": "snapshot id",
          "startsAt": "starts at",
          "votesMinPercentage": "votes min percentage",
          "votesMinWeight": "votes min weight"
        }
      },
      "ProposalProcessed(uint256,uint256,uint256)": {
        "details": "Emitted the proposal is processed",
        "params": {
          "proposalId": "proposal id",
          "votesNoWeight": "votes no weight",
          "votesYesWeight": "votes yes weight"
        }
      },
      "VoteSubmitted(uint256,address,uint8)": {
        "details": "Emitted the vote is submitted",
        "params": {
          "member": "member address",
          "proposalId": "proposal id",
          "vote": "where `1` eq yes and `2` eq no"
        }
      }
    },
    "kind": "dev",
    "methods": {
      "constructor": {
        "details": "Public constructor"
      },
      "createProposal(bytes,uint256,uint256,uint256)": {
        "details": "Creates proposal",
        "params": {
          "callData": "token call data",
          "endsIn": "ends in",
          "startsIn": "starts in",
          "votesMinPercentage": "votes min percentage"
        }
      },
      "excludeTokenAccount(address,bool,bool)": {
        "details": "Excludes token account",
        "params": {
          "account": "account address",
          "excludeRecipientFromFee": "exclude recipient from fee",
          "excludeSenderFromFee": "exclude sender from fee"
        }
      },
      "initialize(address,address,uint256,uint256)": {
        "details": "Initializes the contract",
        "params": {
          "minVotingPeriod": "min voting period",
          "operator_": "custom operator address",
          "snapshotWindow": "snapshot window",
          "token_": "token address"
        }
      },
      "initialized()": {
        "returns": {
          "_0": "true when contract is initialized"
        }
      },
      "processProposal(uint256)": {
        "details": "Processes proposal",
        "params": {
          "proposalId": "proposal id"
        }
      },
      "removeTokenLPFees()": {
        "details": "Removes token lp fees"
      },
      "submitVote(uint256,uint8)": {
        "details": "Submits vote",
        "params": {
          "proposalId": "proposal id",
          "vote": "where `1` eq yes and `2` eq no"
        }
      },
      "syncMember(address,uint256,uint256)": {
        "params": {
          "member": "member address",
          "memberWeight": "member weight",
          "totalWeight": "all members weight"
        }
      },
      "syncMembers(address,uint256,address,uint256,uint256)": {
        "params": {
          "memberA": "member A address",
          "memberAWeight": "member A weight",
          "memberB": "member B address",
          "memberBWeight": "member B weight",
          "totalWeight": "all members weight"
        }
      }
    },
    "stateVariables": {
      "operator": {
        "return": "operator address"
      },
      "settings": {
        "return": "settings object"
      },
      "token": {
        "return": "token address"
      }
    },
    "title": "Metahero DAO",
    "version": 1
  },
  "userdoc": {
    "kind": "user",
    "methods": {
      "initialized()": {
        "notice": "Checks if contract is initialized"
      },
      "syncMember(address,uint256,uint256)": {
        "notice": "Called by a token to sync a dao member"
      },
      "syncMembers(address,uint256,address,uint256,uint256)": {
        "notice": "Called by a token to sync a dao members"
      }
    },
    "version": 1
  },
  "storageLayout": {
    "storage": [
      {
        "astId": 5465,
        "contract": "src/MetaheroDAO.sol:MetaheroDAO",
        "label": "initializer",
        "offset": 0,
        "slot": "0",
        "type": "t_address"
      },
      {
        "astId": 89,
        "contract": "src/MetaheroDAO.sol:MetaheroDAO",
        "label": "operator",
        "offset": 0,
        "slot": "1",
        "type": "t_address"
      },
      {
        "astId": 92,
        "contract": "src/MetaheroDAO.sol:MetaheroDAO",
        "label": "token",
        "offset": 0,
        "slot": "2",
        "type": "t_contract(MetaheroToken)4631"
      },
      {
        "astId": 95,
        "contract": "src/MetaheroDAO.sol:MetaheroDAO",
        "label": "settings",
        "offset": 0,
        "slot": "3",
        "type": "t_struct(Settings)51_storage"
      },
      {
        "astId": 99,
        "contract": "src/MetaheroDAO.sol:MetaheroDAO",
        "label": "proposals",
        "offset": 0,
        "slot": "5",
        "type": "t_mapping(t_uint256,t_struct(Proposal)76_storage)"
      },
      {
        "astId": 103,
        "contract": "src/MetaheroDAO.sol:MetaheroDAO",
        "label": "membersWeightsHistory",
        "offset": 0,
        "slot": "6",
        "type": "t_mapping(t_address,t_struct(WeightsHistory)83_storage)"
      },
      {
        "astId": 105,
        "contract": "src/MetaheroDAO.sol:MetaheroDAO",
        "label": "totalWeightsHistory",
        "offset": 0,
        "slot": "7",
        "type": "t_struct(WeightsHistory)83_storage"
      },
      {
        "astId": 107,
        "contract": "src/MetaheroDAO.sol:MetaheroDAO",
        "label": "proposalCounter",
        "offset": 0,
        "slot": "9",
        "type": "t_uint256"
      },
      {
        "astId": 109,
        "contract": "src/MetaheroDAO.sol:MetaheroDAO",
        "label": "snapshotBaseTimestamp",
        "offset": 0,
        "slot": "10",
        "type": "t_uint256"
      }
    ],
    "types": {
      "t_address": {
        "encoding": "inplace",
        "label": "address",
        "numberOfBytes": "20"
      },
      "t_array(t_uint256)dyn_storage": {
        "base": "t_uint256",
        "encoding": "dynamic_array",
        "label": "uint256[]",
        "numberOfBytes": "32"
      },
      "t_bool": {
        "encoding": "inplace",
        "label": "bool",
        "numberOfBytes": "1"
      },
      "t_bytes_storage": {
        "encoding": "bytes",
        "label": "bytes",
        "numberOfBytes": "32"
      },
      "t_contract(MetaheroToken)4631": {
        "encoding": "inplace",
        "label": "contract MetaheroToken",
        "numberOfBytes": "20"
      },
      "t_mapping(t_address,t_struct(WeightsHistory)83_storage)": {
        "encoding": "mapping",
        "key": "t_address",
        "label": "mapping(address => struct MetaheroDAO.WeightsHistory)",
        "numberOfBytes": "32",
        "value": "t_struct(WeightsHistory)83_storage"
      },
      "t_mapping(t_address,t_uint8)": {
        "encoding": "mapping",
        "key": "t_address",
        "label": "mapping(address => uint8)",
        "numberOfBytes": "32",
        "value": "t_uint8"
      },
      "t_mapping(t_uint256,t_struct(Proposal)76_storage)": {
        "encoding": "mapping",
        "key": "t_uint256",
        "label": "mapping(uint256 => struct MetaheroDAO.Proposal)",
        "numberOfBytes": "32",
        "value": "t_struct(Proposal)76_storage"
      },
      "t_struct(Proposal)76_storage": {
        "encoding": "inplace",
        "label": "struct MetaheroDAO.Proposal",
        "members": [
          {
            "astId": 53,
            "contract": "src/MetaheroDAO.sol:MetaheroDAO",
            "label": "snapshotId",
            "offset": 0,
            "slot": "0",
            "type": "t_uint256"
          },
          {
            "astId": 55,
            "contract": "src/MetaheroDAO.sol:MetaheroDAO",
            "label": "callData",
            "offset": 0,
            "slot": "1",
            "type": "t_bytes_storage"
          },
          {
            "astId": 57,
            "contract": "src/MetaheroDAO.sol:MetaheroDAO",
            "label": "startsAt",
            "offset": 0,
            "slot": "2",
            "type": "t_uint256"
          },
          {
            "astId": 59,
            "contract": "src/MetaheroDAO.sol:MetaheroDAO",
            "label": "endsAt",
            "offset": 0,
            "slot": "3",
            "type": "t_uint256"
          },
          {
            "astId": 61,
            "contract": "src/MetaheroDAO.sol:MetaheroDAO",
            "label": "processed",
            "offset": 0,
            "slot": "4",
            "type": "t_bool"
          },
          {
            "astId": 63,
            "contract": "src/MetaheroDAO.sol:MetaheroDAO",
            "label": "votesMinPercentage",
            "offset": 0,
            "slot": "5",
            "type": "t_uint256"
          },
          {
            "astId": 65,
            "contract": "src/MetaheroDAO.sol:MetaheroDAO",
            "label": "votesMinWeight",
            "offset": 0,
            "slot": "6",
            "type": "t_uint256"
          },
          {
            "astId": 67,
            "contract": "src/MetaheroDAO.sol:MetaheroDAO",
            "label": "votesYesWeight",
            "offset": 0,
            "slot": "7",
            "type": "t_uint256"
          },
          {
            "astId": 69,
            "contract": "src/MetaheroDAO.sol:MetaheroDAO",
            "label": "votesNoWeight",
            "offset": 0,
            "slot": "8",
            "type": "t_uint256"
          },
          {
            "astId": 71,
            "contract": "src/MetaheroDAO.sol:MetaheroDAO",
            "label": "votesCount",
            "offset": 0,
            "slot": "9",
            "type": "t_uint256"
          },
          {
            "astId": 75,
            "contract": "src/MetaheroDAO.sol:MetaheroDAO",
            "label": "votes",
            "offset": 0,
            "slot": "10",
            "type": "t_mapping(t_address,t_uint8)"
          }
        ],
        "numberOfBytes": "352"
      },
      "t_struct(Settings)51_storage": {
        "encoding": "inplace",
        "label": "struct MetaheroDAO.Settings",
        "members": [
          {
            "astId": 48,
            "contract": "src/MetaheroDAO.sol:MetaheroDAO",
            "label": "minVotingPeriod",
            "offset": 0,
            "slot": "0",
            "type": "t_uint256"
          },
          {
            "astId": 50,
            "contract": "src/MetaheroDAO.sol:MetaheroDAO",
            "label": "snapshotWindow",
            "offset": 0,
            "slot": "1",
            "type": "t_uint256"
          }
        ],
        "numberOfBytes": "64"
      },
      "t_struct(WeightsHistory)83_storage": {
        "encoding": "inplace",
        "label": "struct MetaheroDAO.WeightsHistory",
        "members": [
          {
            "astId": 79,
            "contract": "src/MetaheroDAO.sol:MetaheroDAO",
            "label": "weights",
            "offset": 0,
            "slot": "0",
            "type": "t_array(t_uint256)dyn_storage"
          },
          {
            "astId": 82,
            "contract": "src/MetaheroDAO.sol:MetaheroDAO",
            "label": "snapshotIds",
            "offset": 0,
            "slot": "1",
            "type": "t_array(t_uint256)dyn_storage"
          }
        ],
        "numberOfBytes": "64"
      },
      "t_uint256": {
        "encoding": "inplace",
        "label": "uint256",
        "numberOfBytes": "32"
      },
      "t_uint8": {
        "encoding": "inplace",
        "label": "uint8",
        "numberOfBytes": "1"
      }
    }
  }
}