{
  "address": "0xFc7C3626F19Bf7751DFCDbd3b8aBA1FF9270C7b7",
  "abi": [
    {
      "inputs": [],
      "stateMutability": "nonpayable",
      "type": "constructor"
    },
    {
      "anonymous": false,
      "inputs": [
        {
          "indexed": true,
          "internalType": "address",
          "name": "account",
          "type": "address"
        }
      ],
      "name": "AccountAdded",
      "type": "event"
    },
    {
      "anonymous": false,
      "inputs": [
        {
          "indexed": true,
          "internalType": "address",
          "name": "account",
          "type": "address"
        }
      ],
      "name": "AccountRemoved",
      "type": "event"
    },
    {
      "anonymous": false,
      "inputs": [
        {
          "indexed": false,
          "internalType": "address",
          "name": "token",
          "type": "address"
        },
        {
          "indexed": false,
          "internalType": "uint256",
          "name": "tokensAmountPerNative",
          "type": "uint256"
        },
        {
          "indexed": false,
          "internalType": "uint256",
          "name": "minPurchasePrice",
          "type": "uint256"
        },
        {
          "indexed": false,
          "internalType": "uint256",
          "name": "maxPurchasePrice",
          "type": "uint256"
        }
      ],
      "name": "Initialized",
      "type": "event"
    },
    {
      "anonymous": false,
      "inputs": [
        {
          "indexed": false,
          "internalType": "address",
          "name": "owner",
          "type": "address"
        }
      ],
      "name": "OwnerUpdated",
      "type": "event"
    },
    {
      "anonymous": false,
      "inputs": [],
      "name": "PresaleStarted",
      "type": "event"
    },
    {
      "anonymous": false,
      "inputs": [
        {
          "indexed": true,
          "internalType": "address",
          "name": "account",
          "type": "address"
        },
        {
          "indexed": false,
          "internalType": "uint256",
          "name": "tokensPrice",
          "type": "uint256"
        },
        {
          "indexed": false,
          "internalType": "uint256",
          "name": "tokensAmount",
          "type": "uint256"
        }
      ],
      "name": "TokensPurchased",
      "type": "event"
    },
    {
      "inputs": [
        {
          "internalType": "address[]",
          "name": "accounts",
          "type": "address[]"
        }
      ],
      "name": "addAccounts",
      "outputs": [],
      "stateMutability": "nonpayable",
      "type": "function"
    },
    {
      "inputs": [],
      "name": "buyTokens",
      "outputs": [],
      "stateMutability": "payable",
      "type": "function"
    },
    {
      "inputs": [],
      "name": "finishPresale",
      "outputs": [],
      "stateMutability": "nonpayable",
      "type": "function"
    },
    {
      "inputs": [
        {
          "internalType": "address payable",
          "name": "token_",
          "type": "address"
        },
        {
          "internalType": "uint256",
          "name": "tokensAmountPerNative",
          "type": "uint256"
        },
        {
          "internalType": "uint256",
          "name": "minPurchasePrice",
          "type": "uint256"
        },
        {
          "internalType": "uint256",
          "name": "maxPurchasePrice",
          "type": "uint256"
        }
      ],
      "name": "initialize",
      "outputs": [],
      "stateMutability": "nonpayable",
      "type": "function"
    },
    {
      "inputs": [],
      "name": "initialized",
      "outputs": [
        {
          "internalType": "bool",
          "name": "",
          "type": "bool"
        }
      ],
      "stateMutability": "view",
      "type": "function"
    },
    {
      "inputs": [],
      "name": "owner",
      "outputs": [
        {
          "internalType": "address",
          "name": "",
          "type": "address"
        }
      ],
      "stateMutability": "view",
      "type": "function"
    },
    {
      "inputs": [
        {
          "internalType": "address[]",
          "name": "accounts",
          "type": "address[]"
        }
      ],
      "name": "removeAccounts",
      "outputs": [],
      "stateMutability": "nonpayable",
      "type": "function"
    },
    {
      "inputs": [
        {
          "internalType": "address",
          "name": "owner_",
          "type": "address"
        }
      ],
      "name": "setOwner",
      "outputs": [],
      "stateMutability": "nonpayable",
      "type": "function"
    },
    {
      "inputs": [],
      "name": "settings",
      "outputs": [
        {
          "internalType": "uint256",
          "name": "tokensAmountPerNative",
          "type": "uint256"
        },
        {
          "internalType": "uint256",
          "name": "minPurchasePrice",
          "type": "uint256"
        },
        {
          "internalType": "uint256",
          "name": "maxPurchasePrice",
          "type": "uint256"
        }
      ],
      "stateMutability": "view",
      "type": "function"
    },
    {
      "inputs": [],
      "name": "startPresale",
      "outputs": [],
      "stateMutability": "nonpayable",
      "type": "function"
    },
    {
      "inputs": [],
      "name": "started",
      "outputs": [
        {
          "internalType": "bool",
          "name": "",
          "type": "bool"
        }
      ],
      "stateMutability": "view",
      "type": "function"
    },
    {
      "inputs": [],
      "name": "summary",
      "outputs": [
        {
          "internalType": "uint256",
          "name": "totalAccounts",
          "type": "uint256"
        },
        {
          "internalType": "uint256",
          "name": "totalTokens",
          "type": "uint256"
        }
      ],
      "stateMutability": "view",
      "type": "function"
    },
    {
      "inputs": [],
      "name": "syncTotalTokens",
      "outputs": [],
      "stateMutability": "nonpayable",
      "type": "function"
    },
    {
      "inputs": [],
      "name": "token",
      "outputs": [
        {
          "internalType": "contract MetaheroToken",
          "name": "",
          "type": "address"
        }
      ],
      "stateMutability": "view",
      "type": "function"
    },
    {
      "inputs": [
        {
          "internalType": "address",
          "name": "",
          "type": "address"
        }
      ],
      "name": "whitelist",
      "outputs": [
        {
          "internalType": "bool",
          "name": "",
          "type": "bool"
        }
      ],
      "stateMutability": "view",
      "type": "function"
    },
    {
      "stateMutability": "payable",
      "type": "receive"
    }
  ],
  "transactionHash": "0x931717706e1bbde73b06bb98c83cc11529dd3e137c33b169cf6eecac5469ccf3",
  "args": [],
  "solcInputHash": "944f27d8c9be259369626edd253df334",
  "bytecode": "0x608060405234801561001057600080fd5b50336000806101000a81548173ffffffffffffffffffffffffffffffffffffffff021916908373ffffffffffffffffffffffffffffffffffffffff16021790555033600160006101000a81548173ffffffffffffffffffffffffffffffffffffffff021916908373ffffffffffffffffffffffffffffffffffffffff1602179055506120de806100a16000396000f3fe6080604052600436106100ec5760003560e01c8063974654c61161008a578063d0febe4c11610059578063d0febe4c14610430578063d25d4bcf1461043a578063e06174e414610451578063fc0c546a1461048a576100fd565b8063974654c6146102fa5780639b19251a14610311578063ac71abde14610378578063b16a867c146103fe576100fd565b80631f2698ab116100c65780631f2698ab1461019757806348785016146101c45780634ec81af11461024a5780638da5cb5b146102b9576100fd565b806304c98b2b1461010257806313af403514610119578063158ef93e1461016a576100fd565b366100fd576100fb33346104cb565b005b600080fd5b34801561010e57600080fd5b506101176109d5565b005b34801561012557600080fd5b506101686004803603602081101561013c57600080fd5b81019080803573ffffffffffffffffffffffffffffffffffffffff169060200190929190505050610b62565b005b34801561017657600080fd5b5061017f610c2f565b60405180821515815260200191505060405180910390f35b3480156101a357600080fd5b506101ac610c87565b60405180821515815260200191505060405180910390f35b3480156101d057600080fd5b50610248600480360360208110156101e757600080fd5b810190808035906020019064010000000081111561020457600080fd5b82018360208201111561021657600080fd5b8035906020019184602083028401116401000000008311171561023857600080fd5b9091929391929390505050610c9a565b005b34801561025657600080fd5b506102b76004803603608081101561026d57600080fd5b81019080803573ffffffffffffffffffffffffffffffffffffffff169060200190929190803590602001909291908035906020019092919080359060200190929190505050611062565b005b3480156102c557600080fd5b506102ce6115ca565b604051808273ffffffffffffffffffffffffffffffffffffffff16815260200191505060405180910390f35b34801561030657600080fd5b5061030f6115ee565b005b34801561031d57600080fd5b506103606004803603602081101561033457600080fd5b81019080803573ffffffffffffffffffffffffffffffffffffffff169060200190929190505050611826565b60405180821515815260200191505060405180910390f35b34801561038457600080fd5b506103fc6004803603602081101561039b57600080fd5b81019080803590602001906401000000008111156103b857600080fd5b8201836020820111156103ca57600080fd5b803590602001918460208302840111640100000000831117156103ec57600080fd5b9091929391929390505050611846565b005b34801561040a57600080fd5b50610413611955565b604051808381526020018281526020019250505060405180910390f35b610438611967565b005b34801561044657600080fd5b5061044f611973565b005b34801561045d57600080fd5b50610466611a42565b60405180848152602001838152602001828152602001935050505060405180910390f35b34801561049657600080fd5b5061049f611a5a565b604051808273ffffffffffffffffffffffffffffffffffffffff16815260200191505060405180910390f35b600860009054906101000a900460ff1661054d576040517f08c379a00000000000000000000000000000000000000000000000000000000081526004018080602001828103825260118152602001807f4d6574616865726f50726573616c65233100000000000000000000000000000081525060200191505060405180910390fd5b600960008373ffffffffffffffffffffffffffffffffffffffff1673ffffffffffffffffffffffffffffffffffffffff16815260200190815260200160002060009054906101000a900460ff1661060c576040517f08c379a00000000000000000000000000000000000000000000000000000000081526004018080602001828103825260118152602001807f4d6574616865726f50726573616c65233200000000000000000000000000000081525060200191505060405180910390fd5b6000811415610683576040517f08c379a00000000000000000000000000000000000000000000000000000000081526004018080602001828103825260118152602001807f4d6574616865726f50726573616c65233300000000000000000000000000000081525060200191505060405180910390fd5b6003600101548110156106fe576040517f08c379a00000000000000000000000000000000000000000000000000000000081526004018080602001828103825260118152602001807f4d6574616865726f50726573616c65233400000000000000000000000000000081525060200191505060405180910390fd5b600360020154811115610779576040517f08c379a00000000000000000000000000000000000000000000000000000000081526004018080602001828103825260118152602001807f4d6574616865726f50726573616c65233500000000000000000000000000000081525060200191505060405180910390fd5b600061079360036000015483611a8090919063ffffffff16565b9050600660010154811115610810576040517f08c379a00000000000000000000000000000000000000000000000000000000081526004018080602001828103825260118152602001807f4d6574616865726f50726573616c65233600000000000000000000000000000081525060200191505060405180910390fd5b6000600960008573ffffffffffffffffffffffffffffffffffffffff1673ffffffffffffffffffffffffffffffffffffffff16815260200190815260200160002060006101000a81548160ff0219169083151502179055506108816001600660000154611b2290919063ffffffff16565b6006600001819055506108a281600660010154611b2290919063ffffffff16565b600660010181905550600260009054906101000a900473ffffffffffffffffffffffffffffffffffffffff1673ffffffffffffffffffffffffffffffffffffffff1663a9059cbb84836040518363ffffffff1660e01b8152600401808373ffffffffffffffffffffffffffffffffffffffff16815260200182815260200192505050602060405180830381600087803b15801561093e57600080fd5b505af1158015610952573d6000803e3d6000fd5b505050506040513d602081101561096857600080fd5b8101908080519060200190929190505050508273ffffffffffffffffffffffffffffffffffffffff167f8fafebcaf9d154343dad25669bfa277f4fbacd7ac6b0c4fed522580e040a0f338383604051808381526020018281526020019250505060405180910390a2505050565b60008054906101000a900473ffffffffffffffffffffffffffffffffffffffff1673ffffffffffffffffffffffffffffffffffffffff163373ffffffffffffffffffffffffffffffffffffffff1614610a96576040517f08c379a00000000000000000000000000000000000000000000000000000000081526004018080602001828103825260078152602001807f4f776e656423310000000000000000000000000000000000000000000000000081525060200191505060405180910390fd5b600860009054906101000a900460ff1615610b19576040517f08c379a00000000000000000000000000000000000000000000000000000000081526004018080602001828103825260128152602001807f4d6574616865726f50726573616c65233131000000000000000000000000000081525060200191505060405180910390fd5b6001600860006101000a81548160ff0219169083151502179055507f17c3338141363aab2512c08f8a7764328ca95979f7057663eb93f7e250139b4c60405160405180910390a1565b60008054906101000a900473ffffffffffffffffffffffffffffffffffffffff1673ffffffffffffffffffffffffffffffffffffffff163373ffffffffffffffffffffffffffffffffffffffff1614610c23576040517f08c379a00000000000000000000000000000000000000000000000000000000081526004018080602001828103825260078152602001807f4f776e656423310000000000000000000000000000000000000000000000000081525060200191505060405180910390fd5b610c2c81611ba5565b50565b60008073ffffffffffffffffffffffffffffffffffffffff16600160009054906101000a900473ffffffffffffffffffffffffffffffffffffffff1673ffffffffffffffffffffffffffffffffffffffff1614905090565b600860009054906101000a900460ff1681565b60008054906101000a900473ffffffffffffffffffffffffffffffffffffffff1673ffffffffffffffffffffffffffffffffffffffff163373ffffffffffffffffffffffffffffffffffffffff1614610d5b576040517f08c379a00000000000000000000000000000000000000000000000000000000081526004018080602001828103825260078152602001807f4f776e656423310000000000000000000000000000000000000000000000000081525060200191505060405180910390fd5b60008083839050905060005b81811015610fc357600073ffffffffffffffffffffffffffffffffffffffff16858583818110610d9357fe5b9050602002013573ffffffffffffffffffffffffffffffffffffffff1673ffffffffffffffffffffffffffffffffffffffff161415610e3a576040517f08c379a00000000000000000000000000000000000000000000000000000000081526004018080602001828103825260128152602001807f4d6574616865726f50726573616c65233132000000000000000000000000000081525060200191505060405180910390fd5b60096000868684818110610e4a57fe5b9050602002013573ffffffffffffffffffffffffffffffffffffffff1673ffffffffffffffffffffffffffffffffffffffff1673ffffffffffffffffffffffffffffffffffffffff16815260200190815260200160002060009054906101000a900460ff1615610fb657600060096000878785818110610ec657fe5b9050602002013573ffffffffffffffffffffffffffffffffffffffff1673ffffffffffffffffffffffffffffffffffffffff1673ffffffffffffffffffffffffffffffffffffffff16815260200190815260200160002060006101000a81548160ff021916908315150217905550610f48600184611d9a90919063ffffffff16565b9250848482818110610f5657fe5b9050602002013573ffffffffffffffffffffffffffffffffffffffff1673ffffffffffffffffffffffffffffffffffffffff167fbf2e373b8263f701e10efcac80ea442afcb29c6852b3a42b0b46cc8edaaf54a760405160405180910390a25b8080600101915050610d67565b50600082141561103b576040517f08c379a00000000000000000000000000000000000000000000000000000000081526004018080602001828103825260128152602001807f4d6574616865726f50726573616c65233133000000000000000000000000000081525060200191505060405180910390fd5b61105382600660000154611b2290919063ffffffff16565b60066000018190555050505050565b600073ffffffffffffffffffffffffffffffffffffffff16600160009054906101000a900473ffffffffffffffffffffffffffffffffffffffff1673ffffffffffffffffffffffffffffffffffffffff161415611127576040517f08c379a000000000000000000000000000000000000000000000000000000000815260040180806020018281038252600f8152602001807f496e697469616c697a61626c652331000000000000000000000000000000000081525060200191505060405180910390fd5b600160009054906101000a900473ffffffffffffffffffffffffffffffffffffffff1673ffffffffffffffffffffffffffffffffffffffff163373ffffffffffffffffffffffffffffffffffffffff16146111ea576040517f08c379a000000000000000000000000000000000000000000000000000000000815260040180806020018281038252600f8152602001807f496e697469616c697a61626c652332000000000000000000000000000000000081525060200191505060405180910390fd5b6000600160006101000a81548173ffffffffffffffffffffffffffffffffffffffff021916908373ffffffffffffffffffffffffffffffffffffffff160217905550600073ffffffffffffffffffffffffffffffffffffffff168473ffffffffffffffffffffffffffffffffffffffff1614156112cf576040517f08c379a00000000000000000000000000000000000000000000000000000000081526004018080602001828103825260118152602001807f4d6574616865726f50726573616c65233700000000000000000000000000000081525060200191505060405180910390fd5b6000831415611346576040517f08c379a00000000000000000000000000000000000000000000000000000000081526004018080602001828103825260118152602001807f4d6574616865726f50726573616c65233800000000000000000000000000000081525060200191505060405180910390fd5b808211156113bc576040517f08c379a00000000000000000000000000000000000000000000000000000000081526004018080602001828103825260118152602001807f4d6574616865726f50726573616c65233900000000000000000000000000000081525060200191505060405180910390fd5b6000811415611433576040517f08c379a00000000000000000000000000000000000000000000000000000000081526004018080602001828103825260128152602001807f4d6574616865726f50726573616c65233130000000000000000000000000000081525060200191505060405180910390fd5b83600260006101000a81548173ffffffffffffffffffffffffffffffffffffffff021916908373ffffffffffffffffffffffffffffffffffffffff160217905550826003600001819055508160036001018190555080600360020181905550600260009054906101000a900473ffffffffffffffffffffffffffffffffffffffff1673ffffffffffffffffffffffffffffffffffffffff166370a08231306040518263ffffffff1660e01b8152600401808273ffffffffffffffffffffffffffffffffffffffff16815260200191505060206040518083038186803b15801561151b57600080fd5b505afa15801561152f573d6000803e3d6000fd5b505050506040513d602081101561154557600080fd5b81019080805190602001909291905050506006600101819055507f6b40d9ac9d9dcc4ba6477664fdae5809a701208c8db1cbb7bc759993691146a984848484604051808573ffffffffffffffffffffffffffffffffffffffff16815260200184815260200183815260200182815260200194505050505060405180910390a150505050565b60008054906101000a900473ffffffffffffffffffffffffffffffffffffffff1681565b60008054906101000a900473ffffffffffffffffffffffffffffffffffffffff1673ffffffffffffffffffffffffffffffffffffffff163373ffffffffffffffffffffffffffffffffffffffff16146116af576040517f08c379a00000000000000000000000000000000000000000000000000000000081526004018080602001828103825260078152602001807f4f776e656423310000000000000000000000000000000000000000000000000081525060200191505060405180910390fd5b6000600260009054906101000a900473ffffffffffffffffffffffffffffffffffffffff1673ffffffffffffffffffffffffffffffffffffffff166370a08231306040518263ffffffff1660e01b8152600401808273ffffffffffffffffffffffffffffffffffffffff16815260200191505060206040518083038186803b15801561173a57600080fd5b505afa15801561174e573d6000803e3d6000fd5b505050506040513d602081101561176457600080fd5b810190808051906020019092919050505090506000811461180d57600260009054906101000a900473ffffffffffffffffffffffffffffffffffffffff1673ffffffffffffffffffffffffffffffffffffffff166342966c68826040518263ffffffff1660e01b815260040180828152602001915050600060405180830381600087803b1580156117f457600080fd5b505af1158015611808573d6000803e3d6000fd5b505050505b3373ffffffffffffffffffffffffffffffffffffffff16ff5b60096020528060005260406000206000915054906101000a900460ff1681565b60008054906101000a900473ffffffffffffffffffffffffffffffffffffffff1673ffffffffffffffffffffffffffffffffffffffff163373ffffffffffffffffffffffffffffffffffffffff1614611907576040517f08c379a00000000000000000000000000000000000000000000000000000000081526004018080602001828103825260078152602001807f4f776e656423310000000000000000000000000000000000000000000000000081525060200191505060405180910390fd5b611951828280806020026020016040519081016040528093929190818152602001838360200280828437600081840152601f19601f82011690508083019250505050505050611e22565b5050565b60068060000154908060010154905082565b61197133346104cb565b565b600260009054906101000a900473ffffffffffffffffffffffffffffffffffffffff1673ffffffffffffffffffffffffffffffffffffffff166370a08231306040518263ffffffff1660e01b8152600401808273ffffffffffffffffffffffffffffffffffffffff16815260200191505060206040518083038186803b1580156119fc57600080fd5b505afa158015611a10573d6000803e3d6000fd5b505050506040513d6020811015611a2657600080fd5b8101908080519060200190929190505050600660010181905550565b60038060000154908060010154908060020154905083565b600260009054906101000a900473ffffffffffffffffffffffffffffffffffffffff1681565b6000808314158015611a93575060008214155b15611b1c57818302905081838281611aa757fe5b0414611b1b576040517f08c379a000000000000000000000000000000000000000000000000000000000815260040180806020018281038252600d8152602001807f536166654d6174684c696223330000000000000000000000000000000000000081525060200191505060405180910390fd5b5b92915050565b600082821115611b9a576040517f08c379a000000000000000000000000000000000000000000000000000000000815260040180806020018281038252600d8152602001807f536166654d6174684c696223320000000000000000000000000000000000000081525060200191505060405180910390fd5b818303905092915050565b600073ffffffffffffffffffffffffffffffffffffffff168173ffffffffffffffffffffffffffffffffffffffff161415611c48576040517f08c379a00000000000000000000000000000000000000000000000000000000081526004018080602001828103825260078152602001807f4f776e656423320000000000000000000000000000000000000000000000000081525060200191505060405180910390fd5b60008054906101000a900473ffffffffffffffffffffffffffffffffffffffff1673ffffffffffffffffffffffffffffffffffffffff168173ffffffffffffffffffffffffffffffffffffffff161415611d0a576040517f08c379a00000000000000000000000000000000000000000000000000000000081526004018080602001828103825260078152602001807f4f776e656423330000000000000000000000000000000000000000000000000081525060200191505060405180910390fd5b806000806101000a81548173ffffffffffffffffffffffffffffffffffffffff021916908373ffffffffffffffffffffffffffffffffffffffff1602179055507f4ffd725fc4a22075e9ec71c59edf9c38cdeb588a91b24fc5b61388c5be41282b81604051808273ffffffffffffffffffffffffffffffffffffffff16815260200191505060405180910390a150565b600080828401905083811015611e18576040517f08c379a000000000000000000000000000000000000000000000000000000000815260040180806020018281038252600d8152602001807f536166654d6174684c696223310000000000000000000000000000000000000081525060200191505060405180910390fd5b8091505092915050565b6000808251905060005b8181101561203357600073ffffffffffffffffffffffffffffffffffffffff16848281518110611e5857fe5b602002602001015173ffffffffffffffffffffffffffffffffffffffff161415611eea576040517f08c379a00000000000000000000000000000000000000000000000000000000081526004018080602001828103825260128152602001807f4d6574616865726f50726573616c65233134000000000000000000000000000081525060200191505060405180910390fd5b60096000858381518110611efa57fe5b602002602001015173ffffffffffffffffffffffffffffffffffffffff1673ffffffffffffffffffffffffffffffffffffffff16815260200190815260200160002060009054906101000a900460ff1661202657600160096000868481518110611f6057fe5b602002602001015173ffffffffffffffffffffffffffffffffffffffff1673ffffffffffffffffffffffffffffffffffffffff16815260200190815260200160002060006101000a81548160ff021916908315150217905550611fcd600184611d9a90919063ffffffff16565b9250838181518110611fdb57fe5b602002602001015173ffffffffffffffffffffffffffffffffffffffff167f8f42195a0bbfa58954be4349deb9efc38bdb9c298e529f705f8bc1e38bce039960405160405180910390a25b8080600101915050611e2c565b5060008214156120ab576040517f08c379a00000000000000000000000000000000000000000000000000000000081526004018080602001828103825260128152602001807f4d6574616865726f50726573616c65233135000000000000000000000000000081525060200191505060405180910390fd5b6120c382600660000154611d9a90919063ffffffff16565b60066000018190555050505056fea164736f6c634300060c000a",
  "devdoc": {
    "author": "Stanisaw Gogowski <stan@metahero.io>",
    "events": {
      "AccountAdded(address)": {
        "details": "Emitted after account is added to the whitelist",
        "params": {
          "account": "account address"
        }
      },
      "AccountRemoved(address)": {
        "details": "Emitted after account is removed from the whitelist",
        "params": {
          "account": "account address"
        }
      },
      "Initialized(address,uint256,uint256,uint256)": {
        "details": "Emitted the contract is initialized",
        "params": {
          "maxPurchasePrice": "max purchase price in native",
          "minPurchasePrice": "min purchase price in native",
          "token": "token address",
          "tokensAmountPerNative": "tokens amount per native"
        }
      },
      "PresaleStarted()": {
        "details": "Emitted after the presale starts"
      },
      "TokensPurchased(address,uint256,uint256)": {
        "details": "Emitted after purchasing tokens",
        "params": {
          "account": "account address",
          "tokensAmount": "tokens amount",
          "tokensPrice": "tokens price"
        }
      }
    },
    "kind": "dev",
    "methods": {
      "addAccounts(address[])": {
        "details": "Adds accounts to the whitelist",
        "params": {
          "accounts": "array of accounts addresses"
        }
      },
      "buyTokens()": {
        "details": "Starts the process of buying tokens"
      },
      "constructor": {
        "details": "Public constructor"
      },
      "finishPresale()": {
        "details": "Finishes the presale"
      },
      "initialize(address,uint256,uint256,uint256)": {
        "details": "Initializes the contract",
        "params": {
          "maxPurchasePrice": "max purchase price",
          "minPurchasePrice": "min purchase price",
          "token_": "token address",
          "tokensAmountPerNative": "tokens amount per native"
        }
      },
      "initialized()": {
        "returns": {
          "_0": "true when contract is initialized"
        }
      },
      "removeAccounts(address[])": {
        "details": "Removes accounts from the whitelist",
        "params": {
          "accounts": "array of accounts addresses"
        }
      },
      "setOwner(address)": {
        "params": {
          "owner_": "owner address"
        }
      },
      "startPresale()": {
        "details": "Starts the presale"
      },
      "syncTotalTokens()": {
        "details": "Syncs total tokens"
      }
    },
    "stateVariables": {
      "settings": {
        "return": "settings object"
      },
      "started": {
        "return": "true when presale started"
      },
      "summary": {
        "return": "summary object"
      },
      "token": {
        "return": "token address"
      },
      "whitelist": {
        "return": "map with whitelisted accounts"
      }
    },
    "title": "Metahero presale",
    "version": 1
  },
  "userdoc": {
    "kind": "user",
    "methods": {
      "initialized()": {
        "notice": "Checks if contract is initialized"
      },
      "setOwner(address)": {
        "notice": "Sets a new owner"
      }
    },
    "version": 1
  },
  "storageLayout": {
    "storage": [
      {
        "astId": 4117,
        "contract": "src/MetaheroPresale.sol:MetaheroPresale",
        "label": "owner",
        "offset": 0,
        "slot": "0",
        "type": "t_address"
      },
      {
        "astId": 4704,
        "contract": "src/MetaheroPresale.sol:MetaheroPresale",
        "label": "initializer",
        "offset": 0,
        "slot": "1",
        "type": "t_address"
      },
      {
        "astId": 1026,
        "contract": "src/MetaheroPresale.sol:MetaheroPresale",
        "label": "token",
        "offset": 0,
        "slot": "2",
        "type": "t_contract(MetaheroToken)3870"
      },
      {
        "astId": 1029,
        "contract": "src/MetaheroPresale.sol:MetaheroPresale",
        "label": "settings",
        "offset": 0,
        "slot": "3",
        "type": "t_struct(Settings)1018_storage"
      },
      {
        "astId": 1032,
        "contract": "src/MetaheroPresale.sol:MetaheroPresale",
        "label": "summary",
        "offset": 0,
        "slot": "6",
        "type": "t_struct(Summary)1023_storage"
      },
      {
        "astId": 1035,
        "contract": "src/MetaheroPresale.sol:MetaheroPresale",
        "label": "started",
        "offset": 0,
        "slot": "8",
        "type": "t_bool"
      },
      {
        "astId": 1040,
        "contract": "src/MetaheroPresale.sol:MetaheroPresale",
        "label": "whitelist",
        "offset": 0,
        "slot": "9",
        "type": "t_mapping(t_address,t_bool)"
      }
    ],
    "types": {
      "t_address": {
        "encoding": "inplace",
        "label": "address",
        "numberOfBytes": "20"
      },
      "t_bool": {
        "encoding": "inplace",
        "label": "bool",
        "numberOfBytes": "1"
      },
      "t_contract(MetaheroToken)3870": {
        "encoding": "inplace",
        "label": "contract MetaheroToken",
        "numberOfBytes": "20"
      },
      "t_mapping(t_address,t_bool)": {
        "encoding": "mapping",
        "key": "t_address",
        "label": "mapping(address => bool)",
        "numberOfBytes": "32",
        "value": "t_bool"
      },
      "t_struct(Settings)1018_storage": {
        "encoding": "inplace",
        "label": "struct MetaheroPresale.Settings",
        "members": [
          {
            "astId": 1013,
            "contract": "src/MetaheroPresale.sol:MetaheroPresale",
            "label": "tokensAmountPerNative",
            "offset": 0,
            "slot": "0",
            "type": "t_uint256"
          },
          {
            "astId": 1015,
            "contract": "src/MetaheroPresale.sol:MetaheroPresale",
            "label": "minPurchasePrice",
            "offset": 0,
            "slot": "1",
            "type": "t_uint256"
          },
          {
            "astId": 1017,
            "contract": "src/MetaheroPresale.sol:MetaheroPresale",
            "label": "maxPurchasePrice",
            "offset": 0,
            "slot": "2",
            "type": "t_uint256"
          }
        ],
        "numberOfBytes": "96"
      },
      "t_struct(Summary)1023_storage": {
        "encoding": "inplace",
        "label": "struct MetaheroPresale.Summary",
        "members": [
          {
            "astId": 1020,
            "contract": "src/MetaheroPresale.sol:MetaheroPresale",
            "label": "totalAccounts",
            "offset": 0,
            "slot": "0",
            "type": "t_uint256"
          },
          {
            "astId": 1022,
            "contract": "src/MetaheroPresale.sol:MetaheroPresale",
            "label": "totalTokens",
            "offset": 0,
            "slot": "1",
            "type": "t_uint256"
          }
        ],
        "numberOfBytes": "64"
      },
      "t_uint256": {
        "encoding": "inplace",
        "label": "uint256",
        "numberOfBytes": "32"
      }
    }
  }
}