{
  "address": "0xbF815B78D177543Cc56B16F456C4c74d8295143e",
  "abi": [
    {
      "inputs": [],
      "stateMutability": "nonpayable",
      "type": "constructor"
    },
    {
      "anonymous": false,
      "inputs": [
        {
          "indexed": false,
          "internalType": "address",
          "name": "token",
          "type": "address"
        },
        {
          "indexed": false,
          "internalType": "address",
          "name": "factory",
          "type": "address"
        },
        {
          "indexed": false,
          "internalType": "address",
          "name": "native",
          "type": "address"
        }
      ],
      "name": "Initialized",
      "type": "event"
    },
    {
      "anonymous": false,
      "inputs": [
        {
          "indexed": false,
          "internalType": "address",
          "name": "owner",
          "type": "address"
        }
      ],
      "name": "OwnerUpdated",
      "type": "event"
    },
    {
      "anonymous": false,
      "inputs": [
        {
          "indexed": false,
          "internalType": "address",
          "name": "token",
          "type": "address"
        }
      ],
      "name": "SupportedTokenAdded",
      "type": "event"
    },
    {
      "anonymous": false,
      "inputs": [
        {
          "indexed": false,
          "internalType": "address",
          "name": "token",
          "type": "address"
        }
      ],
      "name": "SupportedTokenRemoved",
      "type": "event"
    },
    {
      "inputs": [
        {
          "internalType": "address",
          "name": "token_",
          "type": "address"
        }
      ],
      "name": "addSupportedToken",
      "outputs": [],
      "stateMutability": "nonpayable",
      "type": "function"
    },
    {
      "inputs": [
        {
          "internalType": "address[]",
          "name": "tokens",
          "type": "address[]"
        }
      ],
      "name": "addSupportedTokens",
      "outputs": [],
      "stateMutability": "nonpayable",
      "type": "function"
    },
    {
      "inputs": [],
      "name": "factory",
      "outputs": [
        {
          "internalType": "address",
          "name": "",
          "type": "address"
        }
      ],
      "stateMutability": "view",
      "type": "function"
    },
    {
      "inputs": [
        {
          "internalType": "address",
          "name": "token_",
          "type": "address"
        },
        {
          "internalType": "address",
          "name": "router_",
          "type": "address"
        }
      ],
      "name": "initialize",
      "outputs": [],
      "stateMutability": "nonpayable",
      "type": "function"
    },
    {
      "inputs": [],
      "name": "initialized",
      "outputs": [
        {
          "internalType": "bool",
          "name": "",
          "type": "bool"
        }
      ],
      "stateMutability": "view",
      "type": "function"
    },
    {
      "inputs": [],
      "name": "native",
      "outputs": [
        {
          "internalType": "address",
          "name": "",
          "type": "address"
        }
      ],
      "stateMutability": "view",
      "type": "function"
    },
    {
      "inputs": [],
      "name": "owner",
      "outputs": [
        {
          "internalType": "address",
          "name": "",
          "type": "address"
        }
      ],
      "stateMutability": "view",
      "type": "function"
    },
    {
      "inputs": [
        {
          "internalType": "address",
          "name": "token_",
          "type": "address"
        }
      ],
      "name": "removeSupportedToken",
      "outputs": [],
      "stateMutability": "nonpayable",
      "type": "function"
    },
    {
      "inputs": [
        {
          "internalType": "address[]",
          "name": "tokens",
          "type": "address[]"
        }
      ],
      "name": "removeSupportedTokens",
      "outputs": [],
      "stateMutability": "nonpayable",
      "type": "function"
    },
    {
      "inputs": [
        {
          "internalType": "address",
          "name": "owner_",
          "type": "address"
        }
      ],
      "name": "setOwner",
      "outputs": [],
      "stateMutability": "nonpayable",
      "type": "function"
    },
    {
      "inputs": [
        {
          "internalType": "address",
          "name": "supportedToken",
          "type": "address"
        },
        {
          "internalType": "uint256",
          "name": "amountIn",
          "type": "uint256"
        },
        {
          "internalType": "uint256",
          "name": "amountOutMin",
          "type": "uint256"
        }
      ],
      "name": "swapSupportedTokens",
      "outputs": [],
      "stateMutability": "nonpayable",
      "type": "function"
    },
    {
      "inputs": [],
      "name": "token",
      "outputs": [
        {
          "internalType": "address",
          "name": "",
          "type": "address"
        }
      ],
      "stateMutability": "view",
      "type": "function"
    }
  ],
  "transactionHash": "0xcb42127b7e6d3e1483638e1f970a206025959b84f98adb5f6a9da9bc1abadd3c",
  "args": [],
  "solcInputHash": "8e009ef51c8277dc9c4d3913f55be85d",
  "bytecode": "0x608060405234801561001057600080fd5b50336000806101000a81548173ffffffffffffffffffffffffffffffffffffffff021916908373ffffffffffffffffffffffffffffffffffffffff16021790555033600160006101000a81548173ffffffffffffffffffffffffffffffffffffffff021916908373ffffffffffffffffffffffffffffffffffffffff1602179055506124bf806100a16000396000f3fe608060405234801561001057600080fd5b50600436106100b45760003560e01c80638a448c59116100715780638a448c591461023d5780638c7ac746146102b65780638da5cb5b1461032f578063c45a015514610363578063cbcc7b4514610397578063fc0c546a146103ef576100b4565b806311b0b42d146100b957806313af4035146100ed578063158ef93e14610131578063485cc955146101515780636d69fcaf146101b557806376319190146101f9575b600080fd5b6100c1610423565b604051808273ffffffffffffffffffffffffffffffffffffffff16815260200191505060405180910390f35b61012f6004803603602081101561010357600080fd5b81019080803573ffffffffffffffffffffffffffffffffffffffff169060200190929190505050610449565b005b610139610516565b60405180821515815260200191505060405180910390f35b6101b36004803603604081101561016757600080fd5b81019080803573ffffffffffffffffffffffffffffffffffffffff169060200190929190803573ffffffffffffffffffffffffffffffffffffffff16906020019092919050505061056e565b005b6101f7600480360360208110156101cb57600080fd5b81019080803573ffffffffffffffffffffffffffffffffffffffff169060200190929190505050610b18565b005b61023b6004803603602081101561020f57600080fd5b81019080803573ffffffffffffffffffffffffffffffffffffffff169060200190929190505050610be5565b005b6102b46004803603602081101561025357600080fd5b810190808035906020019064010000000081111561027057600080fd5b82018360208201111561028257600080fd5b803590602001918460208302840111640100000000831117156102a457600080fd5b9091929391929390505050610cb2565b005b61032d600480360360208110156102cc57600080fd5b81019080803590602001906401000000008111156102e957600080fd5b8201836020820111156102fb57600080fd5b8035906020019184602083028401116401000000008311171561031d57600080fd5b9091929391929390505050610e41565b005b610337610fd0565b604051808273ffffffffffffffffffffffffffffffffffffffff16815260200191505060405180910390f35b61036b610ff4565b604051808273ffffffffffffffffffffffffffffffffffffffff16815260200191505060405180910390f35b6103ed600480360360608110156103ad57600080fd5b81019080803573ffffffffffffffffffffffffffffffffffffffff169060200190929190803590602001909291908035906020019092919050505061101a565b005b6103f7611253565b604051808273ffffffffffffffffffffffffffffffffffffffff16815260200191505060405180910390f35b600460009054906101000a900473ffffffffffffffffffffffffffffffffffffffff1681565b60008054906101000a900473ffffffffffffffffffffffffffffffffffffffff1673ffffffffffffffffffffffffffffffffffffffff163373ffffffffffffffffffffffffffffffffffffffff161461050a576040517f08c379a00000000000000000000000000000000000000000000000000000000081526004018080602001828103825260078152602001807f4f776e656423310000000000000000000000000000000000000000000000000081525060200191505060405180910390fd5b61051381611279565b50565b60008073ffffffffffffffffffffffffffffffffffffffff16600160009054906101000a900473ffffffffffffffffffffffffffffffffffffffff1673ffffffffffffffffffffffffffffffffffffffff1614905090565b600073ffffffffffffffffffffffffffffffffffffffff16600160009054906101000a900473ffffffffffffffffffffffffffffffffffffffff1673ffffffffffffffffffffffffffffffffffffffff161415610633576040517f08c379a000000000000000000000000000000000000000000000000000000000815260040180806020018281038252600f8152602001807f496e697469616c697a61626c652331000000000000000000000000000000000081525060200191505060405180910390fd5b600160009054906101000a900473ffffffffffffffffffffffffffffffffffffffff1673ffffffffffffffffffffffffffffffffffffffff163373ffffffffffffffffffffffffffffffffffffffff16146106f6576040517f08c379a000000000000000000000000000000000000000000000000000000000815260040180806020018281038252600f8152602001807f496e697469616c697a61626c652332000000000000000000000000000000000081525060200191505060405180910390fd5b6000600160006101000a81548173ffffffffffffffffffffffffffffffffffffffff021916908373ffffffffffffffffffffffffffffffffffffffff160217905550600073ffffffffffffffffffffffffffffffffffffffff168273ffffffffffffffffffffffffffffffffffffffff1614156107db576040517f08c379a00000000000000000000000000000000000000000000000000000000081526004018080602001828103825260148152602001807f4d6574616865726f53776170526f75746572233100000000000000000000000081525060200191505060405180910390fd5b600073ffffffffffffffffffffffffffffffffffffffff168173ffffffffffffffffffffffffffffffffffffffff16141561087e576040517f08c379a00000000000000000000000000000000000000000000000000000000081526004018080602001828103825260148152602001807f4d6574616865726f53776170526f75746572233200000000000000000000000081525060200191505060405180910390fd5b600081905082600260006101000a81548173ffffffffffffffffffffffffffffffffffffffff021916908373ffffffffffffffffffffffffffffffffffffffff1602179055508073ffffffffffffffffffffffffffffffffffffffff1663c45a01556040518163ffffffff1660e01b815260040160206040518083038186803b15801561090a57600080fd5b505afa15801561091e573d6000803e3d6000fd5b505050506040513d602081101561093457600080fd5b8101908080519060200190929190505050600360006101000a81548173ffffffffffffffffffffffffffffffffffffffff021916908373ffffffffffffffffffffffffffffffffffffffff1602179055508073ffffffffffffffffffffffffffffffffffffffff1663ad5c46486040518163ffffffff1660e01b815260040160206040518083038186803b1580156109cb57600080fd5b505afa1580156109df573d6000803e3d6000fd5b505050506040513d60208110156109f557600080fd5b8101908080519060200190929190505050600460006101000a81548173ffffffffffffffffffffffffffffffffffffffff021916908373ffffffffffffffffffffffffffffffffffffffff1602179055507fad307780531f6353137c35adc50ad58d71b76e76aa891e729387f2e720f2de2083600360009054906101000a900473ffffffffffffffffffffffffffffffffffffffff16600460009054906101000a900473ffffffffffffffffffffffffffffffffffffffff16604051808473ffffffffffffffffffffffffffffffffffffffff1681526020018373ffffffffffffffffffffffffffffffffffffffff1681526020018273ffffffffffffffffffffffffffffffffffffffff168152602001935050505060405180910390a1505050565b60008054906101000a900473ffffffffffffffffffffffffffffffffffffffff1673ffffffffffffffffffffffffffffffffffffffff163373ffffffffffffffffffffffffffffffffffffffff1614610bd9576040517f08c379a00000000000000000000000000000000000000000000000000000000081526004018080602001828103825260078152602001807f4f776e656423310000000000000000000000000000000000000000000000000081525060200191505060405180910390fd5b610be28161146e565b50565b60008054906101000a900473ffffffffffffffffffffffffffffffffffffffff1673ffffffffffffffffffffffffffffffffffffffff163373ffffffffffffffffffffffffffffffffffffffff1614610ca6576040517f08c379a00000000000000000000000000000000000000000000000000000000081526004018080602001828103825260078152602001807f4f776e656423310000000000000000000000000000000000000000000000000081525060200191505060405180910390fd5b610caf81611679565b50565b60008054906101000a900473ffffffffffffffffffffffffffffffffffffffff1673ffffffffffffffffffffffffffffffffffffffff163373ffffffffffffffffffffffffffffffffffffffff1614610d73576040517f08c379a00000000000000000000000000000000000000000000000000000000081526004018080602001828103825260078152602001807f4f776e656423310000000000000000000000000000000000000000000000000081525060200191505060405180910390fd5b60008282905090506000811415610df2576040517f08c379a00000000000000000000000000000000000000000000000000000000081526004018080602001828103825260148152602001807f4d6574616865726f53776170526f75746572233400000000000000000000000081525060200191505060405180910390fd5b60005b81811015610e3b57610e2e848483818110610e0c57fe5b9050602002013573ffffffffffffffffffffffffffffffffffffffff16611679565b8080600101915050610df5565b50505050565b60008054906101000a900473ffffffffffffffffffffffffffffffffffffffff1673ffffffffffffffffffffffffffffffffffffffff163373ffffffffffffffffffffffffffffffffffffffff1614610f02576040517f08c379a00000000000000000000000000000000000000000000000000000000081526004018080602001828103825260078152602001807f4f776e656423310000000000000000000000000000000000000000000000000081525060200191505060405180910390fd5b60008282905090506000811415610f81576040517f08c379a00000000000000000000000000000000000000000000000000000000081526004018080602001828103825260148152602001807f4d6574616865726f53776170526f75746572233300000000000000000000000081525060200191505060405180910390fd5b60005b81811015610fca57610fbd848483818110610f9b57fe5b9050602002013573ffffffffffffffffffffffffffffffffffffffff1661146e565b8080600101915050610f84565b50505050565b60008054906101000a900473ffffffffffffffffffffffffffffffffffffffff1681565b600360009054906101000a900473ffffffffffffffffffffffffffffffffffffffff1681565b600560008473ffffffffffffffffffffffffffffffffffffffff1673ffffffffffffffffffffffffffffffffffffffff16815260200190815260200160002060009054906101000a900460ff166110d9576040517f08c379a00000000000000000000000000000000000000000000000000000000081526004018080602001828103825260148152602001807f4d6574616865726f53776170526f75746572233500000000000000000000000081525060200191505060405180910390fd5b6060600367ffffffffffffffff811180156110f357600080fd5b506040519080825280602002602001820160405280156111225781602001602082028036833780820191505090505b509050838160008151811061113357fe5b602002602001019073ffffffffffffffffffffffffffffffffffffffff16908173ffffffffffffffffffffffffffffffffffffffff1681525050600460009054906101000a900473ffffffffffffffffffffffffffffffffffffffff168160018151811061119d57fe5b602002602001019073ffffffffffffffffffffffffffffffffffffffff16908173ffffffffffffffffffffffffffffffffffffffff1681525050600260009054906101000a900473ffffffffffffffffffffffffffffffffffffffff168160028151811061120757fe5b602002602001019073ffffffffffffffffffffffffffffffffffffffff16908173ffffffffffffffffffffffffffffffffffffffff168152505061124d838383336117e0565b50505050565b600260009054906101000a900473ffffffffffffffffffffffffffffffffffffffff1681565b600073ffffffffffffffffffffffffffffffffffffffff168173ffffffffffffffffffffffffffffffffffffffff16141561131c576040517f08c379a00000000000000000000000000000000000000000000000000000000081526004018080602001828103825260078152602001807f4f776e656423320000000000000000000000000000000000000000000000000081525060200191505060405180910390fd5b60008054906101000a900473ffffffffffffffffffffffffffffffffffffffff1673ffffffffffffffffffffffffffffffffffffffff168173ffffffffffffffffffffffffffffffffffffffff1614156113de576040517f08c379a00000000000000000000000000000000000000000000000000000000081526004018080602001828103825260078152602001807f4f776e656423330000000000000000000000000000000000000000000000000081525060200191505060405180910390fd5b806000806101000a81548173ffffffffffffffffffffffffffffffffffffffff021916908373ffffffffffffffffffffffffffffffffffffffff1602179055507f4ffd725fc4a22075e9ec71c59edf9c38cdeb588a91b24fc5b61388c5be41282b81604051808273ffffffffffffffffffffffffffffffffffffffff16815260200191505060405180910390a150565b600073ffffffffffffffffffffffffffffffffffffffff168173ffffffffffffffffffffffffffffffffffffffff161415611511576040517f08c379a00000000000000000000000000000000000000000000000000000000081526004018080602001828103825260148152602001807f4d6574616865726f53776170526f75746572233600000000000000000000000081525060200191505060405180910390fd5b600560008273ffffffffffffffffffffffffffffffffffffffff1673ffffffffffffffffffffffffffffffffffffffff16815260200190815260200160002060009054906101000a900460ff16156115d1576040517f08c379a00000000000000000000000000000000000000000000000000000000081526004018080602001828103825260148152602001807f4d6574616865726f53776170526f75746572233700000000000000000000000081525060200191505060405180910390fd5b6001600560008373ffffffffffffffffffffffffffffffffffffffff1673ffffffffffffffffffffffffffffffffffffffff16815260200190815260200160002060006101000a81548160ff0219169083151502179055507fd1be2e90bd3d24839d9dd94ad871068e1f9688b02fa43f2a62c9975dfa9de2d781604051808273ffffffffffffffffffffffffffffffffffffffff16815260200191505060405180910390a150565b600560008273ffffffffffffffffffffffffffffffffffffffff1673ffffffffffffffffffffffffffffffffffffffff16815260200190815260200160002060009054906101000a900460ff16611738576040517f08c379a00000000000000000000000000000000000000000000000000000000081526004018080602001828103825260148152602001807f4d6574616865726f53776170526f75746572233800000000000000000000000081525060200191505060405180910390fd5b6000600560008373ffffffffffffffffffffffffffffffffffffffff1673ffffffffffffffffffffffffffffffffffffffff16815260200190815260200160002060006101000a81548160ff0219169083151502179055507fbea12876694c4055c71f74308f752b9027cf3d554194000a366abddfc239a30681604051808273ffffffffffffffffffffffffffffffffffffffff16815260200191505060405180910390a150565b611831826000815181106117f057fe5b60200260200101513361182b8560008151811061180957fe5b60200260200101518660018151811061181e57fe5b6020026020010151611a3f565b87611b3e565b60008260018451038151811061184357fe5b602002602001015173ffffffffffffffffffffffffffffffffffffffff166370a08231836040518263ffffffff1660e01b8152600401808273ffffffffffffffffffffffffffffffffffffffff16815260200191505060206040518083038186803b1580156118b157600080fd5b505afa1580156118c5573d6000803e3d6000fd5b505050506040513d60208110156118db57600080fd5b810190808051906020019092919050505090506118f88383611d23565b836119c4828560018751038151811061190d57fe5b602002602001015173ffffffffffffffffffffffffffffffffffffffff166370a08231866040518263ffffffff1660e01b8152600401808273ffffffffffffffffffffffffffffffffffffffff16815260200191505060206040518083038186803b15801561197b57600080fd5b505afa15801561198f573d6000803e3d6000fd5b505050506040513d60208110156119a557600080fd5b810190808051906020019092919050505061212c90919063ffffffff16565b1015611a38576040517f08c379a00000000000000000000000000000000000000000000000000000000081526004018080602001828103825260148152602001807f4d6574616865726f53776170526f75746572233900000000000000000000000081525060200191505060405180910390fd5b5050505050565b6000806000611a4e85856121af565b91509150600360009054906101000a900473ffffffffffffffffffffffffffffffffffffffff1673ffffffffffffffffffffffffffffffffffffffff1663e6a4390583836040518363ffffffff1660e01b8152600401808373ffffffffffffffffffffffffffffffffffffffff1681526020018273ffffffffffffffffffffffffffffffffffffffff1681526020019250505060206040518083038186803b158015611af957600080fd5b505afa158015611b0d573d6000803e3d6000fd5b505050506040513d6020811015611b2357600080fd5b81019080805190602001909291905050509250505092915050565b600060608573ffffffffffffffffffffffffffffffffffffffff166323b872dd868686604051602401808473ffffffffffffffffffffffffffffffffffffffff1681526020018373ffffffffffffffffffffffffffffffffffffffff16815260200182815260200193505050506040516020818303038152906040529060e01b6020820180517bffffffffffffffffffffffffffffffffffffffffffffffffffffffff83818316178352505050506040518082805190602001908083835b60208310611c1f5780518252602082019150602081019050602083039250611bfc565b6001836020036101000a0380198251168184511680821785525050505050509050019150506000604051808303816000865af19150503d8060008114611c81576040519150601f19603f3d011682016040523d82523d6000602084013e611c86565b606091505b5091509150818015611cc65750600081511480611cc55750808060200190516020811015611cb357600080fd5b81019080805190602001909291905050505b5b611d1b576040517f08c379a000000000000000000000000000000000000000000000000000000000815260040180806020018281038252602481526020018061248f6024913960400191505060405180910390fd5b505050505050565b60005b600183510381101561212757600080848381518110611d4157fe5b6020026020010151856001850181518110611d5857fe5b6020026020010151915091506000611d7083836121af565b5090506000611d7f8484611a3f565b90506000806000808473ffffffffffffffffffffffffffffffffffffffff16630902f1ac6040518163ffffffff1660e01b815260040160606040518083038186803b158015611dcd57600080fd5b505afa158015611de1573d6000803e3d6000fd5b505050506040513d6060811015611df757600080fd5b81019080805190602001909291908051906020019092919080519060200190929190505050506dffffffffffffffffffffffffffff1691506dffffffffffffffffffffffffffff1691506000808773ffffffffffffffffffffffffffffffffffffffff168a73ffffffffffffffffffffffffffffffffffffffff1614611e7e578284611e81565b83835b91509150611f39828b73ffffffffffffffffffffffffffffffffffffffff166370a082318a6040518263ffffffff1660e01b8152600401808273ffffffffffffffffffffffffffffffffffffffff16815260200191505060206040518083038186803b158015611ef057600080fd5b505afa158015611f04573d6000803e3d6000fd5b505050506040513d6020811015611f1a57600080fd5b810190808051906020019092919050505061212c90919063ffffffff16565b9550611f468683836121fa565b9450505050506000808573ffffffffffffffffffffffffffffffffffffffff168873ffffffffffffffffffffffffffffffffffffffff1614611f8a57826000611f8e565b6000835b91509150600060028c51038a10611fa5578a611fc6565b611fc5888d60028d0181518110611fb857fe5b6020026020010151611a3f565b5b90508573ffffffffffffffffffffffffffffffffffffffff1663022c0d9f848484600067ffffffffffffffff81118015611fff57600080fd5b506040519080825280601f01601f1916602001820160405280156120325781602001600182028036833780820191505090505b506040518563ffffffff1660e01b8152600401808581526020018481526020018373ffffffffffffffffffffffffffffffffffffffff16815260200180602001828103825283818151815260200191508051906020019080838360005b838110156120aa57808201518184015260208101905061208f565b50505050905090810190601f1680156120d75780820380516001836020036101000a031916815260200191505b5095505050505050600060405180830381600087803b1580156120f957600080fd5b505af115801561210d573d6000803e3d6000fd5b505050505050505050505050508080600101915050611d26565b505050565b6000828211156121a4576040517f08c379a000000000000000000000000000000000000000000000000000000000815260040180806020018281038252600d8152602001807f536166654d6174684c696223320000000000000000000000000000000000000081525060200191505060405180910390fd5b818303905092915050565b6000808273ffffffffffffffffffffffffffffffffffffffff168473ffffffffffffffffffffffffffffffffffffffff16106121ec5782846121ef565b83835b915091509250929050565b6000808411612271576040517f08c379a00000000000000000000000000000000000000000000000000000000081526004018080602001828103825260158152602001807f4d6574616865726f53776170526f75746572233130000000000000000000000081525060200191505060405180910390fd5b6000831180156122815750600082115b6122f3576040517f08c379a00000000000000000000000000000000000000000000000000000000081526004018080602001828103825260158152602001807f4d6574616865726f53776170526f75746572233131000000000000000000000081525060200191505060405180910390fd5b600061230a6103e68661236490919063ffffffff16565b90506000612321848361236490919063ffffffff16565b9050600061234c8361233e6103e88961236490919063ffffffff16565b61240690919063ffffffff16565b905080828161235757fe5b0493505050509392505050565b6000808314158015612377575060008214155b156124005781830290508183828161238b57fe5b04146123ff576040517f08c379a000000000000000000000000000000000000000000000000000000000815260040180806020018281038252600d8152602001807f536166654d6174684c696223330000000000000000000000000000000000000081525060200191505060405180910390fd5b5b92915050565b600080828401905083811015612484576040517f08c379a000000000000000000000000000000000000000000000000000000000815260040180806020018281038252600d8152602001807f536166654d6174684c696223310000000000000000000000000000000000000081525060200191505060405180910390fd5b809150509291505056fe5472616e7366657248656c7065723a205452414e534645525f46524f4d5f4641494c4544a164736f6c634300060c000a",
  "devdoc": {
    "author": "Stanisaw Gogowski <stan@metahero.io>",
    "events": {
      "Initialized(address,address,address)": {
        "details": "Emitted when the contract is initialized",
        "params": {
          "factory": "factory address",
          "native": "native address",
          "token": "token address"
        }
      },
      "SupportedTokenAdded(address)": {
        "details": "Emitted when supported token is added",
        "params": {
          "token": "token address"
        }
      },
      "SupportedTokenRemoved(address)": {
        "details": "Emitted when supported token is removed",
        "params": {
          "token": "token address"
        }
      }
    },
    "kind": "dev",
    "methods": {
      "addSupportedToken(address)": {
        "details": "Adds supported token",
        "params": {
          "token_": "token address"
        }
      },
      "addSupportedTokens(address[])": {
        "details": "Adds supported tokens",
        "params": {
          "tokens": "tokens array"
        }
      },
      "constructor": {
        "details": "Public constructor"
      },
      "initialize(address,address)": {
        "details": "Initializes the contract",
        "params": {
          "router_": "router address",
          "token_": "token address"
        }
      },
      "initialized()": {
        "returns": {
          "_0": "true when contract is initialized"
        }
      },
      "removeSupportedToken(address)": {
        "details": "Removes supported tokens",
        "params": {
          "token_": "token address"
        }
      },
      "removeSupportedTokens(address[])": {
        "details": "Removes supported tokens",
        "params": {
          "tokens": "tokens array"
        }
      },
      "setOwner(address)": {
        "params": {
          "owner_": "owner address"
        }
      }
    },
    "title": "Metahero swap router",
    "version": 1
  },
  "userdoc": {
    "kind": "user",
    "methods": {
      "initialized()": {
        "notice": "Checks if contract is initialized"
      },
      "setOwner(address)": {
        "notice": "Sets a new owner"
      }
    },
    "version": 1
  },
  "storageLayout": {
    "storage": [
      {
        "astId": 6367,
        "contract": "src/MetaheroSwapRouter.sol:MetaheroSwapRouter",
        "label": "owner",
        "offset": 0,
        "slot": "0",
        "type": "t_address"
      },
      {
        "astId": 7075,
        "contract": "src/MetaheroSwapRouter.sol:MetaheroSwapRouter",
        "label": "initializer",
        "offset": 0,
        "slot": "1",
        "type": "t_address"
      },
      {
        "astId": 2596,
        "contract": "src/MetaheroSwapRouter.sol:MetaheroSwapRouter",
        "label": "token",
        "offset": 0,
        "slot": "2",
        "type": "t_address"
      },
      {
        "astId": 2598,
        "contract": "src/MetaheroSwapRouter.sol:MetaheroSwapRouter",
        "label": "factory",
        "offset": 0,
        "slot": "3",
        "type": "t_address"
      },
      {
        "astId": 2600,
        "contract": "src/MetaheroSwapRouter.sol:MetaheroSwapRouter",
        "label": "native",
        "offset": 0,
        "slot": "4",
        "type": "t_address"
      },
      {
        "astId": 2604,
        "contract": "src/MetaheroSwapRouter.sol:MetaheroSwapRouter",
        "label": "supportedTokens",
        "offset": 0,
        "slot": "5",
        "type": "t_mapping(t_address,t_bool)"
      }
    ],
    "types": {
      "t_address": {
        "encoding": "inplace",
        "label": "address",
        "numberOfBytes": "20"
      },
      "t_bool": {
        "encoding": "inplace",
        "label": "bool",
        "numberOfBytes": "1"
      },
      "t_mapping(t_address,t_bool)": {
        "encoding": "mapping",
        "key": "t_address",
        "label": "mapping(address => bool)",
        "numberOfBytes": "32",
        "value": "t_bool"
      }
    }
  }
}