{
  "address": "0x79c285c5c447Ecaf5a651147b3f35f25c63FDd87",
  "abi": [
    {
      "inputs": [],
      "stateMutability": "nonpayable",
      "type": "constructor"
    },
    {
      "inputs": [
        {
          "internalType": "address[]",
          "name": "tokens",
          "type": "address[]"
        },
        {
          "internalType": "address",
          "name": "account",
          "type": "address"
        },
        {
          "internalType": "address",
          "name": "spender",
          "type": "address"
        }
      ],
      "name": "getAllowances",
      "outputs": [
        {
          "internalType": "uint256[]",
          "name": "",
          "type": "uint256[]"
        }
      ],
      "stateMutability": "view",
      "type": "function"
    },
    {
      "inputs": [
        {
          "internalType": "address[]",
          "name": "allowancesTokens",
          "type": "address[]"
        },
        {
          "internalType": "address[]",
          "name": "balancesTokens",
          "type": "address[]"
        },
        {
          "internalType": "address",
          "name": "account",
          "type": "address"
        },
        {
          "internalType": "address",
          "name": "spender",
          "type": "address"
        }
      ],
      "name": "getAllowancesAndBalances",
      "outputs": [
        {
          "internalType": "uint256[]",
          "name": "",
          "type": "uint256[]"
        },
        {
          "internalType": "uint256[]",
          "name": "",
          "type": "uint256[]"
        }
      ],
      "stateMutability": "view",
      "type": "function"
    },
    {
      "inputs": [
        {
          "internalType": "address[]",
          "name": "tokens",
          "type": "address[]"
        },
        {
          "internalType": "address",
          "name": "account",
          "type": "address"
        }
      ],
      "name": "getBalances",
      "outputs": [
        {
          "internalType": "uint256[]",
          "name": "",
          "type": "uint256[]"
        }
      ],
      "stateMutability": "view",
      "type": "function"
    }
  ],
  "transactionHash": "0x2f58042ac5697fa01e2b25cb31e94465a39e1ab67af98be78908cf077ec02c37",
  "args": [],
  "numDeployments": 1,
  "solcInputHash": "6e906c6c2f1b3f51361011c29ec56366",
  "bytecode": "0x608060405234801561001057600080fd5b506107bb806100206000396000f3fe608060405234801561001057600080fd5b50600436106100415760003560e01c80634687c7e814610046578063b69a985014610070578063d1c0702814610090575b600080fd5b61005961005436600461056b565b6100a3565b604051610067929190610636565b60405180910390f35b61008361007e36600461065b565b610133565b60405161006791906106c0565b61008361009e3660046106da565b61017e565b6060806100e68888808060200260200160405190810160405280939291908181526020018383602002808284376000920191909152508892508791506101c69050565b61012487878080602002602001604051908101604052809392919081815260200183836020028082843760009201919091525089925061034d915050565b91509150965096945050505050565b60606101758585808060200260200160405190810160405280939291908181526020018383602002808284376000920191909152508792508691506101c69050565b95945050505050565b60606101be84848080602002602001604051908101604052809392919081815260200183836020028082843760009201919091525086925061034d915050565b949350505050565b82516060908067ffffffffffffffff8111156101e4576101e461072e565b60405190808252806020026020018201604052801561020d578160200160208202803683370190505b50915060005b8181101561034457600086828151811061022f5761022f610744565b60200260200101519050610255816001600160a01b03166001600160a01b03163b151590565b1561033b57604080516001600160a01b03888116602483015287811660448084019190915283518084039091018152606490920183526020820180516001600160e01b0316636eb1769f60e11b17905291516000928392908516916102ba919061075a565b600060405180830381855afa9150503d80600081146102f5576040519150601f19603f3d011682016040523d82523d6000602084013e6102fa565b606091505b5091509150811561033857808060200190518101906103199190610795565b86858151811061032b5761032b610744565b6020026020010181815250505b50505b50600101610213565b50509392505050565b81516060908067ffffffffffffffff81111561036b5761036b61072e565b604051908082528060200260200182016040528015610394578160200160208202803683370190505b50915060005b818110156104fb5760008582815181106103b6576103b6610744565b6020026020010151905060006001600160a01b0316816001600160a01b0316141561040957846001600160a01b0316318483815181106103f8576103f8610744565b6020026020010181815250506104f2565b6001600160a01b0381163b156104f257604080516001600160a01b0387811660248084019190915283518084039091018152604490920183526020820180516001600160e01b03166370a0823160e01b1790529151600092839290851691610471919061075a565b600060405180830381855afa9150503d80600081146104ac576040519150601f19603f3d011682016040523d82523d6000602084013e6104b1565b606091505b509150915081156104ef57808060200190518101906104d09190610795565b8685815181106104e2576104e2610744565b6020026020010181815250505b50505b5060010161039a565b505092915050565b60008083601f84011261051557600080fd5b50813567ffffffffffffffff81111561052d57600080fd5b6020830191508360208260051b850101111561054857600080fd5b9250929050565b80356001600160a01b038116811461056657600080fd5b919050565b6000806000806000806080878903121561058457600080fd5b863567ffffffffffffffff8082111561059c57600080fd5b6105a88a838b01610503565b909850965060208901359150808211156105c157600080fd5b506105ce89828a01610503565b90955093506105e190506040880161054f565b91506105ef6060880161054f565b90509295509295509295565b600081518084526020808501945080840160005b8381101561062b5781518752958201959082019060010161060f565b509495945050505050565b60408152600061064960408301856105fb565b828103602084015261017581856105fb565b6000806000806060858703121561067157600080fd5b843567ffffffffffffffff81111561068857600080fd5b61069487828801610503565b90955093506106a790506020860161054f565b91506106b56040860161054f565b905092959194509250565b6020815260006106d360208301846105fb565b9392505050565b6000806000604084860312156106ef57600080fd5b833567ffffffffffffffff81111561070657600080fd5b61071286828701610503565b909450925061072590506020850161054f565b90509250925092565b634e487b7160e01b600052604160045260246000fd5b634e487b7160e01b600052603260045260246000fd5b6000825160005b8181101561077b5760208186018101518583015201610761565b8181111561078a576000828501525b509190910192915050565b6000602082840312156107a757600080fd5b505191905056fea164736f6c6343000809000a",
  "devdoc": {
    "author": "Stanisław Głogowski <stan@metahero.io>",
    "kind": "dev",
    "methods": {},
    "title": "ERC20 Helper",
    "version": 1
  },
  "userdoc": {
    "kind": "user",
    "methods": {},
    "version": 1
  },
  "storageLayout": {
    "storage": [],
    "types": null
  }
}