{
  "address": "0x4FcbEd9Eb0D914915FBbc39241A6bF74EB23C701",
  "abi": [
    {
      "inputs": [],
      "stateMutability": "nonpayable",
      "type": "constructor"
    },
    {
      "anonymous": false,
      "inputs": [],
      "name": "Initialized",
      "type": "event"
    },
    {
      "anonymous": false,
      "inputs": [
        {
          "indexed": false,
          "internalType": "address",
          "name": "owner",
          "type": "address"
        }
      ],
      "name": "OwnerUpdated",
      "type": "event"
    },
    {
      "inputs": [
        {
          "internalType": "uint256",
          "name": "amount",
          "type": "uint256"
        }
      ],
      "name": "burnLP",
      "outputs": [],
      "stateMutability": "nonpayable",
      "type": "function"
    },
    {
      "inputs": [
        {
          "internalType": "uint256",
          "name": "enableBurnLPAtValue",
          "type": "uint256"
        },
        {
          "internalType": "address",
          "name": "stableCoin",
          "type": "address"
        },
        {
          "internalType": "address",
          "name": "token_",
          "type": "address"
        },
        {
          "internalType": "address",
          "name": "uniswapRouter_",
          "type": "address"
        }
      ],
      "name": "initialize",
      "outputs": [],
      "stateMutability": "nonpayable",
      "type": "function"
    },
    {
      "inputs": [],
      "name": "initialized",
      "outputs": [
        {
          "internalType": "bool",
          "name": "",
          "type": "bool"
        }
      ],
      "stateMutability": "view",
      "type": "function"
    },
    {
      "inputs": [],
      "name": "owner",
      "outputs": [
        {
          "internalType": "address",
          "name": "",
          "type": "address"
        }
      ],
      "stateMutability": "view",
      "type": "function"
    },
    {
      "inputs": [
        {
          "internalType": "address",
          "name": "owner_",
          "type": "address"
        }
      ],
      "name": "setOwner",
      "outputs": [],
      "stateMutability": "nonpayable",
      "type": "function"
    },
    {
      "inputs": [],
      "name": "settings",
      "outputs": [
        {
          "internalType": "uint256",
          "name": "enableBurnLPAtValue",
          "type": "uint256"
        },
        {
          "internalType": "address",
          "name": "stableCoin",
          "type": "address"
        }
      ],
      "stateMutability": "view",
      "type": "function"
    },
    {
      "inputs": [],
      "name": "syncLP",
      "outputs": [],
      "stateMutability": "nonpayable",
      "type": "function"
    },
    {
      "inputs": [],
      "name": "token",
      "outputs": [
        {
          "internalType": "contract HEROToken",
          "name": "",
          "type": "address"
        }
      ],
      "stateMutability": "view",
      "type": "function"
    },
    {
      "inputs": [],
      "name": "uniswapFactory",
      "outputs": [
        {
          "internalType": "contract UniswapV2Factory",
          "name": "",
          "type": "address"
        }
      ],
      "stateMutability": "view",
      "type": "function"
    },
    {
      "inputs": [],
      "name": "uniswapRouter",
      "outputs": [
        {
          "internalType": "contract UniswapV2Router02",
          "name": "",
          "type": "address"
        }
      ],
      "stateMutability": "view",
      "type": "function"
    },
    {
      "inputs": [],
      "name": "uniswapTokenPair",
      "outputs": [
        {
          "internalType": "contract UniswapV2Pair",
          "name": "",
          "type": "address"
        }
      ],
      "stateMutability": "view",
      "type": "function"
    },
    {
      "stateMutability": "payable",
      "type": "receive"
    }
  ],
  "transactionHash": "0xd4883632748f3625f84d1673dc14c33f03db6e33d547404f7f94f8a3b26b7fca",
  "args": [],
  "solcInputHash": "85b00ada91cfc8dc060572760df3a1d2",
  "bytecode": "0x608060405234801561001057600080fd5b50336000806101000a81548173ffffffffffffffffffffffffffffffffffffffff021916908373ffffffffffffffffffffffffffffffffffffffff16021790555033600160006101000a81548173ffffffffffffffffffffffffffffffffffffffff021916908373ffffffffffffffffffffffffffffffffffffffff16021790555061261b806100a16000396000f3fe6080604052600436106100a05760003560e01c80638bdb2afa116100645780638bdb2afa1461021d5780638da5cb5b1461025e578063c6ef20611461029f578063d7236943146102da578063e06174e41461031b578063fc0c546a14610363576100a7565b806313af4035146100ac578063158ef93e146100fd57806339071c9e1461012a578063735de9f714610141578063754d1d5414610182576100a7565b366100a757005b600080fd5b3480156100b857600080fd5b506100fb600480360360208110156100cf57600080fd5b81019080803573ffffffffffffffffffffffffffffffffffffffff1690602001909291905050506103a4565b005b34801561010957600080fd5b5061011261065a565b60405180821515815260200191505060405180910390f35b34801561013657600080fd5b5061013f6106b2565b005b34801561014d57600080fd5b50610156610707565b604051808273ffffffffffffffffffffffffffffffffffffffff16815260200191505060405180910390f35b34801561018e57600080fd5b5061021b600480360360808110156101a557600080fd5b8101908080359060200190929190803573ffffffffffffffffffffffffffffffffffffffff169060200190929190803573ffffffffffffffffffffffffffffffffffffffff169060200190929190803573ffffffffffffffffffffffffffffffffffffffff16906020019092919050505061072d565b005b34801561022957600080fd5b50610232610e3e565b604051808273ffffffffffffffffffffffffffffffffffffffff16815260200191505060405180910390f35b34801561026a57600080fd5b50610273610e64565b604051808273ffffffffffffffffffffffffffffffffffffffff16815260200191505060405180910390f35b3480156102ab57600080fd5b506102d8600480360360208110156102c257600080fd5b8101908080359060200190929190505050610e88565b005b3480156102e657600080fd5b506102ef611085565b604051808273ffffffffffffffffffffffffffffffffffffffff16815260200191505060405180910390f35b34801561032757600080fd5b506103306110ab565b604051808381526020018273ffffffffffffffffffffffffffffffffffffffff1681526020019250505060405180910390f35b34801561036f57600080fd5b506103786110dd565b604051808273ffffffffffffffffffffffffffffffffffffffff16815260200191505060405180910390f35b60008054906101000a900473ffffffffffffffffffffffffffffffffffffffff1673ffffffffffffffffffffffffffffffffffffffff163373ffffffffffffffffffffffffffffffffffffffff1614610465576040517f08c379a00000000000000000000000000000000000000000000000000000000081526004018080602001828103825260078152602001807f4f776e656423310000000000000000000000000000000000000000000000000081525060200191505060405180910390fd5b600073ffffffffffffffffffffffffffffffffffffffff168173ffffffffffffffffffffffffffffffffffffffff161415610508576040517f08c379a00000000000000000000000000000000000000000000000000000000081526004018080602001828103825260078152602001807f4f776e656423320000000000000000000000000000000000000000000000000081525060200191505060405180910390fd5b60008054906101000a900473ffffffffffffffffffffffffffffffffffffffff1673ffffffffffffffffffffffffffffffffffffffff168173ffffffffffffffffffffffffffffffffffffffff1614156105ca576040517f08c379a00000000000000000000000000000000000000000000000000000000081526004018080602001828103825260078152602001807f4f776e656423330000000000000000000000000000000000000000000000000081525060200191505060405180910390fd5b806000806101000a81548173ffffffffffffffffffffffffffffffffffffffff021916908373ffffffffffffffffffffffffffffffffffffffff1602179055507f4ffd725fc4a22075e9ec71c59edf9c38cdeb588a91b24fc5b61388c5be41282b81604051808273ffffffffffffffffffffffffffffffffffffffff16815260200191505060405180910390a150565b60008073ffffffffffffffffffffffffffffffffffffffff16600160009054906101000a900473ffffffffffffffffffffffffffffffffffffffff1673ffffffffffffffffffffffffffffffffffffffff1614905090565b600260149054906101000a900460ff16610705576001600260146101000a81548160ff0219169083151502179055506106e9611103565b6000600260146101000a81548160ff0219169083151502179055505b565b600760009054906101000a900473ffffffffffffffffffffffffffffffffffffffff1681565b600073ffffffffffffffffffffffffffffffffffffffff16600160009054906101000a900473ffffffffffffffffffffffffffffffffffffffff1673ffffffffffffffffffffffffffffffffffffffff1614156107f2576040517f08c379a000000000000000000000000000000000000000000000000000000000815260040180806020018281038252600f8152602001807f496e697469616c697a61626c652331000000000000000000000000000000000081525060200191505060405180910390fd5b600160009054906101000a900473ffffffffffffffffffffffffffffffffffffffff1673ffffffffffffffffffffffffffffffffffffffff163373ffffffffffffffffffffffffffffffffffffffff16146108b5576040517f08c379a000000000000000000000000000000000000000000000000000000000815260040180806020018281038252600f8152602001807f496e697469616c697a61626c652332000000000000000000000000000000000081525060200191505060405180910390fd5b6000600160006101000a81548173ffffffffffffffffffffffffffffffffffffffff021916908373ffffffffffffffffffffffffffffffffffffffff16021790555061090082611230565b600084146109fa57600073ffffffffffffffffffffffffffffffffffffffff168373ffffffffffffffffffffffffffffffffffffffff1614156109ab576040517f08c379a00000000000000000000000000000000000000000000000000000000081526004018080602001828103825260188152602001807f4845524f4c504d616e61676572556e697377617056322331000000000000000081525060200191505060405180910390fd5b8360036000018190555082600360010160006101000a81548173ffffffffffffffffffffffffffffffffffffffff021916908373ffffffffffffffffffffffffffffffffffffffff1602179055505b600073ffffffffffffffffffffffffffffffffffffffff168173ffffffffffffffffffffffffffffffffffffffff161415610a9d576040517f08c379a00000000000000000000000000000000000000000000000000000000081526004018080602001828103825260188152602001807f4845524f4c504d616e61676572556e697377617056322332000000000000000081525060200191505060405180910390fd5b80600760006101000a81548173ffffffffffffffffffffffffffffffffffffffff021916908373ffffffffffffffffffffffffffffffffffffffff160217905550600760009054906101000a900473ffffffffffffffffffffffffffffffffffffffff1673ffffffffffffffffffffffffffffffffffffffff1663c45a01556040518163ffffffff1660e01b815260040160206040518083038186803b158015610b4657600080fd5b505afa158015610b5a573d6000803e3d6000fd5b505050506040513d6020811015610b7057600080fd5b8101908080519060200190929190505050600560006101000a81548173ffffffffffffffffffffffffffffffffffffffff021916908373ffffffffffffffffffffffffffffffffffffffff160217905550600760009054906101000a900473ffffffffffffffffffffffffffffffffffffffff1673ffffffffffffffffffffffffffffffffffffffff1663ad5c46486040518163ffffffff1660e01b815260040160206040518083038186803b158015610c2957600080fd5b505afa158015610c3d573d6000803e3d6000fd5b505050506040513d6020811015610c5357600080fd5b8101908080519060200190929190505050600860006101000a81548173ffffffffffffffffffffffffffffffffffffffff021916908373ffffffffffffffffffffffffffffffffffffffff160217905550600560009054906101000a900473ffffffffffffffffffffffffffffffffffffffff1673ffffffffffffffffffffffffffffffffffffffff1663c9c65396600260009054906101000a900473ffffffffffffffffffffffffffffffffffffffff16600860009054906101000a900473ffffffffffffffffffffffffffffffffffffffff166040518363ffffffff1660e01b8152600401808373ffffffffffffffffffffffffffffffffffffffff1681526020018273ffffffffffffffffffffffffffffffffffffffff16815260200192505050602060405180830381600087803b158015610d9157600080fd5b505af1158015610da5573d6000803e3d6000fd5b505050506040513d6020811015610dbb57600080fd5b8101908080519060200190929190505050600660006101000a81548173ffffffffffffffffffffffffffffffffffffffff021916908373ffffffffffffffffffffffffffffffffffffffff1602179055507f5daa87a0e9463431830481fd4b6e3403442dfb9a12b9c07597e9f61d50b633c860405160405180910390a150505050565b600560009054906101000a900473ffffffffffffffffffffffffffffffffffffffff1681565b60008054906101000a900473ffffffffffffffffffffffffffffffffffffffff1681565b60008054906101000a900473ffffffffffffffffffffffffffffffffffffffff1673ffffffffffffffffffffffffffffffffffffffff163373ffffffffffffffffffffffffffffffffffffffff1614610f49576040517f08c379a00000000000000000000000000000000000000000000000000000000081526004018080602001828103825260078152602001807f4f776e656423310000000000000000000000000000000000000000000000000081525060200191505060405180910390fd5b6000811415610fc0576040517f08c379a000000000000000000000000000000000000000000000000000000000815260040180806020018281038252600f8152602001807f4845524f4c504d616e616765722331000000000000000000000000000000000081525060200191505060405180910390fd5b600260149054906101000a900460ff1615611043576040517f08c379a000000000000000000000000000000000000000000000000000000000815260040180806020018281038252600f8152602001807f4845524f4c504d616e616765722332000000000000000000000000000000000081525060200191505060405180910390fd5b6001600260146101000a81548160ff02191690831515021790555061106781611317565b6000600260146101000a81548160ff02191690831515021790555050565b600660009054906101000a900473ffffffffffffffffffffffffffffffffffffffff1681565b60038060000154908060010160009054906101000a900473ffffffffffffffffffffffffffffffffffffffff16905082565b600260009054906101000a900473ffffffffffffffffffffffffffffffffffffffff1681565b6000600260009054906101000a900473ffffffffffffffffffffffffffffffffffffffff1673ffffffffffffffffffffffffffffffffffffffff166370a08231306040518263ffffffff1660e01b8152600401808273ffffffffffffffffffffffffffffffffffffffff16815260200191505060206040518083038186803b15801561118e57600080fd5b505afa1580156111a2573d6000803e3d6000fd5b505050506040513d60208110156111b857600080fd5b810190808051906020019092919050505090506000479050600082141580156111e2575060008114155b1561122c5760006111fd600284611b4c90919063ffffffff16565b905060006112148285611bd690919063ffffffff16565b905061121f82611c59565b6112298184611f7c565b50505b5050565b600073ffffffffffffffffffffffffffffffffffffffff168173ffffffffffffffffffffffffffffffffffffffff1614156112d3576040517f08c379a000000000000000000000000000000000000000000000000000000000815260040180806020018281038252600f8152602001807f4845524f4c504d616e616765722333000000000000000000000000000000000081525060200191505060405180910390fd5b80600260006101000a81548173ffffffffffffffffffffffffffffffffffffffff021916908373ffffffffffffffffffffffffffffffffffffffff16021790555050565b600080600360000154146118955761132d6121c8565b508091505060008114156113a9576040517f08c379a00000000000000000000000000000000000000000000000000000000081526004018080602001828103825260188152602001807f4845524f4c504d616e61676572556e697377617056322333000000000000000081525060200191505060405180910390fd5b8082111561141f576040517f08c379a00000000000000000000000000000000000000000000000000000000081526004018080602001828103825260188152602001807f4845524f4c504d616e61676572556e697377617056322334000000000000000081525060200191505060405180910390fd5b6060600367ffffffffffffffff8111801561143957600080fd5b506040519080825280602002602001820160405280156114685781602001602082028036833780820191505090505b509050600260009054906101000a900473ffffffffffffffffffffffffffffffffffffffff168160008151811061149b57fe5b602002602001019073ffffffffffffffffffffffffffffffffffffffff16908173ffffffffffffffffffffffffffffffffffffffff1681525050600860009054906101000a900473ffffffffffffffffffffffffffffffffffffffff168160018151811061150557fe5b602002602001019073ffffffffffffffffffffffffffffffffffffffff16908173ffffffffffffffffffffffffffffffffffffffff1681525050600360010160009054906101000a900473ffffffffffffffffffffffffffffffffffffffff168160028151811061157257fe5b602002602001019073ffffffffffffffffffffffffffffffffffffffff16908173ffffffffffffffffffffffffffffffffffffffff16815250506060600760009054906101000a900473ffffffffffffffffffffffffffffffffffffffff1673ffffffffffffffffffffffffffffffffffffffff1663d06ca61f85846040518363ffffffff1660e01b81526004018083815260200180602001828103825283818151815260200191508051906020019060200280838360005b8381101561164657808201518184015260208101905061162b565b50505050905001935050505060006040518083038186803b15801561166a57600080fd5b505afa15801561167e573d6000803e3d6000fd5b505050506040513d6000823e3d601f19601f8201168201806040525060208110156116a857600080fd5b81019080805160405193929190846401000000008211156116c857600080fd5b838201915060208201858111156116de57600080fd5b82518660208202830111640100000000821117156116fb57600080fd5b8083526020830192505050908051906020019060200280838360005b83811015611732578082015181840152602081019050611717565b50505050905001604052505050905060008160028151811061175057fe5b6020026020010151905060036000015481116117d4576040517f08c379a00000000000000000000000000000000000000000000000000000000081526004018080602001828103825260188152602001807f4845524f4c504d616e61676572556e697377617056322335000000000000000081525060200191505060405180910390fd5b60006117fb856117ed848961233f90919063ffffffff16565b611b4c90919063ffffffff16565b9050600061181760036000015484611b4c90919063ffffffff16565b90508181101561188f576040517f08c379a00000000000000000000000000000000000000000000000000000000081526004018080602001828103825260188152602001807f4845524f4c504d616e61676572556e697377617056322336000000000000000081525060200191505060405180910390fd5b50505050505b611961600660009054906101000a900473ffffffffffffffffffffffffffffffffffffffff1673ffffffffffffffffffffffffffffffffffffffff166370a08231306040518263ffffffff1660e01b8152600401808273ffffffffffffffffffffffffffffffffffffffff16815260200191505060206040518083038186803b15801561192157600080fd5b505afa158015611935573d6000803e3d6000fd5b505050506040513d602081101561194b57600080fd5b81019080805190602001909291905050506123e1565b5050600260009054906101000a900473ffffffffffffffffffffffffffffffffffffffff1673ffffffffffffffffffffffffffffffffffffffff166370a08231306040518263ffffffff1660e01b8152600401808273ffffffffffffffffffffffffffffffffffffffff16815260200191505060206040518083038186803b1580156119ec57600080fd5b505afa158015611a00573d6000803e3d6000fd5b505050506040513d6020811015611a1657600080fd5b8101908080519060200190929190505050905081811015611a9f576040517f08c379a00000000000000000000000000000000000000000000000000000000081526004018080602001828103825260188152602001807f4845524f4c504d616e61676572556e697377617056322337000000000000000081525060200191505060405180910390fd5b600260009054906101000a900473ffffffffffffffffffffffffffffffffffffffff1673ffffffffffffffffffffffffffffffffffffffff166342966c68836040518263ffffffff1660e01b815260040180828152602001915050600060405180830381600087803b158015611b1457600080fd5b505af1158015611b28573d6000803e3d6000fd5b50505050611b48611b428383611bd690919063ffffffff16565b47611f7c565b5050565b600080821415611bc4576040517f08c379a00000000000000000000000000000000000000000000000000000000081526004018080602001828103825260098152602001807f4d6174684c69622334000000000000000000000000000000000000000000000081525060200191505060405180910390fd5b818381611bcd57fe5b04905092915050565b600082821115611c4e576040517f08c379a00000000000000000000000000000000000000000000000000000000081526004018080602001828103825260098152602001807f4d6174684c69622332000000000000000000000000000000000000000000000081525060200191505060405180910390fd5b818303905092915050565b60008114611f7957600260009054906101000a900473ffffffffffffffffffffffffffffffffffffffff1673ffffffffffffffffffffffffffffffffffffffff1663095ea7b3600760009054906101000a900473ffffffffffffffffffffffffffffffffffffffff16836040518363ffffffff1660e01b8152600401808373ffffffffffffffffffffffffffffffffffffffff16815260200182815260200192505050602060405180830381600087803b158015611d1657600080fd5b505af1158015611d2a573d6000803e3d6000fd5b505050506040513d6020811015611d4057600080fd5b8101908080519060200190929190505050506060600267ffffffffffffffff81118015611d6c57600080fd5b50604051908082528060200260200182016040528015611d9b5781602001602082028036833780820191505090505b509050600260009054906101000a900473ffffffffffffffffffffffffffffffffffffffff1681600081518110611dce57fe5b602002602001019073ffffffffffffffffffffffffffffffffffffffff16908173ffffffffffffffffffffffffffffffffffffffff1681525050600860009054906101000a900473ffffffffffffffffffffffffffffffffffffffff1681600181518110611e3857fe5b602002602001019073ffffffffffffffffffffffffffffffffffffffff16908173ffffffffffffffffffffffffffffffffffffffff1681525050600760009054906101000a900473ffffffffffffffffffffffffffffffffffffffff1673ffffffffffffffffffffffffffffffffffffffff1663791ac9478360008430426040518663ffffffff1660e01b815260040180868152602001858152602001806020018473ffffffffffffffffffffffffffffffffffffffff168152602001838152602001828103825285818151815260200191508051906020019060200280838360005b83811015611f36578082015181840152602081019050611f1b565b505050509050019650505050505050600060405180830381600087803b158015611f5f57600080fd5b505af1158015611f73573d6000803e3d6000fd5b50505050505b50565b60008214158015611f8e575060008114155b156121c457600260009054906101000a900473ffffffffffffffffffffffffffffffffffffffff1673ffffffffffffffffffffffffffffffffffffffff1663095ea7b3600760009054906101000a900473ffffffffffffffffffffffffffffffffffffffff16846040518363ffffffff1660e01b8152600401808373ffffffffffffffffffffffffffffffffffffffff16815260200182815260200192505050602060405180830381600087803b15801561204857600080fd5b505af115801561205c573d6000803e3d6000fd5b505050506040513d602081101561207257600080fd5b810190808051906020019092919050505050600760009054906101000a900473ffffffffffffffffffffffffffffffffffffffff1673ffffffffffffffffffffffffffffffffffffffff1663f305d71982600260009054906101000a900473ffffffffffffffffffffffffffffffffffffffff168560008030426040518863ffffffff1660e01b8152600401808773ffffffffffffffffffffffffffffffffffffffff1681526020018681526020018581526020018481526020018373ffffffffffffffffffffffffffffffffffffffff16815260200182815260200196505050505050506060604051808303818588803b15801561217057600080fd5b505af1158015612184573d6000803e3d6000fd5b50505050506040513d606081101561219b57600080fd5b810190808051906020019092919080519060200190929190805190602001909291905050505050505b5050565b600080600080600660009054906101000a900473ffffffffffffffffffffffffffffffffffffffff1673ffffffffffffffffffffffffffffffffffffffff16630902f1ac6040518163ffffffff1660e01b815260040160606040518083038186803b15801561223657600080fd5b505afa15801561224a573d6000803e3d6000fd5b505050506040513d606081101561226057600080fd5b810190808051906020019092919080519060200190929190805190602001909291905050505091509150600860009054906101000a900473ffffffffffffffffffffffffffffffffffffffff1673ffffffffffffffffffffffffffffffffffffffff16600260009054906101000a900473ffffffffffffffffffffffffffffffffffffffff1673ffffffffffffffffffffffffffffffffffffffff161061230857808261230b565b81815b816dffffffffffffffffffffffffffff169150806dffffffffffffffffffffffffffff169050809450819550505050509091565b6000808314158015612352575060008214155b156123db5781830290508183828161236657fe5b04146123da576040517f08c379a00000000000000000000000000000000000000000000000000000000081526004018080602001828103825260098152602001807f4d6174684c69622333000000000000000000000000000000000000000000000081525060200191505060405180910390fd5b5b92915050565b600080600660009054906101000a900473ffffffffffffffffffffffffffffffffffffffff1673ffffffffffffffffffffffffffffffffffffffff1663095ea7b3600760009054906101000a900473ffffffffffffffffffffffffffffffffffffffff16856040518363ffffffff1660e01b8152600401808373ffffffffffffffffffffffffffffffffffffffff16815260200182815260200192505050602060405180830381600087803b15801561249957600080fd5b505af11580156124ad573d6000803e3d6000fd5b505050506040513d60208110156124c357600080fd5b810190808051906020019092919050505050600760009054906101000a900473ffffffffffffffffffffffffffffffffffffffff1673ffffffffffffffffffffffffffffffffffffffff166302751cec600260009054906101000a900473ffffffffffffffffffffffffffffffffffffffff168560008030426040518763ffffffff1660e01b8152600401808773ffffffffffffffffffffffffffffffffffffffff1681526020018681526020018581526020018481526020018373ffffffffffffffffffffffffffffffffffffffff16815260200182815260200196505050505050506040805180830381600087803b1580156125c057600080fd5b505af11580156125d4573d6000803e3d6000fd5b505050506040513d60408110156125ea57600080fd5b8101908080519060200190929190805190602001909291905050509150915091509156fea164736f6c634300060c000a",
  "devdoc": {
    "kind": "dev",
    "methods": {
      "constructor": {
        "details": "Public constructor"
      }
    },
    "title": "HERO liquidity pool manager for Uniswap V2",
    "version": 1
  },
  "userdoc": {
    "kind": "user",
    "methods": {},
    "version": 1
  },
  "storageLayout": {
    "storage": [
      {
        "astId": 3090,
        "contract": "src/HEROLPManagerUniswapV2.sol:HEROLPManagerUniswapV2",
        "label": "owner",
        "offset": 0,
        "slot": "0",
        "type": "t_address"
      },
      {
        "astId": 3308,
        "contract": "src/HEROLPManagerUniswapV2.sol:HEROLPManagerUniswapV2",
        "label": "initializer",
        "offset": 0,
        "slot": "1",
        "type": "t_address"
      },
      {
        "astId": 15,
        "contract": "src/HEROLPManagerUniswapV2.sol:HEROLPManagerUniswapV2",
        "label": "token",
        "offset": 0,
        "slot": "2",
        "type": "t_contract(HEROToken)2937"
      },
      {
        "astId": 17,
        "contract": "src/HEROLPManagerUniswapV2.sol:HEROLPManagerUniswapV2",
        "label": "swapLocked",
        "offset": 20,
        "slot": "2",
        "type": "t_bool"
      },
      {
        "astId": 202,
        "contract": "src/HEROLPManagerUniswapV2.sol:HEROLPManagerUniswapV2",
        "label": "settings",
        "offset": 0,
        "slot": "3",
        "type": "t_struct(Settings)200_storage"
      },
      {
        "astId": 204,
        "contract": "src/HEROLPManagerUniswapV2.sol:HEROLPManagerUniswapV2",
        "label": "uniswapFactory",
        "offset": 0,
        "slot": "5",
        "type": "t_contract(UniswapV2Factory)3675"
      },
      {
        "astId": 206,
        "contract": "src/HEROLPManagerUniswapV2.sol:HEROLPManagerUniswapV2",
        "label": "uniswapTokenPair",
        "offset": 0,
        "slot": "6",
        "type": "t_contract(UniswapV2Pair)3842"
      },
      {
        "astId": 208,
        "contract": "src/HEROLPManagerUniswapV2.sol:HEROLPManagerUniswapV2",
        "label": "uniswapRouter",
        "offset": 0,
        "slot": "7",
        "type": "t_contract(UniswapV2Router02)4238"
      },
      {
        "astId": 210,
        "contract": "src/HEROLPManagerUniswapV2.sol:HEROLPManagerUniswapV2",
        "label": "wrappedNative",
        "offset": 0,
        "slot": "8",
        "type": "t_address"
      }
    ],
    "types": {
      "t_address": {
        "encoding": "inplace",
        "label": "address",
        "numberOfBytes": "20"
      },
      "t_bool": {
        "encoding": "inplace",
        "label": "bool",
        "numberOfBytes": "1"
      },
      "t_contract(HEROToken)2937": {
        "encoding": "inplace",
        "label": "contract HEROToken",
        "numberOfBytes": "20"
      },
      "t_contract(UniswapV2Factory)3675": {
        "encoding": "inplace",
        "label": "contract UniswapV2Factory",
        "numberOfBytes": "20"
      },
      "t_contract(UniswapV2Pair)3842": {
        "encoding": "inplace",
        "label": "contract UniswapV2Pair",
        "numberOfBytes": "20"
      },
      "t_contract(UniswapV2Router02)4238": {
        "encoding": "inplace",
        "label": "contract UniswapV2Router02",
        "numberOfBytes": "20"
      },
      "t_struct(Settings)200_storage": {
        "encoding": "inplace",
        "label": "struct HEROLPManagerUniswapV2.Settings",
        "members": [
          {
            "astId": 197,
            "contract": "src/HEROLPManagerUniswapV2.sol:HEROLPManagerUniswapV2",
            "label": "enableBurnLPAtValue",
            "offset": 0,
            "slot": "0",
            "type": "t_uint256"
          },
          {
            "astId": 199,
            "contract": "src/HEROLPManagerUniswapV2.sol:HEROLPManagerUniswapV2",
            "label": "stableCoin",
            "offset": 0,
            "slot": "1",
            "type": "t_address"
          }
        ],
        "numberOfBytes": "64"
      },
      "t_uint256": {
        "encoding": "inplace",
        "label": "uint256",
        "numberOfBytes": "32"
      }
    }
  }
}