{
  "address": "0x4B67c1A5B2AB1329bBBbD4af60a435d08197b5A7",
  "abi": [
    {
      "inputs": [],
      "stateMutability": "nonpayable",
      "type": "constructor"
    },
    {
      "anonymous": false,
      "inputs": [
        {
          "indexed": true,
          "internalType": "address",
          "name": "account",
          "type": "address"
        },
        {
          "indexed": false,
          "internalType": "bool",
          "name": "excludeRecipientFromFee",
          "type": "bool"
        }
      ],
      "name": "AccountExcluded",
      "type": "event"
    },
    {
      "anonymous": false,
      "inputs": [
        {
          "indexed": true,
          "internalType": "address",
          "name": "owner",
          "type": "address"
        },
        {
          "indexed": true,
          "internalType": "address",
          "name": "spender",
          "type": "address"
        },
        {
          "indexed": false,
          "internalType": "uint256",
          "name": "value",
          "type": "uint256"
        }
      ],
      "name": "Approval",
      "type": "event"
    },
    {
      "anonymous": false,
      "inputs": [],
      "name": "Initialized",
      "type": "event"
    },
    {
      "anonymous": false,
      "inputs": [],
      "name": "PresaleFinished",
      "type": "event"
    },
    {
      "anonymous": false,
      "inputs": [
        {
          "indexed": true,
          "internalType": "address",
          "name": "from",
          "type": "address"
        },
        {
          "indexed": true,
          "internalType": "address",
          "name": "to",
          "type": "address"
        },
        {
          "indexed": false,
          "internalType": "uint256",
          "name": "value",
          "type": "uint256"
        }
      ],
      "name": "Transfer",
      "type": "event"
    },
    {
      "inputs": [
        {
          "internalType": "address",
          "name": "owner",
          "type": "address"
        },
        {
          "internalType": "address",
          "name": "spender",
          "type": "address"
        }
      ],
      "name": "allowance",
      "outputs": [
        {
          "internalType": "uint256",
          "name": "",
          "type": "uint256"
        }
      ],
      "stateMutability": "view",
      "type": "function"
    },
    {
      "inputs": [
        {
          "internalType": "address",
          "name": "spender",
          "type": "address"
        },
        {
          "internalType": "uint256",
          "name": "amount",
          "type": "uint256"
        }
      ],
      "name": "approve",
      "outputs": [
        {
          "internalType": "bool",
          "name": "",
          "type": "bool"
        }
      ],
      "stateMutability": "nonpayable",
      "type": "function"
    },
    {
      "inputs": [
        {
          "internalType": "address",
          "name": "account",
          "type": "address"
        }
      ],
      "name": "balanceOf",
      "outputs": [
        {
          "internalType": "uint256",
          "name": "result",
          "type": "uint256"
        }
      ],
      "stateMutability": "view",
      "type": "function"
    },
    {
      "inputs": [
        {
          "internalType": "uint256",
          "name": "amount",
          "type": "uint256"
        }
      ],
      "name": "burn",
      "outputs": [],
      "stateMutability": "nonpayable",
      "type": "function"
    },
    {
      "inputs": [
        {
          "internalType": "uint256",
          "name": "amount",
          "type": "uint256"
        }
      ],
      "name": "burnLP",
      "outputs": [],
      "stateMutability": "nonpayable",
      "type": "function"
    },
    {
      "inputs": [],
      "name": "controller",
      "outputs": [
        {
          "internalType": "address",
          "name": "",
          "type": "address"
        }
      ],
      "stateMutability": "view",
      "type": "function"
    },
    {
      "inputs": [],
      "name": "decimals",
      "outputs": [
        {
          "internalType": "uint8",
          "name": "",
          "type": "uint8"
        }
      ],
      "stateMutability": "view",
      "type": "function"
    },
    {
      "inputs": [
        {
          "internalType": "address",
          "name": "account",
          "type": "address"
        },
        {
          "internalType": "bool",
          "name": "excludeRecipientFromFee",
          "type": "bool"
        }
      ],
      "name": "excludeAccount",
      "outputs": [],
      "stateMutability": "nonpayable",
      "type": "function"
    },
    {
      "inputs": [],
      "name": "finishPresale",
      "outputs": [],
      "stateMutability": "nonpayable",
      "type": "function"
    },
    {
      "inputs": [
        {
          "internalType": "address",
          "name": "account",
          "type": "address"
        }
      ],
      "name": "getBalanceSummary",
      "outputs": [
        {
          "internalType": "uint256",
          "name": "totalBalance",
          "type": "uint256"
        },
        {
          "internalType": "uint256",
          "name": "holdingBalance",
          "type": "uint256"
        },
        {
          "internalType": "uint256",
          "name": "totalRewards",
          "type": "uint256"
        }
      ],
      "stateMutability": "view",
      "type": "function"
    },
    {
      "inputs": [
        {
          "components": [
            {
              "internalType": "uint256",
              "name": "sender",
              "type": "uint256"
            },
            {
              "internalType": "uint256",
              "name": "recipient",
              "type": "uint256"
            }
          ],
          "internalType": "struct HEROTokenCommon.Fees",
          "name": "lpFees",
          "type": "tuple"
        },
        {
          "components": [
            {
              "internalType": "uint256",
              "name": "sender",
              "type": "uint256"
            },
            {
              "internalType": "uint256",
              "name": "recipient",
              "type": "uint256"
            }
          ],
          "internalType": "struct HEROTokenCommon.Fees",
          "name": "rewardsFees",
          "type": "tuple"
        },
        {
          "internalType": "uint256",
          "name": "totalSupply_",
          "type": "uint256"
        },
        {
          "internalType": "address[]",
          "name": "excluded_",
          "type": "address[]"
        },
        {
          "internalType": "uint256",
          "name": "enableBurnLPAtValue",
          "type": "uint256"
        },
        {
          "internalType": "address",
          "name": "swapRouter_",
          "type": "address"
        },
        {
          "internalType": "address",
          "name": "stableCoin_",
          "type": "address"
        }
      ],
      "name": "initialize",
      "outputs": [],
      "stateMutability": "nonpayable",
      "type": "function"
    },
    {
      "inputs": [],
      "name": "initialized",
      "outputs": [
        {
          "internalType": "bool",
          "name": "",
          "type": "bool"
        }
      ],
      "stateMutability": "view",
      "type": "function"
    },
    {
      "inputs": [],
      "name": "name",
      "outputs": [
        {
          "internalType": "string",
          "name": "",
          "type": "string"
        }
      ],
      "stateMutability": "view",
      "type": "function"
    },
    {
      "inputs": [],
      "name": "presaleFinished",
      "outputs": [
        {
          "internalType": "bool",
          "name": "",
          "type": "bool"
        }
      ],
      "stateMutability": "view",
      "type": "function"
    },
    {
      "inputs": [
        {
          "internalType": "address",
          "name": "controller_",
          "type": "address"
        }
      ],
      "name": "setController",
      "outputs": [],
      "stateMutability": "nonpayable",
      "type": "function"
    },
    {
      "inputs": [],
      "name": "settings",
      "outputs": [
        {
          "components": [
            {
              "internalType": "uint256",
              "name": "sender",
              "type": "uint256"
            },
            {
              "internalType": "uint256",
              "name": "recipient",
              "type": "uint256"
            }
          ],
          "internalType": "struct HEROTokenCommon.Fees",
          "name": "lpFees",
          "type": "tuple"
        },
        {
          "components": [
            {
              "internalType": "uint256",
              "name": "sender",
              "type": "uint256"
            },
            {
              "internalType": "uint256",
              "name": "recipient",
              "type": "uint256"
            }
          ],
          "internalType": "struct HEROTokenCommon.Fees",
          "name": "rewardsFees",
          "type": "tuple"
        },
        {
          "internalType": "uint256",
          "name": "enableBurnLPAtValue",
          "type": "uint256"
        }
      ],
      "stateMutability": "view",
      "type": "function"
    },
    {
      "inputs": [],
      "name": "stableCoin",
      "outputs": [
        {
          "internalType": "address",
          "name": "",
          "type": "address"
        }
      ],
      "stateMutability": "view",
      "type": "function"
    },
    {
      "inputs": [],
      "name": "summary",
      "outputs": [
        {
          "internalType": "uint256",
          "name": "totalExcluded",
          "type": "uint256"
        },
        {
          "internalType": "uint256",
          "name": "totalHolding",
          "type": "uint256"
        },
        {
          "internalType": "uint256",
          "name": "totalRewards",
          "type": "uint256"
        },
        {
          "internalType": "uint256",
          "name": "totalSupply",
          "type": "uint256"
        }
      ],
      "stateMutability": "view",
      "type": "function"
    },
    {
      "inputs": [],
      "name": "swapFactory",
      "outputs": [
        {
          "internalType": "contract UniswapV2Factory",
          "name": "",
          "type": "address"
        }
      ],
      "stateMutability": "view",
      "type": "function"
    },
    {
      "inputs": [],
      "name": "swapPair",
      "outputs": [
        {
          "internalType": "contract UniswapV2Pair",
          "name": "",
          "type": "address"
        }
      ],
      "stateMutability": "view",
      "type": "function"
    },
    {
      "inputs": [],
      "name": "swapRouter",
      "outputs": [
        {
          "internalType": "contract UniswapV2Router02",
          "name": "",
          "type": "address"
        }
      ],
      "stateMutability": "view",
      "type": "function"
    },
    {
      "inputs": [],
      "name": "symbol",
      "outputs": [
        {
          "internalType": "string",
          "name": "",
          "type": "string"
        }
      ],
      "stateMutability": "view",
      "type": "function"
    },
    {
      "inputs": [],
      "name": "totalSupply",
      "outputs": [
        {
          "internalType": "uint256",
          "name": "",
          "type": "uint256"
        }
      ],
      "stateMutability": "view",
      "type": "function"
    },
    {
      "inputs": [
        {
          "internalType": "address",
          "name": "recipient",
          "type": "address"
        },
        {
          "internalType": "uint256",
          "name": "amount",
          "type": "uint256"
        }
      ],
      "name": "transfer",
      "outputs": [
        {
          "internalType": "bool",
          "name": "",
          "type": "bool"
        }
      ],
      "stateMutability": "nonpayable",
      "type": "function"
    },
    {
      "inputs": [
        {
          "internalType": "address",
          "name": "sender",
          "type": "address"
        },
        {
          "internalType": "address",
          "name": "recipient",
          "type": "address"
        },
        {
          "internalType": "uint256",
          "name": "amount",
          "type": "uint256"
        }
      ],
      "name": "transferFrom",
      "outputs": [
        {
          "internalType": "bool",
          "name": "",
          "type": "bool"
        }
      ],
      "stateMutability": "nonpayable",
      "type": "function"
    },
    {
      "stateMutability": "payable",
      "type": "receive"
    }
  ],
  "transactionHash": "0x1a0381b627012b5662aecf34d6517e118bb81686c7fc727594e19c7f6dea126d",
  "args": [],
  "solcInputHash": "3fed38dea1b37055e57d49f185a6da40",
  "bytecode": "0x60806040523480156200001157600080fd5b5060405180606001604052806040518060400160405280600881526020017f4d6574616865726f00000000000000000000000000000000000000000000000081525081526020016040518060400160405280600481526020017f4845524f000000000000000000000000000000000000000000000000000000008152508152602001601260ff1681525080600080820151816000019080519060200190620000bb92919062000188565b506020820151816001019080519060200190620000da92919062000188565b5060408201518160020160006101000a81548160ff021916908360ff1602179055509050505033600360006101000a81548173ffffffffffffffffffffffffffffffffffffffff021916908373ffffffffffffffffffffffffffffffffffffffff16021790555033600460006101000a81548173ffffffffffffffffffffffffffffffffffffffff021916908373ffffffffffffffffffffffffffffffffffffffff1602179055506200022e565b828054600181600116156101000203166002900490600052602060002090601f016020900481019282601f10620001cb57805160ff1916838001178555620001fc565b82800160010185558215620001fc579182015b82811115620001fb578251825591602001919060010190620001de565b5b5090506200020b91906200020f565b5090565b5b808211156200022a57600081600090555060010162000210565b5090565b615a4a806200023e6000396000f3fe60806040526004361061016a5760003560e01c806390b5e6d9116100d1578063b16a867c1161008a578063d8c9538b11610064578063d8c9538b14610540578063dd62ed3e14610569578063e06174e4146105a6578063f77c4791146105d357610171565b8063b16a867c146104be578063c31c9c07146104ec578063c6ef20611461051757610171565b806390b5e6d9146103c057806392eefe9b146103eb57806395d89b4114610414578063974654c61461043f578063992642e514610456578063a9059cbb1461048157610171565b80632d380315116101235780632d3803151461029c578063313ce567146102db57806342966c681461030657806370a082311461032f5780637944f9441461036c57806389a867eb1461039757610171565b806306fdde0314610176578063095ea7b3146101a1578063158ef93e146101de57806318160ddd1461020957806323b872dd1461023457806326991cc81461027157610171565b3661017157005b600080fd5b34801561018257600080fd5b5061018b6105fe565b6040516101989190615174565b60405180910390f35b3480156101ad57600080fd5b506101c860048036038101906101c391906142a5565b6106a2565b6040516101d59190615108565b60405180910390f35b3480156101ea57600080fd5b506101f36106b9565b6040516102009190615108565b60405180910390f35b34801561021557600080fd5b5061021e610711565b60405161022b919061566d565b60405180910390f35b34801561024057600080fd5b5061025b6004803603810190610256919061421a565b61071e565b6040516102689190615108565b60405180910390f35b34801561027d57600080fd5b50610286610818565b604051610293919061513e565b60405180910390f35b3480156102a857600080fd5b506102c360048036038101906102be919061418c565b61083e565b6040516102d293929190615712565b60405180910390f35b3480156102e757600080fd5b506102f06108ac565b6040516102fd919061578e565b60405180910390f35b34801561031257600080fd5b5061032d6004803603810190610328919061447f565b6108c5565b005b34801561033b57600080fd5b506103566004803603810190610351919061418c565b6108d2565b604051610363919061566d565b60405180910390f35b34801561037857600080fd5b50610381610935565b60405161038e9190615123565b60405180910390f35b3480156103a357600080fd5b506103be60048036038101906103b9919061434b565b61095b565b005b3480156103cc57600080fd5b506103d5610b2d565b6040516103e29190615108565b60405180910390f35b3480156103f757600080fd5b50610412600480360381019061040d919061418c565b610b40565b005b34801561042057600080fd5b50610429610cde565b6040516104369190615174565b60405180910390f35b34801561044b57600080fd5b50610454610d83565b005b34801561046257600080fd5b5061046b610eac565b604051610478919061501f565b60405180910390f35b34801561048d57600080fd5b506104a860048036038101906104a391906142a5565b610ed2565b6040516104b59190615108565b60405180910390f35b3480156104ca57600080fd5b506104d3610ee9565b6040516104e39493929190615749565b60405180910390f35b3480156104f857600080fd5b50610501610f07565b60405161050e9190615159565b60405180910390f35b34801561052357600080fd5b5061053e6004803603810190610539919061447f565b610f2d565b005b34801561054c57600080fd5b5061056760048036038101906105629190614269565b6114cc565b005b34801561057557600080fd5b50610590600480360381019061058b91906141de565b61156a565b60405161059d919061566d565b60405180910390f35b3480156105b257600080fd5b506105bb6115f1565b6040516105ca93929190615636565b60405180910390f35b3480156105df57600080fd5b506105e8611645565b6040516105f5919061501f565b60405180910390f35b6060600080018054600181600116156101000203166002900480601f0160208091040260200160405190810160405280929190818152602001828054600181600116156101000203166002900480156106985780601f1061066d57610100808354040283529160200191610698565b820191906000526020600020905b81548152906001019060200180831161067b57829003601f168201915b5050505050905090565b60006106af33848461166b565b6001905092915050565b60008073ffffffffffffffffffffffffffffffffffffffff16600360009054906101000a900473ffffffffffffffffffffffffffffffffffffffff1673ffffffffffffffffffffffffffffffffffffffff1614905090565b6000600a60030154905090565b600061072b848484611836565b6000601060008673ffffffffffffffffffffffffffffffffffffffff1673ffffffffffffffffffffffffffffffffffffffff16815260200190815260200160002060003373ffffffffffffffffffffffffffffffffffffffff1673ffffffffffffffffffffffffffffffffffffffff168152602001908152602001600020549050828110156107ef576040517f08c379a00000000000000000000000000000000000000000000000000000000081526004016107e6906153b6565b60405180910390fd5b61080c85336108078685611d2290919063ffffffff16565b61166b565b60019150509392505050565b601460009054906101000a900473ffffffffffffffffffffffffffffffffffffffff1681565b6000806000600f60008573ffffffffffffffffffffffffffffffffffffffff1673ffffffffffffffffffffffffffffffffffffffff16815260200190815260200160002054915061088e84611d72565b90506108a38183611e5290919063ffffffff16565b92509193909250565b60008060020160009054906101000a900460ff16905090565b6108cf3382611ea7565b50565b600061092e6108e083611d72565b600f60008573ffffffffffffffffffffffffffffffffffffffff1673ffffffffffffffffffffffffffffffffffffffff16815260200190815260200160002054611e5290919063ffffffff16565b9050919050565b601260009054906101000a900473ffffffffffffffffffffffffffffffffffffffff1681565b600073ffffffffffffffffffffffffffffffffffffffff16600360009054906101000a900473ffffffffffffffffffffffffffffffffffffffff1673ffffffffffffffffffffffffffffffffffffffff1614156109ed576040517f08c379a00000000000000000000000000000000000000000000000000000000081526004016109e490615436565b60405180910390fd5b600360009054906101000a900473ffffffffffffffffffffffffffffffffffffffff1673ffffffffffffffffffffffffffffffffffffffff163373ffffffffffffffffffffffffffffffffffffffff1614610a7d576040517f08c379a0000000000000000000000000000000000000000000000000000000008152600401610a7490615416565b60405180910390fd5b6000600360006101000a81548173ffffffffffffffffffffffffffffffffffffffff021916908373ffffffffffffffffffffffffffffffffffffffff160217905550610aec88803603810190610ad39190614407565b88803603810190610ae49190614407565b8888886121ad565b610af783838361226b565b7f5daa87a0e9463431830481fd4b6e3403442dfb9a12b9c07597e9f61d50b633c860405160405180910390a15050505050505050565b600e60009054906101000a900460ff1681565b600460009054906101000a900473ffffffffffffffffffffffffffffffffffffffff1673ffffffffffffffffffffffffffffffffffffffff163373ffffffffffffffffffffffffffffffffffffffff1614610bd0576040517f08c379a0000000000000000000000000000000000000000000000000000000008152600401610bc790615516565b60405180910390fd5b600073ffffffffffffffffffffffffffffffffffffffff168173ffffffffffffffffffffffffffffffffffffffff1614158015610c5b5750600460009054906101000a900473ffffffffffffffffffffffffffffffffffffffff1673ffffffffffffffffffffffffffffffffffffffff168173ffffffffffffffffffffffffffffffffffffffff1614155b610c9a576040517f08c379a0000000000000000000000000000000000000000000000000000000008152600401610c9190615596565b60405180910390fd5b80600460006101000a81548173ffffffffffffffffffffffffffffffffffffffff021916908373ffffffffffffffffffffffffffffffffffffffff16021790555050565b606060006001018054600181600116156101000203166002900480601f016020809104026020016040519081016040528092919081815260200182805460018160011615610100020316600290048015610d795780601f10610d4e57610100808354040283529160200191610d79565b820191906000526020600020905b815481529060010190602001808311610d5c57829003601f168201915b5050505050905090565b600460009054906101000a900473ffffffffffffffffffffffffffffffffffffffff1673ffffffffffffffffffffffffffffffffffffffff163373ffffffffffffffffffffffffffffffffffffffff1614610e13576040517f08c379a0000000000000000000000000000000000000000000000000000000008152600401610e0a90615516565b60405180910390fd5b600e60009054906101000a900460ff1615610e63576040517f08c379a0000000000000000000000000000000000000000000000000000000008152600401610e5a906154f6565b60405180910390fd5b6001600e60006101000a81548160ff0219169083151502179055507f0b5ca8ee9a23a12c9bb341511e83987d73bee14e96dc855aeaea8840c54ea0bd60405160405180910390a1565b601560009054906101000a900473ffffffffffffffffffffffffffffffffffffffff1681565b6000610edf338484611836565b6001905092915050565b600a8060000154908060010154908060020154908060030154905084565b601360009054906101000a900473ffffffffffffffffffffffffffffffffffffffff1681565b600460009054906101000a900473ffffffffffffffffffffffffffffffffffffffff1673ffffffffffffffffffffffffffffffffffffffff163373ffffffffffffffffffffffffffffffffffffffff1614610fbd576040517f08c379a0000000000000000000000000000000000000000000000000000000008152600401610fb490615516565b60405180910390fd5b601660149054906101000a900460ff166114c9576001601660146101000a81548160ff0219169083151502179055506001811161102f576040517f08c379a0000000000000000000000000000000000000000000000000000000008152600401611026906152f6565b60405180910390fd5b6000611039612721565b5090506000811415611080576040517f08c379a000000000000000000000000000000000000000000000000000000000815260040161107790615216565b60405180910390fd5b808211156110c3576040517f08c379a00000000000000000000000000000000000000000000000000000000081526004016110ba906151b6565b60405180910390fd5b6060600367ffffffffffffffff811180156110dd57600080fd5b5060405190808252806020026020018201604052801561110c5781602001602082028036833780820191505090505b509050308160008151811061111d57fe5b602002602001019073ffffffffffffffffffffffffffffffffffffffff16908173ffffffffffffffffffffffffffffffffffffffff1681525050601660009054906101000a900473ffffffffffffffffffffffffffffffffffffffff168160018151811061118757fe5b602002602001019073ffffffffffffffffffffffffffffffffffffffff16908173ffffffffffffffffffffffffffffffffffffffff1681525050601560009054906101000a900473ffffffffffffffffffffffffffffffffffffffff16816002815181106111f157fe5b602002602001019073ffffffffffffffffffffffffffffffffffffffff16908173ffffffffffffffffffffffffffffffffffffffff16815250506060601360009054906101000a900473ffffffffffffffffffffffffffffffffffffffff1673ffffffffffffffffffffffffffffffffffffffff1663d06ca61f85846040518363ffffffff1660e01b815260040161128a929190615688565b60006040518083038186803b1580156112a257600080fd5b505afa1580156112b6573d6000803e3d6000fd5b505050506040513d6000823e3d601f19601f820116820180604052508101906112df91906142e1565b90506000816002815181106112f057fe5b602002602001015190506005600401548111611341576040517f08c379a0000000000000000000000000000000000000000000000000000000008152600401611338906155f6565b60405180910390fd5b60006113688561135a848961285f90919063ffffffff16565b6128da90919063ffffffff16565b90506000611384600560040154846128da90919063ffffffff16565b9050818110156113c9576040517f08c379a00000000000000000000000000000000000000000000000000000000081526004016113c090615576565b60405180910390fd5b61147c601460009054906101000a900473ffffffffffffffffffffffffffffffffffffffff1673ffffffffffffffffffffffffffffffffffffffff166370a08231306040518263ffffffff1660e01b8152600401611427919061503a565b60206040518083038186803b15801561143f57600080fd5b505afa158015611453573d6000803e3d6000fd5b505050506040513d601f19601f8201168201806040525081019061147791906144a8565b612931565b508096505061148b3088611ea7565b6114a76114a18888611e5290919063ffffffff16565b47612ac6565b5050505050506000601660146101000a81548160ff0219169083151502179055505b50565b600460009054906101000a900473ffffffffffffffffffffffffffffffffffffffff1673ffffffffffffffffffffffffffffffffffffffff163373ffffffffffffffffffffffffffffffffffffffff161461155c576040517f08c379a000000000000000000000000000000000000000000000000000000000815260040161155390615516565b60405180910390fd5b6115668282612bcb565b5050565b6000601060008473ffffffffffffffffffffffffffffffffffffffff1673ffffffffffffffffffffffffffffffffffffffff16815260200190815260200160002060008373ffffffffffffffffffffffffffffffffffffffff1673ffffffffffffffffffffffffffffffffffffffff16815260200190815260200160002054905092915050565b60058060000160405180604001604052908160008201548152602001600182015481525050908060020160405180604001604052908160008201548152602001600182015481525050908060040154905083565b600460009054906101000a900473ffffffffffffffffffffffffffffffffffffffff1681565b600073ffffffffffffffffffffffffffffffffffffffff168373ffffffffffffffffffffffffffffffffffffffff1614156116db576040517f08c379a00000000000000000000000000000000000000000000000000000000081526004016116d2906151d6565b60405180910390fd5b600073ffffffffffffffffffffffffffffffffffffffff168273ffffffffffffffffffffffffffffffffffffffff16141561174b576040517f08c379a0000000000000000000000000000000000000000000000000000000008152600401611742906153f6565b60405180910390fd5b80601060008573ffffffffffffffffffffffffffffffffffffffff1673ffffffffffffffffffffffffffffffffffffffff16815260200190815260200160002060008473ffffffffffffffffffffffffffffffffffffffff1673ffffffffffffffffffffffffffffffffffffffff168152602001908152602001600020819055508173ffffffffffffffffffffffffffffffffffffffff168373ffffffffffffffffffffffffffffffffffffffff167f8c5be1e5ebec7d5bd14f71427d1e84f3dd0314c0f7b2291e5b200ac8c7c3b92583604051611829919061566d565b60405180910390a3505050565b600073ffffffffffffffffffffffffffffffffffffffff168373ffffffffffffffffffffffffffffffffffffffff1614156118a6576040517f08c379a000000000000000000000000000000000000000000000000000000000815260040161189d90615616565b60405180910390fd5b600073ffffffffffffffffffffffffffffffffffffffff168273ffffffffffffffffffffffffffffffffffffffff161415611916576040517f08c379a000000000000000000000000000000000000000000000000000000000815260040161190d90615536565b60405180910390fd5b8173ffffffffffffffffffffffffffffffffffffffff168373ffffffffffffffffffffffffffffffffffffffff161415611985576040517f08c379a000000000000000000000000000000000000000000000000000000000815260040161197c90615496565b60405180910390fd5b60008114156119c9576040517f08c379a00000000000000000000000000000000000000000000000000000000081526004016119c0906153d6565b60405180910390fd5b601160008473ffffffffffffffffffffffffffffffffffffffff1673ffffffffffffffffffffffffffffffffffffffff16815260200190815260200160002060000160009054906101000a900460ff1680611a305750600e60009054906101000a900460ff165b611a6f576040517f08c379a0000000000000000000000000000000000000000000000000000000008152600401611a6690615396565b60405180910390fd5b601160008473ffffffffffffffffffffffffffffffffffffffff1673ffffffffffffffffffffffffffffffffffffffff16815260200190815260200160002060000160009054906101000a900460ff16158015611b195750601160008373ffffffffffffffffffffffffffffffffffffffff1673ffffffffffffffffffffffffffffffffffffffff16815260200190815260200160002060000160009054906101000a900460ff16155b15611b2e57611b29838383612f0f565b611cb8565b601160008473ffffffffffffffffffffffffffffffffffffffff1673ffffffffffffffffffffffffffffffffffffffff16815260200190815260200160002060000160009054906101000a900460ff168015611bd75750601160008373ffffffffffffffffffffffffffffffffffffffff1673ffffffffffffffffffffffffffffffffffffffff16815260200190815260200160002060000160009054906101000a900460ff16155b15611bec57611be7838383613237565b611cb7565b601160008473ffffffffffffffffffffffffffffffffffffffff1673ffffffffffffffffffffffffffffffffffffffff16815260200190815260200160002060000160009054906101000a900460ff16158015611c955750601160008373ffffffffffffffffffffffffffffffffffffffff1673ffffffffffffffffffffffffffffffffffffffff16815260200190815260200160002060000160009054906101000a900460ff165b15611caa57611ca58383836134c7565b611cb6565b611cb583838361375a565b5b5b5b8173ffffffffffffffffffffffffffffffffffffffff168373ffffffffffffffffffffffffffffffffffffffff167fddf252ad1be2c89b69c2b068fc378daa952ba7f163c4a11628f55a4df523b3ef83604051611d15919061566d565b60405180910390a3505050565b600082821115611d67576040517f08c379a0000000000000000000000000000000000000000000000000000000008152600401611d5e90615236565b60405180910390fd5b818303905092915050565b6000601160008373ffffffffffffffffffffffffffffffffffffffff1673ffffffffffffffffffffffffffffffffffffffff16815260200190815260200160002060000160009054906101000a900460ff16158015611dd757506000600a6002015414155b15611e4d57611e4a600a60010154611e3c600f60008673ffffffffffffffffffffffffffffffffffffffff1673ffffffffffffffffffffffffffffffffffffffff16815260200190815260200160002054600a6002015461285f90919063ffffffff16565b6128da90919063ffffffff16565b90505b919050565b600080828401905083811015611e9d576040517f08c379a0000000000000000000000000000000000000000000000000000000008152600401611e9490615296565b60405180910390fd5b8091505092915050565b600073ffffffffffffffffffffffffffffffffffffffff168273ffffffffffffffffffffffffffffffffffffffff161415611f17576040517f08c379a0000000000000000000000000000000000000000000000000000000008152600401611f0e90615356565b60405180910390fd5b6000811415611f5b576040517f08c379a0000000000000000000000000000000000000000000000000000000008152600401611f52906155b6565b60405180910390fd5b80600f60008473ffffffffffffffffffffffffffffffffffffffff1673ffffffffffffffffffffffffffffffffffffffff168152602001908152602001600020541015611fdd576040517f08c379a0000000000000000000000000000000000000000000000000000000008152600401611fd490615556565b60405180910390fd5b601160008373ffffffffffffffffffffffffffffffffffffffff1673ffffffffffffffffffffffffffffffffffffffff16815260200190815260200160002060000160009054906101000a900460ff1661206c576040517f08c379a000000000000000000000000000000000000000000000000000000000815260040161206390615276565b60405180910390fd5b61208481600a60030154611d2290919063ffffffff16565b600a600301819055506120a581600a60000154611d2290919063ffffffff16565b600a6000018190555061210081600f60008573ffffffffffffffffffffffffffffffffffffffff1673ffffffffffffffffffffffffffffffffffffffff16815260200190815260200160002054611d2290919063ffffffff16565b600f60008473ffffffffffffffffffffffffffffffffffffffff1673ffffffffffffffffffffffffffffffffffffffff16815260200190815260200160002081905550600073ffffffffffffffffffffffffffffffffffffffff168273ffffffffffffffffffffffffffffffffffffffff167fddf252ad1be2c89b69c2b068fc378daa952ba7f163c4a11628f55a4df523b3ef836040516121a1919061566d565b60405180910390a35050565b8460056000016000820151816000015560208201518160010155905050836005600201600082015181600001556020820151816001015590505061220c33600085146121f95784612207565b6b204fce5e3e250261100000005b61390b565b612217306000612bcb565b600082829050905060005b818110156122625761225584848381811061223957fe5b905060200201602081019061224e919061418c565b6000612bcb565b8080600101915050612222565b50505050505050565b600073ffffffffffffffffffffffffffffffffffffffff168273ffffffffffffffffffffffffffffffffffffffff1614156122db576040517f08c379a00000000000000000000000000000000000000000000000000000000081526004016122d290615256565b60405180910390fd5b600073ffffffffffffffffffffffffffffffffffffffff168173ffffffffffffffffffffffffffffffffffffffff16141561234b576040517f08c379a000000000000000000000000000000000000000000000000000000000815260040161234290615316565b60405180910390fd5b600083146123595782612366565b6a084595161401484a0000005b60056004018190555081601360006101000a81548173ffffffffffffffffffffffffffffffffffffffff021916908373ffffffffffffffffffffffffffffffffffffffff160217905550601360009054906101000a900473ffffffffffffffffffffffffffffffffffffffff1673ffffffffffffffffffffffffffffffffffffffff1663c45a01556040518163ffffffff1660e01b815260040160206040518083038186803b15801561241857600080fd5b505afa15801561242c573d6000803e3d6000fd5b505050506040513d601f19601f8201168201806040525081019061245091906141b5565b601260006101000a81548173ffffffffffffffffffffffffffffffffffffffff021916908373ffffffffffffffffffffffffffffffffffffffff160217905550601360009054906101000a900473ffffffffffffffffffffffffffffffffffffffff1673ffffffffffffffffffffffffffffffffffffffff1663ad5c46486040518163ffffffff1660e01b815260040160206040518083038186803b1580156124f857600080fd5b505afa15801561250c573d6000803e3d6000fd5b505050506040513d601f19601f8201168201806040525081019061253091906141b5565b601660006101000a81548173ffffffffffffffffffffffffffffffffffffffff021916908373ffffffffffffffffffffffffffffffffffffffff160217905550601260009054906101000a900473ffffffffffffffffffffffffffffffffffffffff1673ffffffffffffffffffffffffffffffffffffffff1663c9c6539630601660009054906101000a900473ffffffffffffffffffffffffffffffffffffffff166040518363ffffffff1660e01b81526004016125ef929190615055565b602060405180830381600087803b15801561260957600080fd5b505af115801561261d573d6000803e3d6000fd5b505050506040513d601f19601f8201168201806040525081019061264191906141b5565b601460006101000a81548173ffffffffffffffffffffffffffffffffffffffff021916908373ffffffffffffffffffffffffffffffffffffffff16021790555080601560006101000a81548173ffffffffffffffffffffffffffffffffffffffff021916908373ffffffffffffffffffffffffffffffffffffffff1602179055506126ef601360009054906101000a900473ffffffffffffffffffffffffffffffffffffffff166001612bcb565b61271c601460009054906101000a900473ffffffffffffffffffffffffffffffffffffffff166001612bcb565b505050565b600080600080601460009054906101000a900473ffffffffffffffffffffffffffffffffffffffff1673ffffffffffffffffffffffffffffffffffffffff16630902f1ac6040518163ffffffff1660e01b815260040160606040518083038186803b15801561278f57600080fd5b505afa1580156127a3573d6000803e3d6000fd5b505050506040513d601f19601f820116820180604052508101906127c79190614430565b5091509150601660009054906101000a900473ffffffffffffffffffffffffffffffffffffffff1673ffffffffffffffffffffffffffffffffffffffff163073ffffffffffffffffffffffffffffffffffffffff161061282857808261282b565b81815b816dffffffffffffffffffffffffffff169150806dffffffffffffffffffffffffffff169050809450819550505050509091565b60008083148061286f5750600082145b1561287d57600090506128d4565b600082840290508284828161288e57fe5b04146128cf576040517f08c379a00000000000000000000000000000000000000000000000000000000081526004016128c690615376565b60405180910390fd5b809150505b92915050565b60008082141561291f576040517f08c379a000000000000000000000000000000000000000000000000000000000815260040161291690615196565b60405180910390fd5b81838161292857fe5b04905092915050565b600080601460009054906101000a900473ffffffffffffffffffffffffffffffffffffffff1673ffffffffffffffffffffffffffffffffffffffff1663095ea7b3601360009054906101000a900473ffffffffffffffffffffffffffffffffffffffff16856040518363ffffffff1660e01b81526004016129b39291906150df565b602060405180830381600087803b1580156129cd57600080fd5b505af11580156129e1573d6000803e3d6000fd5b505050506040513d601f19601f82011682018060405250810190612a059190614322565b50601360009054906101000a900473ffffffffffffffffffffffffffffffffffffffff1673ffffffffffffffffffffffffffffffffffffffff166302751cec308560008030426040518763ffffffff1660e01b8152600401612a6c9695949392919061507e565b6040805180830381600087803b158015612a8557600080fd5b505af1158015612a99573d6000803e3d6000fd5b505050506040513d601f19601f82011682018060405250810190612abd91906144d1565b91509150915091565b60008214158015612ad8575060008114155b15612bc757612b0a30601360009054906101000a900473ffffffffffffffffffffffffffffffffffffffff168461166b565b601360009054906101000a900473ffffffffffffffffffffffffffffffffffffffff1673ffffffffffffffffffffffffffffffffffffffff1663f305d71982308560008030426040518863ffffffff1660e01b8152600401612b719695949392919061507e565b6060604051808303818588803b158015612b8a57600080fd5b505af1158015612b9e573d6000803e3d6000fd5b50505050506040513d601f19601f82011682018060405250810190612bc3919061450d565b5050505b5050565b600073ffffffffffffffffffffffffffffffffffffffff168273ffffffffffffffffffffffffffffffffffffffff161415612c3b576040517f08c379a0000000000000000000000000000000000000000000000000000000008152600401612c32906152d6565b60405180910390fd5b601160008373ffffffffffffffffffffffffffffffffffffffff1673ffffffffffffffffffffffffffffffffffffffff16815260200190815260200160002060000160009054906101000a900460ff1615612d8557801515601160008473ffffffffffffffffffffffffffffffffffffffff1673ffffffffffffffffffffffffffffffffffffffff16815260200190815260200160002060000160019054906101000a900460ff1615151415612d26576040517f08c379a0000000000000000000000000000000000000000000000000000000008152600401612d1d906155d6565b60405180910390fd5b80601160008473ffffffffffffffffffffffffffffffffffffffff1673ffffffffffffffffffffffffffffffffffffffff16815260200190815260200160002060000160016101000a81548160ff021916908315150217905550612ebd565b6000600f60008473ffffffffffffffffffffffffffffffffffffffff1673ffffffffffffffffffffffffffffffffffffffff1681526020019081526020016000205414612e07576040517f08c379a0000000000000000000000000000000000000000000000000000000008152600401612dfe906154b6565b60405180910390fd5b6001601160008473ffffffffffffffffffffffffffffffffffffffff1673ffffffffffffffffffffffffffffffffffffffff16815260200190815260200160002060000160006101000a81548160ff02191690831515021790555080601160008473ffffffffffffffffffffffffffffffffffffffff1673ffffffffffffffffffffffffffffffffffffffff16815260200190815260200160002060000160016101000a81548160ff0219169083151502179055505b8173ffffffffffffffffffffffffffffffffffffffff167ff3407d03b594227ddbb9468b57b4ac6fa9c361d9209ed837b15922d1364e56f282604051612f039190615108565b60405180910390a25050565b600080612f1b83613b0b565b915091506000808390506000612f3086613b65565b8092508194505050612f4b8185611e5290919063ffffffff16565b9350612f608383611e5290919063ffffffff16565b9150506000612f788587611e5290919063ffffffff16565b90506000612f8f8488611d2290919063ffffffff16565b90506000600a6002015414613045576000612fbd600a60020154600a60010154611e5290919063ffffffff16565b9050612fe981612fdb600a600101548661285f90919063ffffffff16565b6128da90919063ffffffff16565b925061301581613007600a600101548561285f90919063ffffffff16565b6128da90919063ffffffff16565b915061304181613033600a600101548761285f90919063ffffffff16565b6128da90919063ffffffff16565b9350505b81600f60008b73ffffffffffffffffffffffffffffffffffffffff1673ffffffffffffffffffffffffffffffffffffffff1681526020019081526020016000205410156130c7576040517f08c379a00000000000000000000000000000000000000000000000000000000081526004016130be906151f6565b60405180910390fd5b61311982600f60008c73ffffffffffffffffffffffffffffffffffffffff1673ffffffffffffffffffffffffffffffffffffffff16815260200190815260200160002054611d2290919063ffffffff16565b600f60008b73ffffffffffffffffffffffffffffffffffffffff1673ffffffffffffffffffffffffffffffffffffffff168152602001908152602001600020819055506131ae81600f60008b73ffffffffffffffffffffffffffffffffffffffff1673ffffffffffffffffffffffffffffffffffffffff16815260200190815260200160002054611e5290919063ffffffff16565b600f60008a73ffffffffffffffffffffffffffffffffffffffff1673ffffffffffffffffffffffffffffffffffffffff1681526020019081526020016000208190555061320983600a60010154611d2290919063ffffffff16565b600a60010181905550600085146132245761322385613bbf565b5b61322c613bd3565b505050505050505050565b80600f60008573ffffffffffffffffffffffffffffffffffffffff1673ffffffffffffffffffffffffffffffffffffffff1681526020019081526020016000205410156132b9576040517f08c379a00000000000000000000000000000000000000000000000000000000081526004016132b090615336565b60405180910390fd5b600080601160008673ffffffffffffffffffffffffffffffffffffffff1673ffffffffffffffffffffffffffffffffffffffff16815260200190815260200160002060000160019054906101000a900460ff166133225761331983613b0b565b80925081935050505b60006133378385611d2290919063ffffffff16565b905061338b84600f60008973ffffffffffffffffffffffffffffffffffffffff1673ffffffffffffffffffffffffffffffffffffffff16815260200190815260200160002054611d2290919063ffffffff16565b600f60008873ffffffffffffffffffffffffffffffffffffffff1673ffffffffffffffffffffffffffffffffffffffff1681526020019081526020016000208190555061342081600f60008873ffffffffffffffffffffffffffffffffffffffff1673ffffffffffffffffffffffffffffffffffffffff16815260200190815260200160002054611e5290919063ffffffff16565b600f60008773ffffffffffffffffffffffffffffffffffffffff1673ffffffffffffffffffffffffffffffffffffffff1681526020019081526020016000208190555061347b84600a60000154611d2290919063ffffffff16565b600a6000018190555061349c81600a60010154611e5290919063ffffffff16565b600a60010181905550600082146134b7576134b682613bbf565b5b6134bf613bd3565b505050505050565b6000806134d383613b0b565b9150915060006134ec8385611e5290919063ffffffff16565b90506000600a600201541461354a57600061351a600a60020154600a60010154611e5290919063ffffffff16565b905061354681613538600a600101548561285f90919063ffffffff16565b6128da90919063ffffffff16565b9150505b80600f60008873ffffffffffffffffffffffffffffffffffffffff1673ffffffffffffffffffffffffffffffffffffffff1681526020019081526020016000205410156135cc576040517f08c379a00000000000000000000000000000000000000000000000000000000081526004016135c390615456565b60405180910390fd5b61361e81600f60008973ffffffffffffffffffffffffffffffffffffffff1673ffffffffffffffffffffffffffffffffffffffff16815260200190815260200160002054611d2290919063ffffffff16565b600f60008873ffffffffffffffffffffffffffffffffffffffff1673ffffffffffffffffffffffffffffffffffffffff168152602001908152602001600020819055506136b384600f60008873ffffffffffffffffffffffffffffffffffffffff1673ffffffffffffffffffffffffffffffffffffffff16815260200190815260200160002054611e5290919063ffffffff16565b600f60008773ffffffffffffffffffffffffffffffffffffffff1673ffffffffffffffffffffffffffffffffffffffff1681526020019081526020016000208190555061370e84600a60000154611e5290919063ffffffff16565b600a6000018190555061372f81600a60010154611d2290919063ffffffff16565b600a600101819055506000821461374a5761374982613bbf565b5b613752613bd3565b505050505050565b80600f60008573ffffffffffffffffffffffffffffffffffffffff1673ffffffffffffffffffffffffffffffffffffffff1681526020019081526020016000205410156137dc576040517f08c379a00000000000000000000000000000000000000000000000000000000081526004016137d3906154d6565b60405180910390fd5b61382e81600f60008673ffffffffffffffffffffffffffffffffffffffff1673ffffffffffffffffffffffffffffffffffffffff16815260200190815260200160002054611d2290919063ffffffff16565b600f60008573ffffffffffffffffffffffffffffffffffffffff1673ffffffffffffffffffffffffffffffffffffffff168152602001908152602001600020819055506138c381600f60008573ffffffffffffffffffffffffffffffffffffffff1673ffffffffffffffffffffffffffffffffffffffff16815260200190815260200160002054611e5290919063ffffffff16565b600f60008473ffffffffffffffffffffffffffffffffffffffff1673ffffffffffffffffffffffffffffffffffffffff16815260200190815260200160002081905550505050565b600073ffffffffffffffffffffffffffffffffffffffff168273ffffffffffffffffffffffffffffffffffffffff16141561397b576040517f08c379a000000000000000000000000000000000000000000000000000000000815260040161397290615476565b60405180910390fd5b60008114156139bf576040517f08c379a00000000000000000000000000000000000000000000000000000000081526004016139b6906152b6565b60405180910390fd5b6139ca826000612bcb565b6139e281600a60030154611e5290919063ffffffff16565b600a60030181905550613a0381600a60000154611e5290919063ffffffff16565b600a60000181905550613a5e81600f60008573ffffffffffffffffffffffffffffffffffffffff1673ffffffffffffffffffffffffffffffffffffffff16815260200190815260200160002054611e5290919063ffffffff16565b600f60008473ffffffffffffffffffffffffffffffffffffffff1673ffffffffffffffffffffffffffffffffffffffff168152602001908152602001600020819055508173ffffffffffffffffffffffffffffffffffffffff16600073ffffffffffffffffffffffffffffffffffffffff167fddf252ad1be2c89b69c2b068fc378daa952ba7f163c4a11628f55a4df523b3ef83604051613aff919061566d565b60405180910390a35050565b6000806000613b2b60056002016000015485613c1290919063ffffffff16565b9050613b4860056000016000015485613c1290919063ffffffff16565b9150613b5d8183611e5290919063ffffffff16565b925050915091565b6000806000613b8560056002016001015485613c1290919063ffffffff16565b9050613ba260056000016001015485613c1290919063ffffffff16565b9150613bb78183611e5290919063ffffffff16565b925050915091565b613bc881613c4d565b613bd0613d06565b50565b613c07600a60010154613bf9600a60000154600a60030154611d2290919063ffffffff16565b611d2290919063ffffffff16565b600a60020181905550565b60008060008414158015613c27575060008314155b15613c4357613c40613c39858561285f565b60646128da565b90505b8091505092915050565b613c9f81600f60003073ffffffffffffffffffffffffffffffffffffffff1673ffffffffffffffffffffffffffffffffffffffff16815260200190815260200160002054611e5290919063ffffffff16565b600f60003073ffffffffffffffffffffffffffffffffffffffff1673ffffffffffffffffffffffffffffffffffffffff16815260200190815260200160002081905550613cfa81600a60000154611e5290919063ffffffff16565b600a6000018190555050565b601660149054906101000a900460ff16613de0576001601660146101000a81548160ff0219169083151502179055506000600f60003073ffffffffffffffffffffffffffffffffffffffff1673ffffffffffffffffffffffffffffffffffffffff16815260200190815260200160002054905060004790506000613d946002846128da90919063ffffffff16565b90506000613dab8285611d2290919063ffffffff16565b9050613db682613de2565b613dc08184612ac6565b505050506000601660146101000a81548160ff0219169083151502179055505b565b60008114613fad57613e1730601360009054906101000a900473ffffffffffffffffffffffffffffffffffffffff168361166b565b6060600267ffffffffffffffff81118015613e3157600080fd5b50604051908082528060200260200182016040528015613e605781602001602082028036833780820191505090505b5090503081600081518110613e7157fe5b602002602001019073ffffffffffffffffffffffffffffffffffffffff16908173ffffffffffffffffffffffffffffffffffffffff1681525050601660009054906101000a900473ffffffffffffffffffffffffffffffffffffffff1681600181518110613edb57fe5b602002602001019073ffffffffffffffffffffffffffffffffffffffff16908173ffffffffffffffffffffffffffffffffffffffff1681525050601360009054906101000a900473ffffffffffffffffffffffffffffffffffffffff1673ffffffffffffffffffffffffffffffffffffffff1663791ac9478360008430426040518663ffffffff1660e01b8152600401613f799594939291906156b8565b600060405180830381600087803b158015613f9357600080fd5b505af1158015613fa7573d6000803e3d6000fd5b50505050505b50565b600081359050613fbf816159ca565b92915050565b600081519050613fd4816159ca565b92915050565b60008083601f840112613fec57600080fd5b8235905067ffffffffffffffff81111561400557600080fd5b60208301915083602082028301111561401d57600080fd5b9250929050565b600082601f83011261403557600080fd5b8151614048614043826157d6565b6157a9565b9150818183526020840193506020810190508385602084028201111561406d57600080fd5b60005b8381101561409d57816140838882614162565b845260208401935060208301925050600181019050614070565b5050505092915050565b6000813590506140b6816159e1565b92915050565b6000815190506140cb816159e1565b92915050565b6000604082840312156140e357600080fd5b81905092915050565b6000604082840312156140fe57600080fd5b61410860406157a9565b905060006141188482850161414d565b600083015250602061412c8482850161414d565b60208301525092915050565b600081519050614147816159f8565b92915050565b60008135905061415c81615a0f565b92915050565b60008151905061417181615a0f565b92915050565b60008151905061418681615a26565b92915050565b60006020828403121561419e57600080fd5b60006141ac84828501613fb0565b91505092915050565b6000602082840312156141c757600080fd5b60006141d584828501613fc5565b91505092915050565b600080604083850312156141f157600080fd5b60006141ff85828601613fb0565b925050602061421085828601613fb0565b9150509250929050565b60008060006060848603121561422f57600080fd5b600061423d86828701613fb0565b935050602061424e86828701613fb0565b925050604061425f8682870161414d565b9150509250925092565b6000806040838503121561427c57600080fd5b600061428a85828601613fb0565b925050602061429b858286016140a7565b9150509250929050565b600080604083850312156142b857600080fd5b60006142c685828601613fb0565b92505060206142d78582860161414d565b9150509250929050565b6000602082840312156142f357600080fd5b600082015167ffffffffffffffff81111561430d57600080fd5b61431984828501614024565b91505092915050565b60006020828403121561433457600080fd5b6000614342848285016140bc565b91505092915050565b600080600080600080600080610120898b03121561436857600080fd5b60006143768b828c016140d1565b98505060406143878b828c016140d1565b97505060806143988b828c0161414d565b96505060a089013567ffffffffffffffff8111156143b557600080fd5b6143c18b828c01613fda565b955095505060c06143d48b828c0161414d565b93505060e06143e58b828c01613fb0565b9250506101006143f78b828c01613fb0565b9150509295985092959890939650565b60006040828403121561441957600080fd5b6000614427848285016140ec565b91505092915050565b60008060006060848603121561444557600080fd5b600061445386828701614138565b935050602061446486828701614138565b925050604061447586828701614177565b9150509250925092565b60006020828403121561449157600080fd5b600061449f8482850161414d565b91505092915050565b6000602082840312156144ba57600080fd5b60006144c884828501614162565b91505092915050565b600080604083850312156144e457600080fd5b60006144f285828601614162565b925050602061450385828601614162565b9150509250929050565b60008060006060848603121561452257600080fd5b600061453086828701614162565b935050602061454186828701614162565b925050604061455286828701614162565b9150509250925092565b60006145688383614583565b60208301905092915050565b61457d816158d2565b82525050565b61458c81615853565b82525050565b61459b81615853565b82525050565b60006145ac8261580e565b6145b68185615831565b93506145c1836157fe565b8060005b838110156145f25781516145d9888261455c565b97506145e483615824565b9250506001810190506145c5565b5085935050505092915050565b61460881615865565b82525050565b614617816158e4565b82525050565b61462681615908565b82525050565b6146358161592c565b82525050565b61464481615950565b82525050565b600061465582615819565b61465f8185615842565b935061466f818560208601615986565b614678816159b9565b840191505092915050565b6000614690600983615842565b91507f4d6174684c6962233400000000000000000000000000000000000000000000006000830152602082019050919050565b60006146d0600d83615842565b91507f4845524f546f6b656e4c502333000000000000000000000000000000000000006000830152602082019050919050565b6000614710601283615842565b91507f4845524f546f6b656e45636f6e6f6d79233600000000000000000000000000006000830152602082019050919050565b6000614750601383615842565b91507f4845524f546f6b656e45636f6e6f6d79233139000000000000000000000000006000830152602082019050919050565b6000614790600d83615842565b91507f4845524f546f6b656e4c502332000000000000000000000000000000000000006000830152602082019050919050565b60006147d0600983615842565b91507f4d6174684c6962233200000000000000000000000000000000000000000000006000830152602082019050919050565b6000614810600d83615842565b91507f4845524f546f6b656e4c502336000000000000000000000000000000000000006000830152602082019050919050565b6000614850601383615842565b91507f4845524f546f6b656e45636f6e6f6d79233133000000000000000000000000006000830152602082019050919050565b6000614890600983615842565b91507f4d6174684c6962233100000000000000000000000000000000000000000000006000830152602082019050919050565b60006148d0601283615842565b91507f4845524f546f6b656e45636f6e6f6d79233900000000000000000000000000006000830152602082019050919050565b6000614910601283615842565b91507f4845524f546f6b656e45636f6e6f6d79233300000000000000000000000000006000830152602082019050919050565b6000614950600d83615842565b91507f4845524f546f6b656e4c502331000000000000000000000000000000000000006000830152602082019050919050565b6000614990600d83615842565b91507f4845524f546f6b656e4c502337000000000000000000000000000000000000006000830152602082019050919050565b60006149d0601383615842565b91507f4845524f546f6b656e45636f6e6f6d79233230000000000000000000000000006000830152602082019050919050565b6000614a10601383615842565b91507f4845524f546f6b656e45636f6e6f6d79233130000000000000000000000000006000830152602082019050919050565b6000614a50600983615842565b91507f4d6174684c6962233300000000000000000000000000000000000000000000006000830152602082019050919050565b6000614a90601383615842565b91507f4845524f546f6b656e45636f6e6f6d79233138000000000000000000000000006000830152602082019050919050565b6000614ad0601283615842565b91507f4845524f546f6b656e45636f6e6f6d79233200000000000000000000000000006000830152602082019050919050565b6000614b10601383615842565b91507f4845524f546f6b656e45636f6e6f6d79233137000000000000000000000000006000830152602082019050919050565b6000614b50601283615842565b91507f4845524f546f6b656e45636f6e6f6d79233700000000000000000000000000006000830152602082019050919050565b6000614b90600f83615842565b91507f496e697469616c697a61626c65233200000000000000000000000000000000006000830152602082019050919050565b6000614bd0600f83615842565b91507f496e697469616c697a61626c65233100000000000000000000000000000000006000830152602082019050919050565b6000614c10601383615842565b91507f4845524f546f6b656e45636f6e6f6d79233231000000000000000000000000006000830152602082019050919050565b6000614c50601283615842565b91507f4845524f546f6b656e45636f6e6f6d79233800000000000000000000000000006000830152602082019050919050565b6000614c90601383615842565b91507f4845524f546f6b656e45636f6e6f6d79233136000000000000000000000000006000830152602082019050919050565b6000614cd0601283615842565b91507f4845524f546f6b656e45636f6e6f6d79233500000000000000000000000000006000830152602082019050919050565b6000614d10601383615842565b91507f4845524f546f6b656e45636f6e6f6d79233232000000000000000000000000006000830152602082019050919050565b6000614d50601283615842565b91507f4845524f546f6b656e45636f6e6f6d79233100000000000000000000000000006000830152602082019050919050565b6000614d90600c83615842565b91507f436f6e74726f6c6c6564233100000000000000000000000000000000000000006000830152602082019050919050565b6000614dd0601383615842565b91507f4845524f546f6b656e45636f6e6f6d79233135000000000000000000000000006000830152602082019050919050565b6000614e10601383615842565b91507f4845524f546f6b656e45636f6e6f6d79233132000000000000000000000000006000830152602082019050919050565b6000614e50600d83615842565b91507f4845524f546f6b656e4c502335000000000000000000000000000000000000006000830152602082019050919050565b6000614e90600c83615842565b91507f436f6e74726f6c6c6564233200000000000000000000000000000000000000006000830152602082019050919050565b6000614ed0601383615842565b91507f4845524f546f6b656e45636f6e6f6d79233131000000000000000000000000006000830152602082019050919050565b6000614f10601283615842565b91507f4845524f546f6b656e45636f6e6f6d79233400000000000000000000000000006000830152602082019050919050565b6000614f50600d83615842565b91507f4845524f546f6b656e4c502334000000000000000000000000000000000000006000830152602082019050919050565b6000614f90601383615842565b91507f4845524f546f6b656e45636f6e6f6d79233134000000000000000000000000006000830152602082019050919050565b604082016000820151614fd96000850182614ff2565b506020820151614fec6020850182614ff2565b50505050565b614ffb816158ab565b82525050565b61500a816158ab565b82525050565b615019816158c5565b82525050565b60006020820190506150346000830184614592565b92915050565b600060208201905061504f6000830184614574565b92915050565b600060408201905061506a6000830185614574565b6150776020830184614592565b9392505050565b600060c0820190506150936000830189614574565b6150a06020830188615001565b6150ad604083018761463b565b6150ba606083018661463b565b6150c76080830185614574565b6150d460a0830184615001565b979650505050505050565b60006040820190506150f46000830185614592565b6151016020830184615001565b9392505050565b600060208201905061511d60008301846145ff565b92915050565b6000602082019050615138600083018461460e565b92915050565b6000602082019050615153600083018461461d565b92915050565b600060208201905061516e600083018461462c565b92915050565b6000602082019050818103600083015261518e818461464a565b905092915050565b600060208201905081810360008301526151af81614683565b9050919050565b600060208201905081810360008301526151cf816146c3565b9050919050565b600060208201905081810360008301526151ef81614703565b9050919050565b6000602082019050818103600083015261520f81614743565b9050919050565b6000602082019050818103600083015261522f81614783565b9050919050565b6000602082019050818103600083015261524f816147c3565b9050919050565b6000602082019050818103600083015261526f81614803565b9050919050565b6000602082019050818103600083015261528f81614843565b9050919050565b600060208201905081810360008301526152af81614883565b9050919050565b600060208201905081810360008301526152cf816148c3565b9050919050565b600060208201905081810360008301526152ef81614903565b9050919050565b6000602082019050818103600083015261530f81614943565b9050919050565b6000602082019050818103600083015261532f81614983565b9050919050565b6000602082019050818103600083015261534f816149c3565b9050919050565b6000602082019050818103600083015261536f81614a03565b9050919050565b6000602082019050818103600083015261538f81614a43565b9050919050565b600060208201905081810360008301526153af81614a83565b9050919050565b600060208201905081810360008301526153cf81614ac3565b9050919050565b600060208201905081810360008301526153ef81614b03565b9050919050565b6000602082019050818103600083015261540f81614b43565b9050919050565b6000602082019050818103600083015261542f81614b83565b9050919050565b6000602082019050818103600083015261544f81614bc3565b9050919050565b6000602082019050818103600083015261546f81614c03565b9050919050565b6000602082019050818103600083015261548f81614c43565b9050919050565b600060208201905081810360008301526154af81614c83565b9050919050565b600060208201905081810360008301526154cf81614cc3565b9050919050565b600060208201905081810360008301526154ef81614d03565b9050919050565b6000602082019050818103600083015261550f81614d43565b9050919050565b6000602082019050818103600083015261552f81614d83565b9050919050565b6000602082019050818103600083015261554f81614dc3565b9050919050565b6000602082019050818103600083015261556f81614e03565b9050919050565b6000602082019050818103600083015261558f81614e43565b9050919050565b600060208201905081810360008301526155af81614e83565b9050919050565b600060208201905081810360008301526155cf81614ec3565b9050919050565b600060208201905081810360008301526155ef81614f03565b9050919050565b6000602082019050818103600083015261560f81614f43565b9050919050565b6000602082019050818103600083015261562f81614f83565b9050919050565b600060a08201905061564b6000830186614fc3565b6156586040830185614fc3565b6156656080830184615001565b949350505050565b60006020820190506156826000830184615001565b92915050565b600060408201905061569d6000830185615001565b81810360208301526156af81846145a1565b90509392505050565b600060a0820190506156cd6000830188615001565b6156da602083018761463b565b81810360408301526156ec81866145a1565b90506156fb6060830185614574565b6157086080830184615001565b9695505050505050565b60006060820190506157276000830186615001565b6157346020830185615001565b6157416040830184615001565b949350505050565b600060808201905061575e6000830187615001565b61576b6020830186615001565b6157786040830185615001565b6157856060830184615001565b95945050505050565b60006020820190506157a36000830184615010565b92915050565b6000604051905081810181811067ffffffffffffffff821117156157cc57600080fd5b8060405250919050565b600067ffffffffffffffff8211156157ed57600080fd5b602082029050602081019050919050565b6000819050602082019050919050565b600081519050919050565b600081519050919050565b6000602082019050919050565b600082825260208201905092915050565b600082825260208201905092915050565b600061585e8261588b565b9050919050565b60008115159050919050565b60006dffffffffffffffffffffffffffff82169050919050565b600073ffffffffffffffffffffffffffffffffffffffff82169050919050565b6000819050919050565b600063ffffffff82169050919050565b600060ff82169050919050565b60006158dd82615962565b9050919050565b60006158ef826158f6565b9050919050565b60006159018261588b565b9050919050565b60006159138261591a565b9050919050565b60006159258261588b565b9050919050565b60006159378261593e565b9050919050565b60006159498261588b565b9050919050565b600061595b826158ab565b9050919050565b600061596d82615974565b9050919050565b600061597f8261588b565b9050919050565b60005b838110156159a4578082015181840152602081019050615989565b838111156159b3576000848401525b50505050565b6000601f19601f8301169050919050565b6159d381615853565b81146159de57600080fd5b50565b6159ea81615865565b81146159f557600080fd5b50565b615a0181615871565b8114615a0c57600080fd5b50565b615a18816158ab565b8114615a2357600080fd5b50565b615a2f816158b5565b8114615a3a57600080fd5b5056fea164736f6c634300060c000a",
  "devdoc": {
    "kind": "dev",
    "methods": {
      "constructor": {
        "details": "Public constructor"
      }
    },
    "title": "HERO token",
    "version": 1
  },
  "userdoc": {
    "kind": "user",
    "methods": {},
    "version": 1
  },
  "storageLayout": {
    "storage": [
      {
        "astId": 2771,
        "contract": "src/HEROToken.sol:HEROToken",
        "label": "metadata",
        "offset": 0,
        "slot": "0",
        "type": "t_struct(Metadata)2769_storage"
      },
      {
        "astId": 2815,
        "contract": "src/HEROToken.sol:HEROToken",
        "label": "initializer",
        "offset": 0,
        "slot": "3",
        "type": "t_address"
      },
      {
        "astId": 2642,
        "contract": "src/HEROToken.sol:HEROToken",
        "label": "controller",
        "offset": 0,
        "slot": "4",
        "type": "t_address"
      },
      {
        "astId": 671,
        "contract": "src/HEROToken.sol:HEROToken",
        "label": "settings",
        "offset": 0,
        "slot": "5",
        "type": "t_struct(Settings)669_storage"
      },
      {
        "astId": 712,
        "contract": "src/HEROToken.sol:HEROToken",
        "label": "summary",
        "offset": 0,
        "slot": "10",
        "type": "t_struct(Summary)698_storage"
      },
      {
        "astId": 714,
        "contract": "src/HEROToken.sol:HEROToken",
        "label": "presaleFinished",
        "offset": 0,
        "slot": "14",
        "type": "t_bool"
      },
      {
        "astId": 718,
        "contract": "src/HEROToken.sol:HEROToken",
        "label": "accountBalances",
        "offset": 0,
        "slot": "15",
        "type": "t_mapping(t_address,t_uint256)"
      },
      {
        "astId": 724,
        "contract": "src/HEROToken.sol:HEROToken",
        "label": "accountAllowances",
        "offset": 0,
        "slot": "16",
        "type": "t_mapping(t_address,t_mapping(t_address,t_uint256))"
      },
      {
        "astId": 728,
        "contract": "src/HEROToken.sol:HEROToken",
        "label": "excludedAccounts",
        "offset": 0,
        "slot": "17",
        "type": "t_mapping(t_address,t_struct(ExcludedAccount)703_storage)"
      },
      {
        "astId": 2058,
        "contract": "src/HEROToken.sol:HEROToken",
        "label": "swapFactory",
        "offset": 0,
        "slot": "18",
        "type": "t_contract(UniswapV2Factory)2936"
      },
      {
        "astId": 2060,
        "contract": "src/HEROToken.sol:HEROToken",
        "label": "swapRouter",
        "offset": 0,
        "slot": "19",
        "type": "t_contract(UniswapV2Router02)3574"
      },
      {
        "astId": 2062,
        "contract": "src/HEROToken.sol:HEROToken",
        "label": "swapPair",
        "offset": 0,
        "slot": "20",
        "type": "t_contract(UniswapV2Pair)3178"
      },
      {
        "astId": 2064,
        "contract": "src/HEROToken.sol:HEROToken",
        "label": "stableCoin",
        "offset": 0,
        "slot": "21",
        "type": "t_address"
      },
      {
        "astId": 2066,
        "contract": "src/HEROToken.sol:HEROToken",
        "label": "wrappedNative",
        "offset": 0,
        "slot": "22",
        "type": "t_address"
      },
      {
        "astId": 2068,
        "contract": "src/HEROToken.sol:HEROToken",
        "label": "swapLocked",
        "offset": 20,
        "slot": "22",
        "type": "t_bool"
      }
    ],
    "types": {
      "t_address": {
        "encoding": "inplace",
        "label": "address",
        "numberOfBytes": "20"
      },
      "t_bool": {
        "encoding": "inplace",
        "label": "bool",
        "numberOfBytes": "1"
      },
      "t_contract(UniswapV2Factory)2936": {
        "encoding": "inplace",
        "label": "contract UniswapV2Factory",
        "numberOfBytes": "20"
      },
      "t_contract(UniswapV2Pair)3178": {
        "encoding": "inplace",
        "label": "contract UniswapV2Pair",
        "numberOfBytes": "20"
      },
      "t_contract(UniswapV2Router02)3574": {
        "encoding": "inplace",
        "label": "contract UniswapV2Router02",
        "numberOfBytes": "20"
      },
      "t_mapping(t_address,t_mapping(t_address,t_uint256))": {
        "encoding": "mapping",
        "key": "t_address",
        "label": "mapping(address => mapping(address => uint256))",
        "numberOfBytes": "32",
        "value": "t_mapping(t_address,t_uint256)"
      },
      "t_mapping(t_address,t_struct(ExcludedAccount)703_storage)": {
        "encoding": "mapping",
        "key": "t_address",
        "label": "mapping(address => struct HEROTokenEconomy.ExcludedAccount)",
        "numberOfBytes": "32",
        "value": "t_struct(ExcludedAccount)703_storage"
      },
      "t_mapping(t_address,t_uint256)": {
        "encoding": "mapping",
        "key": "t_address",
        "label": "mapping(address => uint256)",
        "numberOfBytes": "32",
        "value": "t_uint256"
      },
      "t_string_storage": {
        "encoding": "bytes",
        "label": "string",
        "numberOfBytes": "32"
      },
      "t_struct(ExcludedAccount)703_storage": {
        "encoding": "inplace",
        "label": "struct HEROTokenEconomy.ExcludedAccount",
        "members": [
          {
            "astId": 700,
            "contract": "src/HEROToken.sol:HEROToken",
            "label": "exists",
            "offset": 0,
            "slot": "0",
            "type": "t_bool"
          },
          {
            "astId": 702,
            "contract": "src/HEROToken.sol:HEROToken",
            "label": "excludeRecipientFromFee",
            "offset": 1,
            "slot": "0",
            "type": "t_bool"
          }
        ],
        "numberOfBytes": "32"
      },
      "t_struct(Fees)662_storage": {
        "encoding": "inplace",
        "label": "struct HEROTokenCommon.Fees",
        "members": [
          {
            "astId": 659,
            "contract": "src/HEROToken.sol:HEROToken",
            "label": "sender",
            "offset": 0,
            "slot": "0",
            "type": "t_uint256"
          },
          {
            "astId": 661,
            "contract": "src/HEROToken.sol:HEROToken",
            "label": "recipient",
            "offset": 0,
            "slot": "1",
            "type": "t_uint256"
          }
        ],
        "numberOfBytes": "64"
      },
      "t_struct(Metadata)2769_storage": {
        "encoding": "inplace",
        "label": "struct ERC20Metadata.Metadata",
        "members": [
          {
            "astId": 2764,
            "contract": "src/HEROToken.sol:HEROToken",
            "label": "name",
            "offset": 0,
            "slot": "0",
            "type": "t_string_storage"
          },
          {
            "astId": 2766,
            "contract": "src/HEROToken.sol:HEROToken",
            "label": "symbol",
            "offset": 0,
            "slot": "1",
            "type": "t_string_storage"
          },
          {
            "astId": 2768,
            "contract": "src/HEROToken.sol:HEROToken",
            "label": "decimals",
            "offset": 0,
            "slot": "2",
            "type": "t_uint8"
          }
        ],
        "numberOfBytes": "96"
      },
      "t_struct(Settings)669_storage": {
        "encoding": "inplace",
        "label": "struct HEROTokenCommon.Settings",
        "members": [
          {
            "astId": 664,
            "contract": "src/HEROToken.sol:HEROToken",
            "label": "lpFees",
            "offset": 0,
            "slot": "0",
            "type": "t_struct(Fees)662_storage"
          },
          {
            "astId": 666,
            "contract": "src/HEROToken.sol:HEROToken",
            "label": "rewardsFees",
            "offset": 0,
            "slot": "2",
            "type": "t_struct(Fees)662_storage"
          },
          {
            "astId": 668,
            "contract": "src/HEROToken.sol:HEROToken",
            "label": "enableBurnLPAtValue",
            "offset": 0,
            "slot": "4",
            "type": "t_uint256"
          }
        ],
        "numberOfBytes": "160"
      },
      "t_struct(Summary)698_storage": {
        "encoding": "inplace",
        "label": "struct HEROTokenEconomy.Summary",
        "members": [
          {
            "astId": 691,
            "contract": "src/HEROToken.sol:HEROToken",
            "label": "totalExcluded",
            "offset": 0,
            "slot": "0",
            "type": "t_uint256"
          },
          {
            "astId": 693,
            "contract": "src/HEROToken.sol:HEROToken",
            "label": "totalHolding",
            "offset": 0,
            "slot": "1",
            "type": "t_uint256"
          },
          {
            "astId": 695,
            "contract": "src/HEROToken.sol:HEROToken",
            "label": "totalRewards",
            "offset": 0,
            "slot": "2",
            "type": "t_uint256"
          },
          {
            "astId": 697,
            "contract": "src/HEROToken.sol:HEROToken",
            "label": "totalSupply",
            "offset": 0,
            "slot": "3",
            "type": "t_uint256"
          }
        ],
        "numberOfBytes": "128"
      },
      "t_uint256": {
        "encoding": "inplace",
        "label": "uint256",
        "numberOfBytes": "32"
      },
      "t_uint8": {
        "encoding": "inplace",
        "label": "uint8",
        "numberOfBytes": "1"
      }
    }
  }
}