{
  "address": "0x36125D0Ef66387faa8287147e6E2FDf60a5CFddC",
  "abi": [
    {
      "inputs": [],
      "stateMutability": "nonpayable",
      "type": "constructor"
    },
    {
      "anonymous": false,
      "inputs": [
        {
          "indexed": true,
          "internalType": "address",
          "name": "account",
          "type": "address"
        }
      ],
      "name": "AccountAdded",
      "type": "event"
    },
    {
      "anonymous": false,
      "inputs": [
        {
          "indexed": true,
          "internalType": "address",
          "name": "account",
          "type": "address"
        }
      ],
      "name": "AccountRemoved",
      "type": "event"
    },
    {
      "anonymous": false,
      "inputs": [
        {
          "indexed": false,
          "internalType": "uint256",
          "name": "deadline",
          "type": "uint256"
        }
      ],
      "name": "DeadlineUpdated",
      "type": "event"
    },
    {
      "anonymous": false,
      "inputs": [],
      "name": "Initialized",
      "type": "event"
    },
    {
      "anonymous": false,
      "inputs": [
        {
          "indexed": false,
          "internalType": "uint256",
          "name": "tokensAmountPerNative",
          "type": "uint256"
        },
        {
          "indexed": false,
          "internalType": "uint256",
          "name": "maxPurchasePrice",
          "type": "uint256"
        }
      ],
      "name": "SettingsUpdated",
      "type": "event"
    },
    {
      "anonymous": false,
      "inputs": [
        {
          "indexed": true,
          "internalType": "address",
          "name": "account",
          "type": "address"
        },
        {
          "indexed": false,
          "internalType": "uint256",
          "name": "tokensPrice",
          "type": "uint256"
        },
        {
          "indexed": false,
          "internalType": "uint256",
          "name": "tokensAmount",
          "type": "uint256"
        }
      ],
      "name": "TokensPurchased",
      "type": "event"
    },
    {
      "inputs": [
        {
          "internalType": "address[]",
          "name": "accounts",
          "type": "address[]"
        }
      ],
      "name": "addAccounts",
      "outputs": [],
      "stateMutability": "nonpayable",
      "type": "function"
    },
    {
      "inputs": [],
      "name": "controller",
      "outputs": [
        {
          "internalType": "address",
          "name": "",
          "type": "address"
        }
      ],
      "stateMutability": "view",
      "type": "function"
    },
    {
      "inputs": [],
      "name": "deadline",
      "outputs": [
        {
          "internalType": "uint256",
          "name": "",
          "type": "uint256"
        }
      ],
      "stateMutability": "view",
      "type": "function"
    },
    {
      "inputs": [],
      "name": "finishPresale",
      "outputs": [],
      "stateMutability": "nonpayable",
      "type": "function"
    },
    {
      "inputs": [
        {
          "internalType": "address payable",
          "name": "token_",
          "type": "address"
        },
        {
          "internalType": "uint256",
          "name": "tokensAmountPerNative",
          "type": "uint256"
        },
        {
          "internalType": "uint256",
          "name": "maxPurchasePrice",
          "type": "uint256"
        },
        {
          "internalType": "uint256",
          "name": "deadlineIn",
          "type": "uint256"
        },
        {
          "internalType": "address[]",
          "name": "accounts",
          "type": "address[]"
        }
      ],
      "name": "initialize",
      "outputs": [],
      "stateMutability": "nonpayable",
      "type": "function"
    },
    {
      "inputs": [],
      "name": "initialized",
      "outputs": [
        {
          "internalType": "bool",
          "name": "",
          "type": "bool"
        }
      ],
      "stateMutability": "view",
      "type": "function"
    },
    {
      "inputs": [
        {
          "internalType": "address[]",
          "name": "accounts",
          "type": "address[]"
        }
      ],
      "name": "removeAccounts",
      "outputs": [],
      "stateMutability": "nonpayable",
      "type": "function"
    },
    {
      "inputs": [
        {
          "internalType": "address",
          "name": "controller_",
          "type": "address"
        }
      ],
      "name": "setController",
      "outputs": [],
      "stateMutability": "nonpayable",
      "type": "function"
    },
    {
      "inputs": [],
      "name": "settings",
      "outputs": [
        {
          "internalType": "uint256",
          "name": "tokensAmountPerNative",
          "type": "uint256"
        },
        {
          "internalType": "uint256",
          "name": "maxPurchasePrice",
          "type": "uint256"
        }
      ],
      "stateMutability": "view",
      "type": "function"
    },
    {
      "inputs": [],
      "name": "summary",
      "outputs": [
        {
          "internalType": "uint256",
          "name": "totalAccounts",
          "type": "uint256"
        },
        {
          "internalType": "uint256",
          "name": "totalTokens",
          "type": "uint256"
        }
      ],
      "stateMutability": "view",
      "type": "function"
    },
    {
      "inputs": [],
      "name": "syncTotalTokens",
      "outputs": [],
      "stateMutability": "nonpayable",
      "type": "function"
    },
    {
      "inputs": [],
      "name": "token",
      "outputs": [
        {
          "internalType": "contract HEROToken",
          "name": "",
          "type": "address"
        }
      ],
      "stateMutability": "view",
      "type": "function"
    },
    {
      "inputs": [
        {
          "internalType": "uint256",
          "name": "deadlineIn_",
          "type": "uint256"
        }
      ],
      "name": "updateDeadline",
      "outputs": [],
      "stateMutability": "nonpayable",
      "type": "function"
    },
    {
      "inputs": [
        {
          "internalType": "address",
          "name": "",
          "type": "address"
        }
      ],
      "name": "whitelist",
      "outputs": [
        {
          "internalType": "bool",
          "name": "",
          "type": "bool"
        }
      ],
      "stateMutability": "view",
      "type": "function"
    },
    {
      "stateMutability": "payable",
      "type": "receive"
    }
  ],
  "transactionHash": "0x8bedd979538a3c5472084d38ffd0b666330a3a7e3b2820193bbdd7fb12f10238",
  "args": [],
  "solcInputHash": "3fed38dea1b37055e57d49f185a6da40",
  "bytecode": "0x608060405234801561001057600080fd5b50336000806101000a81548173ffffffffffffffffffffffffffffffffffffffff021916908373ffffffffffffffffffffffffffffffffffffffff16021790555033600160006101000a81548173ffffffffffffffffffffffffffffffffffffffff021916908373ffffffffffffffffffffffffffffffffffffffff1602179055506120ce806100a16000396000f3fe6080604052600436106100e15760003560e01c8063a3df415f1161007f578063d25d4bcf11610059578063d25d4bcf146108d1578063e06174e4146108e8578063f77c47911461091a578063fc0c546a1461095b57610568565b8063a3df415f14610755578063ac71abde14610819578063b16a867c1461089f57610568565b806348785016116100bb578063487850161461060057806392eefe9b14610686578063974654c6146106d75780639b19251a146106ee57610568565b8063158ef93e1461056d57806329dcb0cf1461059a57806342af1884146105c557610568565b3661056857600754421061015d576040517f08c379a000000000000000000000000000000000000000000000000000000000815260040180806020018281038252600d8152602001807f4845524f50726573616c6523310000000000000000000000000000000000000081525060200191505060405180910390fd5b600860003373ffffffffffffffffffffffffffffffffffffffff1673ffffffffffffffffffffffffffffffffffffffff16815260200190815260200160002060009054906101000a900460ff1661021c576040517f08c379a000000000000000000000000000000000000000000000000000000000815260040180806020018281038252600d8152602001807f4845524f50726573616c6523320000000000000000000000000000000000000081525060200191505060405180910390fd5b6000341415610293576040517f08c379a000000000000000000000000000000000000000000000000000000000815260040180806020018281038252600d8152602001807f4845524f50726573616c6523330000000000000000000000000000000000000081525060200191505060405180910390fd5b60036001015434111561030e576040517f08c379a000000000000000000000000000000000000000000000000000000000815260040180806020018281038252600d8152602001807f4845524f50726573616c6523340000000000000000000000000000000000000081525060200191505060405180910390fd5b60006103286003600001543461099c90919063ffffffff16565b90506005600101548111156103a5576040517f08c379a000000000000000000000000000000000000000000000000000000000815260040180806020018281038252600d8152602001807f4845524f50726573616c6523350000000000000000000000000000000000000081525060200191505060405180910390fd5b6000600860003373ffffffffffffffffffffffffffffffffffffffff1673ffffffffffffffffffffffffffffffffffffffff16815260200190815260200160002060006101000a81548160ff0219169083151502179055506104166001600560000154610a4a90919063ffffffff16565b60056000018190555061043781600560010154610a4a90919063ffffffff16565b600560010181905550600260009054906101000a900473ffffffffffffffffffffffffffffffffffffffff1673ffffffffffffffffffffffffffffffffffffffff1663a9059cbb33836040518363ffffffff1660e01b8152600401808373ffffffffffffffffffffffffffffffffffffffff16815260200182815260200192505050602060405180830381600087803b1580156104d357600080fd5b505af11580156104e7573d6000803e3d6000fd5b505050506040513d60208110156104fd57600080fd5b8101908080519060200190929190505050503373ffffffffffffffffffffffffffffffffffffffff167f8fafebcaf9d154343dad25669bfa277f4fbacd7ac6b0c4fed522580e040a0f333483604051808381526020018281526020019250505060405180910390a250005b600080fd5b34801561057957600080fd5b50610582610acd565b60405180821515815260200191505060405180910390f35b3480156105a657600080fd5b506105af610b25565b6040518082815260200191505060405180910390f35b3480156105d157600080fd5b506105fe600480360360208110156105e857600080fd5b8101908080359060200190929190505050610b2b565b005b34801561060c57600080fd5b506106846004803603602081101561062357600080fd5b810190808035906020019064010000000081111561064057600080fd5b82018360208201111561065257600080fd5b8035906020019184602083028401116401000000008311171561067457600080fd5b9091929391929390505050610bf8565b005b34801561069257600080fd5b506106d5600480360360208110156106a957600080fd5b81019080803573ffffffffffffffffffffffffffffffffffffffff169060200190929190505050610fc0565b005b3480156106e357600080fd5b506106ec6111bf565b005b3480156106fa57600080fd5b5061073d6004803603602081101561071157600080fd5b81019080803573ffffffffffffffffffffffffffffffffffffffff16906020019092919050505061146f565b60405180821515815260200191505060405180910390f35b34801561076157600080fd5b50610817600480360360a081101561077857600080fd5b81019080803573ffffffffffffffffffffffffffffffffffffffff169060200190929190803590602001909291908035906020019092919080359060200190929190803590602001906401000000008111156107d357600080fd5b8201836020820111156107e557600080fd5b8035906020019184602083028401116401000000008311171561080757600080fd5b909192939192939050505061148f565b005b34801561082557600080fd5b5061089d6004803603602081101561083c57600080fd5b810190808035906020019064010000000081111561085957600080fd5b82018360208201111561086b57600080fd5b8035906020019184602083028401116401000000008311171561088d57600080fd5b90919293919293905050506118e3565b005b3480156108ab57600080fd5b506108b46119f2565b604051808381526020018281526020019250505060405180910390f35b3480156108dd57600080fd5b506108e6611a04565b005b3480156108f457600080fd5b506108fd611b94565b604051808381526020018281526020019250505060405180910390f35b34801561092657600080fd5b5061092f611ba6565b604051808273ffffffffffffffffffffffffffffffffffffffff16815260200191505060405180910390f35b34801561096757600080fd5b50610970611bca565b604051808273ffffffffffffffffffffffffffffffffffffffff16815260200191505060405180910390f35b6000808314806109ac5750600082145b156109ba5760009050610a44565b60008284029050828482816109cb57fe5b0414610a3f576040517f08c379a00000000000000000000000000000000000000000000000000000000081526004018080602001828103825260098152602001807f4d6174684c69622333000000000000000000000000000000000000000000000081525060200191505060405180910390fd5b809150505b92915050565b600082821115610ac2576040517f08c379a00000000000000000000000000000000000000000000000000000000081526004018080602001828103825260098152602001807f4d6174684c69622332000000000000000000000000000000000000000000000081525060200191505060405180910390fd5b818303905092915050565b60008073ffffffffffffffffffffffffffffffffffffffff16600160009054906101000a900473ffffffffffffffffffffffffffffffffffffffff1673ffffffffffffffffffffffffffffffffffffffff1614905090565b60075481565b60008054906101000a900473ffffffffffffffffffffffffffffffffffffffff1673ffffffffffffffffffffffffffffffffffffffff163373ffffffffffffffffffffffffffffffffffffffff1614610bec576040517f08c379a000000000000000000000000000000000000000000000000000000000815260040180806020018281038252600c8152602001807f436f6e74726f6c6c65642331000000000000000000000000000000000000000081525060200191505060405180910390fd5b610bf581611bf0565b50565b60008054906101000a900473ffffffffffffffffffffffffffffffffffffffff1673ffffffffffffffffffffffffffffffffffffffff163373ffffffffffffffffffffffffffffffffffffffff1614610cb9576040517f08c379a000000000000000000000000000000000000000000000000000000000815260040180806020018281038252600c8152602001807f436f6e74726f6c6c65642331000000000000000000000000000000000000000081525060200191505060405180910390fd5b60008083839050905060005b81811015610f2157600073ffffffffffffffffffffffffffffffffffffffff16858583818110610cf157fe5b9050602002013573ffffffffffffffffffffffffffffffffffffffff1673ffffffffffffffffffffffffffffffffffffffff161415610d98576040517f08c379a000000000000000000000000000000000000000000000000000000000815260040180806020018281038252600d8152602001807f4845524f50726573616c6523370000000000000000000000000000000000000081525060200191505060405180910390fd5b60086000868684818110610da857fe5b9050602002013573ffffffffffffffffffffffffffffffffffffffff1673ffffffffffffffffffffffffffffffffffffffff1673ffffffffffffffffffffffffffffffffffffffff16815260200190815260200160002060009054906101000a900460ff1615610f1457600060086000878785818110610e2457fe5b9050602002013573ffffffffffffffffffffffffffffffffffffffff1673ffffffffffffffffffffffffffffffffffffffff1673ffffffffffffffffffffffffffffffffffffffff16815260200190815260200160002060006101000a81548160ff021916908315150217905550610ea6600184611c4590919063ffffffff16565b9250848482818110610eb457fe5b9050602002013573ffffffffffffffffffffffffffffffffffffffff1673ffffffffffffffffffffffffffffffffffffffff167fbf2e373b8263f701e10efcac80ea442afcb29c6852b3a42b0b46cc8edaaf54a760405160405180910390a25b8080600101915050610cc5565b506000821415610f99576040517f08c379a000000000000000000000000000000000000000000000000000000000815260040180806020018281038252600d8152602001807f4845524f50726573616c6523380000000000000000000000000000000000000081525060200191505060405180910390fd5b610fb182600560000154610a4a90919063ffffffff16565b60056000018190555050505050565b60008054906101000a900473ffffffffffffffffffffffffffffffffffffffff1673ffffffffffffffffffffffffffffffffffffffff163373ffffffffffffffffffffffffffffffffffffffff1614611081576040517f08c379a000000000000000000000000000000000000000000000000000000000815260040180806020018281038252600c8152602001807f436f6e74726f6c6c65642331000000000000000000000000000000000000000081525060200191505060405180910390fd5b600073ffffffffffffffffffffffffffffffffffffffff168173ffffffffffffffffffffffffffffffffffffffff161415801561110a575060008054906101000a900473ffffffffffffffffffffffffffffffffffffffff1673ffffffffffffffffffffffffffffffffffffffff168173ffffffffffffffffffffffffffffffffffffffff1614155b61117c576040517f08c379a000000000000000000000000000000000000000000000000000000000815260040180806020018281038252600c8152602001807f436f6e74726f6c6c65642332000000000000000000000000000000000000000081525060200191505060405180910390fd5b806000806101000a81548173ffffffffffffffffffffffffffffffffffffffff021916908373ffffffffffffffffffffffffffffffffffffffff16021790555050565b60008054906101000a900473ffffffffffffffffffffffffffffffffffffffff1673ffffffffffffffffffffffffffffffffffffffff163373ffffffffffffffffffffffffffffffffffffffff1614611280576040517f08c379a000000000000000000000000000000000000000000000000000000000815260040180806020018281038252600c8152602001807f436f6e74726f6c6c65642331000000000000000000000000000000000000000081525060200191505060405180910390fd5b6007544210156112f8576040517f08c379a000000000000000000000000000000000000000000000000000000000815260040180806020018281038252600d8152602001807f4845524f50726573616c6523390000000000000000000000000000000000000081525060200191505060405180910390fd5b6000600260009054906101000a900473ffffffffffffffffffffffffffffffffffffffff1673ffffffffffffffffffffffffffffffffffffffff166370a08231306040518263ffffffff1660e01b8152600401808273ffffffffffffffffffffffffffffffffffffffff16815260200191505060206040518083038186803b15801561138357600080fd5b505afa158015611397573d6000803e3d6000fd5b505050506040513d60208110156113ad57600080fd5b810190808051906020019092919050505090506000811461145657600260009054906101000a900473ffffffffffffffffffffffffffffffffffffffff1673ffffffffffffffffffffffffffffffffffffffff166342966c68826040518263ffffffff1660e01b815260040180828152602001915050600060405180830381600087803b15801561143d57600080fd5b505af1158015611451573d6000803e3d6000fd5b505050505b3373ffffffffffffffffffffffffffffffffffffffff16ff5b60086020528060005260406000206000915054906101000a900460ff1681565b600073ffffffffffffffffffffffffffffffffffffffff16600160009054906101000a900473ffffffffffffffffffffffffffffffffffffffff1673ffffffffffffffffffffffffffffffffffffffff161415611554576040517f08c379a000000000000000000000000000000000000000000000000000000000815260040180806020018281038252600f8152602001807f496e697469616c697a61626c652331000000000000000000000000000000000081525060200191505060405180910390fd5b600160009054906101000a900473ffffffffffffffffffffffffffffffffffffffff1673ffffffffffffffffffffffffffffffffffffffff163373ffffffffffffffffffffffffffffffffffffffff1614611617576040517f08c379a000000000000000000000000000000000000000000000000000000000815260040180806020018281038252600f8152602001807f496e697469616c697a61626c652332000000000000000000000000000000000081525060200191505060405180910390fd5b6000600160006101000a81548173ffffffffffffffffffffffffffffffffffffffff021916908373ffffffffffffffffffffffffffffffffffffffff160217905550600073ffffffffffffffffffffffffffffffffffffffff168673ffffffffffffffffffffffffffffffffffffffff1614156116fc576040517f08c379a000000000000000000000000000000000000000000000000000000000815260040180806020018281038252600d8152602001807f4845524f50726573616c6523360000000000000000000000000000000000000081525060200191505060405180910390fd5b85600260006101000a81548173ffffffffffffffffffffffffffffffffffffffff021916908373ffffffffffffffffffffffffffffffffffffffff160217905550600260009054906101000a900473ffffffffffffffffffffffffffffffffffffffff1673ffffffffffffffffffffffffffffffffffffffff166370a08231306040518263ffffffff1660e01b8152600401808273ffffffffffffffffffffffffffffffffffffffff16815260200191505060206040518083038186803b1580156117c657600080fd5b505afa1580156117da573d6000803e3d6000fd5b505050506040513d60208110156117f057600080fd5b810190808051906020019092919050505060056001018190555061183d6000861461181b5785611820565b62030d405b6000861461182e5785611838565b670de0b6b3a76400005b611ccd565b61185960008414156118525762127500611854565b835b611bf0565b600082829050146118af576118ae828280806020026020016040519081016040528093929190818152602001838360200280828437600081840152601f19601f82011690508083019250505050505050611e12565b5b7f5daa87a0e9463431830481fd4b6e3403442dfb9a12b9c07597e9f61d50b633c860405160405180910390a1505050505050565b60008054906101000a900473ffffffffffffffffffffffffffffffffffffffff1673ffffffffffffffffffffffffffffffffffffffff163373ffffffffffffffffffffffffffffffffffffffff16146119a4576040517f08c379a000000000000000000000000000000000000000000000000000000000815260040180806020018281038252600c8152602001807f436f6e74726f6c6c65642331000000000000000000000000000000000000000081525060200191505060405180910390fd5b6119ee828280806020026020016040519081016040528093929190818152602001838360200280828437600081840152601f19601f82011690508083019250505050505050611e12565b5050565b60058060000154908060010154905082565b60008054906101000a900473ffffffffffffffffffffffffffffffffffffffff1673ffffffffffffffffffffffffffffffffffffffff163373ffffffffffffffffffffffffffffffffffffffff1614611ac5576040517f08c379a000000000000000000000000000000000000000000000000000000000815260040180806020018281038252600c8152602001807f436f6e74726f6c6c65642331000000000000000000000000000000000000000081525060200191505060405180910390fd5b600260009054906101000a900473ffffffffffffffffffffffffffffffffffffffff1673ffffffffffffffffffffffffffffffffffffffff166370a08231306040518263ffffffff1660e01b8152600401808273ffffffffffffffffffffffffffffffffffffffff16815260200191505060206040518083038186803b158015611b4e57600080fd5b505afa158015611b62573d6000803e3d6000fd5b505050506040513d6020811015611b7857600080fd5b8101908080519060200190929190505050600560010181905550565b60038060000154908060010154905082565b60008054906101000a900473ffffffffffffffffffffffffffffffffffffffff1681565b600260009054906101000a900473ffffffffffffffffffffffffffffffffffffffff1681565b611c038142611c4590919063ffffffff16565b6007819055507fdb00f0341e024be397e058a193a27b85cc3e7f921640be77ddf155c9f8d37c5a6007546040518082815260200191505060405180910390a150565b600080828401905083811015611cc3576040517f08c379a00000000000000000000000000000000000000000000000000000000081526004018080602001828103825260098152602001807f4d6174684c69622331000000000000000000000000000000000000000000000081525060200191505060405180910390fd5b8091505092915050565b6000821415611d44576040517f08c379a000000000000000000000000000000000000000000000000000000000815260040180806020018281038252600e8152602001807f4845524f50726573616c6523313000000000000000000000000000000000000081525060200191505060405180910390fd5b6000811415611dbb576040517f08c379a000000000000000000000000000000000000000000000000000000000815260040180806020018281038252600e8152602001807f4845524f50726573616c6523313100000000000000000000000000000000000081525060200191505060405180910390fd5b81600360000181905550806003600101819055507f290c7608baac88950f6f2bf919aee31e5caf8c7bf387f0e489159253ad2e39d58282604051808381526020018281526020019250505060405180910390a15050565b6000808251905060005b8181101561202357600073ffffffffffffffffffffffffffffffffffffffff16848281518110611e4857fe5b602002602001015173ffffffffffffffffffffffffffffffffffffffff161415611eda576040517f08c379a000000000000000000000000000000000000000000000000000000000815260040180806020018281038252600e8152602001807f4845524f50726573616c6523313200000000000000000000000000000000000081525060200191505060405180910390fd5b60086000858381518110611eea57fe5b602002602001015173ffffffffffffffffffffffffffffffffffffffff1673ffffffffffffffffffffffffffffffffffffffff16815260200190815260200160002060009054906101000a900460ff1661201657600160086000868481518110611f5057fe5b602002602001015173ffffffffffffffffffffffffffffffffffffffff1673ffffffffffffffffffffffffffffffffffffffff16815260200190815260200160002060006101000a81548160ff021916908315150217905550611fbd600184611c4590919063ffffffff16565b9250838181518110611fcb57fe5b602002602001015173ffffffffffffffffffffffffffffffffffffffff167f8f42195a0bbfa58954be4349deb9efc38bdb9c298e529f705f8bc1e38bce039960405160405180910390a25b8080600101915050611e1c565b50600082141561209b576040517f08c379a000000000000000000000000000000000000000000000000000000000815260040180806020018281038252600e8152602001807f4845524f50726573616c6523313300000000000000000000000000000000000081525060200191505060405180910390fd5b6120b382600560000154611c4590919063ffffffff16565b60056000018190555050505056fea164736f6c634300060c000a",
  "devdoc": {
    "kind": "dev",
    "methods": {
      "constructor": {
        "details": "Public constructor"
      }
    },
    "title": "HERO presale",
    "version": 1
  },
  "userdoc": {
    "kind": "user",
    "methods": {},
    "version": 1
  },
  "storageLayout": {
    "storage": [
      {
        "astId": 2642,
        "contract": "src/HEROPresale.sol:HEROPresale",
        "label": "controller",
        "offset": 0,
        "slot": "0",
        "type": "t_address"
      },
      {
        "astId": 2815,
        "contract": "src/HEROPresale.sol:HEROPresale",
        "label": "initializer",
        "offset": 0,
        "slot": "1",
        "type": "t_address"
      },
      {
        "astId": 42,
        "contract": "src/HEROPresale.sol:HEROPresale",
        "label": "token",
        "offset": 0,
        "slot": "2",
        "type": "t_contract(HEROToken)646"
      },
      {
        "astId": 44,
        "contract": "src/HEROPresale.sol:HEROPresale",
        "label": "settings",
        "offset": 0,
        "slot": "3",
        "type": "t_struct(Settings)18_storage"
      },
      {
        "astId": 46,
        "contract": "src/HEROPresale.sol:HEROPresale",
        "label": "summary",
        "offset": 0,
        "slot": "5",
        "type": "t_struct(Summary)23_storage"
      },
      {
        "astId": 48,
        "contract": "src/HEROPresale.sol:HEROPresale",
        "label": "deadline",
        "offset": 0,
        "slot": "7",
        "type": "t_uint256"
      },
      {
        "astId": 52,
        "contract": "src/HEROPresale.sol:HEROPresale",
        "label": "whitelist",
        "offset": 0,
        "slot": "8",
        "type": "t_mapping(t_address,t_bool)"
      }
    ],
    "types": {
      "t_address": {
        "encoding": "inplace",
        "label": "address",
        "numberOfBytes": "20"
      },
      "t_bool": {
        "encoding": "inplace",
        "label": "bool",
        "numberOfBytes": "1"
      },
      "t_contract(HEROToken)646": {
        "encoding": "inplace",
        "label": "contract HEROToken",
        "numberOfBytes": "20"
      },
      "t_mapping(t_address,t_bool)": {
        "encoding": "mapping",
        "key": "t_address",
        "label": "mapping(address => bool)",
        "numberOfBytes": "32",
        "value": "t_bool"
      },
      "t_struct(Settings)18_storage": {
        "encoding": "inplace",
        "label": "struct HEROPresale.Settings",
        "members": [
          {
            "astId": 15,
            "contract": "src/HEROPresale.sol:HEROPresale",
            "label": "tokensAmountPerNative",
            "offset": 0,
            "slot": "0",
            "type": "t_uint256"
          },
          {
            "astId": 17,
            "contract": "src/HEROPresale.sol:HEROPresale",
            "label": "maxPurchasePrice",
            "offset": 0,
            "slot": "1",
            "type": "t_uint256"
          }
        ],
        "numberOfBytes": "64"
      },
      "t_struct(Summary)23_storage": {
        "encoding": "inplace",
        "label": "struct HEROPresale.Summary",
        "members": [
          {
            "astId": 20,
            "contract": "src/HEROPresale.sol:HEROPresale",
            "label": "totalAccounts",
            "offset": 0,
            "slot": "0",
            "type": "t_uint256"
          },
          {
            "astId": 22,
            "contract": "src/HEROPresale.sol:HEROPresale",
            "label": "totalTokens",
            "offset": 0,
            "slot": "1",
            "type": "t_uint256"
          }
        ],
        "numberOfBytes": "64"
      },
      "t_uint256": {
        "encoding": "inplace",
        "label": "uint256",
        "numberOfBytes": "32"
      }
    }
  }
}