{
  "address": "0xC1a3bC1dAAd0aA9433986199672380541aeB6C7E",
  "abi": [
    {
      "inputs": [],
      "stateMutability": "nonpayable",
      "type": "constructor"
    },
    {
      "anonymous": false,
      "inputs": [
        {
          "indexed": false,
          "internalType": "address",
          "name": "token",
          "type": "address"
        }
      ],
      "name": "Initialized",
      "type": "event"
    },
    {
      "inputs": [
        {
          "internalType": "address payable",
          "name": "account",
          "type": "address"
        },
        {
          "internalType": "address[]",
          "name": "tokens",
          "type": "address[]"
        },
        {
          "internalType": "address[]",
          "name": "spenders",
          "type": "address[]"
        }
      ],
      "name": "getAllowances",
      "outputs": [
        {
          "internalType": "uint256[]",
          "name": "result",
          "type": "uint256[]"
        }
      ],
      "stateMutability": "view",
      "type": "function"
    },
    {
      "inputs": [
        {
          "internalType": "address payable",
          "name": "account",
          "type": "address"
        },
        {
          "internalType": "address[]",
          "name": "tokens",
          "type": "address[]"
        }
      ],
      "name": "getBalances",
      "outputs": [
        {
          "internalType": "uint256",
          "name": "nativeBalance",
          "type": "uint256"
        },
        {
          "internalType": "uint256",
          "name": "tokenHoldingBalance",
          "type": "uint256"
        },
        {
          "internalType": "uint256",
          "name": "tokenTotalRewards",
          "type": "uint256"
        },
        {
          "internalType": "uint256[]",
          "name": "tokensBalances",
          "type": "uint256[]"
        }
      ],
      "stateMutability": "view",
      "type": "function"
    },
    {
      "inputs": [
        {
          "internalType": "address",
          "name": "token_",
          "type": "address"
        }
      ],
      "name": "initialize",
      "outputs": [],
      "stateMutability": "nonpayable",
      "type": "function"
    },
    {
      "inputs": [],
      "name": "initialized",
      "outputs": [
        {
          "internalType": "bool",
          "name": "",
          "type": "bool"
        }
      ],
      "stateMutability": "view",
      "type": "function"
    },
    {
      "inputs": [],
      "name": "token",
      "outputs": [
        {
          "internalType": "contract MetaheroToken",
          "name": "",
          "type": "address"
        }
      ],
      "stateMutability": "view",
      "type": "function"
    }
  ],
  "transactionHash": "0x89451f5d0ad216010bf4056cd6332e1b81290edb7dcb33d6634ccebf1fbd1a9c",
  "args": [],
  "solcInputHash": "470390735dd8599e987ece831fb29c59",
  "bytecode": "0x608060405234801561001057600080fd5b50336000806101000a81548173ffffffffffffffffffffffffffffffffffffffff021916908373ffffffffffffffffffffffffffffffffffffffff16021790555061108d806100606000396000f3fe608060405234801561001057600080fd5b50600436106100575760003560e01c8063158ef93e1461005c5780636a385ae91461007a578063bf16b13a146100ad578063c4d66de8146100dd578063fc0c546a146100f9575b600080fd5b610064610117565b6040516100719190610e12565b60405180910390f35b610094600480360381019061008f9190610a0d565b61016d565b6040516100a49493929190610ea8565b60405180910390f35b6100c760048036038101906100c29190610a65565b610480565b6040516100d49190610df0565b60405180910390f35b6100f760048036038101906100f291906109e4565b6106eb565b005b610101610935565b60405161010e9190610e2d565b60405180910390f35b60008073ffffffffffffffffffffffffffffffffffffffff1660008054906101000a900473ffffffffffffffffffffffffffffffffffffffff1673ffffffffffffffffffffffffffffffffffffffff1614905090565b600080600060608673ffffffffffffffffffffffffffffffffffffffff16319350600160009054906101000a900473ffffffffffffffffffffffffffffffffffffffff1673ffffffffffffffffffffffffffffffffffffffff16632d380315886040518263ffffffff1660e01b81526004016101e99190610d68565b60606040518083038186803b15801561020157600080fd5b505afa158015610215573d6000803e3d6000fd5b505050506040513d601f19601f820116820180604052508101906102399190610b17565b9091508093508194505050600086869050905060008114610476578067ffffffffffffffff8111801561026b57600080fd5b5060405190808252806020026020018201604052801561029a5781602001602082028036833780820191505090505b50915060005b818110156104745760008888838181106102b657fe5b90506020020160208101906102cb91906109e4565b90506000813b9050600081146104655760008273ffffffffffffffffffffffffffffffffffffffff166370a0823160e01b8d60405160240161030d9190610d83565b604051602081830303815290604052907bffffffffffffffffffffffffffffffffffffffffffffffffffffffff19166020820180517bffffffffffffffffffffffffffffffffffffffffffffffffffffffff83818316178352505050506040516103779190610d36565b600060405180830381855afa9150503d80600081146103b2576040519150601f19603f3d011682016040523d82523d6000602084013e6103b7565b606091505b505090508015610463578273ffffffffffffffffffffffffffffffffffffffff166370a082318d6040518263ffffffff1660e01b81526004016103fa9190610d68565b60206040518083038186803b15801561041257600080fd5b505afa158015610426573d6000803e3d6000fd5b505050506040513d601f19601f8201168201806040525081019061044a9190610aee565b86858151811061045657fe5b6020026020010181815250505b505b505080806001019150506102a0565b505b5093509350935093565b60606000858590509050838390508114156106e1578067ffffffffffffffff811180156104ac57600080fd5b506040519080825280602002602001820160405280156104db5781602001602082028036833780820191505090505b50915060005b818110156106df5760008787838181106104f757fe5b905060200201602081019061050c91906109e4565b9050600086868481811061051c57fe5b905060200201602081019061053191906109e4565b90506000823b9050600081146106cf5760008373ffffffffffffffffffffffffffffffffffffffff1663dd62ed3e60e01b8d85604051602401610575929190610d9e565b604051602081830303815290604052907bffffffffffffffffffffffffffffffffffffffffffffffffffffffff19166020820180517bffffffffffffffffffffffffffffffffffffffffffffffffffffffff83818316178352505050506040516105df9190610d36565b600060405180830381855afa9150503d806000811461061a576040519150601f19603f3d011682016040523d82523d6000602084013e61061f565b606091505b5050905080156106cd578373ffffffffffffffffffffffffffffffffffffffff1663dd62ed3e8d856040518363ffffffff1660e01b8152600401610664929190610dc7565b60206040518083038186803b15801561067c57600080fd5b505afa158015610690573d6000803e3d6000fd5b505050506040513d601f19601f820116820180604052508101906106b49190610aee565b8786815181106106c057fe5b6020026020010181815250505b505b50505080806001019150506104e1565b505b5095945050505050565b600073ffffffffffffffffffffffffffffffffffffffff1660008054906101000a900473ffffffffffffffffffffffffffffffffffffffff1673ffffffffffffffffffffffffffffffffffffffff16141561077b576040517f08c379a000000000000000000000000000000000000000000000000000000000815260040161077290610e68565b60405180910390fd5b60008054906101000a900473ffffffffffffffffffffffffffffffffffffffff1673ffffffffffffffffffffffffffffffffffffffff163373ffffffffffffffffffffffffffffffffffffffff1614610809576040517f08c379a000000000000000000000000000000000000000000000000000000000815260040161080090610e48565b60405180910390fd5b60008060006101000a81548173ffffffffffffffffffffffffffffffffffffffff021916908373ffffffffffffffffffffffffffffffffffffffff160217905550600073ffffffffffffffffffffffffffffffffffffffff168173ffffffffffffffffffffffffffffffffffffffff1614156108ba576040517f08c379a00000000000000000000000000000000000000000000000000000000081526004016108b190610e88565b60405180910390fd5b80600160006101000a81548173ffffffffffffffffffffffffffffffffffffffff021916908373ffffffffffffffffffffffffffffffffffffffff1602179055507f908408e307fc569b417f6cbec5d5a06f44a0a505ac0479b47d421a4b2fd6a1e68160405161092a9190610d4d565b60405180910390a150565b600160009054906101000a900473ffffffffffffffffffffffffffffffffffffffff1681565b60008135905061096a8161103b565b92915050565b60008135905061097f81611052565b92915050565b60008083601f84011261099757600080fd5b8235905067ffffffffffffffff8111156109b057600080fd5b6020830191508360208202830111156109c857600080fd5b9250929050565b6000815190506109de81611069565b92915050565b6000602082840312156109f657600080fd5b6000610a048482850161095b565b91505092915050565b600080600060408486031215610a2257600080fd5b6000610a3086828701610970565b935050602084013567ffffffffffffffff811115610a4d57600080fd5b610a5986828701610985565b92509250509250925092565b600080600080600060608688031215610a7d57600080fd5b6000610a8b88828901610970565b955050602086013567ffffffffffffffff811115610aa857600080fd5b610ab488828901610985565b9450945050604086013567ffffffffffffffff811115610ad357600080fd5b610adf88828901610985565b92509250509295509295909350565b600060208284031215610b0057600080fd5b6000610b0e848285016109cf565b91505092915050565b600080600060608486031215610b2c57600080fd5b6000610b3a868287016109cf565b9350506020610b4b868287016109cf565b9250506040610b5c868287016109cf565b9150509250925092565b6000610b728383610d18565b60208301905092915050565b610b8781610fae565b82525050565b610b9681610f66565b82525050565b610ba581610f54565b82525050565b6000610bb682610f04565b610bc08185610f27565b9350610bcb83610ef4565b8060005b83811015610bfc578151610be38882610b66565b9750610bee83610f1a565b925050600181019050610bcf565b5085935050505092915050565b610c1281610f78565b82525050565b6000610c2382610f0f565b610c2d8185610f38565b9350610c3d818560208601611008565b80840191505092915050565b610c5281610fc0565b82525050565b6000610c65600f83610f43565b91507f496e697469616c697a61626c65233200000000000000000000000000000000006000830152602082019050919050565b6000610ca5600f83610f43565b91507f496e697469616c697a61626c65233100000000000000000000000000000000006000830152602082019050919050565b6000610ce5601483610f43565b91507f4d6574616865726f5377617048656c70657223310000000000000000000000006000830152602082019050919050565b610d2181610fa4565b82525050565b610d3081610fa4565b82525050565b6000610d428284610c18565b915081905092915050565b6000602082019050610d626000830184610b9c565b92915050565b6000602082019050610d7d6000830184610b7e565b92915050565b6000602082019050610d986000830184610b8d565b92915050565b6000604082019050610db36000830185610b8d565b610dc06020830184610b9c565b9392505050565b6000604082019050610ddc6000830185610b7e565b610de96020830184610b9c565b9392505050565b60006020820190508181036000830152610e0a8184610bab565b905092915050565b6000602082019050610e276000830184610c09565b92915050565b6000602082019050610e426000830184610c49565b92915050565b60006020820190508181036000830152610e6181610c58565b9050919050565b60006020820190508181036000830152610e8181610c98565b9050919050565b60006020820190508181036000830152610ea181610cd8565b9050919050565b6000608082019050610ebd6000830187610d27565b610eca6020830186610d27565b610ed76040830185610d27565b8181036060830152610ee98184610bab565b905095945050505050565b6000819050602082019050919050565b600081519050919050565b600081519050919050565b6000602082019050919050565b600082825260208201905092915050565b600081905092915050565b600082825260208201905092915050565b6000610f5f82610f84565b9050919050565b6000610f7182610f84565b9050919050565b60008115159050919050565b600073ffffffffffffffffffffffffffffffffffffffff82169050919050565b6000819050919050565b6000610fb982610fe4565b9050919050565b6000610fcb82610fd2565b9050919050565b6000610fdd82610f84565b9050919050565b6000610fef82610ff6565b9050919050565b600061100182610f84565b9050919050565b60005b8381101561102657808201518184015260208101905061100b565b83811115611035576000848401525b50505050565b61104481610f54565b811461104f57600080fd5b50565b61105b81610f66565b811461106657600080fd5b50565b61107281610fa4565b811461107d57600080fd5b5056fea164736f6c634300060c000a",
  "devdoc": {
    "author": "Stanisaw Gogowski <stan@metahero.io>",
    "events": {
      "Initialized(address)": {
        "details": "Emitted when the contract is initialized",
        "params": {
          "token": "token address"
        }
      }
    },
    "kind": "dev",
    "methods": {
      "constructor": {
        "details": "Public constructor"
      },
      "initialize(address)": {
        "details": "Initializes the contract",
        "params": {
          "token_": "token address"
        }
      },
      "initialized()": {
        "returns": {
          "_0": "true when contract is initialized"
        }
      }
    },
    "title": "Metahero swap helper",
    "version": 1
  },
  "userdoc": {
    "kind": "user",
    "methods": {
      "initialized()": {
        "notice": "Checks if contract is initialized"
      }
    },
    "version": 1
  },
  "storageLayout": {
    "storage": [
      {
        "astId": 6286,
        "contract": "src/MetaheroSwapHelper.sol:MetaheroSwapHelper",
        "label": "initializer",
        "offset": 0,
        "slot": "0",
        "type": "t_address"
      },
      {
        "astId": 2324,
        "contract": "src/MetaheroSwapHelper.sol:MetaheroSwapHelper",
        "label": "token",
        "offset": 0,
        "slot": "1",
        "type": "t_contract(MetaheroToken)4898"
      }
    ],
    "types": {
      "t_address": {
        "encoding": "inplace",
        "label": "address",
        "numberOfBytes": "20"
      },
      "t_contract(MetaheroToken)4898": {
        "encoding": "inplace",
        "label": "contract MetaheroToken",
        "numberOfBytes": "20"
      }
    }
  }
}