{
  "address": "0xD39B851F42c22A07A39780DcB0E88F8F344d9587",
  "abi": [
    {
      "inputs": [],
      "stateMutability": "nonpayable",
      "type": "constructor"
    },
    {
      "anonymous": false,
      "inputs": [
        {
          "indexed": true,
          "internalType": "address",
          "name": "owner",
          "type": "address"
        },
        {
          "indexed": true,
          "internalType": "address",
          "name": "spender",
          "type": "address"
        },
        {
          "indexed": false,
          "internalType": "uint256",
          "name": "value",
          "type": "uint256"
        }
      ],
      "name": "Approval",
      "type": "event"
    },
    {
      "anonymous": false,
      "inputs": [
        {
          "indexed": false,
          "internalType": "address",
          "name": "token",
          "type": "address"
        }
      ],
      "name": "Initialized",
      "type": "event"
    },
    {
      "anonymous": false,
      "inputs": [
        {
          "indexed": true,
          "internalType": "address",
          "name": "from",
          "type": "address"
        },
        {
          "indexed": true,
          "internalType": "address",
          "name": "to",
          "type": "address"
        },
        {
          "indexed": false,
          "internalType": "uint256",
          "name": "value",
          "type": "uint256"
        }
      ],
      "name": "Transfer",
      "type": "event"
    },
    {
      "inputs": [
        {
          "internalType": "address",
          "name": "owner",
          "type": "address"
        },
        {
          "internalType": "address",
          "name": "spender",
          "type": "address"
        }
      ],
      "name": "allowance",
      "outputs": [
        {
          "internalType": "uint256",
          "name": "",
          "type": "uint256"
        }
      ],
      "stateMutability": "view",
      "type": "function"
    },
    {
      "inputs": [
        {
          "internalType": "address",
          "name": "spender",
          "type": "address"
        },
        {
          "internalType": "uint256",
          "name": "amount",
          "type": "uint256"
        }
      ],
      "name": "approve",
      "outputs": [
        {
          "internalType": "bool",
          "name": "",
          "type": "bool"
        }
      ],
      "stateMutability": "nonpayable",
      "type": "function"
    },
    {
      "inputs": [
        {
          "internalType": "address",
          "name": "account",
          "type": "address"
        }
      ],
      "name": "balanceOf",
      "outputs": [
        {
          "internalType": "uint256",
          "name": "",
          "type": "uint256"
        }
      ],
      "stateMutability": "view",
      "type": "function"
    },
    {
      "inputs": [],
      "name": "decimals",
      "outputs": [
        {
          "internalType": "uint8",
          "name": "",
          "type": "uint8"
        }
      ],
      "stateMutability": "view",
      "type": "function"
    },
    {
      "inputs": [
        {
          "internalType": "uint256",
          "name": "amount",
          "type": "uint256"
        }
      ],
      "name": "deposit",
      "outputs": [
        {
          "internalType": "bool",
          "name": "",
          "type": "bool"
        }
      ],
      "stateMutability": "nonpayable",
      "type": "function"
    },
    {
      "inputs": [
        {
          "internalType": "address",
          "name": "recipient",
          "type": "address"
        },
        {
          "internalType": "uint256",
          "name": "amount",
          "type": "uint256"
        }
      ],
      "name": "depositTo",
      "outputs": [
        {
          "internalType": "bool",
          "name": "",
          "type": "bool"
        }
      ],
      "stateMutability": "nonpayable",
      "type": "function"
    },
    {
      "inputs": [
        {
          "internalType": "address",
          "name": "token_",
          "type": "address"
        }
      ],
      "name": "initialize",
      "outputs": [],
      "stateMutability": "nonpayable",
      "type": "function"
    },
    {
      "inputs": [],
      "name": "initialized",
      "outputs": [
        {
          "internalType": "bool",
          "name": "",
          "type": "bool"
        }
      ],
      "stateMutability": "view",
      "type": "function"
    },
    {
      "inputs": [],
      "name": "name",
      "outputs": [
        {
          "internalType": "string",
          "name": "",
          "type": "string"
        }
      ],
      "stateMutability": "view",
      "type": "function"
    },
    {
      "inputs": [],
      "name": "symbol",
      "outputs": [
        {
          "internalType": "string",
          "name": "",
          "type": "string"
        }
      ],
      "stateMutability": "view",
      "type": "function"
    },
    {
      "inputs": [],
      "name": "token",
      "outputs": [
        {
          "internalType": "contract MetaheroToken",
          "name": "",
          "type": "address"
        }
      ],
      "stateMutability": "view",
      "type": "function"
    },
    {
      "inputs": [],
      "name": "totalSupply",
      "outputs": [
        {
          "internalType": "uint256",
          "name": "",
          "type": "uint256"
        }
      ],
      "stateMutability": "view",
      "type": "function"
    },
    {
      "inputs": [
        {
          "internalType": "address",
          "name": "recipient",
          "type": "address"
        },
        {
          "internalType": "uint256",
          "name": "amount",
          "type": "uint256"
        }
      ],
      "name": "transfer",
      "outputs": [
        {
          "internalType": "bool",
          "name": "",
          "type": "bool"
        }
      ],
      "stateMutability": "nonpayable",
      "type": "function"
    },
    {
      "inputs": [
        {
          "internalType": "address",
          "name": "sender",
          "type": "address"
        },
        {
          "internalType": "address",
          "name": "recipient",
          "type": "address"
        },
        {
          "internalType": "uint256",
          "name": "amount",
          "type": "uint256"
        }
      ],
      "name": "transferFrom",
      "outputs": [
        {
          "internalType": "bool",
          "name": "",
          "type": "bool"
        }
      ],
      "stateMutability": "nonpayable",
      "type": "function"
    },
    {
      "inputs": [
        {
          "internalType": "uint256",
          "name": "amount",
          "type": "uint256"
        }
      ],
      "name": "withdraw",
      "outputs": [
        {
          "internalType": "bool",
          "name": "",
          "type": "bool"
        }
      ],
      "stateMutability": "nonpayable",
      "type": "function"
    },
    {
      "inputs": [
        {
          "internalType": "address",
          "name": "recipient",
          "type": "address"
        },
        {
          "internalType": "uint256",
          "name": "amount",
          "type": "uint256"
        }
      ],
      "name": "withdrawTo",
      "outputs": [
        {
          "internalType": "bool",
          "name": "",
          "type": "bool"
        }
      ],
      "stateMutability": "nonpayable",
      "type": "function"
    }
  ],
  "transactionHash": "0x71040b2edf61734331bf6a30e3ef1265265a6ff4e9b92c0d074bc57b6acfd77e",
  "args": [],
  "solcInputHash": "fbb3beed1f7106e45d8ec3191ae17889",
  "bytecode": "0x60806040523480156200001157600080fd5b506040518060400160405280601081526020017f57726170706564204d6574616865726f000000000000000000000000000000008152506040518060400160405280600581526020017f574845524f000000000000000000000000000000000000000000000000000000815250601282600090805190602001906200009892919062000117565b508160019080519060200190620000b192919062000117565b5080600260006101000a81548160ff021916908360ff16021790555050505033600260016101000a81548173ffffffffffffffffffffffffffffffffffffffff021916908373ffffffffffffffffffffffffffffffffffffffff160217905550620001bd565b828054600181600116156101000203166002900490600052602060002090601f016020900481019282601f106200015a57805160ff19168380011785556200018b565b828001600101855582156200018b579182015b828111156200018a5782518255916020019190600101906200016d565b5b5090506200019a91906200019e565b5090565b5b80821115620001b95760008160009055506001016200019f565b5090565b61209b80620001cd6000396000f3fe608060405234801561001057600080fd5b50600436106101005760003560e01c806370a0823111610097578063c4d66de811610066578063c4d66de8146102eb578063dd62ed3e14610307578063fc0c546a14610337578063ffaad6a51461035557610100565b806370a082311461023d57806395d89b411461026d578063a9059cbb1461028b578063b6b55f25146102bb57610100565b8063205c2878116100d3578063205c28781461018f57806323b872dd146101bf5780632e1a7d4d146101ef578063313ce5671461021f57610100565b806306fdde0314610105578063095ea7b314610123578063158ef93e1461015357806318160ddd14610171575b600080fd5b61010d610385565b60405161011a9190611d18565b60405180910390f35b61013d6004803603810190610138919061172c565b610423565b60405161014a9190611ce2565b60405180910390f35b61015b61043a565b6040516101689190611ce2565b60405180910390f35b610179610492565b6040516101869190611f3a565b60405180910390f35b6101a960048036038101906101a4919061172c565b610498565b6040516101b69190611ce2565b60405180910390f35b6101d960048036038101906101d491906116dd565b6104af565b6040516101e69190611ce2565b60405180910390f35b61020960048036038101906102049190611791565b6105a9565b6040516102169190611ce2565b60405180910390f35b6102276105bf565b6040516102349190611f55565b60405180910390f35b61025760048036038101906102529190611678565b6105d2565b6040516102649190611f3a565b60405180910390f35b61027561061b565b6040516102829190611d18565b60405180910390f35b6102a560048036038101906102a0919061172c565b6106b9565b6040516102b29190611ce2565b60405180910390f35b6102d560048036038101906102d09190611791565b6106d0565b6040516102e29190611ce2565b60405180910390f35b61030560048036038101906103009190611678565b6106e6565b005b610321600480360381019061031c91906116a1565b610935565b60405161032e9190611f3a565b60405180910390f35b61033f6109bc565b60405161034c9190611cfd565b60405180910390f35b61036f600480360381019061036a919061172c565b6109e2565b60405161037c9190611ce2565b60405180910390f35b60008054600181600116156101000203166002900480601f01602080910402602001604051908101604052809291908181526020018280546001816001161561010002031660029004801561041b5780601f106103f05761010080835404028352916020019161041b565b820191906000526020600020905b8154815290600101906020018083116103fe57829003601f168201915b505050505081565b60006104303384846109f9565b6001905092915050565b60008073ffffffffffffffffffffffffffffffffffffffff16600260019054906101000a900473ffffffffffffffffffffffffffffffffffffffff1673ffffffffffffffffffffffffffffffffffffffff1614905090565b60045481565b60006104a5338484610b54565b6001905092915050565b60006104bc848484610e55565b6000600660008673ffffffffffffffffffffffffffffffffffffffff1673ffffffffffffffffffffffffffffffffffffffff16815260200190815260200160002060003373ffffffffffffffffffffffffffffffffffffffff1673ffffffffffffffffffffffffffffffffffffffff16815260200190815260200160002054905082811015610580576040517f08c379a000000000000000000000000000000000000000000000000000000000815260040161057790611efa565b60405180910390fd5b61059d8533610598868561118f90919063ffffffff16565b6109f9565b60019150509392505050565b60006105b6333384610b54565b60019050919050565b600260009054906101000a900460ff1681565b6000600560008373ffffffffffffffffffffffffffffffffffffffff1673ffffffffffffffffffffffffffffffffffffffff168152602001908152602001600020549050919050565b60018054600181600116156101000203166002900480601f0160208091040260200160405190810160405280929190818152602001828054600181600116156101000203166002900480156106b15780601f10610686576101008083540402835291602001916106b1565b820191906000526020600020905b81548152906001019060200180831161069457829003601f168201915b505050505081565b60006106c6338484610e55565b6001905092915050565b60006106dd3333846111df565b60019050919050565b600073ffffffffffffffffffffffffffffffffffffffff16600260019054906101000a900473ffffffffffffffffffffffffffffffffffffffff1673ffffffffffffffffffffffffffffffffffffffff161415610778576040517f08c379a000000000000000000000000000000000000000000000000000000000815260040161076f90611e7a565b60405180910390fd5b600260019054906101000a900473ffffffffffffffffffffffffffffffffffffffff1673ffffffffffffffffffffffffffffffffffffffff163373ffffffffffffffffffffffffffffffffffffffff1614610808576040517f08c379a00000000000000000000000000000000000000000000000000000000081526004016107ff90611e5a565b60405180910390fd5b6000600260016101000a81548173ffffffffffffffffffffffffffffffffffffffff021916908373ffffffffffffffffffffffffffffffffffffffff160217905550600073ffffffffffffffffffffffffffffffffffffffff168173ffffffffffffffffffffffffffffffffffffffff1614156108ba576040517f08c379a00000000000000000000000000000000000000000000000000000000081526004016108b190611e9a565b60405180910390fd5b80600360006101000a81548173ffffffffffffffffffffffffffffffffffffffff021916908373ffffffffffffffffffffffffffffffffffffffff1602179055507f908408e307fc569b417f6cbec5d5a06f44a0a505ac0479b47d421a4b2fd6a1e68160405161092a9190611c67565b60405180910390a150565b6000600660008473ffffffffffffffffffffffffffffffffffffffff1673ffffffffffffffffffffffffffffffffffffffff16815260200190815260200160002060008373ffffffffffffffffffffffffffffffffffffffff1673ffffffffffffffffffffffffffffffffffffffff16815260200190815260200160002054905092915050565b600360009054906101000a900473ffffffffffffffffffffffffffffffffffffffff1681565b60006109ef3384846111df565b6001905092915050565b600073ffffffffffffffffffffffffffffffffffffffff168273ffffffffffffffffffffffffffffffffffffffff161415610a69576040517f08c379a0000000000000000000000000000000000000000000000000000000008152600401610a6090611d3a565b60405180910390fd5b80600660008573ffffffffffffffffffffffffffffffffffffffff1673ffffffffffffffffffffffffffffffffffffffff16815260200190815260200160002060008473ffffffffffffffffffffffffffffffffffffffff1673ffffffffffffffffffffffffffffffffffffffff168152602001908152602001600020819055508173ffffffffffffffffffffffffffffffffffffffff168373ffffffffffffffffffffffffffffffffffffffff167f8c5be1e5ebec7d5bd14f71427d1e84f3dd0314c0f7b2291e5b200ac8c7c3b92583604051610b479190611f3a565b60405180910390a3505050565b600073ffffffffffffffffffffffffffffffffffffffff168273ffffffffffffffffffffffffffffffffffffffff161415610bc4576040517f08c379a0000000000000000000000000000000000000000000000000000000008152600401610bbb90611eda565b60405180910390fd5b6000811415610c08576040517f08c379a0000000000000000000000000000000000000000000000000000000008152600401610bff90611f1a565b60405180910390fd5b80600560008573ffffffffffffffffffffffffffffffffffffffff1673ffffffffffffffffffffffffffffffffffffffff168152602001908152602001600020541015610c8a576040517f08c379a0000000000000000000000000000000000000000000000000000000008152600401610c8190611d5a565b60405180910390fd5b610cdc81600560008673ffffffffffffffffffffffffffffffffffffffff1673ffffffffffffffffffffffffffffffffffffffff1681526020019081526020016000205461118f90919063ffffffff16565b600560008573ffffffffffffffffffffffffffffffffffffffff1673ffffffffffffffffffffffffffffffffffffffff16815260200190815260200160002081905550610d348160045461118f90919063ffffffff16565b600481905550600073ffffffffffffffffffffffffffffffffffffffff168373ffffffffffffffffffffffffffffffffffffffff167fddf252ad1be2c89b69c2b068fc378daa952ba7f163c4a11628f55a4df523b3ef83604051610d989190611f3a565b60405180910390a3600360009054906101000a900473ffffffffffffffffffffffffffffffffffffffff1673ffffffffffffffffffffffffffffffffffffffff1663a9059cbb83836040518363ffffffff1660e01b8152600401610dfd929190611cb9565b602060405180830381600087803b158015610e1757600080fd5b505af1158015610e2b573d6000803e3d6000fd5b505050506040513d601f19601f82011682018060405250810190610e4f9190611768565b50505050565b600073ffffffffffffffffffffffffffffffffffffffff168373ffffffffffffffffffffffffffffffffffffffff161415610ec5576040517f08c379a0000000000000000000000000000000000000000000000000000000008152600401610ebc90611e1a565b60405180910390fd5b600073ffffffffffffffffffffffffffffffffffffffff168273ffffffffffffffffffffffffffffffffffffffff161415610f35576040517f08c379a0000000000000000000000000000000000000000000000000000000008152600401610f2c90611dba565b60405180910390fd5b6000811415610f79576040517f08c379a0000000000000000000000000000000000000000000000000000000008152600401610f7090611e3a565b60405180910390fd5b80600560008573ffffffffffffffffffffffffffffffffffffffff1673ffffffffffffffffffffffffffffffffffffffff168152602001908152602001600020541015610ffb576040517f08c379a0000000000000000000000000000000000000000000000000000000008152600401610ff290611dfa565b60405180910390fd5b61104d81600560008673ffffffffffffffffffffffffffffffffffffffff1673ffffffffffffffffffffffffffffffffffffffff1681526020019081526020016000205461118f90919063ffffffff16565b600560008573ffffffffffffffffffffffffffffffffffffffff1673ffffffffffffffffffffffffffffffffffffffff168152602001908152602001600020819055506110e281600560008573ffffffffffffffffffffffffffffffffffffffff1673ffffffffffffffffffffffffffffffffffffffff168152602001908152602001600020546115cf90919063ffffffff16565b600560008473ffffffffffffffffffffffffffffffffffffffff1673ffffffffffffffffffffffffffffffffffffffff168152602001908152602001600020819055508173ffffffffffffffffffffffffffffffffffffffff168373ffffffffffffffffffffffffffffffffffffffff167fddf252ad1be2c89b69c2b068fc378daa952ba7f163c4a11628f55a4df523b3ef836040516111829190611f3a565b60405180910390a3505050565b6000828211156111d4576040517f08c379a00000000000000000000000000000000000000000000000000000000081526004016111cb90611dda565b60405180910390fd5b818303905092915050565b600073ffffffffffffffffffffffffffffffffffffffff168273ffffffffffffffffffffffffffffffffffffffff16141561124f576040517f08c379a000000000000000000000000000000000000000000000000000000000815260040161124690611eba565b60405180910390fd5b6000811415611293576040517f08c379a000000000000000000000000000000000000000000000000000000000815260040161128a90611d9a565b60405180910390fd5b6000600360009054906101000a900473ffffffffffffffffffffffffffffffffffffffff1673ffffffffffffffffffffffffffffffffffffffff166370a08231306040518263ffffffff1660e01b81526004016112f09190611c67565b60206040518083038186803b15801561130857600080fd5b505afa15801561131c573d6000803e3d6000fd5b505050506040513d601f19601f8201168201806040525081019061134091906117ba565b9050600360009054906101000a900473ffffffffffffffffffffffffffffffffffffffff1673ffffffffffffffffffffffffffffffffffffffff166323b872dd8530856040518463ffffffff1660e01b81526004016113a193929190611c82565b602060405180830381600087803b1580156113bb57600080fd5b505af11580156113cf573d6000803e3d6000fd5b505050506040513d601f19601f820116820180604052508101906113f39190611768565b506114b181600360009054906101000a900473ffffffffffffffffffffffffffffffffffffffff1673ffffffffffffffffffffffffffffffffffffffff166370a08231306040518263ffffffff1660e01b81526004016114539190611c67565b60206040518083038186803b15801561146b57600080fd5b505afa15801561147f573d6000803e3d6000fd5b505050506040513d601f19601f820116820180604052508101906114a391906117ba565b61118f90919063ffffffff16565b915061150582600560008673ffffffffffffffffffffffffffffffffffffffff1673ffffffffffffffffffffffffffffffffffffffff168152602001908152602001600020546115cf90919063ffffffff16565b600560008573ffffffffffffffffffffffffffffffffffffffff1673ffffffffffffffffffffffffffffffffffffffff1681526020019081526020016000208190555061155d826004546115cf90919063ffffffff16565b6004819055508273ffffffffffffffffffffffffffffffffffffffff16600073ffffffffffffffffffffffffffffffffffffffff167fddf252ad1be2c89b69c2b068fc378daa952ba7f163c4a11628f55a4df523b3ef846040516115c19190611f3a565b60405180910390a350505050565b60008082840190508381101561161a576040517f08c379a000000000000000000000000000000000000000000000000000000000815260040161161190611d7a565b60405180910390fd5b8091505092915050565b60008135905061163381612049565b92915050565b60008151905061164881612060565b92915050565b60008135905061165d81612077565b92915050565b60008151905061167281612077565b92915050565b60006020828403121561168a57600080fd5b600061169884828501611624565b91505092915050565b600080604083850312156116b457600080fd5b60006116c285828601611624565b92505060206116d385828601611624565b9150509250929050565b6000806000606084860312156116f257600080fd5b600061170086828701611624565b935050602061171186828701611624565b92505060406117228682870161164e565b9150509250925092565b6000806040838503121561173f57600080fd5b600061174d85828601611624565b925050602061175e8582860161164e565b9150509250929050565b60006020828403121561177a57600080fd5b600061178884828501611639565b91505092915050565b6000602082840312156117a357600080fd5b60006117b18482850161164e565b91505092915050565b6000602082840312156117cc57600080fd5b60006117da84828501611663565b91505092915050565b6117ec81611f8c565b82525050565b6117fb81611f9e565b82525050565b61180a81611fe1565b82525050565b600061181b82611f70565b6118258185611f7b565b9350611835818560208601612005565b61183e81612038565b840191505092915050565b6000611856601683611f7b565b91507f4d6574616865726f57726170706564546f6b656e2333000000000000000000006000830152602082019050919050565b6000611896601783611f7b565b91507f4d6574616865726f57726170706564546f6b656e2331320000000000000000006000830152602082019050919050565b60006118d6600d83611f7b565b91507f536166654d6174684c69622331000000000000000000000000000000000000006000830152602082019050919050565b6000611916601683611f7b565b91507f4d6574616865726f57726170706564546f6b656e2339000000000000000000006000830152602082019050919050565b6000611956601683611f7b565b91507f4d6574616865726f57726170706564546f6b656e2335000000000000000000006000830152602082019050919050565b6000611996600d83611f7b565b91507f536166654d6174684c69622332000000000000000000000000000000000000006000830152602082019050919050565b60006119d6601683611f7b565b91507f4d6574616865726f57726170706564546f6b656e2337000000000000000000006000830152602082019050919050565b6000611a16601683611f7b565b91507f4d6574616865726f57726170706564546f6b656e2334000000000000000000006000830152602082019050919050565b6000611a56601683611f7b565b91507f4d6574616865726f57726170706564546f6b656e2336000000000000000000006000830152602082019050919050565b6000611a96600f83611f7b565b91507f496e697469616c697a61626c65233200000000000000000000000000000000006000830152602082019050919050565b6000611ad6600f83611f7b565b91507f496e697469616c697a61626c65233100000000000000000000000000000000006000830152602082019050919050565b6000611b16601683611f7b565b91507f4d6574616865726f57726170706564546f6b656e2331000000000000000000006000830152602082019050919050565b6000611b56601683611f7b565b91507f4d6574616865726f57726170706564546f6b656e2338000000000000000000006000830152602082019050919050565b6000611b96601783611f7b565b91507f4d6574616865726f57726170706564546f6b656e2331300000000000000000006000830152602082019050919050565b6000611bd6601683611f7b565b91507f4d6574616865726f57726170706564546f6b656e2332000000000000000000006000830152602082019050919050565b6000611c16601783611f7b565b91507f4d6574616865726f57726170706564546f6b656e2331310000000000000000006000830152602082019050919050565b611c5281611fca565b82525050565b611c6181611fd4565b82525050565b6000602082019050611c7c60008301846117e3565b92915050565b6000606082019050611c9760008301866117e3565b611ca460208301856117e3565b611cb16040830184611c49565b949350505050565b6000604082019050611cce60008301856117e3565b611cdb6020830184611c49565b9392505050565b6000602082019050611cf760008301846117f2565b92915050565b6000602082019050611d126000830184611801565b92915050565b60006020820190508181036000830152611d328184611810565b905092915050565b60006020820190508181036000830152611d5381611849565b9050919050565b60006020820190508181036000830152611d7381611889565b9050919050565b60006020820190508181036000830152611d93816118c9565b9050919050565b60006020820190508181036000830152611db381611909565b9050919050565b60006020820190508181036000830152611dd381611949565b9050919050565b60006020820190508181036000830152611df381611989565b9050919050565b60006020820190508181036000830152611e13816119c9565b9050919050565b60006020820190508181036000830152611e3381611a09565b9050919050565b60006020820190508181036000830152611e5381611a49565b9050919050565b60006020820190508181036000830152611e7381611a89565b9050919050565b60006020820190508181036000830152611e9381611ac9565b9050919050565b60006020820190508181036000830152611eb381611b09565b9050919050565b60006020820190508181036000830152611ed381611b49565b9050919050565b60006020820190508181036000830152611ef381611b89565b9050919050565b60006020820190508181036000830152611f1381611bc9565b9050919050565b60006020820190508181036000830152611f3381611c09565b9050919050565b6000602082019050611f4f6000830184611c49565b92915050565b6000602082019050611f6a6000830184611c58565b92915050565b600081519050919050565b600082825260208201905092915050565b6000611f9782611faa565b9050919050565b60008115159050919050565b600073ffffffffffffffffffffffffffffffffffffffff82169050919050565b6000819050919050565b600060ff82169050919050565b6000611fec82611ff3565b9050919050565b6000611ffe82611faa565b9050919050565b60005b83811015612023578082015181840152602081019050612008565b83811115612032576000848401525b50505050565b6000601f19601f8301169050919050565b61205281611f8c565b811461205d57600080fd5b50565b61206981611f9e565b811461207457600080fd5b50565b61208081611fca565b811461208b57600080fd5b5056fea164736f6c634300060c000a",
  "devdoc": {
    "author": "Stanisaw Gogowski <stan@metahero.io>",
    "events": {
      "Initialized(address)": {
        "details": "Emitted when the contract is initialized",
        "params": {
          "token": "token address"
        }
      }
    },
    "kind": "dev",
    "methods": {
      "allowance(address,address)": {
        "details": "Gets allowance",
        "params": {
          "owner": "owner address",
          "spender": "spender address"
        },
        "returns": {
          "_0": "allowance"
        }
      },
      "approve(address,uint256)": {
        "details": "Approve spending limit",
        "params": {
          "amount": "spending limit",
          "spender": "spender address"
        }
      },
      "balanceOf(address)": {
        "details": "Gets balance of",
        "params": {
          "account": "account address"
        },
        "returns": {
          "_0": "result account balance"
        }
      },
      "constructor": {
        "details": "Public constructor"
      },
      "deposit(uint256)": {
        "details": "Deposits tokens",
        "params": {
          "amount": "tokens amount"
        }
      },
      "depositTo(address,uint256)": {
        "details": "Deposits tokens to recipient",
        "params": {
          "amount": "tokens amount",
          "recipient": "recipient address"
        }
      },
      "initialize(address)": {
        "details": "Initializes the contract",
        "params": {
          "token_": "token address"
        }
      },
      "initialized()": {
        "returns": {
          "_0": "true when contract is initialized"
        }
      },
      "transfer(address,uint256)": {
        "details": "Transfers tokens",
        "params": {
          "amount": "tokens amount",
          "recipient": "recipient address"
        }
      },
      "transferFrom(address,address,uint256)": {
        "details": "Transfers tokens from",
        "params": {
          "amount": "tokens amount",
          "recipient": "recipient address",
          "sender": "sender address"
        }
      },
      "withdraw(uint256)": {
        "details": "Withdraws tokens",
        "params": {
          "amount": "tokens amount"
        }
      },
      "withdrawTo(address,uint256)": {
        "details": "Withdraws tokens to recipient",
        "params": {
          "amount": "tokens amount",
          "recipient": "recipient address"
        }
      }
    },
    "stateVariables": {
      "token": {
        "return": "token address"
      },
      "totalSupply": {
        "return": "total supply"
      }
    },
    "title": "Metahero wrapped token",
    "version": 1
  },
  "userdoc": {
    "kind": "user",
    "methods": {
      "initialized()": {
        "notice": "Checks if contract is initialized"
      }
    },
    "version": 1
  },
  "storageLayout": {
    "storage": [
      {
        "astId": 6375,
        "contract": "src/MetaheroWrappedToken.sol:MetaheroWrappedToken",
        "label": "name",
        "offset": 0,
        "slot": "0",
        "type": "t_string_storage"
      },
      {
        "astId": 6378,
        "contract": "src/MetaheroWrappedToken.sol:MetaheroWrappedToken",
        "label": "symbol",
        "offset": 0,
        "slot": "1",
        "type": "t_string_storage"
      },
      {
        "astId": 6381,
        "contract": "src/MetaheroWrappedToken.sol:MetaheroWrappedToken",
        "label": "decimals",
        "offset": 0,
        "slot": "2",
        "type": "t_uint8"
      },
      {
        "astId": 6976,
        "contract": "src/MetaheroWrappedToken.sol:MetaheroWrappedToken",
        "label": "initializer",
        "offset": 1,
        "slot": "2",
        "type": "t_address"
      },
      {
        "astId": 5494,
        "contract": "src/MetaheroWrappedToken.sol:MetaheroWrappedToken",
        "label": "token",
        "offset": 0,
        "slot": "3",
        "type": "t_contract(MetaheroToken)5467"
      },
      {
        "astId": 5498,
        "contract": "src/MetaheroWrappedToken.sol:MetaheroWrappedToken",
        "label": "totalSupply",
        "offset": 0,
        "slot": "4",
        "type": "t_uint256"
      },
      {
        "astId": 5502,
        "contract": "src/MetaheroWrappedToken.sol:MetaheroWrappedToken",
        "label": "balances",
        "offset": 0,
        "slot": "5",
        "type": "t_mapping(t_address,t_uint256)"
      },
      {
        "astId": 5508,
        "contract": "src/MetaheroWrappedToken.sol:MetaheroWrappedToken",
        "label": "allowances",
        "offset": 0,
        "slot": "6",
        "type": "t_mapping(t_address,t_mapping(t_address,t_uint256))"
      }
    ],
    "types": {
      "t_address": {
        "encoding": "inplace",
        "label": "address",
        "numberOfBytes": "20"
      },
      "t_contract(MetaheroToken)5467": {
        "encoding": "inplace",
        "label": "contract MetaheroToken",
        "numberOfBytes": "20"
      },
      "t_mapping(t_address,t_mapping(t_address,t_uint256))": {
        "encoding": "mapping",
        "key": "t_address",
        "label": "mapping(address => mapping(address => uint256))",
        "numberOfBytes": "32",
        "value": "t_mapping(t_address,t_uint256)"
      },
      "t_mapping(t_address,t_uint256)": {
        "encoding": "mapping",
        "key": "t_address",
        "label": "mapping(address => uint256)",
        "numberOfBytes": "32",
        "value": "t_uint256"
      },
      "t_string_storage": {
        "encoding": "bytes",
        "label": "string",
        "numberOfBytes": "32"
      },
      "t_uint256": {
        "encoding": "inplace",
        "label": "uint256",
        "numberOfBytes": "32"
      },
      "t_uint8": {
        "encoding": "inplace",
        "label": "uint8",
        "numberOfBytes": "1"
      }
    }
  }
}