{
  "address": "0x7C1E495a45E2aEd13c8a2F8251124A30b13F20Cc",
  "abi": [
    {
      "inputs": [],
      "stateMutability": "nonpayable",
      "type": "constructor"
    },
    {
      "anonymous": false,
      "inputs": [
        {
          "indexed": false,
          "internalType": "uint256",
          "name": "enableBurnLPAtValue",
          "type": "uint256"
        },
        {
          "indexed": false,
          "internalType": "address",
          "name": "stableCoin",
          "type": "address"
        },
        {
          "indexed": false,
          "internalType": "address",
          "name": "token",
          "type": "address"
        },
        {
          "indexed": false,
          "internalType": "address",
          "name": "uniswapRouter",
          "type": "address"
        },
        {
          "indexed": false,
          "internalType": "address",
          "name": "uniswapPair",
          "type": "address"
        }
      ],
      "name": "Initialized",
      "type": "event"
    },
    {
      "anonymous": false,
      "inputs": [
        {
          "indexed": false,
          "internalType": "uint256",
          "name": "amount",
          "type": "uint256"
        }
      ],
      "name": "LPBurnt",
      "type": "event"
    },
    {
      "anonymous": false,
      "inputs": [
        {
          "indexed": false,
          "internalType": "address",
          "name": "owner",
          "type": "address"
        }
      ],
      "name": "OwnerUpdated",
      "type": "event"
    },
    {
      "inputs": [
        {
          "internalType": "uint256",
          "name": "amount",
          "type": "uint256"
        }
      ],
      "name": "burnLP",
      "outputs": [],
      "stateMutability": "nonpayable",
      "type": "function"
    },
    {
      "inputs": [
        {
          "internalType": "address",
          "name": "sender",
          "type": "address"
        },
        {
          "internalType": "address",
          "name": "recipient",
          "type": "address"
        }
      ],
      "name": "canSyncLP",
      "outputs": [
        {
          "internalType": "bool",
          "name": "shouldSyncLPBefore",
          "type": "bool"
        },
        {
          "internalType": "bool",
          "name": "shouldSyncLPAfter",
          "type": "bool"
        }
      ],
      "stateMutability": "view",
      "type": "function"
    },
    {
      "inputs": [],
      "name": "deposit",
      "outputs": [],
      "stateMutability": "payable",
      "type": "function"
    },
    {
      "inputs": [
        {
          "internalType": "uint256",
          "name": "enableBurnLPAtValue",
          "type": "uint256"
        },
        {
          "internalType": "address",
          "name": "stableCoin",
          "type": "address"
        },
        {
          "internalType": "address",
          "name": "token_",
          "type": "address"
        },
        {
          "internalType": "address",
          "name": "uniswapRouter_",
          "type": "address"
        }
      ],
      "name": "initialize",
      "outputs": [],
      "stateMutability": "nonpayable",
      "type": "function"
    },
    {
      "inputs": [],
      "name": "initialized",
      "outputs": [
        {
          "internalType": "bool",
          "name": "",
          "type": "bool"
        }
      ],
      "stateMutability": "view",
      "type": "function"
    },
    {
      "inputs": [],
      "name": "locked",
      "outputs": [
        {
          "internalType": "bool",
          "name": "",
          "type": "bool"
        }
      ],
      "stateMutability": "view",
      "type": "function"
    },
    {
      "inputs": [],
      "name": "owner",
      "outputs": [
        {
          "internalType": "address",
          "name": "",
          "type": "address"
        }
      ],
      "stateMutability": "view",
      "type": "function"
    },
    {
      "inputs": [
        {
          "internalType": "address",
          "name": "owner_",
          "type": "address"
        }
      ],
      "name": "setOwner",
      "outputs": [],
      "stateMutability": "nonpayable",
      "type": "function"
    },
    {
      "inputs": [],
      "name": "settings",
      "outputs": [
        {
          "internalType": "uint256",
          "name": "enableBurnLPAtValue",
          "type": "uint256"
        },
        {
          "internalType": "address",
          "name": "stableCoin",
          "type": "address"
        }
      ],
      "stateMutability": "view",
      "type": "function"
    },
    {
      "inputs": [],
      "name": "syncLP",
      "outputs": [],
      "stateMutability": "nonpayable",
      "type": "function"
    },
    {
      "inputs": [],
      "name": "token",
      "outputs": [
        {
          "internalType": "contract MetaheroToken",
          "name": "",
          "type": "address"
        }
      ],
      "stateMutability": "view",
      "type": "function"
    },
    {
      "inputs": [],
      "name": "uniswapFactory",
      "outputs": [
        {
          "internalType": "contract IUniswapV2Factory",
          "name": "",
          "type": "address"
        }
      ],
      "stateMutability": "view",
      "type": "function"
    },
    {
      "inputs": [],
      "name": "uniswapPair",
      "outputs": [
        {
          "internalType": "contract IUniswapV2Pair",
          "name": "",
          "type": "address"
        }
      ],
      "stateMutability": "view",
      "type": "function"
    },
    {
      "inputs": [],
      "name": "uniswapRouter",
      "outputs": [
        {
          "internalType": "contract IUniswapV2Router02",
          "name": "",
          "type": "address"
        }
      ],
      "stateMutability": "view",
      "type": "function"
    },
    {
      "stateMutability": "payable",
      "type": "receive"
    }
  ],
  "transactionHash": "0x318c141dc1f47489c4e5ded1b14b4b156ba8b90ceedf0de85e9bfd464ee9d04c",
  "args": [],
  "solcInputHash": "944f27d8c9be259369626edd253df334",
  "bytecode": "0x608060405234801561001057600080fd5b5033600060016101000a81548173ffffffffffffffffffffffffffffffffffffffff021916908373ffffffffffffffffffffffffffffffffffffffff16021790555033600160006101000a81548173ffffffffffffffffffffffffffffffffffffffff021916908373ffffffffffffffffffffffffffffffffffffffff160217905550612d1c806100a26000396000f3fe6080604052600436106100e15760003560e01c80638da5cb5b1161007f578063cf30901211610059578063cf309012146103f5578063d0e30db014610422578063e06174e41461042c578063fc0c546a14610474576100f1565b80638da5cb5b14610338578063c6ef206114610379578063c816841b146103b4576100f1565b806339071c9e116100bb57806339071c9e14610204578063735de9f71461021b578063754d1d541461025c5780638bdb2afa146102f7576100f1565b806313af4035146100f6578063158ef93e146101475780632070e9ea14610174576100f1565b366100f1576100ef346104b5565b005b600080fd5b34801561010257600080fd5b506101456004803603602081101561011957600080fd5b81019080803573ffffffffffffffffffffffffffffffffffffffff1690602001909291905050506105b2565b005b34801561015357600080fd5b5061015c610681565b60405180821515815260200191505060405180910390f35b34801561018057600080fd5b506101e36004803603604081101561019757600080fd5b81019080803573ffffffffffffffffffffffffffffffffffffffff169060200190929190803573ffffffffffffffffffffffffffffffffffffffff1690602001909291905050506106d9565b60405180831515815260200182151581526020019250505060405180910390f35b34801561021057600080fd5b5061021961079d565b005b34801561022757600080fd5b506102306108b1565b604051808273ffffffffffffffffffffffffffffffffffffffff16815260200191505060405180910390f35b34801561026857600080fd5b506102f56004803603608081101561027f57600080fd5b8101908080359060200190929190803573ffffffffffffffffffffffffffffffffffffffff169060200190929190803573ffffffffffffffffffffffffffffffffffffffff169060200190929190803573ffffffffffffffffffffffffffffffffffffffff1690602001909291905050506108d7565b005b34801561030357600080fd5b5061030c611119565b604051808273ffffffffffffffffffffffffffffffffffffffff16815260200191505060405180910390f35b34801561034457600080fd5b5061034d61113f565b604051808273ffffffffffffffffffffffffffffffffffffffff16815260200191505060405180910390f35b34801561038557600080fd5b506103b26004803603602081101561039c57600080fd5b8101908080359060200190929190505050611165565b005b3480156103c057600080fd5b506103c9611397565b604051808273ffffffffffffffffffffffffffffffffffffffff16815260200191505060405180910390f35b34801561040157600080fd5b5061040a6113bd565b60405180821515815260200191505060405180910390f35b61042a6113ce565b005b34801561043857600080fd5b506104416113d9565b604051808381526020018273ffffffffffffffffffffffffffffffffffffffff1681526020019250505060405180910390f35b34801561048057600080fd5b5061048961140b565b604051808273ffffffffffffffffffffffffffffffffffffffff16815260200191505060405180910390f35b600081141561052c576040517f08c379a00000000000000000000000000000000000000000000000000000000081526004018080602001828103825260198152602001807f4d6574616865726f4c504d466f72556e6973776170563223310000000000000081525060200191505060405180910390fd5b600860009054906101000a900473ffffffffffffffffffffffffffffffffffffffff1673ffffffffffffffffffffffffffffffffffffffff1663d0e30db0826040518263ffffffff1660e01b81526004016000604051808303818588803b15801561059657600080fd5b505af11580156105aa573d6000803e3d6000fd5b505050505050565b600060019054906101000a900473ffffffffffffffffffffffffffffffffffffffff1673ffffffffffffffffffffffffffffffffffffffff163373ffffffffffffffffffffffffffffffffffffffff1614610675576040517f08c379a00000000000000000000000000000000000000000000000000000000081526004018080602001828103825260078152602001807f4f776e656423310000000000000000000000000000000000000000000000000081525060200191505060405180910390fd5b61067e81611431565b50565b60008073ffffffffffffffffffffffffffffffffffffffff16600160009054906101000a900473ffffffffffffffffffffffffffffffffffffffff1673ffffffffffffffffffffffffffffffffffffffff1614905090565b600080600660009054906101000a900473ffffffffffffffffffffffffffffffffffffffff1673ffffffffffffffffffffffffffffffffffffffff168473ffffffffffffffffffffffffffffffffffffffff161461079657600660009054906101000a900473ffffffffffffffffffffffffffffffffffffffff1673ffffffffffffffffffffffffffffffffffffffff168373ffffffffffffffffffffffffffffffffffffffff1614156107905760019150610795565b600190505b5b9250929050565b600260009054906101000a900473ffffffffffffffffffffffffffffffffffffffff1673ffffffffffffffffffffffffffffffffffffffff163373ffffffffffffffffffffffffffffffffffffffff1614610860576040517f08c379a000000000000000000000000000000000000000000000000000000000815260040180806020018281038252600d8152602001807f4d6574616865726f4c504d23310000000000000000000000000000000000000081525060200191505060405180910390fd5b60008054906101000a900460ff166108af5760016000806101000a81548160ff021916908315150217905550610894611629565b60008060006101000a81548160ff0219169083151502179055505b565b600760009054906101000a900473ffffffffffffffffffffffffffffffffffffffff1681565b600073ffffffffffffffffffffffffffffffffffffffff16600160009054906101000a900473ffffffffffffffffffffffffffffffffffffffff1673ffffffffffffffffffffffffffffffffffffffff16141561099c576040517f08c379a000000000000000000000000000000000000000000000000000000000815260040180806020018281038252600f8152602001807f496e697469616c697a61626c652331000000000000000000000000000000000081525060200191505060405180910390fd5b600160009054906101000a900473ffffffffffffffffffffffffffffffffffffffff1673ffffffffffffffffffffffffffffffffffffffff163373ffffffffffffffffffffffffffffffffffffffff1614610a5f576040517f08c379a000000000000000000000000000000000000000000000000000000000815260040180806020018281038252600f8152602001807f496e697469616c697a61626c652332000000000000000000000000000000000081525060200191505060405180910390fd5b6000600160006101000a81548173ffffffffffffffffffffffffffffffffffffffff021916908373ffffffffffffffffffffffffffffffffffffffff160217905550610aaa82611740565b60008414610ba457600073ffffffffffffffffffffffffffffffffffffffff168373ffffffffffffffffffffffffffffffffffffffff161415610b55576040517f08c379a00000000000000000000000000000000000000000000000000000000081526004018080602001828103825260198152602001807f4d6574616865726f4c504d466f72556e6973776170563223320000000000000081525060200191505060405180910390fd5b8360036000018190555082600360010160006101000a81548173ffffffffffffffffffffffffffffffffffffffff021916908373ffffffffffffffffffffffffffffffffffffffff1602179055505b600073ffffffffffffffffffffffffffffffffffffffff168173ffffffffffffffffffffffffffffffffffffffff161415610c47576040517f08c379a00000000000000000000000000000000000000000000000000000000081526004018080602001828103825260198152602001807f4d6574616865726f4c504d466f72556e6973776170563223330000000000000081525060200191505060405180910390fd5b80600760006101000a81548173ffffffffffffffffffffffffffffffffffffffff021916908373ffffffffffffffffffffffffffffffffffffffff160217905550600760009054906101000a900473ffffffffffffffffffffffffffffffffffffffff1673ffffffffffffffffffffffffffffffffffffffff1663c45a01556040518163ffffffff1660e01b815260040160206040518083038186803b158015610cf057600080fd5b505afa158015610d04573d6000803e3d6000fd5b505050506040513d6020811015610d1a57600080fd5b8101908080519060200190929190505050600560006101000a81548173ffffffffffffffffffffffffffffffffffffffff021916908373ffffffffffffffffffffffffffffffffffffffff160217905550600760009054906101000a900473ffffffffffffffffffffffffffffffffffffffff1673ffffffffffffffffffffffffffffffffffffffff1663ad5c46486040518163ffffffff1660e01b815260040160206040518083038186803b158015610dd357600080fd5b505afa158015610de7573d6000803e3d6000fd5b505050506040513d6020811015610dfd57600080fd5b8101908080519060200190929190505050600860006101000a81548173ffffffffffffffffffffffffffffffffffffffff021916908373ffffffffffffffffffffffffffffffffffffffff160217905550600560009054906101000a900473ffffffffffffffffffffffffffffffffffffffff1673ffffffffffffffffffffffffffffffffffffffff1663c9c65396600260009054906101000a900473ffffffffffffffffffffffffffffffffffffffff16600860009054906101000a900473ffffffffffffffffffffffffffffffffffffffff166040518363ffffffff1660e01b8152600401808373ffffffffffffffffffffffffffffffffffffffff1681526020018273ffffffffffffffffffffffffffffffffffffffff16815260200192505050602060405180830381600087803b158015610f3b57600080fd5b505af1158015610f4f573d6000803e3d6000fd5b505050506040513d6020811015610f6557600080fd5b8101908080519060200190929190505050600660006101000a81548173ffffffffffffffffffffffffffffffffffffffff021916908373ffffffffffffffffffffffffffffffffffffffff160217905550600860009054906101000a900473ffffffffffffffffffffffffffffffffffffffff1673ffffffffffffffffffffffffffffffffffffffff16600260009054906101000a900473ffffffffffffffffffffffffffffffffffffffff1673ffffffffffffffffffffffffffffffffffffffff1610600860146101000a81548160ff0219169083151502179055507f8116ad789877047f333ab33efd05e6dc66f5b1502332b352228bc3b255f1e53f84848484600660009054906101000a900473ffffffffffffffffffffffffffffffffffffffff16604051808681526020018573ffffffffffffffffffffffffffffffffffffffff1681526020018473ffffffffffffffffffffffffffffffffffffffff1681526020018373ffffffffffffffffffffffffffffffffffffffff1681526020018273ffffffffffffffffffffffffffffffffffffffff1681526020019550505050505060405180910390a150505050565b600560009054906101000a900473ffffffffffffffffffffffffffffffffffffffff1681565b600060019054906101000a900473ffffffffffffffffffffffffffffffffffffffff1681565b600060019054906101000a900473ffffffffffffffffffffffffffffffffffffffff1673ffffffffffffffffffffffffffffffffffffffff163373ffffffffffffffffffffffffffffffffffffffff1614611228576040517f08c379a00000000000000000000000000000000000000000000000000000000081526004018080602001828103825260078152602001807f4f776e656423310000000000000000000000000000000000000000000000000081525060200191505060405180910390fd5b60008054906101000a900460ff16156112a9576040517f08c379a000000000000000000000000000000000000000000000000000000000815260040180806020018281038252600a8152602001807f4c6f636b61626c6523310000000000000000000000000000000000000000000081525060200191505060405180910390fd5b60016000806101000a81548160ff021916908315150217905550600081141561133a576040517f08c379a000000000000000000000000000000000000000000000000000000000815260040180806020018281038252600d8152602001807f4d6574616865726f4c504d23320000000000000000000000000000000000000081525060200191505060405180910390fd5b61134381611827565b7fe3db70ba43f7940bc29634841e90cdb99fc06122f1325274d87be88eb8292c59816040518082815260200191505060405180910390a160008060006101000a81548160ff02191690831515021790555050565b600660009054906101000a900473ffffffffffffffffffffffffffffffffffffffff1681565b60008054906101000a900460ff1681565b6113d7346104b5565b565b60038060000154908060010160009054906101000a900473ffffffffffffffffffffffffffffffffffffffff16905082565b600260009054906101000a900473ffffffffffffffffffffffffffffffffffffffff1681565b600073ffffffffffffffffffffffffffffffffffffffff168173ffffffffffffffffffffffffffffffffffffffff1614156114d4576040517f08c379a00000000000000000000000000000000000000000000000000000000081526004018080602001828103825260078152602001807f4f776e656423320000000000000000000000000000000000000000000000000081525060200191505060405180910390fd5b600060019054906101000a900473ffffffffffffffffffffffffffffffffffffffff1673ffffffffffffffffffffffffffffffffffffffff168173ffffffffffffffffffffffffffffffffffffffff161415611598576040517f08c379a00000000000000000000000000000000000000000000000000000000081526004018080602001828103825260078152602001807f4f776e656423330000000000000000000000000000000000000000000000000081525060200191505060405180910390fd5b80600060016101000a81548173ffffffffffffffffffffffffffffffffffffffff021916908373ffffffffffffffffffffffffffffffffffffffff1602179055507f4ffd725fc4a22075e9ec71c59edf9c38cdeb588a91b24fc5b61388c5be41282b81604051808273ffffffffffffffffffffffffffffffffffffffff16815260200191505060405180910390a150565b6000600260009054906101000a900473ffffffffffffffffffffffffffffffffffffffff1673ffffffffffffffffffffffffffffffffffffffff166370a08231306040518263ffffffff1660e01b8152600401808273ffffffffffffffffffffffffffffffffffffffff16815260200191505060206040518083038186803b1580156116b457600080fd5b505afa1580156116c8573d6000803e3d6000fd5b505050506040513d60208110156116de57600080fd5b810190808051906020019092919050505090506002811061173d57600061170f600283611c4b90919063ffffffff16565b905060006117268284611cd590919063ffffffff16565b905061173182611d58565b61173a81612133565b50505b50565b600073ffffffffffffffffffffffffffffffffffffffff168173ffffffffffffffffffffffffffffffffffffffff1614156117e3576040517f08c379a000000000000000000000000000000000000000000000000000000000815260040180806020018281038252600d8152602001807f4d6574616865726f4c504d23330000000000000000000000000000000000000081525060200191505060405180910390fd5b80600260006101000a81548173ffffffffffffffffffffffffffffffffffffffff021916908373ffffffffffffffffffffffffffffffffffffffff16021790555050565b600060036000015414611a5957600061183e612582565b50905060008114156118b8576040517f08c379a00000000000000000000000000000000000000000000000000000000081526004018080602001828103825260198152602001807f4d6574616865726f4c504d466f72556e6973776170563223340000000000000081525060200191505060405180910390fd5b8082111561192e576040517f08c379a00000000000000000000000000000000000000000000000000000000081526004018080602001828103825260198152602001807f4d6574616865726f4c504d466f72556e6973776170563223350000000000000081525060200191505060405180910390fd5b600061193982612696565b905060036000015481116119b5576040517f08c379a00000000000000000000000000000000000000000000000000000000081526004018080602001828103825260198152602001807f4d6574616865726f4c504d466f72556e6973776170563223360000000000000081525060200191505060405180910390fd5b60006119c084612696565b905060006119dc60036000015484611cd590919063ffffffff16565b905080821115611a54576040517f08c379a00000000000000000000000000000000000000000000000000000000081526004018080602001828103825260198152602001807f4d6574616865726f4c504d466f72556e6973776170563223370000000000000081525060200191505060405180910390fd5b505050505b611a616129d8565b6000600260009054906101000a900473ffffffffffffffffffffffffffffffffffffffff1673ffffffffffffffffffffffffffffffffffffffff166370a08231306040518263ffffffff1660e01b8152600401808273ffffffffffffffffffffffffffffffffffffffff16815260200191505060206040518083038186803b158015611aec57600080fd5b505afa158015611b00573d6000803e3d6000fd5b505050506040513d6020811015611b1657600080fd5b8101908080519060200190929190505050905081811015611b9f576040517f08c379a00000000000000000000000000000000000000000000000000000000081526004018080602001828103825260198152602001807f4d6574616865726f4c504d466f72556e6973776170563223380000000000000081525060200191505060405180910390fd5b600260009054906101000a900473ffffffffffffffffffffffffffffffffffffffff1673ffffffffffffffffffffffffffffffffffffffff166342966c68836040518263ffffffff1660e01b815260040180828152602001915050600060405180830381600087803b158015611c1457600080fd5b505af1158015611c28573d6000803e3d6000fd5b50505050611c47611c428383611cd590919063ffffffff16565b612133565b5050565b600080821415611cc3576040517f08c379a000000000000000000000000000000000000000000000000000000000815260040180806020018281038252600d8152602001807f536166654d6174684c696223340000000000000000000000000000000000000081525060200191505060405180910390fd5b818381611ccc57fe5b04905092915050565b600082821115611d4d576040517f08c379a000000000000000000000000000000000000000000000000000000000815260040180806020018281038252600d8152602001807f536166654d6174684c696223320000000000000000000000000000000000000081525060200191505060405180910390fd5b818303905092915050565b600260009054906101000a900473ffffffffffffffffffffffffffffffffffffffff1673ffffffffffffffffffffffffffffffffffffffff1663095ea7b3600760009054906101000a900473ffffffffffffffffffffffffffffffffffffffff16836040518363ffffffff1660e01b8152600401808373ffffffffffffffffffffffffffffffffffffffff16815260200182815260200192505050602060405180830381600087803b158015611e0d57600080fd5b505af1158015611e21573d6000803e3d6000fd5b505050506040513d6020811015611e3757600080fd5b8101908080519060200190929190505050506060600267ffffffffffffffff81118015611e6357600080fd5b50604051908082528060200260200182016040528015611e925781602001602082028036833780820191505090505b509050600260009054906101000a900473ffffffffffffffffffffffffffffffffffffffff1681600081518110611ec557fe5b602002602001019073ffffffffffffffffffffffffffffffffffffffff16908173ffffffffffffffffffffffffffffffffffffffff1681525050600860009054906101000a900473ffffffffffffffffffffffffffffffffffffffff1681600181518110611f2f57fe5b602002602001019073ffffffffffffffffffffffffffffffffffffffff16908173ffffffffffffffffffffffffffffffffffffffff1681525050600760009054906101000a900473ffffffffffffffffffffffffffffffffffffffff1673ffffffffffffffffffffffffffffffffffffffff166338ed17398360008430426040518663ffffffff1660e01b815260040180868152602001858152602001806020018473ffffffffffffffffffffffffffffffffffffffff168152602001838152602001828103825285818151815260200191508051906020019060200280838360005b8381101561202d578082015181840152602081019050612012565b505050509050019650505050505050600060405180830381600087803b15801561205657600080fd5b505af192505050801561212457506040513d6000823e3d601f19601f82011682018060405250602081101561208a57600080fd5b81019080805160405193929190846401000000008211156120aa57600080fd5b838201915060208201858111156120c057600080fd5b82518660208202830111640100000000821117156120dd57600080fd5b8083526020830192505050908051906020019060200280838360005b838110156121145780820151818401526020810190506120f9565b5050505090500160405250505060015b61212d5761212f565b505b5050565b6000600860009054906101000a900473ffffffffffffffffffffffffffffffffffffffff1673ffffffffffffffffffffffffffffffffffffffff166370a08231306040518263ffffffff1660e01b8152600401808273ffffffffffffffffffffffffffffffffffffffff16815260200191505060206040518083038186803b1580156121be57600080fd5b505afa1580156121d2573d6000803e3d6000fd5b505050506040513d60208110156121e857600080fd5b810190808051906020019092919050505090506000821415801561220d575060008114155b1561257e57600260009054906101000a900473ffffffffffffffffffffffffffffffffffffffff1673ffffffffffffffffffffffffffffffffffffffff1663095ea7b3600760009054906101000a900473ffffffffffffffffffffffffffffffffffffffff16846040518363ffffffff1660e01b8152600401808373ffffffffffffffffffffffffffffffffffffffff16815260200182815260200192505050602060405180830381600087803b1580156122c757600080fd5b505af11580156122db573d6000803e3d6000fd5b505050506040513d60208110156122f157600080fd5b810190808051906020019092919050505050600860009054906101000a900473ffffffffffffffffffffffffffffffffffffffff1673ffffffffffffffffffffffffffffffffffffffff1663095ea7b3600760009054906101000a900473ffffffffffffffffffffffffffffffffffffffff16836040518363ffffffff1660e01b8152600401808373ffffffffffffffffffffffffffffffffffffffff16815260200182815260200192505050602060405180830381600087803b1580156123b857600080fd5b505af11580156123cc573d6000803e3d6000fd5b505050506040513d60208110156123e257600080fd5b810190808051906020019092919050505050600760009054906101000a900473ffffffffffffffffffffffffffffffffffffffff1673ffffffffffffffffffffffffffffffffffffffff1663e8e33700600260009054906101000a900473ffffffffffffffffffffffffffffffffffffffff16600860009054906101000a900473ffffffffffffffffffffffffffffffffffffffff16858560008030426040518963ffffffff1660e01b8152600401808973ffffffffffffffffffffffffffffffffffffffff1681526020018873ffffffffffffffffffffffffffffffffffffffff1681526020018781526020018681526020018581526020018481526020018373ffffffffffffffffffffffffffffffffffffffff16815260200182815260200198505050505050505050606060405180830381600087803b15801561252857600080fd5b505af192505050801561257057506040513d606081101561254857600080fd5b8101908080519060200190929190805190602001909291908051906020019092919050505060015b6125795761257d565b5050505b5b5050565b600080600080600660009054906101000a900473ffffffffffffffffffffffffffffffffffffffff1673ffffffffffffffffffffffffffffffffffffffff16630902f1ac6040518163ffffffff1660e01b815260040160606040518083038186803b1580156125f057600080fd5b505afa158015612604573d6000803e3d6000fd5b505050506040513d606081101561261a57600080fd5b810190808051906020019092919080519060200190929190805190602001909291905050505091509150600860149054906101000a900460ff1661265f578082612662565b81815b816dffffffffffffffffffffffffffff169150806dffffffffffffffffffffffffffff169050809450819550505050509091565b60006060600367ffffffffffffffff811180156126b257600080fd5b506040519080825280602002602001820160405280156126e15781602001602082028036833780820191505090505b509050600260009054906101000a900473ffffffffffffffffffffffffffffffffffffffff168160008151811061271457fe5b602002602001019073ffffffffffffffffffffffffffffffffffffffff16908173ffffffffffffffffffffffffffffffffffffffff1681525050600860009054906101000a900473ffffffffffffffffffffffffffffffffffffffff168160018151811061277e57fe5b602002602001019073ffffffffffffffffffffffffffffffffffffffff16908173ffffffffffffffffffffffffffffffffffffffff1681525050600360010160009054906101000a900473ffffffffffffffffffffffffffffffffffffffff16816002815181106127eb57fe5b602002602001019073ffffffffffffffffffffffffffffffffffffffff16908173ffffffffffffffffffffffffffffffffffffffff16815250506060600760009054906101000a900473ffffffffffffffffffffffffffffffffffffffff1673ffffffffffffffffffffffffffffffffffffffff1663d06ca61f85846040518363ffffffff1660e01b81526004018083815260200180602001828103825283818151815260200191508051906020019060200280838360005b838110156128bf5780820151818401526020810190506128a4565b50505050905001935050505060006040518083038186803b1580156128e357600080fd5b505afa1580156128f7573d6000803e3d6000fd5b505050506040513d6000823e3d601f19601f82011682018060405250602081101561292157600080fd5b810190808051604051939291908464010000000082111561294157600080fd5b8382019150602082018581111561295757600080fd5b825186602082028301116401000000008211171561297457600080fd5b8083526020830192505050908051906020019060200280838360005b838110156129ab578082015181840152602081019050612990565b505050509050016040525050509050806002815181106129c757fe5b602002602001015192505050919050565b6000600660009054906101000a900473ffffffffffffffffffffffffffffffffffffffff1673ffffffffffffffffffffffffffffffffffffffff166370a08231306040518263ffffffff1660e01b8152600401808273ffffffffffffffffffffffffffffffffffffffff16815260200191505060206040518083038186803b158015612a6357600080fd5b505afa158015612a77573d6000803e3d6000fd5b505050506040513d6020811015612a8d57600080fd5b8101908080519060200190929190505050905060008114612d0c57600660009054906101000a900473ffffffffffffffffffffffffffffffffffffffff1673ffffffffffffffffffffffffffffffffffffffff1663095ea7b3600760009054906101000a900473ffffffffffffffffffffffffffffffffffffffff16836040518363ffffffff1660e01b8152600401808373ffffffffffffffffffffffffffffffffffffffff16815260200182815260200192505050602060405180830381600087803b158015612b5d57600080fd5b505af1158015612b71573d6000803e3d6000fd5b505050506040513d6020811015612b8757600080fd5b810190808051906020019092919050505050600760009054906101000a900473ffffffffffffffffffffffffffffffffffffffff1673ffffffffffffffffffffffffffffffffffffffff1663baa2abde600260009054906101000a900473ffffffffffffffffffffffffffffffffffffffff16600860009054906101000a900473ffffffffffffffffffffffffffffffffffffffff168460008030426040518863ffffffff1660e01b8152600401808873ffffffffffffffffffffffffffffffffffffffff1681526020018773ffffffffffffffffffffffffffffffffffffffff1681526020018681526020018581526020018481526020018373ffffffffffffffffffffffffffffffffffffffff1681526020018281526020019750505050505050506040805180830381600087803b158015612cc457600080fd5b505af1158015612cd8573d6000803e3d6000fd5b505050506040513d6040811015612cee57600080fd5b81019080805190602001909291908051906020019092919050505050505b5056fea164736f6c634300060c000a",
  "devdoc": {
    "author": "Stanisaw Gogowski <stan@metahero.io>",
    "events": {
      "Initialized(uint256,address,address,address,address)": {
        "details": "Emitted the contract is initialized",
        "params": {
          "enableBurnLPAtValue": "value of the tokens that turned on the burnLP method",
          "stableCoin": "stable coin address eg. BUSD, DAI",
          "token": "token address",
          "uniswapPair": "Uniswap V2 pair address",
          "uniswapRouter": "Uniswap V2 router02 address"
        }
      }
    },
    "kind": "dev",
    "methods": {
      "burnLP(uint256)": {
        "params": {
          "amount": "tokens amount"
        }
      },
      "canSyncLP(address,address)": {
        "params": {
          "recipient": "recipient address",
          "sender": "sender address"
        }
      },
      "constructor": {
        "details": "Public constructor"
      },
      "deposit()": {
        "details": "Mints stable coins to the contract"
      },
      "initialize(uint256,address,address,address)": {
        "details": "Initializes the contract",
        "params": {
          "enableBurnLPAtValue": "value of the tokens that turned on the burnLP method",
          "stableCoin": "stable coin address eg. BUSD, DAI",
          "token_": "token address",
          "uniswapRouter_": "Uniswap V2 router02 address"
        }
      },
      "initialized()": {
        "returns": {
          "_0": "true when contract is initialized"
        }
      },
      "setOwner(address)": {
        "params": {
          "owner_": "owner address"
        }
      }
    },
    "stateVariables": {
      "settings": {
        "return": "settings object"
      },
      "uniswapFactory": {
        "return": "Uniswap V2 factory address"
      },
      "uniswapPair": {
        "return": "Uniswap V2 pair address"
      },
      "uniswapRouter": {
        "return": "Uniswap V2 router02 address"
      }
    },
    "title": "Metahero liquidity pool manager for Uniswap v2",
    "version": 1
  },
  "userdoc": {
    "kind": "user",
    "methods": {
      "burnLP(uint256)": {
        "notice": "Burns tokens from the liquidity pool"
      },
      "canSyncLP(address,address)": {
        "notice": "Checks when to sync the liquidity pool"
      },
      "initialized()": {
        "notice": "Checks if contract is initialized"
      },
      "setOwner(address)": {
        "notice": "Sets a new owner"
      },
      "syncLP()": {
        "notice": "Syncs liquidity pool"
      }
    },
    "version": 1
  },
  "storageLayout": {
    "storage": [
      {
        "astId": 4027,
        "contract": "src/MetaheroLPMForUniswapV2.sol:MetaheroLPMForUniswapV2",
        "label": "locked",
        "offset": 0,
        "slot": "0",
        "type": "t_bool"
      },
      {
        "astId": 4117,
        "contract": "src/MetaheroLPMForUniswapV2.sol:MetaheroLPMForUniswapV2",
        "label": "owner",
        "offset": 1,
        "slot": "0",
        "type": "t_address"
      },
      {
        "astId": 4704,
        "contract": "src/MetaheroLPMForUniswapV2.sol:MetaheroLPMForUniswapV2",
        "label": "initializer",
        "offset": 0,
        "slot": "1",
        "type": "t_address"
      },
      {
        "astId": 113,
        "contract": "src/MetaheroLPMForUniswapV2.sol:MetaheroLPMForUniswapV2",
        "label": "token",
        "offset": 0,
        "slot": "2",
        "type": "t_contract(MetaheroToken)3870"
      },
      {
        "astId": 243,
        "contract": "src/MetaheroLPMForUniswapV2.sol:MetaheroLPMForUniswapV2",
        "label": "settings",
        "offset": 0,
        "slot": "3",
        "type": "t_struct(Settings)240_storage"
      },
      {
        "astId": 246,
        "contract": "src/MetaheroLPMForUniswapV2.sol:MetaheroLPMForUniswapV2",
        "label": "uniswapFactory",
        "offset": 0,
        "slot": "5",
        "type": "t_contract(IUniswapV2Factory)5090"
      },
      {
        "astId": 249,
        "contract": "src/MetaheroLPMForUniswapV2.sol:MetaheroLPMForUniswapV2",
        "label": "uniswapPair",
        "offset": 0,
        "slot": "6",
        "type": "t_contract(IUniswapV2Pair)5255"
      },
      {
        "astId": 252,
        "contract": "src/MetaheroLPMForUniswapV2.sol:MetaheroLPMForUniswapV2",
        "label": "uniswapRouter",
        "offset": 0,
        "slot": "7",
        "type": "t_contract(IUniswapV2Router02)5653"
      },
      {
        "astId": 254,
        "contract": "src/MetaheroLPMForUniswapV2.sol:MetaheroLPMForUniswapV2",
        "label": "wrappedNative",
        "offset": 0,
        "slot": "8",
        "type": "t_contract(IWrappedNative)4699"
      },
      {
        "astId": 256,
        "contract": "src/MetaheroLPMForUniswapV2.sol:MetaheroLPMForUniswapV2",
        "label": "correctPairOrder",
        "offset": 20,
        "slot": "8",
        "type": "t_bool"
      }
    ],
    "types": {
      "t_address": {
        "encoding": "inplace",
        "label": "address",
        "numberOfBytes": "20"
      },
      "t_bool": {
        "encoding": "inplace",
        "label": "bool",
        "numberOfBytes": "1"
      },
      "t_contract(IUniswapV2Factory)5090": {
        "encoding": "inplace",
        "label": "contract IUniswapV2Factory",
        "numberOfBytes": "20"
      },
      "t_contract(IUniswapV2Pair)5255": {
        "encoding": "inplace",
        "label": "contract IUniswapV2Pair",
        "numberOfBytes": "20"
      },
      "t_contract(IUniswapV2Router02)5653": {
        "encoding": "inplace",
        "label": "contract IUniswapV2Router02",
        "numberOfBytes": "20"
      },
      "t_contract(IWrappedNative)4699": {
        "encoding": "inplace",
        "label": "contract IWrappedNative",
        "numberOfBytes": "20"
      },
      "t_contract(MetaheroToken)3870": {
        "encoding": "inplace",
        "label": "contract MetaheroToken",
        "numberOfBytes": "20"
      },
      "t_struct(Settings)240_storage": {
        "encoding": "inplace",
        "label": "struct MetaheroLPMForUniswapV2.Settings",
        "members": [
          {
            "astId": 237,
            "contract": "src/MetaheroLPMForUniswapV2.sol:MetaheroLPMForUniswapV2",
            "label": "enableBurnLPAtValue",
            "offset": 0,
            "slot": "0",
            "type": "t_uint256"
          },
          {
            "astId": 239,
            "contract": "src/MetaheroLPMForUniswapV2.sol:MetaheroLPMForUniswapV2",
            "label": "stableCoin",
            "offset": 0,
            "slot": "1",
            "type": "t_address"
          }
        ],
        "numberOfBytes": "64"
      },
      "t_uint256": {
        "encoding": "inplace",
        "label": "uint256",
        "numberOfBytes": "32"
      }
    }
  }
}