{
  "address": "0xB96E2A891e72B9aE5AA822C0Fe3Bd7F5E373eE0a",
  "abi": [
    {
      "inputs": [],
      "stateMutability": "nonpayable",
      "type": "constructor"
    },
    {
      "anonymous": false,
      "inputs": [
        {
          "indexed": true,
          "internalType": "address",
          "name": "claimer",
          "type": "address"
        },
        {
          "indexed": false,
          "internalType": "address",
          "name": "claimerWallet",
          "type": "address"
        }
      ],
      "name": "ClaimerWalletCreated",
      "type": "event"
    },
    {
      "anonymous": false,
      "inputs": [
        {
          "indexed": false,
          "internalType": "address",
          "name": "token",
          "type": "address"
        }
      ],
      "name": "Initialized",
      "type": "event"
    },
    {
      "anonymous": false,
      "inputs": [
        {
          "indexed": true,
          "internalType": "address",
          "name": "spender",
          "type": "address"
        },
        {
          "indexed": true,
          "internalType": "address",
          "name": "claimer",
          "type": "address"
        },
        {
          "indexed": false,
          "internalType": "address",
          "name": "claimerWallet",
          "type": "address"
        },
        {
          "indexed": false,
          "internalType": "uint256",
          "name": "amount",
          "type": "uint256"
        },
        {
          "indexed": false,
          "internalType": "uint256",
          "name": "deadline",
          "type": "uint256"
        }
      ],
      "name": "TokensLocked",
      "type": "event"
    },
    {
      "anonymous": false,
      "inputs": [
        {
          "indexed": true,
          "internalType": "address",
          "name": "spender",
          "type": "address"
        },
        {
          "indexed": true,
          "internalType": "address",
          "name": "claimer",
          "type": "address"
        },
        {
          "indexed": false,
          "internalType": "address",
          "name": "claimerWallet",
          "type": "address"
        },
        {
          "indexed": false,
          "internalType": "address",
          "name": "recipient",
          "type": "address"
        },
        {
          "indexed": false,
          "internalType": "uint256",
          "name": "amount",
          "type": "uint256"
        },
        {
          "indexed": false,
          "internalType": "uint256",
          "name": "deadline",
          "type": "uint256"
        }
      ],
      "name": "TokensUnlocked",
      "type": "event"
    },
    {
      "inputs": [],
      "name": "claimTokens",
      "outputs": [],
      "stateMutability": "nonpayable",
      "type": "function"
    },
    {
      "inputs": [
        {
          "internalType": "address",
          "name": "recipient",
          "type": "address"
        }
      ],
      "name": "claimTokensTo",
      "outputs": [],
      "stateMutability": "nonpayable",
      "type": "function"
    },
    {
      "inputs": [
        {
          "internalType": "address",
          "name": "claimer",
          "type": "address"
        }
      ],
      "name": "computeClaimerWallet",
      "outputs": [
        {
          "internalType": "address",
          "name": "result",
          "type": "address"
        }
      ],
      "stateMutability": "view",
      "type": "function"
    },
    {
      "inputs": [
        {
          "internalType": "address",
          "name": "claimer",
          "type": "address"
        }
      ],
      "name": "createClaimerWallet",
      "outputs": [],
      "stateMutability": "nonpayable",
      "type": "function"
    },
    {
      "inputs": [
        {
          "internalType": "address",
          "name": "claimer",
          "type": "address"
        }
      ],
      "name": "getClaimerTimeLocks",
      "outputs": [
        {
          "components": [
            {
              "internalType": "address",
              "name": "spender",
              "type": "address"
            },
            {
              "internalType": "uint256",
              "name": "amount",
              "type": "uint256"
            },
            {
              "internalType": "uint256",
              "name": "deadline",
              "type": "uint256"
            }
          ],
          "internalType": "struct MetaheroTimeLockRegistry.TimeLock[]",
          "name": "",
          "type": "tuple[]"
        }
      ],
      "stateMutability": "view",
      "type": "function"
    },
    {
      "inputs": [
        {
          "internalType": "address",
          "name": "token_",
          "type": "address"
        }
      ],
      "name": "initialize",
      "outputs": [],
      "stateMutability": "nonpayable",
      "type": "function"
    },
    {
      "inputs": [],
      "name": "initialized",
      "outputs": [
        {
          "internalType": "bool",
          "name": "",
          "type": "bool"
        }
      ],
      "stateMutability": "view",
      "type": "function"
    },
    {
      "inputs": [
        {
          "internalType": "uint256",
          "name": "amount",
          "type": "uint256"
        },
        {
          "internalType": "uint256",
          "name": "unlockedIn",
          "type": "uint256"
        }
      ],
      "name": "lockTokens",
      "outputs": [],
      "stateMutability": "nonpayable",
      "type": "function"
    },
    {
      "inputs": [
        {
          "internalType": "address",
          "name": "claimer",
          "type": "address"
        },
        {
          "internalType": "uint256",
          "name": "amount",
          "type": "uint256"
        },
        {
          "internalType": "uint256",
          "name": "unlockedIn",
          "type": "uint256"
        }
      ],
      "name": "lockTokensTo",
      "outputs": [],
      "stateMutability": "nonpayable",
      "type": "function"
    },
    {
      "inputs": [],
      "name": "token",
      "outputs": [
        {
          "internalType": "contract MetaheroToken",
          "name": "",
          "type": "address"
        }
      ],
      "stateMutability": "view",
      "type": "function"
    }
  ],
  "transactionHash": "0x3db0995dd6565ec17b83e98f516fa7be7c06844a5f9d6541f20fa0dcb39ff0ac",
  "args": [],
  "solcInputHash": "fab365b889fcb24061489606cb788823",
  "bytecode": "0x608060405234801561001057600080fd5b50336000806101000a81548173ffffffffffffffffffffffffffffffffffffffff021916908373ffffffffffffffffffffffffffffffffffffffff160217905550612f71806100606000396000f3fe60806040523480156200001157600080fd5b5060043610620000ac5760003560e01c8063ad9d0337116200006f578063ad9d03371462000155578063b6332d7b146200018b578063c4d66de814620001ab578063f03cdcfb14620001cb578063fc0c546a14620001eb57620000ac565b8063158ef93e14620000b157806335def8b314620000d357806348c54b9d14620000f357806357725dec14620000ff57806389158d8e1462000135575b600080fd5b620000bb6200020d565b604051620000ca9190620023e3565b60405180910390f35b620000f16004803603810190620000eb919062001b30565b62000263565b005b620000fd62000276565b005b6200011d600480360381019062000117919062001b04565b62000284565b6040516200012c9190620022ae565b60405180910390f35b6200015360048036038101906200014d919062001c08565b620004ac565b005b6200017360048036038101906200016d919062001b04565b620004be565b604051620001829190620023bf565b60405180910390f35b620001a96004803603810190620001a3919062001b04565b620005c8565b005b620001c96004803603810190620001c3919062001b04565b6200071a565b005b620001e96004803603810190620001e3919062001b04565b6200096f565b005b620001f56200097e565b60405162000204919062002400565b60405180910390f35b60008073ffffffffffffffffffffffffffffffffffffffff1660008054906101000a900473ffffffffffffffffffffffffffffffffffffffff1673ffffffffffffffffffffffffffffffffffffffff1614905090565b6200027133848484620009a4565b505050565b620002823333620010ed565b565b60008073ffffffffffffffffffffffffffffffffffffffff168273ffffffffffffffffffffffffffffffffffffffff1614620004a657600073ffffffffffffffffffffffffffffffffffffffff16600260008473ffffffffffffffffffffffffffffffffffffffff1673ffffffffffffffffffffffffffffffffffffffff16815260200190815260200160002060009054906101000a900473ffffffffffffffffffffffffffffffffffffffff1673ffffffffffffffffffffffffffffffffffffffff1614620003b657600260008373ffffffffffffffffffffffffffffffffffffffff1673ffffffffffffffffffffffffffffffffffffffff16815260200190815260200160002060009054906101000a900473ffffffffffffffffffffffffffffffffffffffff169050620004a5565b600082604051602001620003cb9190620021fc565b604051602081830303815290604052805190602001209050606060405180602001620003f79062001a7a565b6020820181038252601f19601f82011660405250600060a01b600160009054906101000a900473ffffffffffffffffffffffffffffffffffffffff1660405160200162000447939291906200226f565b6040516020818303038152906040529050600060ff60f81b308484805190602001206040516020016200047e949392919062002219565b6040516020818303038152906040528051906020012090508060001c9350505050620004a7565b5b5b919050565b620004ba33338484620009a4565b5050565b6060600360008373ffffffffffffffffffffffffffffffffffffffff1673ffffffffffffffffffffffffffffffffffffffff168152602001908152602001600020805480602002602001604051908101604052809291908181526020016000905b82821015620005bd57838290600052602060002090600302016040518060600160405290816000820160009054906101000a900473ffffffffffffffffffffffffffffffffffffffff1673ffffffffffffffffffffffffffffffffffffffff1673ffffffffffffffffffffffffffffffffffffffff16815260200160018201548152602001600282015481525050815260200190600101906200051f565b505050509050919050565b600073ffffffffffffffffffffffffffffffffffffffff168173ffffffffffffffffffffffffffffffffffffffff1614156200063b576040517f08c379a00000000000000000000000000000000000000000000000000000000081526004016200063290620025b5565b60405180910390fd5b600073ffffffffffffffffffffffffffffffffffffffff16600260008373ffffffffffffffffffffffffffffffffffffffff1673ffffffffffffffffffffffffffffffffffffffff16815260200190815260200160002060009054906101000a900473ffffffffffffffffffffffffffffffffffffffff1673ffffffffffffffffffffffffffffffffffffffff16146200070c576040517f08c379a000000000000000000000000000000000000000000000000000000000815260040162000703906200252d565b60405180910390fd5b6200071781620018be565b50565b600073ffffffffffffffffffffffffffffffffffffffff1660008054906101000a900473ffffffffffffffffffffffffffffffffffffffff1673ffffffffffffffffffffffffffffffffffffffff161415620007ad576040517f08c379a0000000000000000000000000000000000000000000000000000000008152600401620007a49062002571565b60405180910390fd5b60008054906101000a900473ffffffffffffffffffffffffffffffffffffffff1673ffffffffffffffffffffffffffffffffffffffff163373ffffffffffffffffffffffffffffffffffffffff16146200083e576040517f08c379a000000000000000000000000000000000000000000000000000000000815260040162000835906200254f565b60405180910390fd5b60008060006101000a81548173ffffffffffffffffffffffffffffffffffffffff021916908373ffffffffffffffffffffffffffffffffffffffff160217905550600073ffffffffffffffffffffffffffffffffffffffff168173ffffffffffffffffffffffffffffffffffffffff161415620008f2576040517f08c379a0000000000000000000000000000000000000000000000000000000008152600401620008e99062002461565b60405180910390fd5b80600160006101000a81548173ffffffffffffffffffffffffffffffffffffffff021916908373ffffffffffffffffffffffffffffffffffffffff1602179055507f908408e307fc569b417f6cbec5d5a06f44a0a505ac0479b47d421a4b2fd6a1e681604051620009649190620022ae565b60405180910390a150565b6200097b3382620010ed565b50565b600160009054906101000a900473ffffffffffffffffffffffffffffffffffffffff1681565b600073ffffffffffffffffffffffffffffffffffffffff168373ffffffffffffffffffffffffffffffffffffffff16141562000a17576040517f08c379a000000000000000000000000000000000000000000000000000000000815260040162000a0e906200241d565b60405180910390fd5b600082141562000a5e576040517f08c379a000000000000000000000000000000000000000000000000000000000815260040162000a55906200243f565b60405180910390fd5b600073ffffffffffffffffffffffffffffffffffffffff16600260008573ffffffffffffffffffffffffffffffffffffffff1673ffffffffffffffffffffffffffffffffffffffff16815260200190815260200160002060009054906101000a900473ffffffffffffffffffffffffffffffffffffffff1673ffffffffffffffffffffffffffffffffffffffff16141562000aff5762000afe83620018be565b5b600062000b16824262001a2290919063ffffffff16565b90506000600260008673ffffffffffffffffffffffffffffffffffffffff1673ffffffffffffffffffffffffffffffffffffffff16815260200190815260200160002060009054906101000a900473ffffffffffffffffffffffffffffffffffffffff16905060008573ffffffffffffffffffffffffffffffffffffffff168773ffffffffffffffffffffffffffffffffffffffff161462000cae57600160009054906101000a900473ffffffffffffffffffffffffffffffffffffffff1673ffffffffffffffffffffffffffffffffffffffff1663da498b83886040518263ffffffff1660e01b815260040162000c0f9190620022ae565b60606040518083038186803b15801562000c2857600080fd5b505afa15801562000c3d573d6000803e3d6000fd5b505050506040513d601f19601f8201168201806040525081019062000c63919062001bb2565b905050809150508062000cad576040517f08c379a000000000000000000000000000000000000000000000000000000000815260040162000ca490620025d7565b60405180910390fd5b5b600160009054906101000a900473ffffffffffffffffffffffffffffffffffffffff1673ffffffffffffffffffffffffffffffffffffffff1663da498b83876040518263ffffffff1660e01b815260040162000d0b9190620022ae565b60606040518083038186803b15801562000d2457600080fd5b505afa15801562000d39573d6000803e3d6000fd5b505050506040513d601f19601f8201168201806040525081019062000d5f919062001bb2565b905050809150508062000da9576040517f08c379a000000000000000000000000000000000000000000000000000000000815260040162000da0906200250b565b60405180910390fd5b600160009054906101000a900473ffffffffffffffffffffffffffffffffffffffff1673ffffffffffffffffffffffffffffffffffffffff1663da498b83836040518263ffffffff1660e01b815260040162000e069190620022ae565b60606040518083038186803b15801562000e1f57600080fd5b505afa15801562000e34573d6000803e3d6000fd5b505050506040513d601f19601f8201168201806040525081019062000e5a919062001bb2565b905050809150508062000ea4576040517f08c379a000000000000000000000000000000000000000000000000000000000815260040162000e9b90620024c7565b60405180910390fd5b600160009054906101000a900473ffffffffffffffffffffffffffffffffffffffff1673ffffffffffffffffffffffffffffffffffffffff166323b872dd8884886040518463ffffffff1660e01b815260040162000f0593929190620022cb565b602060405180830381600087803b15801562000f2057600080fd5b505af115801562000f35573d6000803e3d6000fd5b505050506040513d601f19601f8201168201806040525081019062000f5b919062001b86565b5062000f6662001a88565b87816000019073ffffffffffffffffffffffffffffffffffffffff16908173ffffffffffffffffffffffffffffffffffffffff16815250508581602001818152505083816040018181525050600360008873ffffffffffffffffffffffffffffffffffffffff1673ffffffffffffffffffffffffffffffffffffffff16815260200190815260200160002081908060018154018082558091505060019003906000526020600020906003020160009091909190915060008201518160000160006101000a81548173ffffffffffffffffffffffffffffffffffffffff021916908373ffffffffffffffffffffffffffffffffffffffff160217905550602082015181600101556040820151816002015550508673ffffffffffffffffffffffffffffffffffffffff168873ffffffffffffffffffffffffffffffffffffffff167f0f7ae9891fe5b877ffdd33621970db3e5d162185914f1db43da2474c9fbc2948858988604051620010db9392919062002382565b60405180910390a35050505050505050565b600073ffffffffffffffffffffffffffffffffffffffff16600260008473ffffffffffffffffffffffffffffffffffffffff1673ffffffffffffffffffffffffffffffffffffffff16815260200190815260200160002060009054906101000a900473ffffffffffffffffffffffffffffffffffffffff1673ffffffffffffffffffffffffffffffffffffffff161415620011bf576040517f08c379a0000000000000000000000000000000000000000000000000000000008152600401620011b690620024a5565b60405180910390fd5b600073ffffffffffffffffffffffffffffffffffffffff168173ffffffffffffffffffffffffffffffffffffffff16141562001232576040517f08c379a00000000000000000000000000000000000000000000000000000000081526004016200122990620024e9565b60405180910390fd5b8173ffffffffffffffffffffffffffffffffffffffff168173ffffffffffffffffffffffffffffffffffffffff161462001362576000600160009054906101000a900473ffffffffffffffffffffffffffffffffffffffff1673ffffffffffffffffffffffffffffffffffffffff1663da498b83836040518263ffffffff1660e01b8152600401620012c59190620022ae565b60606040518083038186803b158015620012de57600080fd5b505afa158015620012f3573d6000803e3d6000fd5b505050506040513d601f19601f8201168201806040525081019062001319919062001bb2565b505090508062001360576040517f08c379a00000000000000000000000000000000000000000000000000000000081526004016200135790620025f9565b60405180910390fd5b505b600080600360008573ffffffffffffffffffffffffffffffffffffffff1673ffffffffffffffffffffffffffffffffffffffff16815260200190815260200160002080549050905060008114620017a1576000600182039050620013c562001a88565b60005b8281116200179d57600360008873ffffffffffffffffffffffffffffffffffffffff1673ffffffffffffffffffffffffffffffffffffffff16815260200190815260200160002081815481106200141b57fe5b90600052602060002090600302016040518060600160405290816000820160009054906101000a900473ffffffffffffffffffffffffffffffffffffffff1673ffffffffffffffffffffffffffffffffffffffff1673ffffffffffffffffffffffffffffffffffffffff168152602001600182015481526020016002820154815250509150428260400151116200178e57828114620015f357600360008873ffffffffffffffffffffffffffffffffffffffff1673ffffffffffffffffffffffffffffffffffffffff1681526020019081526020016000208381548110620014ff57fe5b9060005260206000209060030201600360008973ffffffffffffffffffffffffffffffffffffffff1673ffffffffffffffffffffffffffffffffffffffff16815260200190815260200160002082815481106200155857fe5b90600052602060002090600302016000820160009054906101000a900473ffffffffffffffffffffffffffffffffffffffff168160000160006101000a81548173ffffffffffffffffffffffffffffffffffffffff021916908373ffffffffffffffffffffffffffffffffffffffff1602179055506001820154816001015560028201548160020155905050828060019003935050620015fc565b80806001019150505b6200161582602001518662001a2290919063ffffffff16565b94508673ffffffffffffffffffffffffffffffffffffffff16826000015173ffffffffffffffffffffffffffffffffffffffff167fdd2282cf3fa66052eb013bd9fb1898f86ba7367d1be59d3f3c7dabdd0a00ced0600260008b73ffffffffffffffffffffffffffffffffffffffff1673ffffffffffffffffffffffffffffffffffffffff16815260200190815260200160002060009054906101000a900473ffffffffffffffffffffffffffffffffffffffff168986602001518760400151604051620016e7949392919062002308565b60405180910390a3600360008873ffffffffffffffffffffffffffffffffffffffff1673ffffffffffffffffffffffffffffffffffffffff1681526020019081526020016000208054806200173857fe5b6001900381819060005260206000209060030201600080820160006101000a81549073ffffffffffffffffffffffffffffffffffffffff0219169055600182016000905560028201600090555050905562001797565b80806001019150505b620013c8565b5050505b6000821415620017e8576040517f08c379a0000000000000000000000000000000000000000000000000000000008152600401620017df9062002593565b60405180910390fd5b600260008573ffffffffffffffffffffffffffffffffffffffff1673ffffffffffffffffffffffffffffffffffffffff16815260200190815260200160002060009054906101000a900473ffffffffffffffffffffffffffffffffffffffff1673ffffffffffffffffffffffffffffffffffffffff1663bec3fa1784846040518363ffffffff1660e01b81526004016200188492919062002355565b600060405180830381600087803b1580156200189f57600080fd5b505af1158015620018b4573d6000803e3d6000fd5b5050505050505050565b600081604051602001620018d39190620021fc565b604051602081830303815290604052805190602001209050600081600160009054906101000a900473ffffffffffffffffffffffffffffffffffffffff166040516200191f9062001a7a565b6200192b9190620022ae565b8190604051809103906000f59050801580156200194c573d6000803e3d6000fd5b50905080600260008573ffffffffffffffffffffffffffffffffffffffff1673ffffffffffffffffffffffffffffffffffffffff16815260200190815260200160002060006101000a81548173ffffffffffffffffffffffffffffffffffffffff021916908373ffffffffffffffffffffffffffffffffffffffff1602179055508273ffffffffffffffffffffffffffffffffffffffff167f78ad32478b43e6ce1e20ccc71466410de348e267c4b0812e1f60fcb81094a0d48260405162001a159190620022ae565b60405180910390a2505050565b60008082840190508381101562001a70576040517f08c379a000000000000000000000000000000000000000000000000000000000815260040162001a679062002483565b60405180910390fd5b8091505092915050565b61073e806200282783390190565b6040518060600160405280600073ffffffffffffffffffffffffffffffffffffffff16815260200160008152602001600081525090565b60008135905062001ad081620027d8565b92915050565b60008151905062001ae781620027f2565b92915050565b60008135905062001afe816200280c565b92915050565b60006020828403121562001b1757600080fd5b600062001b278482850162001abf565b91505092915050565b60008060006060848603121562001b4657600080fd5b600062001b568682870162001abf565b935050602062001b698682870162001aed565b925050604062001b7c8682870162001aed565b9150509250925092565b60006020828403121562001b9957600080fd5b600062001ba98482850162001ad6565b91505092915050565b60008060006060848603121562001bc857600080fd5b600062001bd88682870162001ad6565b935050602062001beb8682870162001ad6565b925050604062001bfe8682870162001ad6565b9150509250925092565b6000806040838503121562001c1c57600080fd5b600062001c2c8582860162001aed565b925050602062001c3f8582860162001aed565b9150509250929050565b600062001c57838362002192565b60608301905092915050565b62001c6e816200267b565b82525050565b62001c7f816200267b565b82525050565b62001c9a62001c94826200267b565b62002785565b82525050565b600062001cad826200262b565b62001cb981856200264e565b935062001cc6836200261b565b8060005b8381101562001cfd57815162001ce1888262001c49565b975062001cee8362002641565b92505060018101905062001cca565b5085935050505092915050565b62001d15816200268f565b82525050565b62001d3062001d2a82620026c7565b620027a3565b82525050565b62001d4b62001d45826200269b565b62002799565b82525050565b62001d6662001d6082620026f3565b620027ad565b82525050565b600062001d798262002636565b62001d8581856200265f565b935062001d978185602086016200274f565b80840191505092915050565b62001dae8162002727565b82525050565b600062001dc3601a836200266a565b91507f4d6574616865726f54696d654c6f636b526567697374727923340000000000006000830152602082019050919050565b600062001e05601a836200266a565b91507f4d6574616865726f54696d654c6f636b526567697374727923350000000000006000830152602082019050919050565b600062001e47601a836200266a565b91507f4d6574616865726f54696d654c6f636b526567697374727923310000000000006000830152602082019050919050565b600062001e89600d836200266a565b91507f536166654d6174684c69622331000000000000000000000000000000000000006000830152602082019050919050565b600062001ecb601a836200266a565b91507f4d6574616865726f54696d654c6f636b526567697374727923390000000000006000830152602082019050919050565b600062001f0d601a836200266a565b91507f4d6574616865726f54696d654c6f636b526567697374727923380000000000006000830152602082019050919050565b600062001f4f601b836200266a565b91507f4d6574616865726f54696d654c6f636b526567697374727923313000000000006000830152602082019050919050565b600062001f91601a836200266a565b91507f4d6574616865726f54696d654c6f636b526567697374727923370000000000006000830152602082019050919050565b600062001fd3601a836200266a565b91507f4d6574616865726f54696d654c6f636b526567697374727923330000000000006000830152602082019050919050565b600062002015600f836200266a565b91507f496e697469616c697a61626c65233200000000000000000000000000000000006000830152602082019050919050565b600062002057600f836200266a565b91507f496e697469616c697a61626c65233100000000000000000000000000000000006000830152602082019050919050565b600062002099601b836200266a565b91507f4d6574616865726f54696d654c6f636b526567697374727923313200000000006000830152602082019050919050565b6000620020db601a836200266a565b91507f4d6574616865726f54696d654c6f636b526567697374727923320000000000006000830152602082019050919050565b60006200211d601a836200266a565b91507f4d6574616865726f54696d654c6f636b526567697374727923360000000000006000830152602082019050919050565b60006200215f601b836200266a565b91507f4d6574616865726f54696d654c6f636b526567697374727923313100000000006000830152602082019050919050565b606082016000820151620021aa600085018262001c63565b506020820151620021bf6020850182620021da565b506040820151620021d46040850182620021da565b50505050565b620021e5816200271d565b82525050565b620021f6816200271d565b82525050565b60006200220a828462001c85565b60148201915081905092915050565b600062002227828762001d36565b60018201915062002239828662001c85565b6014820191506200224b828562001d51565b6020820191506200225d828462001d51565b60208201915081905095945050505050565b60006200227d828662001d6c565b91506200228b828562001d1b565b600c820191506200229d828462001c85565b601482019150819050949350505050565b6000602082019050620022c5600083018462001c74565b92915050565b6000606082019050620022e2600083018662001c74565b620022f1602083018562001c74565b620023006040830184620021eb565b949350505050565b60006080820190506200231f600083018762001c74565b6200232e602083018662001c74565b6200233d6040830185620021eb565b6200234c6060830184620021eb565b95945050505050565b60006040820190506200236c600083018562001c74565b6200237b6020830184620021eb565b9392505050565b600060608201905062002399600083018662001c74565b620023a86020830185620021eb565b620023b76040830184620021eb565b949350505050565b60006020820190508181036000830152620023db818462001ca0565b905092915050565b6000602082019050620023fa600083018462001d0a565b92915050565b600060208201905062002417600083018462001da3565b92915050565b60006020820190508181036000830152620024388162001db4565b9050919050565b600060208201905081810360008301526200245a8162001df6565b9050919050565b600060208201905081810360008301526200247c8162001e38565b9050919050565b600060208201905081810360008301526200249e8162001e7a565b9050919050565b60006020820190508181036000830152620024c08162001ebc565b9050919050565b60006020820190508181036000830152620024e28162001efe565b9050919050565b60006020820190508181036000830152620025048162001f40565b9050919050565b60006020820190508181036000830152620025268162001f82565b9050919050565b60006020820190508181036000830152620025488162001fc4565b9050919050565b600060208201905081810360008301526200256a8162002006565b9050919050565b600060208201905081810360008301526200258c8162002048565b9050919050565b60006020820190508181036000830152620025ae816200208a565b9050919050565b60006020820190508181036000830152620025d081620020cc565b9050919050565b60006020820190508181036000830152620025f2816200210e565b9050919050565b60006020820190508181036000830152620026148162002150565b9050919050565b6000819050602082019050919050565b600081519050919050565b600081519050919050565b6000602082019050919050565b600082825260208201905092915050565b600081905092915050565b600082825260208201905092915050565b60006200268882620026fd565b9050919050565b60008115159050919050565b60007fff0000000000000000000000000000000000000000000000000000000000000082169050919050565b60007fffffffffffffffffffffffff000000000000000000000000000000000000000082169050919050565b6000819050919050565b600073ffffffffffffffffffffffffffffffffffffffff82169050919050565b6000819050919050565b600062002734826200273b565b9050919050565b60006200274882620026fd565b9050919050565b60005b838110156200276f57808201518184015260208101905062002752565b838111156200277f576000848401525b50505050565b60006200279282620027b7565b9050919050565b6000819050919050565b6000819050919050565b6000819050919050565b6000620027c482620027cb565b9050919050565b60008160601b9050919050565b620027e3816200267b565b8114620027ef57600080fd5b50565b620027fd816200268f565b81146200280957600080fd5b50565b62002817816200271d565b81146200282357600080fd5b5056fe608060405234801561001057600080fd5b5060405161073e38038061073e833981810160405281019061003291906100ce565b806000806101000a81548173ffffffffffffffffffffffffffffffffffffffff021916908373ffffffffffffffffffffffffffffffffffffffff16021790555033600160006101000a81548173ffffffffffffffffffffffffffffffffffffffff021916908373ffffffffffffffffffffffffffffffffffffffff16021790555050610140565b6000815190506100c881610129565b92915050565b6000602082840312156100e057600080fd5b60006100ee848285016100b9565b91505092915050565b600061010282610109565b9050919050565b600073ffffffffffffffffffffffffffffffffffffffff82169050919050565b610132816100f7565b811461013d57600080fd5b50565b6105ef8061014f6000396000f3fe608060405234801561001057600080fd5b50600436106100415760003560e01c80637b10399914610046578063bec3fa1714610064578063fc0c546a14610080575b600080fd5b61004e61009e565b60405161005b9190610477565b60405180910390f35b61007e6004803603810190610079919061032c565b6100c4565b005b6100886102c9565b6040516100959190610477565b60405180910390f35b600160009054906101000a900473ffffffffffffffffffffffffffffffffffffffff1681565b600160009054906101000a900473ffffffffffffffffffffffffffffffffffffffff1673ffffffffffffffffffffffffffffffffffffffff163373ffffffffffffffffffffffffffffffffffffffff1614610154576040517f08c379a000000000000000000000000000000000000000000000000000000000815260040161014b906104db565b60405180910390fd5b6000606060008054906101000a900473ffffffffffffffffffffffffffffffffffffffff1673ffffffffffffffffffffffffffffffffffffffff1663a9059cbb60e01b85856040516024016101aa929190610492565b604051602081830303815290604052907bffffffffffffffffffffffffffffffffffffffffffffffffffffffff19166020820180517bffffffffffffffffffffffffffffffffffffffffffffffffffffffff83818316178352505050506040516102149190610460565b6000604051808303816000865af19150503d8060008114610251576040519150601f19603f3d011682016040523d82523d6000602084013e610256565b606091505b509150915081801561028457506000815114806102835750808060200190518101906102829190610368565b5b5b6102c3576040517f08c379a00000000000000000000000000000000000000000000000000000000081526004016102ba906104bb565b60405180910390fd5b50505050565b60008054906101000a900473ffffffffffffffffffffffffffffffffffffffff1681565b6000813590506102fc8161059d565b92915050565b600081519050610311816105b4565b92915050565b600081359050610326816105cb565b92915050565b6000806040838503121561033f57600080fd5b600061034d858286016102ed565b925050602061035e85828601610317565b9150509250929050565b60006020828403121561037a57600080fd5b600061038884828501610302565b91505092915050565b61039a81610522565b82525050565b60006103ab826104fb565b6103b58185610506565b93506103c581856020860161056a565b80840191505092915050565b60006103de601883610511565b91507f4d6574616865726f54696d654c6f636b57616c6c6574233200000000000000006000830152602082019050919050565b600061041e601883610511565b91507f4d6574616865726f54696d654c6f636b57616c6c6574233100000000000000006000830152602082019050919050565b61045a81610560565b82525050565b600061046c82846103a0565b915081905092915050565b600060208201905061048c6000830184610391565b92915050565b60006040820190506104a76000830185610391565b6104b46020830184610451565b9392505050565b600060208201905081810360008301526104d4816103d1565b9050919050565b600060208201905081810360008301526104f481610411565b9050919050565b600081519050919050565b600081905092915050565b600082825260208201905092915050565b600061052d82610540565b9050919050565b60008115159050919050565b600073ffffffffffffffffffffffffffffffffffffffff82169050919050565b6000819050919050565b60005b8381101561058857808201518184015260208101905061056d565b83811115610597576000848401525b50505050565b6105a681610522565b81146105b157600080fd5b50565b6105bd81610534565b81146105c857600080fd5b50565b6105d481610560565b81146105df57600080fd5b5056fea164736f6c634300060c000aa164736f6c634300060c000a",
  "devdoc": {
    "author": "Stanisaw Gogowski <stan@metahero.io>",
    "events": {
      "ClaimerWalletCreated(address,address)": {
        "details": "Emitted when the claimer wallet is created",
        "params": {
          "claimer": "claimer address",
          "claimerWallet": "claimer wallet address"
        }
      },
      "Initialized(address)": {
        "details": "Emitted when the contract is initialized",
        "params": {
          "token": "token address"
        }
      },
      "TokensLocked(address,address,address,uint256,uint256)": {
        "details": "Emitted when tokens are locked",
        "params": {
          "amount": "tokens amount",
          "claimer": "claimer address",
          "claimerWallet": "claimer wallet address",
          "deadline": "deadline in seconds",
          "spender": "spender address"
        }
      },
      "TokensUnlocked(address,address,address,address,uint256,uint256)": {
        "details": "Emitted when tokens are unlocked",
        "params": {
          "amount": "tokens amount",
          "claimer": "claimer address",
          "claimerWallet": "claimer wallet address",
          "deadline": "deadline in seconds",
          "recipient": "recipient address",
          "spender": "spender address"
        }
      }
    },
    "kind": "dev",
    "methods": {
      "claimTokens()": {
        "details": "Claims tokens"
      },
      "claimTokensTo(address)": {
        "details": "Claims tokens to recipient",
        "params": {
          "recipient": "recipient address"
        }
      },
      "computeClaimerWallet(address)": {
        "details": "Computes claimer wallet",
        "params": {
          "claimer": "claimer address"
        },
        "returns": {
          "result": "claimer wallet address"
        }
      },
      "constructor": {
        "details": "Public constructor"
      },
      "createClaimerWallet(address)": {
        "details": "Creates claimer wallet",
        "params": {
          "claimer": "claimer address"
        }
      },
      "getClaimerTimeLocks(address)": {
        "details": "Gets claimer time locks",
        "params": {
          "claimer": "claimer address"
        },
        "returns": {
          "_0": "array of time locks"
        }
      },
      "initialize(address)": {
        "details": "Initializes the contract",
        "params": {
          "token_": "token address"
        }
      },
      "initialized()": {
        "returns": {
          "_0": "true when contract is initialized"
        }
      },
      "lockTokens(uint256,uint256)": {
        "details": "Locks own tokens",
        "params": {
          "amount": "tokens amount",
          "unlockedIn": "seconds to unlock"
        }
      },
      "lockTokensTo(address,uint256,uint256)": {
        "details": "Locks tokens to claimer",
        "params": {
          "amount": "tokens amount",
          "claimer": "claimer address",
          "unlockedIn": "seconds to unlock"
        }
      }
    },
    "stateVariables": {
      "token": {
        "return": "token address"
      }
    },
    "title": "Metahero time lock registry",
    "version": 1
  },
  "userdoc": {
    "kind": "user",
    "methods": {
      "initialized()": {
        "notice": "Checks if contract is initialized"
      }
    },
    "version": 1
  },
  "storageLayout": {
    "storage": [
      {
        "astId": 5458,
        "contract": "src/MetaheroTimeLockRegistry.sol:MetaheroTimeLockRegistry",
        "label": "initializer",
        "offset": 0,
        "slot": "0",
        "type": "t_address"
      },
      {
        "astId": 1571,
        "contract": "src/MetaheroTimeLockRegistry.sol:MetaheroTimeLockRegistry",
        "label": "token",
        "offset": 0,
        "slot": "1",
        "type": "t_contract(MetaheroToken)4624"
      },
      {
        "astId": 1575,
        "contract": "src/MetaheroTimeLockRegistry.sol:MetaheroTimeLockRegistry",
        "label": "claimerWallets",
        "offset": 0,
        "slot": "2",
        "type": "t_mapping(t_address,t_address)"
      },
      {
        "astId": 1580,
        "contract": "src/MetaheroTimeLockRegistry.sol:MetaheroTimeLockRegistry",
        "label": "claimerTimeLocks",
        "offset": 0,
        "slot": "3",
        "type": "t_mapping(t_address,t_array(t_struct(TimeLock)1568_storage)dyn_storage)"
      }
    ],
    "types": {
      "t_address": {
        "encoding": "inplace",
        "label": "address",
        "numberOfBytes": "20"
      },
      "t_array(t_struct(TimeLock)1568_storage)dyn_storage": {
        "base": "t_struct(TimeLock)1568_storage",
        "encoding": "dynamic_array",
        "label": "struct MetaheroTimeLockRegistry.TimeLock[]",
        "numberOfBytes": "32"
      },
      "t_contract(MetaheroToken)4624": {
        "encoding": "inplace",
        "label": "contract MetaheroToken",
        "numberOfBytes": "20"
      },
      "t_mapping(t_address,t_address)": {
        "encoding": "mapping",
        "key": "t_address",
        "label": "mapping(address => address)",
        "numberOfBytes": "32",
        "value": "t_address"
      },
      "t_mapping(t_address,t_array(t_struct(TimeLock)1568_storage)dyn_storage)": {
        "encoding": "mapping",
        "key": "t_address",
        "label": "mapping(address => struct MetaheroTimeLockRegistry.TimeLock[])",
        "numberOfBytes": "32",
        "value": "t_array(t_struct(TimeLock)1568_storage)dyn_storage"
      },
      "t_struct(TimeLock)1568_storage": {
        "encoding": "inplace",
        "label": "struct MetaheroTimeLockRegistry.TimeLock",
        "members": [
          {
            "astId": 1563,
            "contract": "src/MetaheroTimeLockRegistry.sol:MetaheroTimeLockRegistry",
            "label": "spender",
            "offset": 0,
            "slot": "0",
            "type": "t_address"
          },
          {
            "astId": 1565,
            "contract": "src/MetaheroTimeLockRegistry.sol:MetaheroTimeLockRegistry",
            "label": "amount",
            "offset": 0,
            "slot": "1",
            "type": "t_uint256"
          },
          {
            "astId": 1567,
            "contract": "src/MetaheroTimeLockRegistry.sol:MetaheroTimeLockRegistry",
            "label": "deadline",
            "offset": 0,
            "slot": "2",
            "type": "t_uint256"
          }
        ],
        "numberOfBytes": "96"
      },
      "t_uint256": {
        "encoding": "inplace",
        "label": "uint256",
        "numberOfBytes": "32"
      }
    }
  }
}