{
  "address": "0x144851722E8659c814DF0B912500AF085E8139AC",
  "abi": [
    {
      "inputs": [],
      "stateMutability": "nonpayable",
      "type": "constructor"
    },
    {
      "anonymous": false,
      "inputs": [
        {
          "indexed": true,
          "internalType": "address",
          "name": "claimer",
          "type": "address"
        },
        {
          "indexed": false,
          "internalType": "address",
          "name": "claimerWallet",
          "type": "address"
        }
      ],
      "name": "ClaimerWalletCreated",
      "type": "event"
    },
    {
      "anonymous": false,
      "inputs": [
        {
          "indexed": false,
          "internalType": "address",
          "name": "token",
          "type": "address"
        }
      ],
      "name": "Initialized",
      "type": "event"
    },
    {
      "anonymous": false,
      "inputs": [
        {
          "indexed": true,
          "internalType": "address",
          "name": "spender",
          "type": "address"
        },
        {
          "indexed": true,
          "internalType": "address",
          "name": "claimer",
          "type": "address"
        },
        {
          "indexed": false,
          "internalType": "address",
          "name": "claimerWallet",
          "type": "address"
        },
        {
          "indexed": false,
          "internalType": "uint256",
          "name": "amount",
          "type": "uint256"
        },
        {
          "indexed": false,
          "internalType": "uint256",
          "name": "deadline",
          "type": "uint256"
        }
      ],
      "name": "TokensLocked",
      "type": "event"
    },
    {
      "anonymous": false,
      "inputs": [
        {
          "indexed": true,
          "internalType": "address",
          "name": "spender",
          "type": "address"
        },
        {
          "indexed": true,
          "internalType": "address",
          "name": "claimer",
          "type": "address"
        },
        {
          "indexed": false,
          "internalType": "address",
          "name": "claimerWallet",
          "type": "address"
        },
        {
          "indexed": false,
          "internalType": "address",
          "name": "recipient",
          "type": "address"
        },
        {
          "indexed": false,
          "internalType": "uint256",
          "name": "amount",
          "type": "uint256"
        },
        {
          "indexed": false,
          "internalType": "uint256",
          "name": "deadline",
          "type": "uint256"
        }
      ],
      "name": "TokensUnlocked",
      "type": "event"
    },
    {
      "inputs": [],
      "name": "claimTokens",
      "outputs": [],
      "stateMutability": "nonpayable",
      "type": "function"
    },
    {
      "inputs": [
        {
          "internalType": "address",
          "name": "recipient",
          "type": "address"
        }
      ],
      "name": "claimTokensTo",
      "outputs": [],
      "stateMutability": "nonpayable",
      "type": "function"
    },
    {
      "inputs": [
        {
          "internalType": "address",
          "name": "claimer",
          "type": "address"
        }
      ],
      "name": "computeClaimerWallet",
      "outputs": [
        {
          "internalType": "address",
          "name": "result",
          "type": "address"
        }
      ],
      "stateMutability": "view",
      "type": "function"
    },
    {
      "inputs": [
        {
          "internalType": "address",
          "name": "claimer",
          "type": "address"
        }
      ],
      "name": "createClaimerWallet",
      "outputs": [],
      "stateMutability": "nonpayable",
      "type": "function"
    },
    {
      "inputs": [
        {
          "internalType": "address",
          "name": "claimer",
          "type": "address"
        }
      ],
      "name": "getClaimerTimeLocks",
      "outputs": [
        {
          "components": [
            {
              "internalType": "address",
              "name": "spender",
              "type": "address"
            },
            {
              "internalType": "uint256",
              "name": "amount",
              "type": "uint256"
            },
            {
              "internalType": "uint256",
              "name": "deadline",
              "type": "uint256"
            }
          ],
          "internalType": "struct MetaheroTimeLockRegistry.TimeLock[]",
          "name": "",
          "type": "tuple[]"
        }
      ],
      "stateMutability": "view",
      "type": "function"
    },
    {
      "inputs": [
        {
          "internalType": "address",
          "name": "token_",
          "type": "address"
        }
      ],
      "name": "initialize",
      "outputs": [],
      "stateMutability": "nonpayable",
      "type": "function"
    },
    {
      "inputs": [],
      "name": "initialized",
      "outputs": [
        {
          "internalType": "bool",
          "name": "",
          "type": "bool"
        }
      ],
      "stateMutability": "view",
      "type": "function"
    },
    {
      "inputs": [
        {
          "internalType": "uint256",
          "name": "amount",
          "type": "uint256"
        },
        {
          "internalType": "uint256",
          "name": "unlockedIn",
          "type": "uint256"
        }
      ],
      "name": "lockTokens",
      "outputs": [],
      "stateMutability": "nonpayable",
      "type": "function"
    },
    {
      "inputs": [
        {
          "internalType": "address",
          "name": "claimer",
          "type": "address"
        },
        {
          "internalType": "uint256",
          "name": "amount",
          "type": "uint256"
        },
        {
          "internalType": "uint256",
          "name": "unlockedIn",
          "type": "uint256"
        }
      ],
      "name": "lockTokensTo",
      "outputs": [],
      "stateMutability": "nonpayable",
      "type": "function"
    },
    {
      "inputs": [],
      "name": "token",
      "outputs": [
        {
          "internalType": "contract MetaheroToken",
          "name": "",
          "type": "address"
        }
      ],
      "stateMutability": "view",
      "type": "function"
    }
  ],
  "transactionHash": "0x5af91371f0ec51ba6e720e8c47e14aa210bd2072e47e4ecfdf421d5e1a9fec12",
  "args": [],
  "solcInputHash": "ef4989efa865d0b023c4ebe508d3bef8",
  "bytecode": "0x608060405234801561001057600080fd5b50336000806101000a81548173ffffffffffffffffffffffffffffffffffffffff021916908373ffffffffffffffffffffffffffffffffffffffff160217905550612cc5806100606000396000f3fe60806040523480156200001157600080fd5b5060043610620000ac5760003560e01c8063ad9d0337116200006f578063ad9d03371462000155578063b6332d7b146200018b578063c4d66de814620001ab578063f03cdcfb14620001cb578063fc0c546a14620001eb57620000ac565b8063158ef93e14620000b157806335def8b314620000d357806348c54b9d14620000f357806357725dec14620000ff57806389158d8e1462000135575b600080fd5b620000bb6200020d565b604051620000ca91906200227c565b60405180910390f35b620000f16004803603810190620000eb919062001a66565b62000263565b005b620000fd62000275565b005b6200011d600480360381019062000117919062001a3a565b62000282565b6040516200012c919062002147565b60405180910390f35b6200015360048036038101906200014d919062001b14565b620004aa565b005b6200017360048036038101906200016d919062001a3a565b620004bb565b60405162000182919062002258565b60405180910390f35b620001a96004803603810190620001a3919062001a3a565b620005c5565b005b620001c96004803603810190620001c3919062001a3a565b62000717565b005b620001e96004803603810190620001e3919062001a3a565b6200096c565b005b620001f56200097a565b60405162000204919062002299565b60405180910390f35b60008073ffffffffffffffffffffffffffffffffffffffff1660008054906101000a900473ffffffffffffffffffffffffffffffffffffffff1673ffffffffffffffffffffffffffffffffffffffff1614905090565b62000270838383620009a0565b505050565b620002803362000f7e565b565b60008073ffffffffffffffffffffffffffffffffffffffff168273ffffffffffffffffffffffffffffffffffffffff1614620004a457600073ffffffffffffffffffffffffffffffffffffffff16600260008473ffffffffffffffffffffffffffffffffffffffff1673ffffffffffffffffffffffffffffffffffffffff16815260200190815260200160002060009054906101000a900473ffffffffffffffffffffffffffffffffffffffff1673ffffffffffffffffffffffffffffffffffffffff1614620003b457600260008373ffffffffffffffffffffffffffffffffffffffff1673ffffffffffffffffffffffffffffffffffffffff16815260200190815260200160002060009054906101000a900473ffffffffffffffffffffffffffffffffffffffff169050620004a3565b600082604051602001620003c9919062002095565b604051602081830303815290604052805190602001209050606060405180602001620003f59062001999565b6020820181038252601f19601f82011660405250600060a01b600160009054906101000a900473ffffffffffffffffffffffffffffffffffffffff16604051602001620004459392919062002108565b6040516020818303038152906040529050600060ff60f81b308484805190602001206040516020016200047c9493929190620020b2565b6040516020818303038152906040528051906020012090508060001c9350505050620004a5565b5b5b919050565b620004b7338383620009a0565b5050565b6060600360008373ffffffffffffffffffffffffffffffffffffffff1673ffffffffffffffffffffffffffffffffffffffff168152602001908152602001600020805480602002602001604051908101604052809291908181526020016000905b82821015620005ba57838290600052602060002090600302016040518060600160405290816000820160009054906101000a900473ffffffffffffffffffffffffffffffffffffffff1673ffffffffffffffffffffffffffffffffffffffff1673ffffffffffffffffffffffffffffffffffffffff16815260200160018201548152602001600282015481525050815260200190600101906200051c565b505050509050919050565b600073ffffffffffffffffffffffffffffffffffffffff168173ffffffffffffffffffffffffffffffffffffffff16141562000638576040517f08c379a00000000000000000000000000000000000000000000000000000000081526004016200062f906200240a565b60405180910390fd5b600073ffffffffffffffffffffffffffffffffffffffff16600260008373ffffffffffffffffffffffffffffffffffffffff1673ffffffffffffffffffffffffffffffffffffffff16815260200190815260200160002060009054906101000a900473ffffffffffffffffffffffffffffffffffffffff1673ffffffffffffffffffffffffffffffffffffffff161462000709576040517f08c379a00000000000000000000000000000000000000000000000000000000081526004016200070090620023a4565b60405180910390fd5b6200071481620017dd565b50565b600073ffffffffffffffffffffffffffffffffffffffff1660008054906101000a900473ffffffffffffffffffffffffffffffffffffffff1673ffffffffffffffffffffffffffffffffffffffff161415620007aa576040517f08c379a0000000000000000000000000000000000000000000000000000000008152600401620007a190620023e8565b60405180910390fd5b60008054906101000a900473ffffffffffffffffffffffffffffffffffffffff1673ffffffffffffffffffffffffffffffffffffffff163373ffffffffffffffffffffffffffffffffffffffff16146200083b576040517f08c379a00000000000000000000000000000000000000000000000000000000081526004016200083290620023c6565b60405180910390fd5b60008060006101000a81548173ffffffffffffffffffffffffffffffffffffffff021916908373ffffffffffffffffffffffffffffffffffffffff160217905550600073ffffffffffffffffffffffffffffffffffffffff168173ffffffffffffffffffffffffffffffffffffffff161415620008ef576040517f08c379a0000000000000000000000000000000000000000000000000000000008152600401620008e690620022fa565b60405180910390fd5b80600160006101000a81548173ffffffffffffffffffffffffffffffffffffffff021916908373ffffffffffffffffffffffffffffffffffffffff1602179055507f908408e307fc569b417f6cbec5d5a06f44a0a505ac0479b47d421a4b2fd6a1e68160405162000961919062002147565b60405180910390a150565b620009778162000f7e565b50565b600160009054906101000a900473ffffffffffffffffffffffffffffffffffffffff1681565b600073ffffffffffffffffffffffffffffffffffffffff168373ffffffffffffffffffffffffffffffffffffffff16141562000a13576040517f08c379a000000000000000000000000000000000000000000000000000000000815260040162000a0a90620022b6565b60405180910390fd5b600082141562000a5a576040517f08c379a000000000000000000000000000000000000000000000000000000000815260040162000a5190620022d8565b60405180910390fd5b600073ffffffffffffffffffffffffffffffffffffffff16600260008573ffffffffffffffffffffffffffffffffffffffff1673ffffffffffffffffffffffffffffffffffffffff16815260200190815260200160002060009054906101000a900473ffffffffffffffffffffffffffffffffffffffff1673ffffffffffffffffffffffffffffffffffffffff16141562000afb5762000afa83620017dd565b5b600062000b1282426200194190919063ffffffff16565b90506000600260008673ffffffffffffffffffffffffffffffffffffffff1673ffffffffffffffffffffffffffffffffffffffff16815260200190815260200160002060009054906101000a900473ffffffffffffffffffffffffffffffffffffffff169050600062000c3f85600160009054906101000a900473ffffffffffffffffffffffffffffffffffffffff1673ffffffffffffffffffffffffffffffffffffffff166370a08231856040518263ffffffff1660e01b815260040162000bdc919062002147565b60206040518083038186803b15801562000bf557600080fd5b505afa15801562000c0a573d6000803e3d6000fd5b505050506040513d601f19601f8201168201806040525081019062000c30919062001ae8565b6200194190919063ffffffff16565b9050600160009054906101000a900473ffffffffffffffffffffffffffffffffffffffff1673ffffffffffffffffffffffffffffffffffffffff166323b872dd3384886040518463ffffffff1660e01b815260040162000ca29392919062002164565b602060405180830381600087803b15801562000cbd57600080fd5b505af115801562000cd2573d6000803e3d6000fd5b505050506040513d601f19601f8201168201806040525081019062000cf8919062001abc565b5080600160009054906101000a900473ffffffffffffffffffffffffffffffffffffffff1673ffffffffffffffffffffffffffffffffffffffff166370a08231846040518263ffffffff1660e01b815260040162000d57919062002147565b60206040518083038186803b15801562000d7057600080fd5b505afa15801562000d85573d6000803e3d6000fd5b505050506040513d601f19601f8201168201806040525081019062000dab919062001ae8565b1462000dee576040517f08c379a000000000000000000000000000000000000000000000000000000000815260040162000de5906200242c565b60405180910390fd5b62000df8620019a7565b33816000019073ffffffffffffffffffffffffffffffffffffffff16908173ffffffffffffffffffffffffffffffffffffffff16815250508581602001818152505083816040018181525050600360008873ffffffffffffffffffffffffffffffffffffffff1673ffffffffffffffffffffffffffffffffffffffff16815260200190815260200160002081908060018154018082558091505060019003906000526020600020906003020160009091909190915060008201518160000160006101000a81548173ffffffffffffffffffffffffffffffffffffffff021916908373ffffffffffffffffffffffffffffffffffffffff160217905550602082015181600101556040820151816002015550508673ffffffffffffffffffffffffffffffffffffffff163373ffffffffffffffffffffffffffffffffffffffff167f0f7ae9891fe5b877ffdd33621970db3e5d162185914f1db43da2474c9fbc294885898860405162000f6d939291906200221b565b60405180910390a350505050505050565b600073ffffffffffffffffffffffffffffffffffffffff16600260003373ffffffffffffffffffffffffffffffffffffffff1673ffffffffffffffffffffffffffffffffffffffff16815260200190815260200160002060009054906101000a900473ffffffffffffffffffffffffffffffffffffffff1673ffffffffffffffffffffffffffffffffffffffff16141562001050576040517f08c379a0000000000000000000000000000000000000000000000000000000008152600401620010479062002382565b60405180910390fd5b600073ffffffffffffffffffffffffffffffffffffffff168173ffffffffffffffffffffffffffffffffffffffff161415620010c3576040517f08c379a0000000000000000000000000000000000000000000000000000000008152600401620010ba9062002360565b60405180910390fd5b600080600360003373ffffffffffffffffffffffffffffffffffffffff1673ffffffffffffffffffffffffffffffffffffffff168152602001908152602001600020805490509050600081146200150257600060018203905062001126620019a7565b60005b828111620014fe57600360003373ffffffffffffffffffffffffffffffffffffffff1673ffffffffffffffffffffffffffffffffffffffff16815260200190815260200160002081815481106200117c57fe5b90600052602060002090600302016040518060600160405290816000820160009054906101000a900473ffffffffffffffffffffffffffffffffffffffff1673ffffffffffffffffffffffffffffffffffffffff1673ffffffffffffffffffffffffffffffffffffffff16815260200160018201548152602001600282015481525050915042826040015111620014ef578281146200135457600360003373ffffffffffffffffffffffffffffffffffffffff1673ffffffffffffffffffffffffffffffffffffffff16815260200190815260200160002083815481106200126057fe5b9060005260206000209060030201600360003373ffffffffffffffffffffffffffffffffffffffff1673ffffffffffffffffffffffffffffffffffffffff1681526020019081526020016000208281548110620012b957fe5b90600052602060002090600302016000820160009054906101000a900473ffffffffffffffffffffffffffffffffffffffff168160000160006101000a81548173ffffffffffffffffffffffffffffffffffffffff021916908373ffffffffffffffffffffffffffffffffffffffff16021790555060018201548160010155600282015481600201559050508280600190039350506200135d565b80806001019150505b620013768260200151866200194190919063ffffffff16565b94503373ffffffffffffffffffffffffffffffffffffffff16826000015173ffffffffffffffffffffffffffffffffffffffff167fdd2282cf3fa66052eb013bd9fb1898f86ba7367d1be59d3f3c7dabdd0a00ced0600260003373ffffffffffffffffffffffffffffffffffffffff1673ffffffffffffffffffffffffffffffffffffffff16815260200190815260200160002060009054906101000a900473ffffffffffffffffffffffffffffffffffffffff168986602001518760400151604051620014489493929190620021a1565b60405180910390a3600360003373ffffffffffffffffffffffffffffffffffffffff1673ffffffffffffffffffffffffffffffffffffffff1681526020019081526020016000208054806200149957fe5b6001900381819060005260206000209060030201600080820160006101000a81549073ffffffffffffffffffffffffffffffffffffffff02191690556001820160009055600282016000905550509055620014f8565b80806001019150505b62001129565b5050505b600082141562001549576040517f08c379a000000000000000000000000000000000000000000000000000000000815260040162001540906200233e565b60405180910390fd5b60006200161083600160009054906101000a900473ffffffffffffffffffffffffffffffffffffffff1673ffffffffffffffffffffffffffffffffffffffff166370a08231876040518263ffffffff1660e01b8152600401620015ad919062002147565b60206040518083038186803b158015620015c657600080fd5b505afa158015620015db573d6000803e3d6000fd5b505050506040513d601f19601f8201168201806040525081019062001601919062001ae8565b6200194190919063ffffffff16565b9050600260003373ffffffffffffffffffffffffffffffffffffffff1673ffffffffffffffffffffffffffffffffffffffff16815260200190815260200160002060009054906101000a900473ffffffffffffffffffffffffffffffffffffffff1673ffffffffffffffffffffffffffffffffffffffff1663bec3fa1785856040518363ffffffff1660e01b8152600401620016ae929190620021ee565b600060405180830381600087803b158015620016c957600080fd5b505af1158015620016de573d6000803e3d6000fd5b5050505080600160009054906101000a900473ffffffffffffffffffffffffffffffffffffffff1673ffffffffffffffffffffffffffffffffffffffff166370a08231866040518263ffffffff1660e01b815260040162001740919062002147565b60206040518083038186803b1580156200175957600080fd5b505afa1580156200176e573d6000803e3d6000fd5b505050506040513d601f19601f8201168201806040525081019062001794919062001ae8565b14620017d7576040517f08c379a0000000000000000000000000000000000000000000000000000000008152600401620017ce906200244e565b60405180910390fd5b50505050565b600081604051602001620017f2919062002095565b604051602081830303815290604052805190602001209050600081600160009054906101000a900473ffffffffffffffffffffffffffffffffffffffff166040516200183e9062001999565b6200184a919062002147565b8190604051809103906000f59050801580156200186b573d6000803e3d6000fd5b50905080600260008573ffffffffffffffffffffffffffffffffffffffff1673ffffffffffffffffffffffffffffffffffffffff16815260200190815260200160002060006101000a81548173ffffffffffffffffffffffffffffffffffffffff021916908373ffffffffffffffffffffffffffffffffffffffff1602179055508273ffffffffffffffffffffffffffffffffffffffff167f78ad32478b43e6ce1e20ccc71466410de348e267c4b0812e1f60fcb81094a0d48260405162001934919062002147565b60405180910390a2505050565b6000808284019050838110156200198f576040517f08c379a000000000000000000000000000000000000000000000000000000000815260040162001986906200231c565b60405180910390fd5b8091505092915050565b61060180620026b883390190565b6040518060600160405280600073ffffffffffffffffffffffffffffffffffffffff16815260200160008152602001600081525090565b600081359050620019ef8162002669565b92915050565b60008151905062001a068162002683565b92915050565b60008135905062001a1d816200269d565b92915050565b60008151905062001a34816200269d565b92915050565b60006020828403121562001a4d57600080fd5b600062001a5d84828501620019de565b91505092915050565b60008060006060848603121562001a7c57600080fd5b600062001a8c86828701620019de565b935050602062001a9f8682870162001a0c565b925050604062001ab28682870162001a0c565b9150509250925092565b60006020828403121562001acf57600080fd5b600062001adf84828501620019f5565b91505092915050565b60006020828403121562001afb57600080fd5b600062001b0b8482850162001a23565b91505092915050565b6000806040838503121562001b2857600080fd5b600062001b388582860162001a0c565b925050602062001b4b8582860162001a0c565b9150509250929050565b600062001b6383836200202b565b60608301905092915050565b62001b7a816200257c565b82525050565b62001b8b81620024d0565b82525050565b62001b9c81620024d0565b82525050565b62001bb762001bb182620024d0565b62002616565b82525050565b600062001bca8262002480565b62001bd68185620024a3565b935062001be38362002470565b8060005b8381101562001c1a57815162001bfe888262001b55565b975062001c0b8362002496565b92505060018101905062001be7565b5085935050505092915050565b62001c3281620024e4565b82525050565b62001c4d62001c47826200251c565b62002634565b82525050565b62001c6862001c6282620024f0565b6200262a565b82525050565b62001c8362001c7d8262002548565b6200263e565b82525050565b600062001c96826200248b565b62001ca28185620024b4565b935062001cb4818560208601620025e0565b80840191505092915050565b62001ccb8162002590565b82525050565b600062001ce0601a83620024bf565b91507f4d6574616865726f54696d654c6f636b526567697374727923340000000000006000830152602082019050919050565b600062001d22601a83620024bf565b91507f4d6574616865726f54696d654c6f636b526567697374727923350000000000006000830152602082019050919050565b600062001d64601a83620024bf565b91507f4d6574616865726f54696d654c6f636b526567697374727923310000000000006000830152602082019050919050565b600062001da6600d83620024bf565b91507f536166654d6174684c69622331000000000000000000000000000000000000006000830152602082019050919050565b600062001de8601a83620024bf565b91507f4d6574616865726f54696d654c6f636b526567697374727923390000000000006000830152602082019050919050565b600062001e2a601a83620024bf565b91507f4d6574616865726f54696d654c6f636b526567697374727923380000000000006000830152602082019050919050565b600062001e6c601a83620024bf565b91507f4d6574616865726f54696d654c6f636b526567697374727923370000000000006000830152602082019050919050565b600062001eae601a83620024bf565b91507f4d6574616865726f54696d654c6f636b526567697374727923330000000000006000830152602082019050919050565b600062001ef0600f83620024bf565b91507f496e697469616c697a61626c65233200000000000000000000000000000000006000830152602082019050919050565b600062001f32600f83620024bf565b91507f496e697469616c697a61626c65233100000000000000000000000000000000006000830152602082019050919050565b600062001f74601a83620024bf565b91507f4d6574616865726f54696d654c6f636b526567697374727923320000000000006000830152602082019050919050565b600062001fb6601a83620024bf565b91507f4d6574616865726f54696d654c6f636b526567697374727923360000000000006000830152602082019050919050565b600062001ff8601b83620024bf565b91507f4d6574616865726f54696d654c6f636b526567697374727923313100000000006000830152602082019050919050565b60608201600082015162002043600085018262001b80565b50602082015162002058602085018262002073565b5060408201516200206d604085018262002073565b50505050565b6200207e8162002572565b82525050565b6200208f8162002572565b82525050565b6000620020a3828462001ba2565b60148201915081905092915050565b6000620020c0828762001c53565b600182019150620020d2828662001ba2565b601482019150620020e4828562001c6e565b602082019150620020f6828462001c6e565b60208201915081905095945050505050565b600062002116828662001c89565b915062002124828562001c38565b600c8201915062002136828462001ba2565b601482019150819050949350505050565b60006020820190506200215e600083018462001b91565b92915050565b60006060820190506200217b600083018662001b6f565b6200218a602083018562001b91565b62002199604083018462002084565b949350505050565b6000608082019050620021b8600083018762001b91565b620021c7602083018662001b91565b620021d6604083018562002084565b620021e5606083018462002084565b95945050505050565b600060408201905062002205600083018562001b91565b62002214602083018462002084565b9392505050565b600060608201905062002232600083018662001b91565b62002241602083018562002084565b62002250604083018462002084565b949350505050565b6000602082019050818103600083015262002274818462001bbd565b905092915050565b600060208201905062002293600083018462001c27565b92915050565b6000602082019050620022b0600083018462001cc0565b92915050565b60006020820190508181036000830152620022d18162001cd1565b9050919050565b60006020820190508181036000830152620022f38162001d13565b9050919050565b60006020820190508181036000830152620023158162001d55565b9050919050565b60006020820190508181036000830152620023378162001d97565b9050919050565b60006020820190508181036000830152620023598162001dd9565b9050919050565b600060208201905081810360008301526200237b8162001e1b565b9050919050565b600060208201905081810360008301526200239d8162001e5d565b9050919050565b60006020820190508181036000830152620023bf8162001e9f565b9050919050565b60006020820190508181036000830152620023e18162001ee1565b9050919050565b60006020820190508181036000830152620024038162001f23565b9050919050565b60006020820190508181036000830152620024258162001f65565b9050919050565b60006020820190508181036000830152620024478162001fa7565b9050919050565b60006020820190508181036000830152620024698162001fe9565b9050919050565b6000819050602082019050919050565b600081519050919050565b600081519050919050565b6000602082019050919050565b600082825260208201905092915050565b600081905092915050565b600082825260208201905092915050565b6000620024dd8262002552565b9050919050565b60008115159050919050565b60007fff0000000000000000000000000000000000000000000000000000000000000082169050919050565b60007fffffffffffffffffffffffff000000000000000000000000000000000000000082169050919050565b6000819050919050565b600073ffffffffffffffffffffffffffffffffffffffff82169050919050565b6000819050919050565b60006200258982620025b8565b9050919050565b60006200259d82620025a4565b9050919050565b6000620025b18262002552565b9050919050565b6000620025c582620025cc565b9050919050565b6000620025d98262002552565b9050919050565b60005b8381101562002600578082015181840152602081019050620025e3565b8381111562002610576000848401525b50505050565b6000620026238262002648565b9050919050565b6000819050919050565b6000819050919050565b6000819050919050565b600062002655826200265c565b9050919050565b60008160601b9050919050565b6200267481620024d0565b81146200268057600080fd5b50565b6200268e81620024e4565b81146200269a57600080fd5b50565b620026a88162002572565b8114620026b457600080fd5b5056fe608060405234801561001057600080fd5b50604051610601380380610601833981810160405281019061003291906100ce565b806000806101000a81548173ffffffffffffffffffffffffffffffffffffffff021916908373ffffffffffffffffffffffffffffffffffffffff16021790555033600160006101000a81548173ffffffffffffffffffffffffffffffffffffffff021916908373ffffffffffffffffffffffffffffffffffffffff16021790555050610140565b6000815190506100c881610129565b92915050565b6000602082840312156100e057600080fd5b60006100ee848285016100b9565b91505092915050565b600061010282610109565b9050919050565b600073ffffffffffffffffffffffffffffffffffffffff82169050919050565b610132816100f7565b811461013d57600080fd5b50565b6104b28061014f6000396000f3fe608060405234801561001057600080fd5b50600436106100415760003560e01c80637b10399914610046578063bec3fa1714610064578063fc0c546a14610080575b600080fd5b61004e61009e565b60405161005b919061038b565b60405180910390f35b61007e600480360381019061007991906102c0565b6100c4565b005b61008861025d565b604051610095919061038b565b60405180910390f35b600160009054906101000a900473ffffffffffffffffffffffffffffffffffffffff1681565b600160009054906101000a900473ffffffffffffffffffffffffffffffffffffffff1673ffffffffffffffffffffffffffffffffffffffff163373ffffffffffffffffffffffffffffffffffffffff161461011e57600080fd5b6000606060008054906101000a900473ffffffffffffffffffffffffffffffffffffffff1673ffffffffffffffffffffffffffffffffffffffff1663a9059cbb60e01b85856040516024016101749291906103a6565b604051602081830303815290604052907bffffffffffffffffffffffffffffffffffffffffffffffffffffffff19166020820180517bffffffffffffffffffffffffffffffffffffffffffffffffffffffff83818316178352505050506040516101de9190610374565b6000604051808303816000865af19150503d806000811461021b576040519150601f19603f3d011682016040523d82523d6000602084013e610220565b606091505b509150915081801561024e575060008151148061024d57508080602001905181019061024c91906102fc565b5b5b61025757600080fd5b50505050565b60008054906101000a900473ffffffffffffffffffffffffffffffffffffffff1681565b60008135905061029081610460565b92915050565b6000815190506102a581610477565b92915050565b6000813590506102ba8161048e565b92915050565b600080604083850312156102d357600080fd5b60006102e185828601610281565b92505060206102f2858286016102ab565b9150509250929050565b60006020828403121561030e57600080fd5b600061031c84828501610296565b91505092915050565b61032e816103e5565b82525050565b600061033f826103cf565b61034981856103da565b935061035981856020860161042d565b80840191505092915050565b61036e81610423565b82525050565b60006103808284610334565b915081905092915050565b60006020820190506103a06000830184610325565b92915050565b60006040820190506103bb6000830185610325565b6103c86020830184610365565b9392505050565b600081519050919050565b600081905092915050565b60006103f082610403565b9050919050565b60008115159050919050565b600073ffffffffffffffffffffffffffffffffffffffff82169050919050565b6000819050919050565b60005b8381101561044b578082015181840152602081019050610430565b8381111561045a576000848401525b50505050565b610469816103e5565b811461047457600080fd5b50565b610480816103f7565b811461048b57600080fd5b50565b61049781610423565b81146104a257600080fd5b5056fea164736f6c634300060c000aa164736f6c634300060c000a",
  "devdoc": {
    "author": "Stanisaw Gogowski <stan@metahero.io>",
    "events": {
      "ClaimerWalletCreated(address,address)": {
        "details": "Emitted when the claimer wallet is created",
        "params": {
          "claimer": "claimer address",
          "claimerWallet": "claimer wallet address"
        }
      },
      "Initialized(address)": {
        "details": "Emitted when the contract is initialized",
        "params": {
          "token": "token address"
        }
      },
      "TokensLocked(address,address,address,uint256,uint256)": {
        "details": "Emitted when tokens are locked",
        "params": {
          "amount": "tokens amount",
          "claimer": "claimer address",
          "claimerWallet": "claimer wallet address",
          "deadline": "deadline in seconds",
          "spender": "spender address"
        }
      },
      "TokensUnlocked(address,address,address,address,uint256,uint256)": {
        "details": "Emitted when tokens are unlocked",
        "params": {
          "amount": "tokens amount",
          "claimer": "claimer address",
          "claimerWallet": "claimer wallet address",
          "deadline": "deadline in seconds",
          "recipient": "recipient address",
          "spender": "spender address"
        }
      }
    },
    "kind": "dev",
    "methods": {
      "claimTokens()": {
        "details": "Claims tokens"
      },
      "claimTokensTo(address)": {
        "details": "Claims tokens to recipient",
        "params": {
          "recipient": "recipient address"
        }
      },
      "computeClaimerWallet(address)": {
        "details": "Computes claimer wallet",
        "params": {
          "claimer": "claimer address"
        },
        "returns": {
          "result": "claimer wallet address"
        }
      },
      "constructor": {
        "details": "Public constructor"
      },
      "createClaimerWallet(address)": {
        "details": "Creates claimer wallet",
        "params": {
          "claimer": "claimer address"
        }
      },
      "getClaimerTimeLocks(address)": {
        "details": "Gets claimer time locks",
        "params": {
          "claimer": "claimer address"
        },
        "returns": {
          "_0": "array of time locks"
        }
      },
      "initialize(address)": {
        "details": "Initializes the contract",
        "params": {
          "token_": "token address"
        }
      },
      "initialized()": {
        "returns": {
          "_0": "true when contract is initialized"
        }
      },
      "lockTokens(uint256,uint256)": {
        "details": "Locks own tokens",
        "params": {
          "amount": "tokens amount",
          "unlockedIn": "seconds to unlock"
        }
      },
      "lockTokensTo(address,uint256,uint256)": {
        "details": "Locks tokens to claimer",
        "params": {
          "amount": "tokens amount",
          "claimer": "claimer address",
          "unlockedIn": "seconds to unlock"
        }
      }
    },
    "stateVariables": {
      "token": {
        "return": "token address"
      }
    },
    "title": "Metahero time lock registry",
    "version": 1
  },
  "userdoc": {
    "kind": "user",
    "methods": {
      "initialized()": {
        "notice": "Checks if contract is initialized"
      }
    },
    "version": 1
  },
  "storageLayout": {
    "storage": [
      {
        "astId": 5432,
        "contract": "src/MetaheroTimeLockRegistry.sol:MetaheroTimeLockRegistry",
        "label": "initializer",
        "offset": 0,
        "slot": "0",
        "type": "t_address"
      },
      {
        "astId": 1571,
        "contract": "src/MetaheroTimeLockRegistry.sol:MetaheroTimeLockRegistry",
        "label": "token",
        "offset": 0,
        "slot": "1",
        "type": "t_contract(MetaheroToken)4598"
      },
      {
        "astId": 1575,
        "contract": "src/MetaheroTimeLockRegistry.sol:MetaheroTimeLockRegistry",
        "label": "claimerWallets",
        "offset": 0,
        "slot": "2",
        "type": "t_mapping(t_address,t_address)"
      },
      {
        "astId": 1580,
        "contract": "src/MetaheroTimeLockRegistry.sol:MetaheroTimeLockRegistry",
        "label": "claimerTimeLocks",
        "offset": 0,
        "slot": "3",
        "type": "t_mapping(t_address,t_array(t_struct(TimeLock)1568_storage)dyn_storage)"
      }
    ],
    "types": {
      "t_address": {
        "encoding": "inplace",
        "label": "address",
        "numberOfBytes": "20"
      },
      "t_array(t_struct(TimeLock)1568_storage)dyn_storage": {
        "base": "t_struct(TimeLock)1568_storage",
        "encoding": "dynamic_array",
        "label": "struct MetaheroTimeLockRegistry.TimeLock[]",
        "numberOfBytes": "32"
      },
      "t_contract(MetaheroToken)4598": {
        "encoding": "inplace",
        "label": "contract MetaheroToken",
        "numberOfBytes": "20"
      },
      "t_mapping(t_address,t_address)": {
        "encoding": "mapping",
        "key": "t_address",
        "label": "mapping(address => address)",
        "numberOfBytes": "32",
        "value": "t_address"
      },
      "t_mapping(t_address,t_array(t_struct(TimeLock)1568_storage)dyn_storage)": {
        "encoding": "mapping",
        "key": "t_address",
        "label": "mapping(address => struct MetaheroTimeLockRegistry.TimeLock[])",
        "numberOfBytes": "32",
        "value": "t_array(t_struct(TimeLock)1568_storage)dyn_storage"
      },
      "t_struct(TimeLock)1568_storage": {
        "encoding": "inplace",
        "label": "struct MetaheroTimeLockRegistry.TimeLock",
        "members": [
          {
            "astId": 1563,
            "contract": "src/MetaheroTimeLockRegistry.sol:MetaheroTimeLockRegistry",
            "label": "spender",
            "offset": 0,
            "slot": "0",
            "type": "t_address"
          },
          {
            "astId": 1565,
            "contract": "src/MetaheroTimeLockRegistry.sol:MetaheroTimeLockRegistry",
            "label": "amount",
            "offset": 0,
            "slot": "1",
            "type": "t_uint256"
          },
          {
            "astId": 1567,
            "contract": "src/MetaheroTimeLockRegistry.sol:MetaheroTimeLockRegistry",
            "label": "deadline",
            "offset": 0,
            "slot": "2",
            "type": "t_uint256"
          }
        ],
        "numberOfBytes": "96"
      },
      "t_uint256": {
        "encoding": "inplace",
        "label": "uint256",
        "numberOfBytes": "32"
      }
    }
  }
}