{
  "address": "0x642e247534c5DA09c4fc8848907334CF047bA2DA",
  "abi": [
    {
      "inputs": [],
      "stateMutability": "nonpayable",
      "type": "constructor"
    },
    {
      "inputs": [],
      "name": "AlreadyInitialized",
      "type": "error"
    },
    {
      "inputs": [],
      "name": "InvalidDeposit",
      "type": "error"
    },
    {
      "inputs": [],
      "name": "InvalidDepositPower",
      "type": "error"
    },
    {
      "inputs": [],
      "name": "InvalidInvitationId",
      "type": "error"
    },
    {
      "inputs": [],
      "name": "InvalidInvitationProof",
      "type": "error"
    },
    {
      "inputs": [],
      "name": "InvalidMaxDeposit",
      "type": "error"
    },
    {
      "inputs": [],
      "name": "InvalidMaxRewardsAPY",
      "type": "error"
    },
    {
      "inputs": [],
      "name": "InvalidMaxWithdrawalLockTime",
      "type": "error"
    },
    {
      "inputs": [],
      "name": "InvalidMinDeposit",
      "type": "error"
    },
    {
      "inputs": [],
      "name": "InvalidMinWithdrawalLockTime",
      "type": "error"
    },
    {
      "inputs": [],
      "name": "InvalidWithdrawalLockTime",
      "type": "error"
    },
    {
      "inputs": [],
      "name": "InvitationAlreadyExists",
      "type": "error"
    },
    {
      "inputs": [],
      "name": "InvitationAlreadyUsed",
      "type": "error"
    },
    {
      "inputs": [],
      "name": "InvitationDoesntExist",
      "type": "error"
    },
    {
      "inputs": [],
      "name": "LoyaltyTokenIsTheZeroAddress",
      "type": "error"
    },
    {
      "inputs": [],
      "name": "MsgSenderIsNotTheDeployer",
      "type": "error"
    },
    {
      "inputs": [],
      "name": "MsgSenderIsNotTheOwner",
      "type": "error"
    },
    {
      "inputs": [],
      "name": "NoRewardsToRelease",
      "type": "error"
    },
    {
      "inputs": [],
      "name": "OwnerIsTheZeroAddress",
      "type": "error"
    },
    {
      "inputs": [],
      "name": "PaymentTokenIsTheZeroAddress",
      "type": "error"
    },
    {
      "anonymous": false,
      "inputs": [
        {
          "indexed": false,
          "internalType": "address",
          "name": "loyaltyToken",
          "type": "address"
        },
        {
          "indexed": false,
          "internalType": "address",
          "name": "paymentToken",
          "type": "address"
        }
      ],
      "name": "Initialized",
      "type": "event"
    },
    {
      "anonymous": false,
      "inputs": [
        {
          "indexed": false,
          "internalType": "uint256",
          "name": "invitationId",
          "type": "uint256"
        },
        {
          "indexed": false,
          "internalType": "bytes32",
          "name": "treeRoot",
          "type": "bytes32"
        },
        {
          "indexed": false,
          "internalType": "uint256",
          "name": "depositPower",
          "type": "uint256"
        },
        {
          "indexed": false,
          "internalType": "uint256",
          "name": "minDeposit",
          "type": "uint256"
        },
        {
          "indexed": false,
          "internalType": "uint256",
          "name": "maxDeposit",
          "type": "uint256"
        },
        {
          "indexed": false,
          "internalType": "uint256",
          "name": "minRewardsAPY",
          "type": "uint256"
        },
        {
          "indexed": false,
          "internalType": "uint256",
          "name": "maxRewardsAPY",
          "type": "uint256"
        },
        {
          "indexed": false,
          "internalType": "uint256",
          "name": "minWithdrawalLockTime",
          "type": "uint256"
        },
        {
          "indexed": false,
          "internalType": "uint256",
          "name": "maxWithdrawalLockTime",
          "type": "uint256"
        }
      ],
      "name": "InvitationAdded",
      "type": "event"
    },
    {
      "anonymous": false,
      "inputs": [
        {
          "indexed": false,
          "internalType": "uint256",
          "name": "invitationId",
          "type": "uint256"
        }
      ],
      "name": "InvitationRemoved",
      "type": "event"
    },
    {
      "anonymous": false,
      "inputs": [
        {
          "indexed": false,
          "internalType": "uint256",
          "name": "invitationId",
          "type": "uint256"
        },
        {
          "indexed": false,
          "internalType": "uint256",
          "name": "tokenId",
          "type": "uint256"
        }
      ],
      "name": "InvitationUsed",
      "type": "event"
    },
    {
      "anonymous": false,
      "inputs": [
        {
          "indexed": false,
          "internalType": "address",
          "name": "owner",
          "type": "address"
        }
      ],
      "name": "OwnerUpdated",
      "type": "event"
    },
    {
      "anonymous": false,
      "inputs": [
        {
          "indexed": false,
          "internalType": "address",
          "name": "account",
          "type": "address"
        }
      ],
      "name": "Paused",
      "type": "event"
    },
    {
      "anonymous": false,
      "inputs": [
        {
          "indexed": false,
          "internalType": "uint256",
          "name": "rewards",
          "type": "uint256"
        }
      ],
      "name": "RewardsReleased",
      "type": "event"
    },
    {
      "anonymous": false,
      "inputs": [
        {
          "indexed": false,
          "internalType": "address",
          "name": "account",
          "type": "address"
        }
      ],
      "name": "Unpaused",
      "type": "event"
    },
    {
      "inputs": [
        {
          "internalType": "uint256",
          "name": "invitationId",
          "type": "uint256"
        },
        {
          "internalType": "bytes32",
          "name": "treeRoot",
          "type": "bytes32"
        },
        {
          "internalType": "uint256",
          "name": "depositPower",
          "type": "uint256"
        },
        {
          "internalType": "uint256",
          "name": "minDeposit",
          "type": "uint256"
        },
        {
          "internalType": "uint256",
          "name": "maxDeposit",
          "type": "uint256"
        },
        {
          "internalType": "uint256",
          "name": "minRewardsAPY",
          "type": "uint256"
        },
        {
          "internalType": "uint256",
          "name": "maxRewardsAPY",
          "type": "uint256"
        },
        {
          "internalType": "uint256",
          "name": "minWithdrawalLockTime",
          "type": "uint256"
        },
        {
          "internalType": "uint256",
          "name": "maxWithdrawalLockTime",
          "type": "uint256"
        }
      ],
      "name": "addInvitation",
      "outputs": [],
      "stateMutability": "nonpayable",
      "type": "function"
    },
    {
      "inputs": [
        {
          "internalType": "uint256",
          "name": "invitationId",
          "type": "uint256"
        }
      ],
      "name": "getInvitation",
      "outputs": [
        {
          "components": [
            {
              "internalType": "enum MetaheroLoyaltyTokenDistributor.InvitationStates",
              "name": "state",
              "type": "uint8"
            },
            {
              "internalType": "bytes32",
              "name": "treeRoot",
              "type": "bytes32"
            },
            {
              "internalType": "uint256",
              "name": "depositPower",
              "type": "uint256"
            },
            {
              "internalType": "uint256",
              "name": "minDeposit",
              "type": "uint256"
            },
            {
              "internalType": "uint256",
              "name": "maxDeposit",
              "type": "uint256"
            },
            {
              "internalType": "uint256",
              "name": "minRewardsAPY",
              "type": "uint256"
            },
            {
              "internalType": "uint256",
              "name": "maxRewardsAPY",
              "type": "uint256"
            },
            {
              "internalType": "uint256",
              "name": "minWithdrawalLockTime",
              "type": "uint256"
            },
            {
              "internalType": "uint256",
              "name": "maxWithdrawalLockTime",
              "type": "uint256"
            }
          ],
          "internalType": "struct MetaheroLoyaltyTokenDistributor.Invitation",
          "name": "",
          "type": "tuple"
        }
      ],
      "stateMutability": "view",
      "type": "function"
    },
    {
      "inputs": [],
      "name": "getOwner",
      "outputs": [
        {
          "internalType": "address",
          "name": "",
          "type": "address"
        }
      ],
      "stateMutability": "view",
      "type": "function"
    },
    {
      "inputs": [
        {
          "internalType": "address",
          "name": "loyaltyToken",
          "type": "address"
        },
        {
          "internalType": "address",
          "name": "paymentToken",
          "type": "address"
        }
      ],
      "name": "initialize",
      "outputs": [],
      "stateMutability": "nonpayable",
      "type": "function"
    },
    {
      "inputs": [],
      "name": "initialized",
      "outputs": [
        {
          "internalType": "bool",
          "name": "",
          "type": "bool"
        }
      ],
      "stateMutability": "view",
      "type": "function"
    },
    {
      "inputs": [
        {
          "internalType": "uint256",
          "name": "invitationId",
          "type": "uint256"
        },
        {
          "internalType": "address",
          "name": "account",
          "type": "address"
        }
      ],
      "name": "isInvitationInUse",
      "outputs": [
        {
          "internalType": "bool",
          "name": "",
          "type": "bool"
        }
      ],
      "stateMutability": "view",
      "type": "function"
    },
    {
      "inputs": [],
      "name": "paused",
      "outputs": [
        {
          "internalType": "bool",
          "name": "",
          "type": "bool"
        }
      ],
      "stateMutability": "view",
      "type": "function"
    },
    {
      "inputs": [],
      "name": "releaseRewards",
      "outputs": [],
      "stateMutability": "nonpayable",
      "type": "function"
    },
    {
      "inputs": [
        {
          "internalType": "uint256",
          "name": "invitationId",
          "type": "uint256"
        }
      ],
      "name": "removeInvitation",
      "outputs": [],
      "stateMutability": "nonpayable",
      "type": "function"
    },
    {
      "inputs": [
        {
          "internalType": "address",
          "name": "owner",
          "type": "address"
        }
      ],
      "name": "setOwner",
      "outputs": [],
      "stateMutability": "nonpayable",
      "type": "function"
    },
    {
      "inputs": [],
      "name": "togglePaused",
      "outputs": [],
      "stateMutability": "nonpayable",
      "type": "function"
    },
    {
      "inputs": [
        {
          "internalType": "uint256",
          "name": "invitationId",
          "type": "uint256"
        },
        {
          "internalType": "uint256",
          "name": "deposit",
          "type": "uint256"
        },
        {
          "internalType": "uint256",
          "name": "withdrawalLockTime",
          "type": "uint256"
        },
        {
          "internalType": "bytes32[]",
          "name": "proof",
          "type": "bytes32[]"
        }
      ],
      "name": "useInvitation",
      "outputs": [],
      "stateMutability": "nonpayable",
      "type": "function"
    }
  ],
  "transactionHash": "0xa6dba28f92ea59fe35f3f0a8b6b67474013d9bf18bebe20811ab1836361c176c",
  "args": [],
  "numDeployments": 1,
  "solcInputHash": "2d532362db83d3ab9bf117d21ceb4b27",
  "bytecode": "0x608060405234801561001057600080fd5b50600080546001600160a01b031916339081179091556001805460ff60a01b199092166001600160a81b031990921691909117905561140b806100546000396000f3fe608060405234801561001057600080fd5b50600436106100b45760003560e01c80637af6372d116100715780637af6372d14610127578063893d20e814610147578063a3998d2714610160578063bd3aedf614610199578063d0fab3ca146101ac578063dc8d3ce6146101b457600080fd5b806313af4035146100b9578063158ef93e146100ce57806336566f06146100f1578063485cc955146100f95780635c975abb1461010c5780636aaaf68314610114575b600080fd5b6100cc6100c73660046110b7565b6101c7565b005b6001546001600160a01b0316155b60405190151581526020015b60405180910390f35b6100cc61026f565b6100cc6101073660046110d9565b6102b9565b6100dc6103d9565b6100cc610122366004611122565b6103e9565b61013a6101353660046111fd565b61097a565b6040516100e8919061122c565b6000546001600160a01b03166040516100e891906112ae565b6100dc61016e3660046112c2565b60009182526005602090815260408084206001600160a01b0393909316845291905290205460ff1690565b6100cc6101a73660046111fd565b610a6b565b6100cc610b33565b6100cc6101c23660046112e5565b610cb8565b6000546001600160a01b031633146101f2576040516317f6584d60e31b815260040160405180910390fd5b6001600160a01b03811661021957604051630465f79960e41b815260040160405180910390fd5b600080546001600160a01b0319166001600160a01b0383161790556040517f4ffd725fc4a22075e9ec71c59edf9c38cdeb588a91b24fc5b61388c5be41282b906102649083906112ae565b60405180910390a150565b6000546001600160a01b0316331461029a576040516317f6584d60e31b815260040160405180910390fd5b6102a26103d9565b156102b1576102af610f1f565b565b6102af610fb1565b6001546001600160a01b03166102e15760405162dc149f60e41b815260040160405180910390fd5b6001546001600160a01b0316331461030c5760405163bc40aee160e01b815260040160405180910390fd5b600180546001600160a01b03191690556001600160a01b038216610343576040516303a5f09160e21b815260040160405180910390fd5b6001600160a01b03811661036a5760405163b352a63160e01b815260040160405180910390fd5b600280546001600160a01b038481166001600160a01b03199283168117909355600380549185169190921681179091556040805192835260208301919091527f3cd5ec01b1ae7cfec6ca1863e2cd6aa25d6d1702825803ff2b7cc95010fffdc291015b60405180910390a15050565b600154600160a01b900460ff1690565b6103f16103d9565b156104175760405162461bcd60e51b815260040161040e90611344565b60405180910390fd5b8361043557604051635b26ac7160e01b815260040160405180910390fd5b600084815260046020526040808220815161012081019092528054829060ff16600281111561046657610466611216565b600281111561047757610477611216565b81526001828101546020830152600283015460408301526003830154606083015260048301546080830152600583015460a0830152600683015460c0830152600783015460e083015260089092015461010090910152909150815160028111156104e3576104e3611216565b146105015760405163379e7dc760e11b815260040160405180910390fd5b80606001518410806105165750806080015184115b1561053457604051635972996f60e11b815260040160405180910390fd5b8060e0015183108061054a575080610100015183115b15610568576040516314dcf90960e31b815260040160405180910390fd5b60003390506105c482602001518260405160200161059e919060609190911b6bffffffffffffffffffffffff1916815260140190565b60405160208183030381529060405280519060200120856110119092919063ffffffff16565b6105e15760405163f235cee760e01b815260040160405180910390fd5b60008681526005602090815260408083206001600160a01b038516845290915290205460ff161561062557604051633450cb4760e21b815260040160405180910390fd5b6000806000808560e00151881415610642575060a0850151610690565b85610100015188141561065a575060c0850151610690565b8560e00151866101000151038660e0015189038760a001518860c001510302816106865761068661136e565b048660a001510190505b6003546040516370a0823160e01b81526502de41353000838c028b020495506000916001600160a01b0316906370a08231906106d09030906004016112ae565b60206040518083038186803b1580156106e857600080fd5b505afa1580156106fc573d6000803e3d6000fd5b505050506040513d601f19601f820116820180604052508101906107209190611384565b90508085111561073657600094508660e0015198505b5050505060408381015160025491516307d061c560e41b81526001600160a01b038581166004830152602482018a905260448201859052918902606482018190524289016084830181905290939092600092911690637d061c509060a401602060405180830381600087803b1580156107ae57600080fd5b505af11580156107c2573d6000803e3d6000fd5b505050506040513d601f19601f820116820180604052508101906107e69190611384565b60008b81526005602090815260408083206001600160a01b038a81168086529190935292819020805460ff1916600117905560035460025491516323b872dd60e01b815260048101949094529082166024840152604483018d905292935091909116906323b872dd90606401602060405180830381600087803b15801561086c57600080fd5b505af1158015610880573d6000803e3d6000fd5b505050506040513d601f19601f820116820180604052508101906108a4919061139d565b5083156109355760035460025460405163a9059cbb60e01b81526001600160a01b0391821660048201526024810187905291169063a9059cbb90604401602060405180830381600087803b1580156108fb57600080fd5b505af115801561090f573d6000803e3d6000fd5b505050506040513d601f19601f82011682018060405250810190610933919061139d565b505b604080518b8152602081018390527f1d632f053eb6e817ebd2ee91a602ba1885314ccbb9e9fa3740245416b4205895910160405180910390a150505050505050505050565b6109cd604080516101208101909152806000815260200160008019168152602001600081526020016000815260200160008152602001600081526020016000815260200160008152602001600081525090565b60008281526004602052604090819020815161012081019092528054829060ff1660028111156109ff576109ff611216565b6002811115610a1057610a10611216565b815260018201546020820152600282015460408201526003820154606082015260048201546080820152600582015460a0820152600682015460c0820152600782015460e08201526008909101546101009091015292915050565b6000546001600160a01b03163314610a96576040516317f6584d60e31b815260040160405180910390fd5b80610ab457604051635b26ac7160e01b815260040160405180910390fd5b60008181526004602052604090206001815460ff166002811115610ada57610ada611216565b14610af85760405163379e7dc760e11b815260040160405180910390fd5b805460ff191660021781556040518281527ff64a5aa1a64c46c60a68b78cdc9a7c70398c06a42c1b379f8a7fec6e00fe6301906020016103cd565b6000546001600160a01b03163314610b5e576040516317f6584d60e31b815260040160405180910390fd5b6003546040516370a0823160e01b81526000916001600160a01b0316906370a0823190610b8f9030906004016112ae565b60206040518083038186803b158015610ba757600080fd5b505afa158015610bbb573d6000803e3d6000fd5b505050506040513d601f19601f82011682018060405250810190610bdf9190611384565b905080610bff5760405163049d2cfb60e31b815260040160405180910390fd5b60035460005460405163a9059cbb60e01b81526001600160a01b0391821660048201526024810184905291169063a9059cbb90604401602060405180830381600087803b158015610c4f57600080fd5b505af1158015610c63573d6000803e3d6000fd5b505050506040513d601f19601f82011682018060405250810190610c87919061139d565b506040518181527f85de091be18b1506795711e7cfa4b799aa13315833d24c8f92af184dad04209890602001610264565b6000546001600160a01b03163314610ce3576040516317f6584d60e31b815260040160405180910390fd5b88610d0157604051635b26ac7160e01b815260040160405180910390fd5b60008981526004602052604081205460ff166002811115610d2457610d24611216565b14610d4257604051631f11ecf560e31b815260040160405180910390fd5b861580610d4f5750606487115b15610d6d57604051630da0c90560e11b815260040160405180910390fd5b85610d8b57604051634f4940eb60e11b815260040160405180910390fd5b85851015610dac5760405163f112120b60e01b815260040160405180910390fd5b83610df5578215610dd05760405163eeea87cb60e01b815260040160405180910390fd5b818114610df057604051635d9dcc3960e11b815260040160405180910390fd5b610e55565b83831015610e165760405163eeea87cb60e01b815260040160405180910390fd5b81610e345760405163523b70bf60e01b815260040160405180910390fd5b81811015610e5557604051635d9dcc3960e11b815260040160405180910390fd5b600089815260046020818152604092839020805460ff19166001908117825581018c9055600281018b9055600381018a9055918201889055600582018790556006820186905560078201859055600890910183905581518b81529081018a9052908101889052606081018790526080810186905260a0810185905260c0810184905260e0810183905261010081018290527f17eab8e5d873f1bb8ded565d67e26a2965dc1eecd4f2eb7c49bf44f1e4d33ba8906101200160405180910390a1505050505050505050565b610f276103d9565b610f6a5760405162461bcd60e51b815260206004820152601460248201527314185d5cd8589b194e881b9bdd081c185d5cd95960621b604482015260640161040e565b6001805460ff60a01b191690557f5db9ee0a495bf2e6ff9c91a7834c1ba4fdd244a5e8aa4e537bd38aeae4b073aa335b604051610fa791906112ae565b60405180910390a1565b610fb96103d9565b15610fd65760405162461bcd60e51b815260040161040e90611344565b6001805460ff60a01b1916600160a01b1790557f62e78cea01bee320cd4e420270b5ea74000d11b0c9f74754ebdbfc544b05a258610f9a3390565b60008261101e8584611027565b14949350505050565b600081815b8451811015611093576000858281518110611049576110496113bf565b6020026020010151905080831161106f5760008381526020829052604090209250611080565b600081815260208490526040902092505b508061108b816113d5565b91505061102c565b509392505050565b80356001600160a01b03811681146110b257600080fd5b919050565b6000602082840312156110c957600080fd5b6110d28261109b565b9392505050565b600080604083850312156110ec57600080fd5b6110f58361109b565b91506111036020840161109b565b90509250929050565b634e487b7160e01b600052604160045260246000fd5b6000806000806080858703121561113857600080fd5b84359350602080860135935060408601359250606086013567ffffffffffffffff8082111561116657600080fd5b818801915088601f83011261117a57600080fd5b81358181111561118c5761118c61110c565b8060051b604051601f19603f830116810181811085821117156111b1576111b161110c565b60405291825284820192508381018501918b8311156111cf57600080fd5b938501935b828510156111ed578435845293850193928501926111d4565b989b979a50959850505050505050565b60006020828403121561120f57600080fd5b5035919050565b634e487b7160e01b600052602160045260246000fd5b81516101208201906003811061125257634e487b7160e01b600052602160045260246000fd5b808352506020830151602083015260408301516040830152606083015160608301526080830151608083015260a083015160a083015260c083015160c083015260e083015160e083015261010080840151818401525092915050565b6001600160a01b0391909116815260200190565b600080604083850312156112d557600080fd5b823591506111036020840161109b565b60008060008060008060008060006101208a8c03121561130457600080fd5b505087359960208901359950604089013598606081013598506080810135975060a0810135965060c0810135955060e08101359450610100013592509050565b60208082526010908201526f14185d5cd8589b194e881c185d5cd95960821b604082015260600190565b634e487b7160e01b600052601260045260246000fd5b60006020828403121561139657600080fd5b5051919050565b6000602082840312156113af57600080fd5b815180151581146110d257600080fd5b634e487b7160e01b600052603260045260246000fd5b60006000198214156113f757634e487b7160e01b600052601160045260246000fd5b506001019056fea164736f6c6343000809000a",
  "devdoc": {
    "author": "Stanisaw Gogowski <stan@metahero.io>",
    "kind": "dev",
    "methods": {
      "paused()": {
        "details": "Returns true if the contract is paused, and false otherwise."
      }
    },
    "title": "Metahero Loyalty Token (distributor)",
    "version": 1
  },
  "userdoc": {
    "kind": "user",
    "methods": {},
    "version": 1
  },
  "storageLayout": {
    "storage": [
      {
        "astId": 3,
        "contract": "src/MetaheroLoyaltyTokenDistributor.sol:MetaheroLoyaltyTokenDistributor",
        "label": "_owner",
        "offset": 0,
        "slot": "0",
        "type": "t_address"
      },
      {
        "astId": 73,
        "contract": "src/MetaheroLoyaltyTokenDistributor.sol:MetaheroLoyaltyTokenDistributor",
        "label": "_deployer",
        "offset": 0,
        "slot": "1",
        "type": "t_address"
      },
      {
        "astId": 149,
        "contract": "src/MetaheroLoyaltyTokenDistributor.sol:MetaheroLoyaltyTokenDistributor",
        "label": "_paused",
        "offset": 20,
        "slot": "1",
        "type": "t_bool"
      },
      {
        "astId": 5022,
        "contract": "src/MetaheroLoyaltyTokenDistributor.sol:MetaheroLoyaltyTokenDistributor",
        "label": "_loyaltyToken",
        "offset": 0,
        "slot": "2",
        "type": "t_contract(MetaheroLoyaltyToken)4406"
      },
      {
        "astId": 5025,
        "contract": "src/MetaheroLoyaltyTokenDistributor.sol:MetaheroLoyaltyTokenDistributor",
        "label": "_paymentToken",
        "offset": 0,
        "slot": "3",
        "type": "t_contract(IERC20)887"
      },
      {
        "astId": 5030,
        "contract": "src/MetaheroLoyaltyTokenDistributor.sol:MetaheroLoyaltyTokenDistributor",
        "label": "_invitations",
        "offset": 0,
        "slot": "4",
        "type": "t_mapping(t_uint256,t_struct(Invitation)5016_storage)"
      },
      {
        "astId": 5036,
        "contract": "src/MetaheroLoyaltyTokenDistributor.sol:MetaheroLoyaltyTokenDistributor",
        "label": "_usedInvitation",
        "offset": 0,
        "slot": "5",
        "type": "t_mapping(t_uint256,t_mapping(t_address,t_bool))"
      }
    ],
    "types": {
      "t_address": {
        "encoding": "inplace",
        "label": "address",
        "numberOfBytes": "20"
      },
      "t_bool": {
        "encoding": "inplace",
        "label": "bool",
        "numberOfBytes": "1"
      },
      "t_bytes32": {
        "encoding": "inplace",
        "label": "bytes32",
        "numberOfBytes": "32"
      },
      "t_contract(IERC20)887": {
        "encoding": "inplace",
        "label": "contract IERC20",
        "numberOfBytes": "20"
      },
      "t_contract(MetaheroLoyaltyToken)4406": {
        "encoding": "inplace",
        "label": "contract MetaheroLoyaltyToken",
        "numberOfBytes": "20"
      },
      "t_enum(InvitationStates)4996": {
        "encoding": "inplace",
        "label": "enum MetaheroLoyaltyTokenDistributor.InvitationStates",
        "numberOfBytes": "1"
      },
      "t_mapping(t_address,t_bool)": {
        "encoding": "mapping",
        "key": "t_address",
        "label": "mapping(address => bool)",
        "numberOfBytes": "32",
        "value": "t_bool"
      },
      "t_mapping(t_uint256,t_mapping(t_address,t_bool))": {
        "encoding": "mapping",
        "key": "t_uint256",
        "label": "mapping(uint256 => mapping(address => bool))",
        "numberOfBytes": "32",
        "value": "t_mapping(t_address,t_bool)"
      },
      "t_mapping(t_uint256,t_struct(Invitation)5016_storage)": {
        "encoding": "mapping",
        "key": "t_uint256",
        "label": "mapping(uint256 => struct MetaheroLoyaltyTokenDistributor.Invitation)",
        "numberOfBytes": "32",
        "value": "t_struct(Invitation)5016_storage"
      },
      "t_struct(Invitation)5016_storage": {
        "encoding": "inplace",
        "label": "struct MetaheroLoyaltyTokenDistributor.Invitation",
        "members": [
          {
            "astId": 4999,
            "contract": "src/MetaheroLoyaltyTokenDistributor.sol:MetaheroLoyaltyTokenDistributor",
            "label": "state",
            "offset": 0,
            "slot": "0",
            "type": "t_enum(InvitationStates)4996"
          },
          {
            "astId": 5001,
            "contract": "src/MetaheroLoyaltyTokenDistributor.sol:MetaheroLoyaltyTokenDistributor",
            "label": "treeRoot",
            "offset": 0,
            "slot": "1",
            "type": "t_bytes32"
          },
          {
            "astId": 5003,
            "contract": "src/MetaheroLoyaltyTokenDistributor.sol:MetaheroLoyaltyTokenDistributor",
            "label": "depositPower",
            "offset": 0,
            "slot": "2",
            "type": "t_uint256"
          },
          {
            "astId": 5005,
            "contract": "src/MetaheroLoyaltyTokenDistributor.sol:MetaheroLoyaltyTokenDistributor",
            "label": "minDeposit",
            "offset": 0,
            "slot": "3",
            "type": "t_uint256"
          },
          {
            "astId": 5007,
            "contract": "src/MetaheroLoyaltyTokenDistributor.sol:MetaheroLoyaltyTokenDistributor",
            "label": "maxDeposit",
            "offset": 0,
            "slot": "4",
            "type": "t_uint256"
          },
          {
            "astId": 5009,
            "contract": "src/MetaheroLoyaltyTokenDistributor.sol:MetaheroLoyaltyTokenDistributor",
            "label": "minRewardsAPY",
            "offset": 0,
            "slot": "5",
            "type": "t_uint256"
          },
          {
            "astId": 5011,
            "contract": "src/MetaheroLoyaltyTokenDistributor.sol:MetaheroLoyaltyTokenDistributor",
            "label": "maxRewardsAPY",
            "offset": 0,
            "slot": "6",
            "type": "t_uint256"
          },
          {
            "astId": 5013,
            "contract": "src/MetaheroLoyaltyTokenDistributor.sol:MetaheroLoyaltyTokenDistributor",
            "label": "minWithdrawalLockTime",
            "offset": 0,
            "slot": "7",
            "type": "t_uint256"
          },
          {
            "astId": 5015,
            "contract": "src/MetaheroLoyaltyTokenDistributor.sol:MetaheroLoyaltyTokenDistributor",
            "label": "maxWithdrawalLockTime",
            "offset": 0,
            "slot": "8",
            "type": "t_uint256"
          }
        ],
        "numberOfBytes": "288"
      },
      "t_uint256": {
        "encoding": "inplace",
        "label": "uint256",
        "numberOfBytes": "32"
      }
    }
  }
}