{
  "address": "0x839E6E5F2247C5eA3575aFcb0d673fD70a7B5B86",
  "abi": [
    {
      "inputs": [],
      "stateMutability": "nonpayable",
      "type": "constructor"
    },
    {
      "inputs": [],
      "name": "AlreadyInitialized",
      "type": "error"
    },
    {
      "inputs": [],
      "name": "AuctionEnds",
      "type": "error"
    },
    {
      "inputs": [],
      "name": "AuctionInProgress",
      "type": "error"
    },
    {
      "inputs": [],
      "name": "AuctionNotFound",
      "type": "error"
    },
    {
      "inputs": [],
      "name": "InvalidAuctionTime",
      "type": "error"
    },
    {
      "inputs": [],
      "name": "InvalidBid",
      "type": "error"
    },
    {
      "inputs": [],
      "name": "InvalidInitialAuctionDeposit",
      "type": "error"
    },
    {
      "inputs": [],
      "name": "InvalidInitialAuctionsWeightsLength",
      "type": "error"
    },
    {
      "inputs": [],
      "name": "LoyaltyTokenIsTheZeroAddress",
      "type": "error"
    },
    {
      "inputs": [],
      "name": "MsgSenderIsNotTheDeployer",
      "type": "error"
    },
    {
      "inputs": [],
      "name": "MsgSenderIsNotTheOwner",
      "type": "error"
    },
    {
      "inputs": [],
      "name": "OwnerIsTheZeroAddress",
      "type": "error"
    },
    {
      "inputs": [],
      "name": "PaymentTokenIsTheZeroAddress",
      "type": "error"
    },
    {
      "inputs": [],
      "name": "PlaceBidPaused",
      "type": "error"
    },
    {
      "anonymous": false,
      "inputs": [
        {
          "indexed": false,
          "internalType": "uint256",
          "name": "tokenId",
          "type": "uint256"
        },
        {
          "indexed": false,
          "internalType": "address",
          "name": "bidder",
          "type": "address"
        },
        {
          "indexed": false,
          "internalType": "uint256",
          "name": "bid",
          "type": "uint256"
        }
      ],
      "name": "BidPlaced",
      "type": "event"
    },
    {
      "anonymous": false,
      "inputs": [
        {
          "indexed": false,
          "internalType": "address",
          "name": "loyaltyToken",
          "type": "address"
        },
        {
          "indexed": false,
          "internalType": "address",
          "name": "paymentToken",
          "type": "address"
        },
        {
          "indexed": false,
          "internalType": "uint256",
          "name": "auctionTime",
          "type": "uint256"
        },
        {
          "indexed": false,
          "internalType": "uint256",
          "name": "unlockWithdrawalMaxTime",
          "type": "uint256"
        }
      ],
      "name": "Initialized",
      "type": "event"
    },
    {
      "anonymous": false,
      "inputs": [
        {
          "indexed": false,
          "internalType": "address",
          "name": "owner",
          "type": "address"
        }
      ],
      "name": "OwnerUpdated",
      "type": "event"
    },
    {
      "anonymous": false,
      "inputs": [
        {
          "indexed": false,
          "internalType": "address",
          "name": "account",
          "type": "address"
        }
      ],
      "name": "Paused",
      "type": "event"
    },
    {
      "anonymous": false,
      "inputs": [
        {
          "indexed": false,
          "internalType": "uint256",
          "name": "tokenId",
          "type": "uint256"
        },
        {
          "indexed": false,
          "internalType": "address",
          "name": "bidder",
          "type": "address"
        },
        {
          "indexed": false,
          "internalType": "uint256",
          "name": "bid",
          "type": "uint256"
        },
        {
          "indexed": false,
          "internalType": "uint256",
          "name": "deposit",
          "type": "uint256"
        },
        {
          "indexed": false,
          "internalType": "uint256",
          "name": "unlockWithdrawalAt",
          "type": "uint256"
        }
      ],
      "name": "TokenClaimed",
      "type": "event"
    },
    {
      "anonymous": false,
      "inputs": [
        {
          "indexed": false,
          "internalType": "address",
          "name": "account",
          "type": "address"
        }
      ],
      "name": "Unpaused",
      "type": "event"
    },
    {
      "inputs": [
        {
          "internalType": "uint256",
          "name": "tokenId",
          "type": "uint256"
        }
      ],
      "name": "claimToken",
      "outputs": [],
      "stateMutability": "nonpayable",
      "type": "function"
    },
    {
      "inputs": [
        {
          "internalType": "uint256",
          "name": "tokenId",
          "type": "uint256"
        }
      ],
      "name": "getAuction",
      "outputs": [
        {
          "components": [
            {
              "internalType": "address",
              "name": "topBidder",
              "type": "address"
            },
            {
              "internalType": "uint256",
              "name": "highestBid",
              "type": "uint256"
            },
            {
              "internalType": "uint256",
              "name": "requiredDeposit",
              "type": "uint256"
            },
            {
              "internalType": "uint256",
              "name": "endsAt",
              "type": "uint256"
            }
          ],
          "internalType": "struct MetaheroLoyaltyTokenAuction.Auction",
          "name": "",
          "type": "tuple"
        }
      ],
      "stateMutability": "view",
      "type": "function"
    },
    {
      "inputs": [],
      "name": "getOwner",
      "outputs": [
        {
          "internalType": "address",
          "name": "",
          "type": "address"
        }
      ],
      "stateMutability": "view",
      "type": "function"
    },
    {
      "inputs": [
        {
          "internalType": "address",
          "name": "loyaltyToken",
          "type": "address"
        },
        {
          "internalType": "address",
          "name": "paymentToken",
          "type": "address"
        },
        {
          "internalType": "uint256",
          "name": "auctionTime",
          "type": "uint256"
        },
        {
          "internalType": "uint256",
          "name": "unlockWithdrawalMaxTime",
          "type": "uint256"
        },
        {
          "internalType": "uint256[]",
          "name": "initialAuctionsDeposits",
          "type": "uint256[]"
        },
        {
          "internalType": "uint256[]",
          "name": "initialAuctionsWeights",
          "type": "uint256[]"
        }
      ],
      "name": "initialize",
      "outputs": [],
      "stateMutability": "nonpayable",
      "type": "function"
    },
    {
      "inputs": [],
      "name": "initialized",
      "outputs": [
        {
          "internalType": "bool",
          "name": "",
          "type": "bool"
        }
      ],
      "stateMutability": "view",
      "type": "function"
    },
    {
      "inputs": [],
      "name": "paused",
      "outputs": [
        {
          "internalType": "bool",
          "name": "",
          "type": "bool"
        }
      ],
      "stateMutability": "view",
      "type": "function"
    },
    {
      "inputs": [
        {
          "internalType": "uint256",
          "name": "tokenId",
          "type": "uint256"
        },
        {
          "internalType": "uint256",
          "name": "bid",
          "type": "uint256"
        }
      ],
      "name": "placeBid",
      "outputs": [],
      "stateMutability": "nonpayable",
      "type": "function"
    },
    {
      "inputs": [
        {
          "internalType": "address",
          "name": "owner",
          "type": "address"
        }
      ],
      "name": "setOwner",
      "outputs": [],
      "stateMutability": "nonpayable",
      "type": "function"
    },
    {
      "inputs": [],
      "name": "togglePaused",
      "outputs": [],
      "stateMutability": "nonpayable",
      "type": "function"
    }
  ],
  "transactionHash": "0x583a593db11a3274adfbc7c1926c3d7bfefb46716f189408aad700c13d2046c3",
  "args": [],
  "numDeployments": 1,
  "solcInputHash": "2d532362db83d3ab9bf117d21ceb4b27",
  "bytecode": "0x608060405234801561001057600080fd5b50600080546001600160a01b031916339081179091556001805460ff60a01b199092166001600160a81b0319909216919091179055610eec806100546000396000f3fe608060405234801561001057600080fd5b50600436106100835760003560e01c80630d25abf41461008857806313af40351461009d578063158ef93e146100b057806336566f06146100d357806357c90de5146100db5780635c975abb146100ee57806378bd7935146100f6578063893d20e814610145578063a9e7c2e51461015e575b600080fd5b61009b610096366004610d3f565b610171565b005b61009b6100ab366004610de3565b6103c7565b6001546001600160a01b0316155b60405190151581526020015b60405180910390f35b61009b61046f565b61009b6100e9366004610e05565b6104b9565b6100be6108e2565b610109610104366004610e27565b6108f2565b6040516100ca919081516001600160a01b0316815260208083015190820152604080830151908201526060918201519181019190915260800190565b6000546001600160a01b03166040516100ca9190610e40565b61009b61016c366004610e27565b610974565b6001546001600160a01b03166101995760405162dc149f60e41b815260040160405180910390fd5b6001546001600160a01b031633146101c45760405163bc40aee160e01b815260040160405180910390fd5b600180546001600160a01b03191690556001600160a01b0388166101fb576040516303a5f09160e21b815260040160405180910390fd5b6001600160a01b0387166102225760405163b352a63160e01b815260040160405180910390fd5b8561024057604051637c6cd46d60e01b815260040160405180910390fd5b600280546001600160a01b038a81166001600160a01b0319928316811790935560038054918b16919092168117909155600488905560058790556040805192835260208301919091528101879052606081018690527f80a4f91a1411c5f4e795a325f8a70cfa7b44e183d7210a793e00a248056638819060800160405180910390a1828160005b828110156103ba576001810160008888848181106102e7576102e7610e54565b90506020020135905060008160001415610314576040516388b6104f60e01b815260040160405180910390fd5b838511156103385787878581811061032e5761032e610e54565b9050602002013590505b806103405750805b60025460405163a44280b160e01b81526004810185905260248101849052604481018390526001600160a01b039091169063a44280b190606401600060405180830381600087803b15801561039457600080fd5b505af11580156103a8573d6000803e3d6000fd5b505050508360010193505050506102c7565b5050505050505050505050565b6000546001600160a01b031633146103f2576040516317f6584d60e31b815260040160405180910390fd5b6001600160a01b03811661041957604051630465f79960e41b815260040160405180910390fd5b600080546001600160a01b0319166001600160a01b0383161790556040517f4ffd725fc4a22075e9ec71c59edf9c38cdeb588a91b24fc5b61388c5be41282b90610464908390610e40565b60405180910390a150565b6000546001600160a01b0316331461049a576040516317f6584d60e31b815260040160405180910390fd5b6104a26108e2565b156104b1576104af610bbd565b565b6104af610c54565b6000828152600660205260409020600181015433919061066a576104db6108e2565b156104f85760405162fbc64760e41b815260040160405180910390fd5b600254604051632fb8db0560e21b8152600481018690526000916001600160a01b03169063bee36c149060240160206040518083038186803b15801561053d57600080fd5b505afa158015610551573d6000803e3d6000fd5b505050506040513d601f19601f820116820180604052508101906105759190610e6a565b905080610595576040516307145c5f60e11b815260040160405180910390fd5b808410156105b65760405163c6388ef760e01b815260040160405180910390fd5b6003546040516323b872dd60e01b81526001600160a01b03909116906323b872dd906105ea90869030908990600401610e83565b602060405180830381600087803b15801561060457600080fd5b505af1158015610618573d6000803e3d6000fd5b505050506040513d601f19601f8201168201806040525081019061063c9190610ea7565b50600282015580546001600160a01b0319166001600160a01b0383161781556004544201600382015561088c565b4281600301541161068e5760405163139c6bbb60e31b815260040160405180910390fd5b828160010154106106b25760405163c6388ef760e01b815260040160405180910390fd5b80546001600160a01b038381169116141561075d5760018101546003546040516323b872dd60e01b8152918503916001600160a01b03909116906323b872dd9061070490869030908690600401610e83565b602060405180830381600087803b15801561071e57600080fd5b505af1158015610732573d6000803e3d6000fd5b505050506040513d601f19601f820116820180604052508101906107569190610ea7565b505061088c565b6003548154600183015460405163a9059cbb60e01b81526001600160a01b039283166004820152602481019190915291169063a9059cbb90604401602060405180830381600087803b1580156107b257600080fd5b505af11580156107c6573d6000803e3d6000fd5b505050506040513d601f19601f820116820180604052508101906107ea9190610ea7565b506003546040516323b872dd60e01b81526001600160a01b03909116906323b872dd9061081f90859030908890600401610e83565b602060405180830381600087803b15801561083957600080fd5b505af115801561084d573d6000803e3d6000fd5b505050506040513d601f19601f820116820180604052508101906108719190610ea7565b5080546001600160a01b0319166001600160a01b0383161781555b60018101839055604080518581526001600160a01b03841660208201529081018490527f0e54eff26401bf69b81b26f60bd85ef47f5d85275c1d268d84f68d6897431c479060600160405180910390a150505050565b600154600160a01b900460ff1690565b610926604051806080016040528060006001600160a01b031681526020016000815260200160008152602001600081525090565b50600090815260066020908152604091829020825160808101845281546001600160a01b03168152600182015492810192909252600281015492820192909252600390910154606082015290565b600081815260066020908152604091829020825160808101845281546001600160a01b031681526001820154928101929092526002810154928201839052600301546060820152906109d9576040516307145c5f60e11b815260040160405180910390fd5b42816060015111156109fe57604051639bbb1f3b60e01b815260040160405180910390fd5b8051602082015160408301514281830382811015610a335782600554820281610a2957610a29610ec9565b0460055403820191505b5060035460025460405163a9059cbb60e01b81526001600160a01b0391821660048201526024810186905291169063a9059cbb90604401602060405180830381600087803b158015610a8457600080fd5b505af1158015610a98573d6000803e3d6000fd5b505050506040513d601f19601f82011682018060405250810190610abc9190610ea7565b50600254604051633a6b24cb60e21b81526001600160a01b03868116600483015260248201899052604482018490529091169063e9ac932c90606401600060405180830381600087803b158015610b1257600080fd5b505af1158015610b26573d6000803e3d6000fd5b505050600087815260066020908152604080832080546001600160a01b031916815560018101849055600281018490556003019290925581518981526001600160a01b0388169181019190915290810185905260608101849052608081018390527f084415f1fab530dd6855629635b7fecbf2c4ef5e03a26d9f06e1c1caed75143b915060a00160405180910390a1505050505050565b610bc56108e2565b610c0d5760405162461bcd60e51b815260206004820152601460248201527314185d5cd8589b194e881b9bdd081c185d5cd95960621b60448201526064015b60405180910390fd5b6001805460ff60a01b191690557f5db9ee0a495bf2e6ff9c91a7834c1ba4fdd244a5e8aa4e537bd38aeae4b073aa335b604051610c4a9190610e40565b60405180910390a1565b610c5c6108e2565b15610c9c5760405162461bcd60e51b815260206004820152601060248201526f14185d5cd8589b194e881c185d5cd95960821b6044820152606401610c04565b6001805460ff60a01b1916600160a01b1790557f62e78cea01bee320cd4e420270b5ea74000d11b0c9f74754ebdbfc544b05a258610c3d3390565b80356001600160a01b0381168114610cee57600080fd5b919050565b60008083601f840112610d0557600080fd5b50813567ffffffffffffffff811115610d1d57600080fd5b6020830191508360208260051b8501011115610d3857600080fd5b9250929050565b60008060008060008060008060c0898b031215610d5b57600080fd5b610d6489610cd7565b9750610d7260208a01610cd7565b96506040890135955060608901359450608089013567ffffffffffffffff80821115610d9d57600080fd5b610da98c838d01610cf3565b909650945060a08b0135915080821115610dc257600080fd5b50610dcf8b828c01610cf3565b999c989b5096995094979396929594505050565b600060208284031215610df557600080fd5b610dfe82610cd7565b9392505050565b60008060408385031215610e1857600080fd5b50508035926020909101359150565b600060208284031215610e3957600080fd5b5035919050565b6001600160a01b0391909116815260200190565b634e487b7160e01b600052603260045260246000fd5b600060208284031215610e7c57600080fd5b5051919050565b6001600160a01b039384168152919092166020820152604081019190915260600190565b600060208284031215610eb957600080fd5b81518015158114610dfe57600080fd5b634e487b7160e01b600052601260045260246000fdfea164736f6c6343000809000a",
  "devdoc": {
    "author": "Stanisaw Gogowski <stan@metahero.io>",
    "kind": "dev",
    "methods": {
      "paused()": {
        "details": "Returns true if the contract is paused, and false otherwise."
      }
    },
    "title": "Metahero Loyalty Token (auction manager)",
    "version": 1
  },
  "userdoc": {
    "kind": "user",
    "methods": {},
    "version": 1
  },
  "storageLayout": {
    "storage": [
      {
        "astId": 3,
        "contract": "src/MetaheroLoyaltyTokenAuction.sol:MetaheroLoyaltyTokenAuction",
        "label": "_owner",
        "offset": 0,
        "slot": "0",
        "type": "t_address"
      },
      {
        "astId": 73,
        "contract": "src/MetaheroLoyaltyTokenAuction.sol:MetaheroLoyaltyTokenAuction",
        "label": "_deployer",
        "offset": 0,
        "slot": "1",
        "type": "t_address"
      },
      {
        "astId": 149,
        "contract": "src/MetaheroLoyaltyTokenAuction.sol:MetaheroLoyaltyTokenAuction",
        "label": "_paused",
        "offset": 20,
        "slot": "1",
        "type": "t_bool"
      },
      {
        "astId": 4432,
        "contract": "src/MetaheroLoyaltyTokenAuction.sol:MetaheroLoyaltyTokenAuction",
        "label": "_loyaltyToken",
        "offset": 0,
        "slot": "2",
        "type": "t_contract(MetaheroLoyaltyToken)4406"
      },
      {
        "astId": 4435,
        "contract": "src/MetaheroLoyaltyTokenAuction.sol:MetaheroLoyaltyTokenAuction",
        "label": "_paymentToken",
        "offset": 0,
        "slot": "3",
        "type": "t_contract(IERC20)887"
      },
      {
        "astId": 4437,
        "contract": "src/MetaheroLoyaltyTokenAuction.sol:MetaheroLoyaltyTokenAuction",
        "label": "_auctionTime",
        "offset": 0,
        "slot": "4",
        "type": "t_uint256"
      },
      {
        "astId": 4439,
        "contract": "src/MetaheroLoyaltyTokenAuction.sol:MetaheroLoyaltyTokenAuction",
        "label": "_unlockWithdrawalMaxTime",
        "offset": 0,
        "slot": "5",
        "type": "t_uint256"
      },
      {
        "astId": 4494,
        "contract": "src/MetaheroLoyaltyTokenAuction.sol:MetaheroLoyaltyTokenAuction",
        "label": "_auctions",
        "offset": 0,
        "slot": "6",
        "type": "t_mapping(t_uint256,t_struct(Auction)4429_storage)"
      }
    ],
    "types": {
      "t_address": {
        "encoding": "inplace",
        "label": "address",
        "numberOfBytes": "20"
      },
      "t_bool": {
        "encoding": "inplace",
        "label": "bool",
        "numberOfBytes": "1"
      },
      "t_contract(IERC20)887": {
        "encoding": "inplace",
        "label": "contract IERC20",
        "numberOfBytes": "20"
      },
      "t_contract(MetaheroLoyaltyToken)4406": {
        "encoding": "inplace",
        "label": "contract MetaheroLoyaltyToken",
        "numberOfBytes": "20"
      },
      "t_mapping(t_uint256,t_struct(Auction)4429_storage)": {
        "encoding": "mapping",
        "key": "t_uint256",
        "label": "mapping(uint256 => struct MetaheroLoyaltyTokenAuction.Auction)",
        "numberOfBytes": "32",
        "value": "t_struct(Auction)4429_storage"
      },
      "t_struct(Auction)4429_storage": {
        "encoding": "inplace",
        "label": "struct MetaheroLoyaltyTokenAuction.Auction",
        "members": [
          {
            "astId": 4422,
            "contract": "src/MetaheroLoyaltyTokenAuction.sol:MetaheroLoyaltyTokenAuction",
            "label": "topBidder",
            "offset": 0,
            "slot": "0",
            "type": "t_address"
          },
          {
            "astId": 4424,
            "contract": "src/MetaheroLoyaltyTokenAuction.sol:MetaheroLoyaltyTokenAuction",
            "label": "highestBid",
            "offset": 0,
            "slot": "1",
            "type": "t_uint256"
          },
          {
            "astId": 4426,
            "contract": "src/MetaheroLoyaltyTokenAuction.sol:MetaheroLoyaltyTokenAuction",
            "label": "requiredDeposit",
            "offset": 0,
            "slot": "2",
            "type": "t_uint256"
          },
          {
            "astId": 4428,
            "contract": "src/MetaheroLoyaltyTokenAuction.sol:MetaheroLoyaltyTokenAuction",
            "label": "endsAt",
            "offset": 0,
            "slot": "3",
            "type": "t_uint256"
          }
        ],
        "numberOfBytes": "128"
      },
      "t_uint256": {
        "encoding": "inplace",
        "label": "uint256",
        "numberOfBytes": "32"
      }
    }
  }
}